{
  "_format": "hh-sol-artifact-1",
  "contractName": "PlonkVerifier",
  "sourceName": "contracts/sriWorkgroup/workstep3Verifier.sol",
  "abi": [
    {
      "inputs": [
        {
          "internalType": "uint256[24]",
          "name": "_proof",
          "type": "uint256[24]"
        },
        {
          "internalType": "uint256[1]",
          "name": "_pubSignals",
          "type": "uint256[1]"
        }
      ],
      "name": "verifyProof",
      "outputs": [
        {
          "internalType": "bool",
          "name": "",
          "type": "bool"
        }
      ],
      "stateMutability": "view",
      "type": "function"
    }
  ],
  "bytecode": "0x608060405234801561001057600080fd5b50611c82806100206000396000f3fe608060405234801561001057600080fd5b506004361061002b5760003560e01c8063ff7240a714610030575b600080fd5b61004a60048036038101906100459190611bd4565b610060565b6040516100579190611c31565b60405180910390f35b6000611b17565b600080600184846000805b821561009c5782840591508482028603905084955080945082820284039050829350809250610072565b60018411156100aa57600080fd5b60008612156100b95788860195505b85965050505050505092915050565b60405181602084028301815160208301925060005b82841015610120578185527f30644e72e131a029b85045b68181585d2833e84879b9709143e1f593f00000018451830991506020850194506020840193506100dd565b61014a7f30644e72e131a029b85045b68181585d2833e84879b9709143e1f593f000000183610067565b91506020850394506020840393508592505b828411156101c6577f30644e72e131a029b85045b68181585d2833e84879b9709143e1f593f00000018551830990507f30644e72e131a029b85045b68181585d2833e84879b9709143e1f593f000000184518309915080845260208503945060208403935061015c565b81845250505050505050565b7f30644e72e131a029b85045b68181585d2833e84879b9709143e1f593f00000018110610203576000805260206000f35b50565b610212610244356101d2565b61021e610264356101d2565b61022a610284356101d2565b6102366102a4356101d2565b6102426102c4356101d2565b61024e6102e4356101d2565b565b6000806040517f13f75f7639b17b60c5dc1561ca51e09122443b14fd9b5198a3200cb73c405e7481527f24b75923ef66b5a38313240bf8701e5289f37ff6e54a5d9696c571cd0d7a6f7b60208201527f0f0d5954bc5550bb6b8a63158299441a292523e20998bd2eeaf6817b9cf7489160408201527f073ad9ca0a63bf57aab7471be06714e14cb129b3bc1957fb205f02a2dff2014460608201527f2becb27157d1ea8e65712e5a9d3b836536cc95f8ffbe2a9a66259a05b94d8c4160808201527f0ce90799f564b37f9a7c19587ad4234c46f6afad9f4b1fb9277bed47dd9b6a1160a08201527f2fe2b7a5e3301ec2548b1b9fa04dafe8bdb129027d89d2fda93c32b2ac1d615360c08201527f24d590624aa64d73288cef9c5c68ddfbc43c288bfec0ea23a65e3d519deb4b4560e08201527f0bbacffc38b7a2d2938e833aa0b1beb2ebe94796ee3eeeaa8cde99e34b70274e6101008201527f2ad72eb4319e5ce1f126c3ee2fb7b07fcacc472b06034bc9b7b00fa5c6db3dd16101208201527f1ddf2ac14509d3ed88c5114e806890a074e2a3cf08bd6b406cd4e0c1256d6a5a6101408201527f14ce1f304c015a19fe72ccdd0c7b1aaae908e4faa13142d0d8d108e2efa497fd6101608201527f0dc88371d3444a7bbc4f3cb292e69421c549c10b86e8982b67d074006094fe086101808201527e701c2a27f6e67a591f1ca598c17621b64ad8830430232895ca68fe3dc5854d6101a08201527f2281748b89dcd5aeaee8e7b5573d600632e8b7d13619eca441e770f4862711ff6101c08201527f244c5fc4bd854ee2b3c1b620e013383a9e6daca6c0bab14aecd7101aba922cb66101e082015260008501356102008201526004356102208201526020600401356102408201526044356102608201526020604401356102808201526084356102a08201526020608401356102c08201527f30644e72e131a029b85045b68181585d2833e84879b9709143e1f593f00000016102e082200692508260208501527f30644e72e131a029b85045b68181585d2833e84879b9709143e1f593f0000001602080860120066040850152602084015181526040840151602082015260c4356040820152602060c4013560608201527f30644e72e131a029b85045b68181585d2833e84879b9709143e1f593f0000001608082200691508160008501527f30644e72e131a029b85045b68181585d2833e84879b9709143e1f593f00000018283096102c08501528181526101043560208201526020610104013560408201526101443560608201526020610144013560808201526101843560a08201526020610184013560c08201527f30644e72e131a029b85045b68181585d2833e84879b9709143e1f593f000000160e082200691508160608501528181526102443560208201526102643560408201526102843560608201526102a43560808201526102c43560a08201526102e43560c08201527f30644e72e131a029b85045b68181585d2833e84879b9709143e1f593f000000160e08220068060c08601527f30644e72e131a029b85045b68181585d2833e84879b9709143e1f593f000000183850960a08601527f30644e72e131a029b85045b68181585d2833e84879b9709143e1f593f000000183840992507f30644e72e131a029b85045b68181585d2833e84879b9709143e1f593f000000183840992507f30644e72e131a029b85045b68181585d2833e84879b9709143e1f593f000000183840992507f30644e72e131a029b85045b68181585d2833e84879b9709143e1f593f000000183840992507f30644e72e131a029b85045b68181585d2833e84879b9709143e1f593f000000183840992507f30644e72e131a029b85045b68181585d2833e84879b9709143e1f593f000000183840992507f30644e72e131a029b85045b68181585d2833e84879b9709143e1f593f000000183840992507f30644e72e131a029b85045b68181585d2833e84879b9709143e1f593f000000183840992507f30644e72e131a029b85045b68181585d2833e84879b9709143e1f593f000000183840992507f30644e72e131a029b85045b68181585d2833e84879b9709143e1f593f000000183840992507f30644e72e131a029b85045b68181585d2833e84879b9709143e1f593f000000183840992507f30644e72e131a029b85045b68181585d2833e84879b9709143e1f593f000000183840992507f30644e72e131a029b85045b68181585d2833e84879b9709143e1f593f000000183840992507f30644e72e131a029b85045b68181585d2833e84879b9709143e1f593f000000183840992507f30644e72e131a029b85045b68181585d2833e84879b9709143e1f593f000000183840992508260808601527f30644e72e131a029b85045b68181585d2833e84879b9709143e1f593f0000001806001850301069250826102e0860152826103008601527f30644e72e131a029b85045b68181585d2833e84879b9709143e1f593f000000181820992508260e08601527f30644e72e131a029b85045b68181585d2833e84879b9709143e1f593f00000018184099250826101008601527f30644e72e131a029b85045b68181585d2833e84879b9709143e1f593f00000018184099250826101208601527f30644e72e131a029b85045b68181585d2833e84879b9709143e1f593f00000018184099250826101408601526101c435825260206101c4013560208301526102043560408301526020610204013560608301527f30644e72e131a029b85045b68181585d2833e84879b9709143e1f593f00000016080832006610160860152505050505050565b60017f30644e72e131a029b85045b68181585d2833e84879b9709143e1f593f0000001807f30644e72e131a029b85045b68181585d2833e84879b9709143e1f593f000000183606086015103010661800009610320830152610ac7600261030084016100c8565b6102e0820151600191507f30644e72e131a029b85045b68181585d2833e84879b9709143e1f593f00000018161032085015109610320840152505050565b60007f30644e72e131a029b85045b68181585d2833e84879b9709143e1f593f0000001807f30644e72e131a029b85045b68181585d2833e84879b9709143e1f593f000000160008601356103208601510983030106905080610180830152505050565b6101808101517f30644e72e131a029b85045b68181585d2833e84879b9709143e1f593f00000016102c0830151610320840151097f30644e72e131a029b85045b68181585d2833e84879b9709143e1f593f0000001806102a43560208601510961024435087f30644e72e131a029b85045b68181585d2833e84879b9709143e1f593f00000016040850151820890507f30644e72e131a029b85045b68181585d2833e84879b9709143e1f593f0000001806102c43560208701510961026435087f30644e72e131a029b85045b68181585d2833e84879b9709143e1f593f00000016040860151820890507f30644e72e131a029b85045b68181585d2833e84879b9709143e1f593f0000001604086015161028435087f30644e72e131a029b85045b68181585d2833e84879b9709143e1f593f0000001817f30644e72e131a029b85045b68181585d2833e84879b9709143e1f593f0000001848609097f30644e72e131a029b85045b68181585d2833e84879b9709143e1f593f00000016102e435820990507f30644e72e131a029b85045b68181585d2833e84879b9709143e1f593f00000016000880151820990507f30644e72e131a029b85045b68181585d2833e84879b9709143e1f593f000000180867f30644e72e131a029b85045b68181585d2833e84879b9709143e1f593f0000001030687087f30644e72e131a029b85045b68181585d2833e84879b9709143e1f593f000000180837f30644e72e131a029b85045b68181585d2833e84879b9709143e1f593f0000001030682089050806101a08901525050505050505050565b81518152602082015160208201525050565b818152826020820152505050565b81358152602082013560208201525050565b6040518151815260208201516020820152825160408201526020830151606082015260408260808360066107d05a03fa80610e2b576000805260206000f35b50505050565b600060405183815284602082015285604082015260408160608360076107d05a03fa915081610e64576000805260206000f35b825160408201526020830151606082015260408360808360066107d05a03fa915081610e94576000805260206000f35b505050505050565b600060405183815284602082015285604082015260408360608360076107d05a03fa915081610ecf576000805260206000f35b505050505050565b610ee8836020840151845184610e9c565b505050565b6101c0810160408201516040516101008101604052610f4d7f2ad72eb4319e5ce1f126c3ee2fb7b07fcacc472b06034bc9b7b00fa5c6db3dd17f0bbacffc38b7a2d2938e833aa0b1beb2ebe94796ee3eeeaa8cde99e34b70274e85610dcc565b610fc27f30644e72e131a029b85045b68181585d2833e84879b9709143e1f593f00000016102643561024435097f24b75923ef66b5a38313240bf8701e5289f37ff6e54a5d9696c571cd0d7a6f7b7f13f75f7639b17b60c5dc1561ca51e09122443b14fd9b5198a3200cb73c405e7486610e31565b611011610244357f073ad9ca0a63bf57aab7471be06714e14cb129b3bc1957fb205f02a2dff201447f0f0d5954bc5550bb6b8a63158299441a292523e20998bd2eeaf6817b9cf7489186610e31565b611060610264357f0ce90799f564b37f9a7c19587ad4234c46f6afad9f4b1fb9277bed47dd9b6a117f2becb27157d1ea8e65712e5a9d3b836536cc95f8ffbe2a9a66259a05b94d8c4186610e31565b6110af610284357f24d590624aa64d73288cef9c5c68ddfbc43c288bfec0ea23a65e3d519deb4b457f2fe2b7a5e3301ec2548b1b9fa04dafe8bdb129027d89d2fda93c32b2ac1d615386610e31565b60a08401517f30644e72e131a029b85045b68181585d2833e84879b9709143e1f593f0000001837f30644e72e131a029b85045b68181585d2833e84879b9709143e1f593f0000001836102443508087f30644e72e131a029b85045b68181585d2833e84879b9709143e1f593f0000001847f30644e72e131a029b85045b68181585d2833e84879b9709143e1f593f000000180600286096102643508087f30644e72e131a029b85045b68181585d2833e84879b9709143e1f593f0000001857f30644e72e131a029b85045b68181585d2833e84879b9709143e1f593f000000180600387096102843508087f30644e72e131a029b85045b68181585d2833e84879b9709143e1f593f000000160008901517f30644e72e131a029b85045b68181585d2833e84879b9709143e1f593f0000001837f30644e72e131a029b85045b68181585d2833e84879b9709143e1f593f000000186880909097f30644e72e131a029b85045b68181585d2833e84879b9709143e1f593f00000016102c08a01516103208b01510961124460c460c08901610dda565b61129d7f30644e72e131a029b85045b68181585d2833e84879b9709143e1f593f00000016101608c01517f30644e72e131a029b85045b68181585d2833e84879b9709143e1f593f00000018486080860c0890189610ed7565b7f30644e72e131a029b85045b68181585d2833e84879b9709143e1f593f0000001887f30644e72e131a029b85045b68181585d2833e84879b9709143e1f593f0000001806102a43560208f01510961024435080894507f30644e72e131a029b85045b68181585d2833e84879b9709143e1f593f0000001887f30644e72e131a029b85045b68181585d2833e84879b9709143e1f593f0000001806102c43560208f01510961026435080893507f30644e72e131a029b85045b68181585d2833e84879b9709143e1f593f00000016102e4357f30644e72e131a029b85045b68181585d2833e84879b9709143e1f593f000000160208d015160008e0151090992506114327f30644e72e131a029b85045b68181585d2833e84879b9709143e1f593f0000001847f30644e72e131a029b85045b68181585d2833e84879b9709143e1f593f0000001878909097f244c5fc4bd854ee2b3c1b620e013383a9e6daca6c0bab14aecd7101aba922cb67f2281748b89dcd5aeaee8e7b5573d600632e8b7d13619eca441e770f4862711ff60408b01610e9c565b61144161010460808901610dda565b61145d60808b0151602061014401356101443560808b01610e31565b7f30644e72e131a029b85045b68181585d2833e84879b9709143e1f593f000000160808b015160808c0151096114a181602061018401356101843560808c01610e31565b6114bd6102e08c015160a08a015160808b015160808c01610e9c565b7f30644e72e131a029b85045b68181585d97816a916871ca8d3c208c16d87cfd47602060408a0101517f30644e72e131a029b85045b68181585d97816a916871ca8d3c208c16d87cfd470306602060408a0101527f30644e72e131a029b85045b68181585d97816a916871ca8d3c208c16d87cfd4760a08901517f30644e72e131a029b85045b68181585d97816a916871ca8d3c208c16d87cfd47030660a0890152611569888b610dec565b611576604089018b610dec565b611583608089018b610dec565b5050505050505050505050565b61020081016115a36101c0830182610dba565b6115ba60c083015160206004013560043584610e31565b6115d160e083015160206044013560443584610e31565b6115e961010083015160206084013560843584610e31565b61163a6101208301517f14ce1f304c015a19fe72ccdd0c7b1aaae908e4faa13142d0d8d108e2efa497fd7f1ddf2ac14509d3ed88c5114e806890a074e2a3cf08bd6b406cd4e0c1256d6a5a84610e31565b61168a6101408301517e701c2a27f6e67a591f1ca598c17621b64ad8830430232895ca68fe3dc5854d7f0dc88371d3444a7bbc4f3cb292e69421c549c10b86e8982b67d074006094fe0884610e31565b5050565b7f30644e72e131a029b85045b68181585d2833e84879b9709143e1f593f00000016101a08201517f30644e72e131a029b85045b68181585d2833e84879b9709143e1f593f000000103067f30644e72e131a029b85045b68181585d2833e84879b9709143e1f593f00000018060c08401516102443509820890507f30644e72e131a029b85045b68181585d2833e84879b9709143e1f593f00000018060e08401516102643509820890507f30644e72e131a029b85045b68181585d2833e84879b9709143e1f593f0000001806101008401516102843509820890507f30644e72e131a029b85045b68181585d2833e84879b9709143e1f593f0000001806101208401516102a43509820890507f30644e72e131a029b85045b68181585d2833e84879b9709143e1f593f0000001806101408401516102c43509820890507f30644e72e131a029b85045b68181585d2833e84879b9709143e1f593f0000001806101608401516102e435098208905061180e81600260016102408601610e9c565b5050565b6000604051610240810160405261018081016101c08201610200830161183a6101c484610dda565b61184661020483610dda565b6118566101608701518386610ed7565b6118608385610dec565b7f30644e72e131a029b85045b68181585d97816a916871ca8d3c208c16d87cfd4760208501517f30644e72e131a029b85045b68181585d97816a916871ca8d3c208c16d87cfd47030660208501527f1e3b651c96c337f8f6266fadcef22dc97717b5d44b445a5ef799a6cd3cc564a060408501527f10b13ed45e1871ff867a120754de5bf5c1395ad0078891e1b81f284ef6df78ca60608501527f2b57d40b181c33d7331accce5e5b890345b051c33f74e24ab728b18a3f7b473e60808501527f241a20e6fc3bc59485fa2e92365b46bf48742e8fac0b18859306488928cdcf0860a085015261195860608701518460c08701610ed7565b7f30644e72e131a029b85045b68181585d2833e84879b9709143e1f593f00000016060870151610160880151097f30644e72e131a029b85045b68181585d2833e84879b9709143e1f593f00000017f2d1ba66f5941dc91017171fa69ec2bd0022a2a2d4115a009a93458fd4e26ecfb820990506119d6818484610ed7565b6119e38260c08701610dec565b6119f4610200880160c08701610dec565b7f30644e72e131a029b85045b68181585d97816a916871ca8d3c208c16d87cfd476020610240018801517f30644e72e131a029b85045b68181585d97816a916871ca8d3c208c16d87cfd470306602061024001880152611a5b610240880160c08701610dec565b7f198e9393920d483a7260bfb731fb5d25f1aa493335a9e71297e485b7aef312c26101008601527f1800deef121f1e76426a00665e5c4479674322d4f75edadd46debd5cd992f6ed6101208601527f090689d0585ff075ec9e99ad690c3395bc4b313370b38ef355acdadcd122975b6101408601527f12c85ea5db8c6deb4aab71808dcb408fe3d1e7690c43d37b4ce6cc0166fa7daa6101608601526020856101808760086107d05a03fa855181169650505050505050919050565b6040516103408101604052611b2a610206565b611b348382610250565b611b3d81610a60565b611b478382610b05565b611b5081610b68565b611b5981610eed565b611b6281611590565b611b6b8161168e565b611b7481611812565b61034082036040528060005260206000f35b600080fd5b600080fd5b600081905082602060180282011115611bac57611bab611b8b565b5b92915050565b600081905082602060010282011115611bce57611bcd611b8b565b5b92915050565b6000806103208385031215611bec57611beb611b86565b5b6000611bfa85828601611b90565b925050610300611c0c85828601611bb2565b9150509250929050565b60008115159050919050565b611c2b81611c16565b82525050565b6000602082019050611c466000830184611c22565b9291505056fea26469706673582212205d0b9c459787c732c7a43603a7ddf9363e363f8370c8832b745203fa3379d4d964736f6c63430008180033",
  "linkReferences": {},
  "deployedLinkReferences": {}
}