{
  "_format": "hh-sol-artifact-1",
  "contractName": "Workstep1Verifier",
  "sourceName": "contracts/sriWorkgroup/workstep1Verifier.sol",
  "abi": [
    {
      "inputs": [
        {
          "internalType": "uint256[24]",
          "name": "_proof",
          "type": "uint256[24]"
        },
        {
          "internalType": "uint256[1]",
          "name": "_pubSignals",
          "type": "uint256[1]"
        }
      ],
      "name": "verifyProof",
      "outputs": [
        {
          "internalType": "bool",
          "name": "",
          "type": "bool"
        }
      ],
      "stateMutability": "view",
      "type": "function"
    }
  ],
  "bytecode": "0x608060405234801561001057600080fd5b50611c84806100206000396000f3fe608060405234801561001057600080fd5b506004361061002b5760003560e01c8063ff7240a714610030575b600080fd5b61004a60048036038101906100459190611bd6565b610060565b6040516100579190611c33565b60405180910390f35b6000611b19565b600080600184846000805b821561009c5782840591508482028603905084955080945082820284039050829350809250610072565b60018411156100aa57600080fd5b60008612156100b95788860195505b85965050505050505092915050565b60405181602084028301815160208301925060005b82841015610120578185527f30644e72e131a029b85045b68181585d2833e84879b9709143e1f593f00000018451830991506020850194506020840193506100dd565b61014a7f30644e72e131a029b85045b68181585d2833e84879b9709143e1f593f000000183610067565b91506020850394506020840393508592505b828411156101c6577f30644e72e131a029b85045b68181585d2833e84879b9709143e1f593f00000018551830990507f30644e72e131a029b85045b68181585d2833e84879b9709143e1f593f000000184518309915080845260208503945060208403935061015c565b81845250505050505050565b7f30644e72e131a029b85045b68181585d2833e84879b9709143e1f593f00000018110610203576000805260206000f35b50565b610212610244356101d2565b61021e610264356101d2565b61022a610284356101d2565b6102366102a4356101d2565b6102426102c4356101d2565b61024e6102e4356101d2565b565b6000806040517f1689e43d6a0f29f2c00abcf49c803fa5c0ebbf4937b1ad668147399369a8fa7e81527f1d0d822b29a0910be348f05ad545cfca3c4a45984ec7b3c071978ca4e979b68660208201527f1410aa6f48b6cf3bf598c6dfa5cb01466519164bd833de0e7827db62d8cac07860408201527f29e79ad99d77a4ffcf4b8ab0e464b713c864049f2add12136968cff0864088eb60608201527f1f3ae2a7d2308c43976c572190b3779f177a653b623119177aec86a173733e0960808201527f145db25e5672a52146b54883489d4339ba16367240f7dd1dacb09e4daf1189d760a08201527f1d854ccab14984cad21ee83abc5688656d4978607ee46ce05c6e30e70438934c60c08201527f2ece7b42d73dbbda215415dad9da14a4e9f50453c2ea3c269d78f0c4f48b939260e08201527f0c1d9a27ace009b0748df47d8996964d4c5efe448f5689be7f89b1c9b54d1fd46101008201527f28dfa5635712fec932cb955efa78de7c3bb1d717ca47ac63d0028c25000ab9826101208201527f268d5e96726a4f0a0af926881dd088840f0b189fc0bac1c06378ca1342030d476101408201527f28a149d8479d0660ccf9119b862a6296efb8955f144f3a4c28218cbdc30c4a3e6101608201527f16d85b4ca470712c952db758ba22542a1494058886d0cf5bc1d6e2796d5d7a3a6101808201527f0e7776860985ee7b82e3ff3a29a0704c80cc4f49fd6a08562de1286b1a4147736101a08201527f12515de6655d8e300d5106f29f03a0e8d28d2c9c2cf842475e26a42f3eca1c376101c08201527f1a57e0730386d03ce171300fd06d8df31762d7652b64af847809b15539bf96476101e082015260008501356102008201526004356102208201526020600401356102408201526044356102608201526020604401356102808201526084356102a08201526020608401356102c08201527f30644e72e131a029b85045b68181585d2833e84879b9709143e1f593f00000016102e082200692508260208501527f30644e72e131a029b85045b68181585d2833e84879b9709143e1f593f0000001602080860120066040850152602084015181526040840151602082015260c4356040820152602060c4013560608201527f30644e72e131a029b85045b68181585d2833e84879b9709143e1f593f0000001608082200691508160008501527f30644e72e131a029b85045b68181585d2833e84879b9709143e1f593f00000018283096102c08501528181526101043560208201526020610104013560408201526101443560608201526020610144013560808201526101843560a08201526020610184013560c08201527f30644e72e131a029b85045b68181585d2833e84879b9709143e1f593f000000160e082200691508160608501528181526102443560208201526102643560408201526102843560608201526102a43560808201526102c43560a08201526102e43560c08201527f30644e72e131a029b85045b68181585d2833e84879b9709143e1f593f000000160e08220068060c08601527f30644e72e131a029b85045b68181585d2833e84879b9709143e1f593f000000183850960a08601527f30644e72e131a029b85045b68181585d2833e84879b9709143e1f593f000000183840992507f30644e72e131a029b85045b68181585d2833e84879b9709143e1f593f000000183840992507f30644e72e131a029b85045b68181585d2833e84879b9709143e1f593f000000183840992507f30644e72e131a029b85045b68181585d2833e84879b9709143e1f593f000000183840992507f30644e72e131a029b85045b68181585d2833e84879b9709143e1f593f000000183840992507f30644e72e131a029b85045b68181585d2833e84879b9709143e1f593f000000183840992507f30644e72e131a029b85045b68181585d2833e84879b9709143e1f593f000000183840992507f30644e72e131a029b85045b68181585d2833e84879b9709143e1f593f000000183840992507f30644e72e131a029b85045b68181585d2833e84879b9709143e1f593f000000183840992507f30644e72e131a029b85045b68181585d2833e84879b9709143e1f593f000000183840992507f30644e72e131a029b85045b68181585d2833e84879b9709143e1f593f000000183840992507f30644e72e131a029b85045b68181585d2833e84879b9709143e1f593f000000183840992507f30644e72e131a029b85045b68181585d2833e84879b9709143e1f593f000000183840992507f30644e72e131a029b85045b68181585d2833e84879b9709143e1f593f000000183840992507f30644e72e131a029b85045b68181585d2833e84879b9709143e1f593f000000183840992508260808601527f30644e72e131a029b85045b68181585d2833e84879b9709143e1f593f0000001806001850301069250826102e0860152826103008601527f30644e72e131a029b85045b68181585d2833e84879b9709143e1f593f000000181820992508260e08601527f30644e72e131a029b85045b68181585d2833e84879b9709143e1f593f00000018184099250826101008601527f30644e72e131a029b85045b68181585d2833e84879b9709143e1f593f00000018184099250826101208601527f30644e72e131a029b85045b68181585d2833e84879b9709143e1f593f00000018184099250826101408601526101c435825260206101c4013560208301526102043560408301526020610204013560608301527f30644e72e131a029b85045b68181585d2833e84879b9709143e1f593f00000016080832006610160860152505050505050565b60017f30644e72e131a029b85045b68181585d2833e84879b9709143e1f593f0000001807f30644e72e131a029b85045b68181585d2833e84879b9709143e1f593f000000183606086015103010661800009610320830152610ac8600261030084016100c8565b6102e0820151600191507f30644e72e131a029b85045b68181585d2833e84879b9709143e1f593f00000018161032085015109610320840152505050565b60007f30644e72e131a029b85045b68181585d2833e84879b9709143e1f593f0000001807f30644e72e131a029b85045b68181585d2833e84879b9709143e1f593f000000160008601356103208601510983030106905080610180830152505050565b6101808101517f30644e72e131a029b85045b68181585d2833e84879b9709143e1f593f00000016102c0830151610320840151097f30644e72e131a029b85045b68181585d2833e84879b9709143e1f593f0000001806102a43560208601510961024435087f30644e72e131a029b85045b68181585d2833e84879b9709143e1f593f00000016040850151820890507f30644e72e131a029b85045b68181585d2833e84879b9709143e1f593f0000001806102c43560208701510961026435087f30644e72e131a029b85045b68181585d2833e84879b9709143e1f593f00000016040860151820890507f30644e72e131a029b85045b68181585d2833e84879b9709143e1f593f0000001604086015161028435087f30644e72e131a029b85045b68181585d2833e84879b9709143e1f593f0000001817f30644e72e131a029b85045b68181585d2833e84879b9709143e1f593f0000001848609097f30644e72e131a029b85045b68181585d2833e84879b9709143e1f593f00000016102e435820990507f30644e72e131a029b85045b68181585d2833e84879b9709143e1f593f00000016000880151820990507f30644e72e131a029b85045b68181585d2833e84879b9709143e1f593f000000180867f30644e72e131a029b85045b68181585d2833e84879b9709143e1f593f0000001030687087f30644e72e131a029b85045b68181585d2833e84879b9709143e1f593f000000180837f30644e72e131a029b85045b68181585d2833e84879b9709143e1f593f0000001030682089050806101a08901525050505050505050565b81518152602082015160208201525050565b818152826020820152505050565b81358152602082013560208201525050565b6040518151815260208201516020820152825160408201526020830151606082015260408260808360066107d05a03fa80610e2c576000805260206000f35b50505050565b600060405183815284602082015285604082015260408160608360076107d05a03fa915081610e65576000805260206000f35b825160408201526020830151606082015260408360808360066107d05a03fa915081610e95576000805260206000f35b505050505050565b600060405183815284602082015285604082015260408360608360076107d05a03fa915081610ed0576000805260206000f35b505050505050565b610ee9836020840151845184610e9d565b505050565b6101c0810160408201516040516101008101604052610f4e7f28dfa5635712fec932cb955efa78de7c3bb1d717ca47ac63d0028c25000ab9827f0c1d9a27ace009b0748df47d8996964d4c5efe448f5689be7f89b1c9b54d1fd485610dcd565b610fc37f30644e72e131a029b85045b68181585d2833e84879b9709143e1f593f00000016102643561024435097f1d0d822b29a0910be348f05ad545cfca3c4a45984ec7b3c071978ca4e979b6867f1689e43d6a0f29f2c00abcf49c803fa5c0ebbf4937b1ad668147399369a8fa7e86610e32565b611012610244357f29e79ad99d77a4ffcf4b8ab0e464b713c864049f2add12136968cff0864088eb7f1410aa6f48b6cf3bf598c6dfa5cb01466519164bd833de0e7827db62d8cac07886610e32565b611061610264357f145db25e5672a52146b54883489d4339ba16367240f7dd1dacb09e4daf1189d77f1f3ae2a7d2308c43976c572190b3779f177a653b623119177aec86a173733e0986610e32565b6110b0610284357f2ece7b42d73dbbda215415dad9da14a4e9f50453c2ea3c269d78f0c4f48b93927f1d854ccab14984cad21ee83abc5688656d4978607ee46ce05c6e30e70438934c86610e32565b60a08401517f30644e72e131a029b85045b68181585d2833e84879b9709143e1f593f0000001837f30644e72e131a029b85045b68181585d2833e84879b9709143e1f593f0000001836102443508087f30644e72e131a029b85045b68181585d2833e84879b9709143e1f593f0000001847f30644e72e131a029b85045b68181585d2833e84879b9709143e1f593f000000180600286096102643508087f30644e72e131a029b85045b68181585d2833e84879b9709143e1f593f0000001857f30644e72e131a029b85045b68181585d2833e84879b9709143e1f593f000000180600387096102843508087f30644e72e131a029b85045b68181585d2833e84879b9709143e1f593f000000160008901517f30644e72e131a029b85045b68181585d2833e84879b9709143e1f593f0000001837f30644e72e131a029b85045b68181585d2833e84879b9709143e1f593f000000186880909097f30644e72e131a029b85045b68181585d2833e84879b9709143e1f593f00000016102c08a01516103208b01510961124560c460c08901610ddb565b61129e7f30644e72e131a029b85045b68181585d2833e84879b9709143e1f593f00000016101608c01517f30644e72e131a029b85045b68181585d2833e84879b9709143e1f593f00000018486080860c0890189610ed8565b7f30644e72e131a029b85045b68181585d2833e84879b9709143e1f593f0000001887f30644e72e131a029b85045b68181585d2833e84879b9709143e1f593f0000001806102a43560208f01510961024435080894507f30644e72e131a029b85045b68181585d2833e84879b9709143e1f593f0000001887f30644e72e131a029b85045b68181585d2833e84879b9709143e1f593f0000001806102c43560208f01510961026435080893507f30644e72e131a029b85045b68181585d2833e84879b9709143e1f593f00000016102e4357f30644e72e131a029b85045b68181585d2833e84879b9709143e1f593f000000160208d015160008e0151090992506114337f30644e72e131a029b85045b68181585d2833e84879b9709143e1f593f0000001847f30644e72e131a029b85045b68181585d2833e84879b9709143e1f593f0000001878909097f1a57e0730386d03ce171300fd06d8df31762d7652b64af847809b15539bf96477f12515de6655d8e300d5106f29f03a0e8d28d2c9c2cf842475e26a42f3eca1c3760408b01610e9d565b61144261010460808901610ddb565b61145e60808b0151602061014401356101443560808b01610e32565b7f30644e72e131a029b85045b68181585d2833e84879b9709143e1f593f000000160808b015160808c0151096114a281602061018401356101843560808c01610e32565b6114be6102e08c015160a08a015160808b015160808c01610e9d565b7f30644e72e131a029b85045b68181585d97816a916871ca8d3c208c16d87cfd47602060408a0101517f30644e72e131a029b85045b68181585d97816a916871ca8d3c208c16d87cfd470306602060408a0101527f30644e72e131a029b85045b68181585d97816a916871ca8d3c208c16d87cfd4760a08901517f30644e72e131a029b85045b68181585d97816a916871ca8d3c208c16d87cfd47030660a089015261156a888b610ded565b611577604089018b610ded565b611584608089018b610ded565b5050505050505050505050565b61020081016115a46101c0830182610dbb565b6115bb60c083015160206004013560043584610e32565b6115d260e083015160206044013560443584610e32565b6115ea61010083015160206084013560843584610e32565b61163b6101208301517f28a149d8479d0660ccf9119b862a6296efb8955f144f3a4c28218cbdc30c4a3e7f268d5e96726a4f0a0af926881dd088840f0b189fc0bac1c06378ca1342030d4784610e32565b61168c6101408301517f0e7776860985ee7b82e3ff3a29a0704c80cc4f49fd6a08562de1286b1a4147737f16d85b4ca470712c952db758ba22542a1494058886d0cf5bc1d6e2796d5d7a3a84610e32565b5050565b7f30644e72e131a029b85045b68181585d2833e84879b9709143e1f593f00000016101a08201517f30644e72e131a029b85045b68181585d2833e84879b9709143e1f593f000000103067f30644e72e131a029b85045b68181585d2833e84879b9709143e1f593f00000018060c08401516102443509820890507f30644e72e131a029b85045b68181585d2833e84879b9709143e1f593f00000018060e08401516102643509820890507f30644e72e131a029b85045b68181585d2833e84879b9709143e1f593f0000001806101008401516102843509820890507f30644e72e131a029b85045b68181585d2833e84879b9709143e1f593f0000001806101208401516102a43509820890507f30644e72e131a029b85045b68181585d2833e84879b9709143e1f593f0000001806101408401516102c43509820890507f30644e72e131a029b85045b68181585d2833e84879b9709143e1f593f0000001806101608401516102e435098208905061181081600260016102408601610e9d565b5050565b6000604051610240810160405261018081016101c08201610200830161183c6101c484610ddb565b61184861020483610ddb565b6118586101608701518386610ed8565b6118628385610ded565b7f30644e72e131a029b85045b68181585d97816a916871ca8d3c208c16d87cfd4760208501517f30644e72e131a029b85045b68181585d97816a916871ca8d3c208c16d87cfd47030660208501527f1e3b651c96c337f8f6266fadcef22dc97717b5d44b445a5ef799a6cd3cc564a060408501527f10b13ed45e1871ff867a120754de5bf5c1395ad0078891e1b81f284ef6df78ca60608501527f2b57d40b181c33d7331accce5e5b890345b051c33f74e24ab728b18a3f7b473e60808501527f241a20e6fc3bc59485fa2e92365b46bf48742e8fac0b18859306488928cdcf0860a085015261195a60608701518460c08701610ed8565b7f30644e72e131a029b85045b68181585d2833e84879b9709143e1f593f00000016060870151610160880151097f30644e72e131a029b85045b68181585d2833e84879b9709143e1f593f00000017f2d1ba66f5941dc91017171fa69ec2bd0022a2a2d4115a009a93458fd4e26ecfb820990506119d8818484610ed8565b6119e58260c08701610ded565b6119f6610200880160c08701610ded565b7f30644e72e131a029b85045b68181585d97816a916871ca8d3c208c16d87cfd476020610240018801517f30644e72e131a029b85045b68181585d97816a916871ca8d3c208c16d87cfd470306602061024001880152611a5d610240880160c08701610ded565b7f198e9393920d483a7260bfb731fb5d25f1aa493335a9e71297e485b7aef312c26101008601527f1800deef121f1e76426a00665e5c4479674322d4f75edadd46debd5cd992f6ed6101208601527f090689d0585ff075ec9e99ad690c3395bc4b313370b38ef355acdadcd122975b6101408601527f12c85ea5db8c6deb4aab71808dcb408fe3d1e7690c43d37b4ce6cc0166fa7daa6101608601526020856101808760086107d05a03fa855181169650505050505050919050565b6040516103408101604052611b2c610206565b611b368382610250565b611b3f81610a61565b611b498382610b06565b611b5281610b69565b611b5b81610eee565b611b6481611591565b611b6d81611690565b611b7681611814565b61034082036040528060005260206000f35b600080fd5b600080fd5b600081905082602060180282011115611bae57611bad611b8d565b5b92915050565b600081905082602060010282011115611bd057611bcf611b8d565b5b92915050565b6000806103208385031215611bee57611bed611b88565b5b6000611bfc85828601611b92565b925050610300611c0e85828601611bb4565b9150509250929050565b60008115159050919050565b611c2d81611c18565b82525050565b6000602082019050611c486000830184611c24565b9291505056fea26469706673582212209261606b35ffb81d6bb01219a70041d15418cc3cacace9f97963ca16d040c5c364736f6c63430008180033",
  "linkReferences": {},
  "deployedLinkReferences": {}
}