{"contracts/originationWorkgroup/serbia_workstep3Verifier.sol":{"PlonkVerifier":{"abi":[{"inputs":[{"internalType":"uint256[24]","name":"_proof","type":"uint256[24]"},{"internalType":"uint256[2]","name":"_pubSignals","type":"uint256[2]"}],"name":"verifyProof","outputs":[{"internalType":"bool","name":"","type":"bool"}],"stateMutability":"view","type":"function"}],"evm":{"bytecode":{"linkReferences":{},"object":"608060405234801561001057600080fd5b50611d60806100206000396000f3fe608060405234801561001057600080fd5b506004361061002b5760003560e01c8063c0e9d81c14610030575b600080fd5b61004a60048036038101906100459190611cb2565b610060565b6040516100579190611d0f565b60405180910390f35b6000611bf5565b600080600184846000805b821561009c5782840591508482028603905084955080945082820284039050829350809250610072565b60018411156100aa57600080fd5b60008612156100b95788860195505b85965050505050505092915050565b60405181602084028301815160208301925060005b82841015610120578185527f30644e72e131a029b85045b68181585d2833e84879b9709143e1f593f00000018451830991506020850194506020840193506100dd565b61014a7f30644e72e131a029b85045b68181585d2833e84879b9709143e1f593f000000183610067565b91506020850394506020840393508592505b828411156101c6577f30644e72e131a029b85045b68181585d2833e84879b9709143e1f593f00000018551830990507f30644e72e131a029b85045b68181585d2833e84879b9709143e1f593f000000184518309915080845260208503945060208403935061015c565b81845250505050505050565b7f30644e72e131a029b85045b68181585d2833e84879b9709143e1f593f00000018110610203576000805260206000f35b50565b610212610244356101d2565b61021e610264356101d2565b61022a610284356101d2565b6102366102a4356101d2565b6102426102c4356101d2565b61024e6102e4356101d2565b565b6000806040517f09f51faa55680061e4dc07ec51baefda06083b15314f6aea56e12b13ea77c46081527f2e105f8f2b473fb53d4dbcc8a666f58dd74ff697036ca8f0a9faf9a2850d9b8f60208201527f06566c36f14e74a4e7db19fcd6f02ef3327776df8557a80ead6da68650fb8f5260408201527f19cc74793ba67bdff14de15e61d852050314b05818a7db83a9c45485dd7f4d8b60608201527f1fe952f74e12f0563b3067c12c670286c8355eccabe5021d80c92c82d9e6f61c60808201527f032ce8b6b6e34000b66e7efa428727914b48c26afa682febbea26f2230cddd0560a08201527f01e91c2a20c82ea9f056b6a16693dcd43a44f4650e398f507f464b09fe5d868c60c08201527f2c9d00def5e005b562f84c3fb9a0666e42e2afa5bf780836385bb9f5f452982b60e08201527f06f3b086e6ed2a0c52dd29fadca7dc7de651f7975972cec3880053e6b8a1092f6101008201527f17d751e1bdc6175c327e30f406c069ad5f871625e592a27d4d8bcb786c361bb26101208201527f1ff0bb3b96ae2d414cb33b3f277e7d88f6179d96c13acc3d9e107dbb6f2c948e6101408201527f2c9e80dce358f6427f544e955d19af8ff01e3b27cb59d8c48f63ef89de8689286101608201527f2e6256b56e4467a32fe35632ff69bd3b6b7a82d725bb514362656fc0126497156101808201527f29ff179cb7108f0cc6e21e8aa54db62c26201261c8bcdce18e7dd3d2446184e46101a08201527f2da16cee327fe82a2d4c1a5c25c6750818f28b5a57226331259d5da2d19c6a3d6101c08201527f03b320a9171a303269c269aceaa145572a8538bbc63c4254445e673ff60633d66101e0820152600085013561020082015260208501356102208201526004356102408201526020600401356102608201526044356102808201526020604401356102a08201526084356102c08201526020608401356102e08201527f30644e72e131a029b85045b68181585d2833e84879b9709143e1f593f000000161030082200692508260208501527f30644e72e131a029b85045b68181585d2833e84879b9709143e1f593f0000001602080860120066040850152602084015181526040840151602082015260c4356040820152602060c4013560608201527f30644e72e131a029b85045b68181585d2833e84879b9709143e1f593f0000001608082200691508160008501527f30644e72e131a029b85045b68181585d2833e84879b9709143e1f593f00000018283096102c08501528181526101043560208201526020610104013560408201526101443560608201526020610144013560808201526101843560a08201526020610184013560c08201527f30644e72e131a029b85045b68181585d2833e84879b9709143e1f593f000000160e082200691508160608501528181526102443560208201526102643560408201526102843560608201526102a43560808201526102c43560a08201526102e43560c08201527f30644e72e131a029b85045b68181585d2833e84879b9709143e1f593f000000160e08220068060c08601527f30644e72e131a029b85045b68181585d2833e84879b9709143e1f593f000000183850960a08601527f30644e72e131a029b85045b68181585d2833e84879b9709143e1f593f000000183840992507f30644e72e131a029b85045b68181585d2833e84879b9709143e1f593f000000183840992507f30644e72e131a029b85045b68181585d2833e84879b9709143e1f593f000000183840992507f30644e72e131a029b85045b68181585d2833e84879b9709143e1f593f000000183840992507f30644e72e131a029b85045b68181585d2833e84879b9709143e1f593f000000183840992507f30644e72e131a029b85045b68181585d2833e84879b9709143e1f593f000000183840992507f30644e72e131a029b85045b68181585d2833e84879b9709143e1f593f000000183840992507f30644e72e131a029b85045b68181585d2833e84879b9709143e1f593f000000183840992507f30644e72e131a029b85045b68181585d2833e84879b9709143e1f593f000000183840992507f30644e72e131a029b85045b68181585d2833e84879b9709143e1f593f000000183840992507f30644e72e131a029b85045b68181585d2833e84879b9709143e1f593f000000183840992508260808601527f30644e72e131a029b85045b68181585d2833e84879b9709143e1f593f0000001806001850301069250826102e0860152826103008601527f30644e72e131a029b85045b68181585d2833e84879b9709143e1f593f000000181820992508260e08601527f30644e72e131a029b85045b68181585d2833e84879b9709143e1f593f00000018184099250826101008601527f30644e72e131a029b85045b68181585d2833e84879b9709143e1f593f00000018184099250826101208601527f30644e72e131a029b85045b68181585d2833e84879b9709143e1f593f00000018184099250826101408601526101c435825260206101c4013560208301526102043560408301526020610204013560608301527f30644e72e131a029b85045b68181585d2833e84879b9709143e1f593f00000016080832006610160860152505050505050565b60017f30644e72e131a029b85045b68181585d2833e84879b9709143e1f593f0000001807f30644e72e131a029b85045b68181585d2833e84879b9709143e1f593f0000001836060860151030106610800096103208301527f30644e72e131a029b85045b68181585d2833e84879b9709143e1f593f00000017f027a358499c5042bb4027fd7a5355d71b8c12c177494f0cad00a58f9769a2ee2820990507f30644e72e131a029b85045b68181585d2833e84879b9709143e1f593f0000001807f30644e72e131a029b85045b68181585d2833e84879b9709143e1f593f000000183606086015103010661080009610340830152610ad7600361030084016100c8565b6102e0820151600191507f30644e72e131a029b85045b68181585d2833e84879b9709143e1f593f000000181610320850151096103208401527f30644e72e131a029b85045b68181585d2833e84879b9709143e1f593f00000017f027a358499c5042bb4027fd7a5355d71b8c12c177494f0cad00a58f9769a2ee2830991507f30644e72e131a029b85045b68181585d2833e84879b9709143e1f593f00000018082610340860151098309610340840152505050565b60007f30644e72e131a029b85045b68181585d2833e84879b9709143e1f593f0000001807f30644e72e131a029b85045b68181585d2833e84879b9709143e1f593f00000016000860135610320860151098303010690507f30644e72e131a029b85045b68181585d2833e84879b9709143e1f593f0000001807f30644e72e131a029b85045b68181585d2833e84879b9709143e1f593f000000160208601356103408601510983030106905080610180830152505050565b6101808101517f30644e72e131a029b85045b68181585d2833e84879b9709143e1f593f00000016102c0830151610320840151097f30644e72e131a029b85045b68181585d2833e84879b9709143e1f593f0000001806102a43560208601510961024435087f30644e72e131a029b85045b68181585d2833e84879b9709143e1f593f00000016040850151820890507f30644e72e131a029b85045b68181585d2833e84879b9709143e1f593f0000001806102c43560208701510961026435087f30644e72e131a029b85045b68181585d2833e84879b9709143e1f593f00000016040860151820890507f30644e72e131a029b85045b68181585d2833e84879b9709143e1f593f0000001604086015161028435087f30644e72e131a029b85045b68181585d2833e84879b9709143e1f593f0000001817f30644e72e131a029b85045b68181585d2833e84879b9709143e1f593f0000001848609097f30644e72e131a029b85045b68181585d2833e84879b9709143e1f593f00000016102e435820990507f30644e72e131a029b85045b68181585d2833e84879b9709143e1f593f00000016000880151820990507f30644e72e131a029b85045b68181585d2833e84879b9709143e1f593f000000180867f30644e72e131a029b85045b68181585d2833e84879b9709143e1f593f0000001030687087f30644e72e131a029b85045b68181585d2833e84879b9709143e1f593f000000180837f30644e72e131a029b85045b68181585d2833e84879b9709143e1f593f0000001030682089050806101a08901525050505050505050565b81518152602082015160208201525050565b818152826020820152505050565b81358152602082013560208201525050565b6040518151815260208201516020820152825160408201526020830151606082015260408260808360066107d05a03fa80610f08576000805260206000f35b50505050565b600060405183815284602082015285604082015260408160608360076107d05a03fa915081610f41576000805260206000f35b825160408201526020830151606082015260408360808360066107d05a03fa915081610f71576000805260206000f35b505050505050565b600060405183815284602082015285604082015260408360608360076107d05a03fa915081610fac576000805260206000f35b505050505050565b610fc5836020840151845184610f79565b505050565b6101c081016040820151604051610100810160405261102a7f17d751e1bdc6175c327e30f406c069ad5f871625e592a27d4d8bcb786c361bb27f06f3b086e6ed2a0c52dd29fadca7dc7de651f7975972cec3880053e6b8a1092f85610ea9565b61109f7f30644e72e131a029b85045b68181585d2833e84879b9709143e1f593f00000016102643561024435097f2e105f8f2b473fb53d4dbcc8a666f58dd74ff697036ca8f0a9faf9a2850d9b8f7f09f51faa55680061e4dc07ec51baefda06083b15314f6aea56e12b13ea77c46086610f0e565b6110ee610244357f19cc74793ba67bdff14de15e61d852050314b05818a7db83a9c45485dd7f4d8b7f06566c36f14e74a4e7db19fcd6f02ef3327776df8557a80ead6da68650fb8f5286610f0e565b61113d610264357f032ce8b6b6e34000b66e7efa428727914b48c26afa682febbea26f2230cddd057f1fe952f74e12f0563b3067c12c670286c8355eccabe5021d80c92c82d9e6f61c86610f0e565b61118c610284357f2c9d00def5e005b562f84c3fb9a0666e42e2afa5bf780836385bb9f5f452982b7f01e91c2a20c82ea9f056b6a16693dcd43a44f4650e398f507f464b09fe5d868c86610f0e565b60a08401517f30644e72e131a029b85045b68181585d2833e84879b9709143e1f593f0000001837f30644e72e131a029b85045b68181585d2833e84879b9709143e1f593f0000001836102443508087f30644e72e131a029b85045b68181585d2833e84879b9709143e1f593f0000001847f30644e72e131a029b85045b68181585d2833e84879b9709143e1f593f000000180600286096102643508087f30644e72e131a029b85045b68181585d2833e84879b9709143e1f593f0000001857f30644e72e131a029b85045b68181585d2833e84879b9709143e1f593f000000180600387096102843508087f30644e72e131a029b85045b68181585d2833e84879b9709143e1f593f000000160008901517f30644e72e131a029b85045b68181585d2833e84879b9709143e1f593f0000001837f30644e72e131a029b85045b68181585d2833e84879b9709143e1f593f000000186880909097f30644e72e131a029b85045b68181585d2833e84879b9709143e1f593f00000016102c08a01516103208b01510961132160c460c08901610eb7565b61137a7f30644e72e131a029b85045b68181585d2833e84879b9709143e1f593f00000016101608c01517f30644e72e131a029b85045b68181585d2833e84879b9709143e1f593f00000018486080860c0890189610fb4565b7f30644e72e131a029b85045b68181585d2833e84879b9709143e1f593f0000001887f30644e72e131a029b85045b68181585d2833e84879b9709143e1f593f0000001806102a43560208f01510961024435080894507f30644e72e131a029b85045b68181585d2833e84879b9709143e1f593f0000001887f30644e72e131a029b85045b68181585d2833e84879b9709143e1f593f0000001806102c43560208f01510961026435080893507f30644e72e131a029b85045b68181585d2833e84879b9709143e1f593f00000016102e4357f30644e72e131a029b85045b68181585d2833e84879b9709143e1f593f000000160208d015160008e01510909925061150f7f30644e72e131a029b85045b68181585d2833e84879b9709143e1f593f0000001847f30644e72e131a029b85045b68181585d2833e84879b9709143e1f593f0000001878909097f03b320a9171a303269c269aceaa145572a8538bbc63c4254445e673ff60633d67f2da16cee327fe82a2d4c1a5c25c6750818f28b5a57226331259d5da2d19c6a3d60408b01610f79565b61151e61010460808901610eb7565b61153a60808b0151602061014401356101443560808b01610f0e565b7f30644e72e131a029b85045b68181585d2833e84879b9709143e1f593f000000160808b015160808c01510961157e81602061018401356101843560808c01610f0e565b61159a6102e08c015160a08a015160808b015160808c01610f79565b7f30644e72e131a029b85045b68181585d97816a916871ca8d3c208c16d87cfd47602060408a0101517f30644e72e131a029b85045b68181585d97816a916871ca8d3c208c16d87cfd470306602060408a0101527f30644e72e131a029b85045b68181585d97816a916871ca8d3c208c16d87cfd4760a08901517f30644e72e131a029b85045b68181585d97816a916871ca8d3c208c16d87cfd47030660a0890152611646888b610ec9565b611653604089018b610ec9565b611660608089018b610ec9565b5050505050505050505050565b61020081016116806101c0830182610e97565b61169760c083015160206004013560043584610f0e565b6116ae60e083015160206044013560443584610f0e565b6116c661010083015160206084013560843584610f0e565b6117176101208301517f2c9e80dce358f6427f544e955d19af8ff01e3b27cb59d8c48f63ef89de8689287f1ff0bb3b96ae2d414cb33b3f277e7d88f6179d96c13acc3d9e107dbb6f2c948e84610f0e565b6117686101408301517f29ff179cb7108f0cc6e21e8aa54db62c26201261c8bcdce18e7dd3d2446184e47f2e6256b56e4467a32fe35632ff69bd3b6b7a82d725bb514362656fc01264971584610f0e565b5050565b7f30644e72e131a029b85045b68181585d2833e84879b9709143e1f593f00000016101a08201517f30644e72e131a029b85045b68181585d2833e84879b9709143e1f593f000000103067f30644e72e131a029b85045b68181585d2833e84879b9709143e1f593f00000018060c08401516102443509820890507f30644e72e131a029b85045b68181585d2833e84879b9709143e1f593f00000018060e08401516102643509820890507f30644e72e131a029b85045b68181585d2833e84879b9709143e1f593f0000001806101008401516102843509820890507f30644e72e131a029b85045b68181585d2833e84879b9709143e1f593f0000001806101208401516102a43509820890507f30644e72e131a029b85045b68181585d2833e84879b9709143e1f593f0000001806101408401516102c43509820890507f30644e72e131a029b85045b68181585d2833e84879b9709143e1f593f0000001806101608401516102e43509820890506118ec81600260016102408601610f79565b5050565b6000604051610240810160405261018081016101c0820161020083016119186101c484610eb7565b61192461020483610eb7565b6119346101608701518386610fb4565b61193e8385610ec9565b7f30644e72e131a029b85045b68181585d97816a916871ca8d3c208c16d87cfd4760208501517f30644e72e131a029b85045b68181585d97816a916871ca8d3c208c16d87cfd47030660208501527f1834f9cc7f8946119dbffb356857f685323b9661f30928a11f25e716a0e4c1b560408501527f156f794199eaab1845ffeecef053d507569439af557fb2e06e3553fe5f51c1f660608501527f139eecfbdb7602316e29fad8d574e4a3fa77b4cdfa56998c4fac44572f774e5860808501527f02c3373e7e6a7c4a7c615de0f4afce82a76e1ebbefbffc1443ca0561d4d044cf60a0850152611a3660608701518460c08701610fb4565b7f30644e72e131a029b85045b68181585d2833e84879b9709143e1f593f00000016060870151610160880151097f30644e72e131a029b85045b68181585d2833e84879b9709143e1f593f00000017f027a358499c5042bb4027fd7a5355d71b8c12c177494f0cad00a58f9769a2ee282099050611ab4818484610fb4565b611ac18260c08701610ec9565b611ad2610200880160c08701610ec9565b7f30644e72e131a029b85045b68181585d97816a916871ca8d3c208c16d87cfd476020610240018801517f30644e72e131a029b85045b68181585d97816a916871ca8d3c208c16d87cfd470306602061024001880152611b39610240880160c08701610ec9565b7f198e9393920d483a7260bfb731fb5d25f1aa493335a9e71297e485b7aef312c26101008601527f1800deef121f1e76426a00665e5c4479674322d4f75edadd46debd5cd992f6ed6101208601527f090689d0585ff075ec9e99ad690c3395bc4b313370b38ef355acdadcd122975b6101408601527f12c85ea5db8c6deb4aab71808dcb408fe3d1e7690c43d37b4ce6cc0166fa7daa6101608601526020856101808760086107d05a03fa855181169650505050505050919050565b6040516103608101604052611c08610206565b611c128382610250565b611c1b816109d4565b611c258382610b8d565b611c2e81610c45565b611c3781610fca565b611c408161166d565b611c498161176c565b611c52816118f0565b61036082036040528060005260206000f35b600080fd5b600080fd5b600081905082602060180282011115611c8a57611c89611c69565b5b92915050565b600081905082602060020282011115611cac57611cab611c69565b5b92915050565b6000806103408385031215611cca57611cc9611c64565b5b6000611cd885828601611c6e565b925050610300611cea85828601611c90565b9150509250929050565b60008115159050919050565b611d0981611cf4565b82525050565b6000602082019050611d246000830184611d00565b9291505056fea264697066735822122082ef7d90e4cf9565b0aee70428c7fc7971e40109810c9f181dcca37401e7884164736f6c63430008180033","opcodes":"PUSH1 0x80 PUSH1 0x40 MSTORE CALLVALUE DUP1 ISZERO PUSH2 0x10 JUMPI PUSH1 0x0 DUP1 REVERT JUMPDEST POP PUSH2 0x1D60 DUP1 PUSH2 0x20 PUSH1 0x0 CODECOPY PUSH1 0x0 RETURN INVALID PUSH1 0x80 PUSH1 0x40 MSTORE CALLVALUE DUP1 ISZERO PUSH2 0x10 JUMPI PUSH1 0x0 DUP1 REVERT JUMPDEST POP PUSH1 0x4 CALLDATASIZE LT PUSH2 0x2B JUMPI PUSH1 0x0 CALLDATALOAD PUSH1 0xE0 SHR DUP1 PUSH4 0xC0E9D81C EQ PUSH2 0x30 JUMPI JUMPDEST PUSH1 0x0 DUP1 REVERT JUMPDEST PUSH2 0x4A PUSH1 0x4 DUP1 CALLDATASIZE SUB DUP2 ADD SWAP1 PUSH2 0x45 SWAP2 SWAP1 PUSH2 0x1CB2 JUMP JUMPDEST PUSH2 0x60 JUMP JUMPDEST PUSH1 0x40 MLOAD PUSH2 0x57 SWAP2 SWAP1 PUSH2 0x1D0F JUMP JUMPDEST PUSH1 0x40 MLOAD DUP1 SWAP2 SUB SWAP1 RETURN JUMPDEST PUSH1 0x0 PUSH2 0x1BF5 JUMP JUMPDEST PUSH1 0x0 DUP1 PUSH1 0x1 DUP5 DUP5 PUSH1 0x0 DUP1 JUMPDEST DUP3 ISZERO PUSH2 0x9C JUMPI DUP3 DUP5 SDIV SWAP2 POP DUP5 DUP3 MUL DUP7 SUB SWAP1 POP DUP5 SWAP6 POP DUP1 SWAP5 POP DUP3 DUP3 MUL DUP5 SUB SWAP1 POP DUP3 SWAP4 POP DUP1 SWAP3 POP PUSH2 0x72 JUMP JUMPDEST PUSH1 0x1 DUP5 GT ISZERO PUSH2 0xAA JUMPI PUSH1 0x0 DUP1 REVERT JUMPDEST PUSH1 0x0 DUP7 SLT ISZERO PUSH2 0xB9 JUMPI DUP9 DUP7 ADD SWAP6 POP JUMPDEST DUP6 SWAP7 POP POP POP POP POP POP POP SWAP3 SWAP2 POP POP JUMP JUMPDEST PUSH1 0x40 MLOAD DUP2 PUSH1 0x20 DUP5 MUL DUP4 ADD DUP2 MLOAD PUSH1 0x20 DUP4 ADD SWAP3 POP PUSH1 0x0 JUMPDEST DUP3 DUP5 LT ISZERO PUSH2 0x120 JUMPI DUP2 DUP6 MSTORE PUSH32 0x30644E72E131A029B85045B68181585D2833E84879B9709143E1F593F0000001 DUP5 MLOAD DUP4 MULMOD SWAP2 POP PUSH1 0x20 DUP6 ADD SWAP5 POP PUSH1 0x20 DUP5 ADD SWAP4 POP PUSH2 0xDD JUMP JUMPDEST PUSH2 0x14A PUSH32 0x30644E72E131A029B85045B68181585D2833E84879B9709143E1F593F0000001 DUP4 PUSH2 0x67 JUMP JUMPDEST SWAP2 POP PUSH1 0x20 DUP6 SUB SWAP5 POP PUSH1 0x20 DUP5 SUB SWAP4 POP DUP6 SWAP3 POP JUMPDEST DUP3 DUP5 GT ISZERO PUSH2 0x1C6 JUMPI PUSH32 0x30644E72E131A029B85045B68181585D2833E84879B9709143E1F593F0000001 DUP6 MLOAD DUP4 MULMOD SWAP1 POP PUSH32 0x30644E72E131A029B85045B68181585D2833E84879B9709143E1F593F0000001 DUP5 MLOAD DUP4 MULMOD SWAP2 POP DUP1 DUP5 MSTORE PUSH1 0x20 DUP6 SUB SWAP5 POP PUSH1 0x20 DUP5 SUB SWAP4 POP PUSH2 0x15C JUMP JUMPDEST DUP2 DUP5 MSTORE POP POP POP POP POP POP POP JUMP JUMPDEST PUSH32 0x30644E72E131A029B85045B68181585D2833E84879B9709143E1F593F0000001 DUP2 LT PUSH2 0x203 JUMPI PUSH1 0x0 DUP1 MSTORE PUSH1 0x20 PUSH1 0x0 RETURN JUMPDEST POP JUMP JUMPDEST PUSH2 0x212 PUSH2 0x244 CALLDATALOAD PUSH2 0x1D2 JUMP JUMPDEST PUSH2 0x21E PUSH2 0x264 CALLDATALOAD PUSH2 0x1D2 JUMP JUMPDEST PUSH2 0x22A PUSH2 0x284 CALLDATALOAD PUSH2 0x1D2 JUMP JUMPDEST PUSH2 0x236 PUSH2 0x2A4 CALLDATALOAD PUSH2 0x1D2 JUMP JUMPDEST PUSH2 0x242 PUSH2 0x2C4 CALLDATALOAD PUSH2 0x1D2 JUMP JUMPDEST PUSH2 0x24E PUSH2 0x2E4 CALLDATALOAD PUSH2 0x1D2 JUMP JUMPDEST JUMP JUMPDEST PUSH1 0x0 DUP1 PUSH1 0x40 MLOAD PUSH32 0x9F51FAA55680061E4DC07EC51BAEFDA06083B15314F6AEA56E12B13EA77C460 DUP2 MSTORE PUSH32 0x2E105F8F2B473FB53D4DBCC8A666F58DD74FF697036CA8F0A9FAF9A2850D9B8F PUSH1 0x20 DUP3 ADD MSTORE PUSH32 0x6566C36F14E74A4E7DB19FCD6F02EF3327776DF8557A80EAD6DA68650FB8F52 PUSH1 0x40 DUP3 ADD MSTORE PUSH32 0x19CC74793BA67BDFF14DE15E61D852050314B05818A7DB83A9C45485DD7F4D8B PUSH1 0x60 DUP3 ADD MSTORE PUSH32 0x1FE952F74E12F0563B3067C12C670286C8355ECCABE5021D80C92C82D9E6F61C PUSH1 0x80 DUP3 ADD MSTORE PUSH32 0x32CE8B6B6E34000B66E7EFA428727914B48C26AFA682FEBBEA26F2230CDDD05 PUSH1 0xA0 DUP3 ADD MSTORE PUSH32 0x1E91C2A20C82EA9F056B6A16693DCD43A44F4650E398F507F464B09FE5D868C PUSH1 0xC0 DUP3 ADD MSTORE PUSH32 0x2C9D00DEF5E005B562F84C3FB9A0666E42E2AFA5BF780836385BB9F5F452982B PUSH1 0xE0 DUP3 ADD MSTORE PUSH32 0x6F3B086E6ED2A0C52DD29FADCA7DC7DE651F7975972CEC3880053E6B8A1092F PUSH2 0x100 DUP3 ADD MSTORE PUSH32 0x17D751E1BDC6175C327E30F406C069AD5F871625E592A27D4D8BCB786C361BB2 PUSH2 0x120 DUP3 ADD MSTORE PUSH32 0x1FF0BB3B96AE2D414CB33B3F277E7D88F6179D96C13ACC3D9E107DBB6F2C948E PUSH2 0x140 DUP3 ADD MSTORE PUSH32 0x2C9E80DCE358F6427F544E955D19AF8FF01E3B27CB59D8C48F63EF89DE868928 PUSH2 0x160 DUP3 ADD MSTORE PUSH32 0x2E6256B56E4467A32FE35632FF69BD3B6B7A82D725BB514362656FC012649715 PUSH2 0x180 DUP3 ADD MSTORE PUSH32 0x29FF179CB7108F0CC6E21E8AA54DB62C26201261C8BCDCE18E7DD3D2446184E4 PUSH2 0x1A0 DUP3 ADD MSTORE PUSH32 0x2DA16CEE327FE82A2D4C1A5C25C6750818F28B5A57226331259D5DA2D19C6A3D PUSH2 0x1C0 DUP3 ADD MSTORE PUSH32 0x3B320A9171A303269C269ACEAA145572A8538BBC63C4254445E673FF60633D6 PUSH2 0x1E0 DUP3 ADD MSTORE PUSH1 0x0 DUP6 ADD CALLDATALOAD PUSH2 0x200 DUP3 ADD MSTORE PUSH1 0x20 DUP6 ADD CALLDATALOAD PUSH2 0x220 DUP3 ADD MSTORE PUSH1 0x4 CALLDATALOAD PUSH2 0x240 DUP3 ADD MSTORE PUSH1 0x20 PUSH1 0x4 ADD CALLDATALOAD PUSH2 0x260 DUP3 ADD MSTORE PUSH1 0x44 CALLDATALOAD PUSH2 0x280 DUP3 ADD MSTORE PUSH1 0x20 PUSH1 0x44 ADD CALLDATALOAD PUSH2 0x2A0 DUP3 ADD MSTORE PUSH1 0x84 CALLDATALOAD PUSH2 0x2C0 DUP3 ADD MSTORE PUSH1 0x20 PUSH1 0x84 ADD CALLDATALOAD PUSH2 0x2E0 DUP3 ADD MSTORE PUSH32 0x30644E72E131A029B85045B68181585D2833E84879B9709143E1F593F0000001 PUSH2 0x300 DUP3 KECCAK256 MOD SWAP3 POP DUP3 PUSH1 0x20 DUP6 ADD MSTORE PUSH32 0x30644E72E131A029B85045B68181585D2833E84879B9709143E1F593F0000001 PUSH1 0x20 DUP1 DUP7 ADD KECCAK256 MOD PUSH1 0x40 DUP6 ADD MSTORE PUSH1 0x20 DUP5 ADD MLOAD DUP2 MSTORE PUSH1 0x40 DUP5 ADD MLOAD PUSH1 0x20 DUP3 ADD MSTORE PUSH1 0xC4 CALLDATALOAD PUSH1 0x40 DUP3 ADD MSTORE PUSH1 0x20 PUSH1 0xC4 ADD CALLDATALOAD PUSH1 0x60 DUP3 ADD MSTORE PUSH32 0x30644E72E131A029B85045B68181585D2833E84879B9709143E1F593F0000001 PUSH1 0x80 DUP3 KECCAK256 MOD SWAP2 POP DUP2 PUSH1 0x0 DUP6 ADD MSTORE PUSH32 0x30644E72E131A029B85045B68181585D2833E84879B9709143E1F593F0000001 DUP3 DUP4 MULMOD PUSH2 0x2C0 DUP6 ADD MSTORE DUP2 DUP2 MSTORE PUSH2 0x104 CALLDATALOAD PUSH1 0x20 DUP3 ADD MSTORE PUSH1 0x20 PUSH2 0x104 ADD CALLDATALOAD PUSH1 0x40 DUP3 ADD MSTORE PUSH2 0x144 CALLDATALOAD PUSH1 0x60 DUP3 ADD MSTORE PUSH1 0x20 PUSH2 0x144 ADD CALLDATALOAD PUSH1 0x80 DUP3 ADD MSTORE PUSH2 0x184 CALLDATALOAD PUSH1 0xA0 DUP3 ADD MSTORE PUSH1 0x20 PUSH2 0x184 ADD CALLDATALOAD PUSH1 0xC0 DUP3 ADD MSTORE PUSH32 0x30644E72E131A029B85045B68181585D2833E84879B9709143E1F593F0000001 PUSH1 0xE0 DUP3 KECCAK256 MOD SWAP2 POP DUP2 PUSH1 0x60 DUP6 ADD MSTORE DUP2 DUP2 MSTORE PUSH2 0x244 CALLDATALOAD PUSH1 0x20 DUP3 ADD MSTORE PUSH2 0x264 CALLDATALOAD PUSH1 0x40 DUP3 ADD MSTORE PUSH2 0x284 CALLDATALOAD PUSH1 0x60 DUP3 ADD MSTORE PUSH2 0x2A4 CALLDATALOAD PUSH1 0x80 DUP3 ADD MSTORE PUSH2 0x2C4 CALLDATALOAD PUSH1 0xA0 DUP3 ADD MSTORE PUSH2 0x2E4 CALLDATALOAD PUSH1 0xC0 DUP3 ADD MSTORE PUSH32 0x30644E72E131A029B85045B68181585D2833E84879B9709143E1F593F0000001 PUSH1 0xE0 DUP3 KECCAK256 MOD DUP1 PUSH1 0xC0 DUP7 ADD MSTORE PUSH32 0x30644E72E131A029B85045B68181585D2833E84879B9709143E1F593F0000001 DUP4 DUP6 MULMOD PUSH1 0xA0 DUP7 ADD MSTORE PUSH32 0x30644E72E131A029B85045B68181585D2833E84879B9709143E1F593F0000001 DUP4 DUP5 MULMOD SWAP3 POP PUSH32 0x30644E72E131A029B85045B68181585D2833E84879B9709143E1F593F0000001 DUP4 DUP5 MULMOD SWAP3 POP PUSH32 0x30644E72E131A029B85045B68181585D2833E84879B9709143E1F593F0000001 DUP4 DUP5 MULMOD SWAP3 POP PUSH32 0x30644E72E131A029B85045B68181585D2833E84879B9709143E1F593F0000001 DUP4 DUP5 MULMOD SWAP3 POP PUSH32 0x30644E72E131A029B85045B68181585D2833E84879B9709143E1F593F0000001 DUP4 DUP5 MULMOD SWAP3 POP PUSH32 0x30644E72E131A029B85045B68181585D2833E84879B9709143E1F593F0000001 DUP4 DUP5 MULMOD SWAP3 POP PUSH32 0x30644E72E131A029B85045B68181585D2833E84879B9709143E1F593F0000001 DUP4 DUP5 MULMOD SWAP3 POP PUSH32 0x30644E72E131A029B85045B68181585D2833E84879B9709143E1F593F0000001 DUP4 DUP5 MULMOD SWAP3 POP PUSH32 0x30644E72E131A029B85045B68181585D2833E84879B9709143E1F593F0000001 DUP4 DUP5 MULMOD SWAP3 POP PUSH32 0x30644E72E131A029B85045B68181585D2833E84879B9709143E1F593F0000001 DUP4 DUP5 MULMOD SWAP3 POP PUSH32 0x30644E72E131A029B85045B68181585D2833E84879B9709143E1F593F0000001 DUP4 DUP5 MULMOD SWAP3 POP DUP3 PUSH1 0x80 DUP7 ADD MSTORE PUSH32 0x30644E72E131A029B85045B68181585D2833E84879B9709143E1F593F0000001 DUP1 PUSH1 0x1 DUP6 SUB ADD MOD SWAP3 POP DUP3 PUSH2 0x2E0 DUP7 ADD MSTORE DUP3 PUSH2 0x300 DUP7 ADD MSTORE PUSH32 0x30644E72E131A029B85045B68181585D2833E84879B9709143E1F593F0000001 DUP2 DUP3 MULMOD SWAP3 POP DUP3 PUSH1 0xE0 DUP7 ADD MSTORE PUSH32 0x30644E72E131A029B85045B68181585D2833E84879B9709143E1F593F0000001 DUP2 DUP5 MULMOD SWAP3 POP DUP3 PUSH2 0x100 DUP7 ADD MSTORE PUSH32 0x30644E72E131A029B85045B68181585D2833E84879B9709143E1F593F0000001 DUP2 DUP5 MULMOD SWAP3 POP DUP3 PUSH2 0x120 DUP7 ADD MSTORE PUSH32 0x30644E72E131A029B85045B68181585D2833E84879B9709143E1F593F0000001 DUP2 DUP5 MULMOD SWAP3 POP DUP3 PUSH2 0x140 DUP7 ADD MSTORE PUSH2 0x1C4 CALLDATALOAD DUP3 MSTORE PUSH1 0x20 PUSH2 0x1C4 ADD CALLDATALOAD PUSH1 0x20 DUP4 ADD MSTORE PUSH2 0x204 CALLDATALOAD PUSH1 0x40 DUP4 ADD MSTORE PUSH1 0x20 PUSH2 0x204 ADD CALLDATALOAD PUSH1 0x60 DUP4 ADD MSTORE PUSH32 0x30644E72E131A029B85045B68181585D2833E84879B9709143E1F593F0000001 PUSH1 0x80 DUP4 KECCAK256 MOD PUSH2 0x160 DUP7 ADD MSTORE POP POP POP POP POP POP JUMP JUMPDEST PUSH1 0x1 PUSH32 0x30644E72E131A029B85045B68181585D2833E84879B9709143E1F593F0000001 DUP1 PUSH32 0x30644E72E131A029B85045B68181585D2833E84879B9709143E1F593F0000001 DUP4 PUSH1 0x60 DUP7 ADD MLOAD SUB ADD MOD PUSH2 0x800 MULMOD PUSH2 0x320 DUP4 ADD MSTORE PUSH32 0x30644E72E131A029B85045B68181585D2833E84879B9709143E1F593F0000001 PUSH32 0x27A358499C5042BB4027FD7A5355D71B8C12C177494F0CAD00A58F9769A2EE2 DUP3 MULMOD SWAP1 POP PUSH32 0x30644E72E131A029B85045B68181585D2833E84879B9709143E1F593F0000001 DUP1 PUSH32 0x30644E72E131A029B85045B68181585D2833E84879B9709143E1F593F0000001 DUP4 PUSH1 0x60 DUP7 ADD MLOAD SUB ADD MOD PUSH2 0x800 MULMOD PUSH2 0x340 DUP4 ADD MSTORE PUSH2 0xAD7 PUSH1 0x3 PUSH2 0x300 DUP5 ADD PUSH2 0xC8 JUMP JUMPDEST PUSH2 0x2E0 DUP3 ADD MLOAD PUSH1 0x1 SWAP2 POP PUSH32 0x30644E72E131A029B85045B68181585D2833E84879B9709143E1F593F0000001 DUP2 PUSH2 0x320 DUP6 ADD MLOAD MULMOD PUSH2 0x320 DUP5 ADD MSTORE PUSH32 0x30644E72E131A029B85045B68181585D2833E84879B9709143E1F593F0000001 PUSH32 0x27A358499C5042BB4027FD7A5355D71B8C12C177494F0CAD00A58F9769A2EE2 DUP4 MULMOD SWAP2 POP PUSH32 0x30644E72E131A029B85045B68181585D2833E84879B9709143E1F593F0000001 DUP1 DUP3 PUSH2 0x340 DUP7 ADD MLOAD MULMOD DUP4 MULMOD PUSH2 0x340 DUP5 ADD MSTORE POP POP POP JUMP JUMPDEST PUSH1 0x0 PUSH32 0x30644E72E131A029B85045B68181585D2833E84879B9709143E1F593F0000001 DUP1 PUSH32 0x30644E72E131A029B85045B68181585D2833E84879B9709143E1F593F0000001 PUSH1 0x0 DUP7 ADD CALLDATALOAD PUSH2 0x320 DUP7 ADD MLOAD MULMOD DUP4 SUB ADD MOD SWAP1 POP PUSH32 0x30644E72E131A029B85045B68181585D2833E84879B9709143E1F593F0000001 DUP1 PUSH32 0x30644E72E131A029B85045B68181585D2833E84879B9709143E1F593F0000001 PUSH1 0x20 DUP7 ADD CALLDATALOAD PUSH2 0x340 DUP7 ADD MLOAD MULMOD DUP4 SUB ADD MOD SWAP1 POP DUP1 PUSH2 0x180 DUP4 ADD MSTORE POP POP POP JUMP JUMPDEST PUSH2 0x180 DUP2 ADD MLOAD PUSH32 0x30644E72E131A029B85045B68181585D2833E84879B9709143E1F593F0000001 PUSH2 0x2C0 DUP4 ADD MLOAD PUSH2 0x320 DUP5 ADD MLOAD MULMOD PUSH32 0x30644E72E131A029B85045B68181585D2833E84879B9709143E1F593F0000001 DUP1 PUSH2 0x2A4 CALLDATALOAD PUSH1 0x20 DUP7 ADD MLOAD MULMOD PUSH2 0x244 CALLDATALOAD ADDMOD PUSH32 0x30644E72E131A029B85045B68181585D2833E84879B9709143E1F593F0000001 PUSH1 0x40 DUP6 ADD MLOAD DUP3 ADDMOD SWAP1 POP PUSH32 0x30644E72E131A029B85045B68181585D2833E84879B9709143E1F593F0000001 DUP1 PUSH2 0x2C4 CALLDATALOAD PUSH1 0x20 DUP8 ADD MLOAD MULMOD PUSH2 0x264 CALLDATALOAD ADDMOD PUSH32 0x30644E72E131A029B85045B68181585D2833E84879B9709143E1F593F0000001 PUSH1 0x40 DUP7 ADD MLOAD DUP3 ADDMOD SWAP1 POP PUSH32 0x30644E72E131A029B85045B68181585D2833E84879B9709143E1F593F0000001 PUSH1 0x40 DUP7 ADD MLOAD PUSH2 0x284 CALLDATALOAD ADDMOD PUSH32 0x30644E72E131A029B85045B68181585D2833E84879B9709143E1F593F0000001 DUP2 PUSH32 0x30644E72E131A029B85045B68181585D2833E84879B9709143E1F593F0000001 DUP5 DUP7 MULMOD MULMOD PUSH32 0x30644E72E131A029B85045B68181585D2833E84879B9709143E1F593F0000001 PUSH2 0x2E4 CALLDATALOAD DUP3 MULMOD SWAP1 POP PUSH32 0x30644E72E131A029B85045B68181585D2833E84879B9709143E1F593F0000001 PUSH1 0x0 DUP9 ADD MLOAD DUP3 MULMOD SWAP1 POP PUSH32 0x30644E72E131A029B85045B68181585D2833E84879B9709143E1F593F0000001 DUP1 DUP7 PUSH32 0x30644E72E131A029B85045B68181585D2833E84879B9709143E1F593F0000001 SUB MOD DUP8 ADDMOD PUSH32 0x30644E72E131A029B85045B68181585D2833E84879B9709143E1F593F0000001 DUP1 DUP4 PUSH32 0x30644E72E131A029B85045B68181585D2833E84879B9709143E1F593F0000001 SUB MOD DUP3 ADDMOD SWAP1 POP DUP1 PUSH2 0x1A0 DUP10 ADD MSTORE POP POP POP POP POP POP POP POP JUMP JUMPDEST DUP2 MLOAD DUP2 MSTORE PUSH1 0x20 DUP3 ADD MLOAD PUSH1 0x20 DUP3 ADD MSTORE POP POP JUMP JUMPDEST DUP2 DUP2 MSTORE DUP3 PUSH1 0x20 DUP3 ADD MSTORE POP POP POP JUMP JUMPDEST DUP2 CALLDATALOAD DUP2 MSTORE PUSH1 0x20 DUP3 ADD CALLDATALOAD PUSH1 0x20 DUP3 ADD MSTORE POP POP JUMP JUMPDEST PUSH1 0x40 MLOAD DUP2 MLOAD DUP2 MSTORE PUSH1 0x20 DUP3 ADD MLOAD PUSH1 0x20 DUP3 ADD MSTORE DUP3 MLOAD PUSH1 0x40 DUP3 ADD MSTORE PUSH1 0x20 DUP4 ADD MLOAD PUSH1 0x60 DUP3 ADD MSTORE PUSH1 0x40 DUP3 PUSH1 0x80 DUP4 PUSH1 0x6 PUSH2 0x7D0 GAS SUB STATICCALL DUP1 PUSH2 0xF08 JUMPI PUSH1 0x0 DUP1 MSTORE PUSH1 0x20 PUSH1 0x0 RETURN JUMPDEST POP POP POP POP JUMP JUMPDEST PUSH1 0x0 PUSH1 0x40 MLOAD DUP4 DUP2 MSTORE DUP5 PUSH1 0x20 DUP3 ADD MSTORE DUP6 PUSH1 0x40 DUP3 ADD MSTORE PUSH1 0x40 DUP2 PUSH1 0x60 DUP4 PUSH1 0x7 PUSH2 0x7D0 GAS SUB STATICCALL SWAP2 POP DUP2 PUSH2 0xF41 JUMPI PUSH1 0x0 DUP1 MSTORE PUSH1 0x20 PUSH1 0x0 RETURN JUMPDEST DUP3 MLOAD PUSH1 0x40 DUP3 ADD MSTORE PUSH1 0x20 DUP4 ADD MLOAD PUSH1 0x60 DUP3 ADD MSTORE PUSH1 0x40 DUP4 PUSH1 0x80 DUP4 PUSH1 0x6 PUSH2 0x7D0 GAS SUB STATICCALL SWAP2 POP DUP2 PUSH2 0xF71 JUMPI PUSH1 0x0 DUP1 MSTORE PUSH1 0x20 PUSH1 0x0 RETURN JUMPDEST POP POP POP POP POP POP JUMP JUMPDEST PUSH1 0x0 PUSH1 0x40 MLOAD DUP4 DUP2 MSTORE DUP5 PUSH1 0x20 DUP3 ADD MSTORE DUP6 PUSH1 0x40 DUP3 ADD MSTORE PUSH1 0x40 DUP4 PUSH1 0x60 DUP4 PUSH1 0x7 PUSH2 0x7D0 GAS SUB STATICCALL SWAP2 POP DUP2 PUSH2 0xFAC JUMPI PUSH1 0x0 DUP1 MSTORE PUSH1 0x20 PUSH1 0x0 RETURN JUMPDEST POP POP POP POP POP POP JUMP JUMPDEST PUSH2 0xFC5 DUP4 PUSH1 0x20 DUP5 ADD MLOAD DUP5 MLOAD DUP5 PUSH2 0xF79 JUMP JUMPDEST POP POP POP JUMP JUMPDEST PUSH2 0x1C0 DUP2 ADD PUSH1 0x40 DUP3 ADD MLOAD PUSH1 0x40 MLOAD PUSH2 0x100 DUP2 ADD PUSH1 0x40 MSTORE PUSH2 0x102A PUSH32 0x17D751E1BDC6175C327E30F406C069AD5F871625E592A27D4D8BCB786C361BB2 PUSH32 0x6F3B086E6ED2A0C52DD29FADCA7DC7DE651F7975972CEC3880053E6B8A1092F DUP6 PUSH2 0xEA9 JUMP JUMPDEST PUSH2 0x109F PUSH32 0x30644E72E131A029B85045B68181585D2833E84879B9709143E1F593F0000001 PUSH2 0x264 CALLDATALOAD PUSH2 0x244 CALLDATALOAD MULMOD PUSH32 0x2E105F8F2B473FB53D4DBCC8A666F58DD74FF697036CA8F0A9FAF9A2850D9B8F PUSH32 0x9F51FAA55680061E4DC07EC51BAEFDA06083B15314F6AEA56E12B13EA77C460 DUP7 PUSH2 0xF0E JUMP JUMPDEST PUSH2 0x10EE PUSH2 0x244 CALLDATALOAD PUSH32 0x19CC74793BA67BDFF14DE15E61D852050314B05818A7DB83A9C45485DD7F4D8B PUSH32 0x6566C36F14E74A4E7DB19FCD6F02EF3327776DF8557A80EAD6DA68650FB8F52 DUP7 PUSH2 0xF0E JUMP JUMPDEST PUSH2 0x113D PUSH2 0x264 CALLDATALOAD PUSH32 0x32CE8B6B6E34000B66E7EFA428727914B48C26AFA682FEBBEA26F2230CDDD05 PUSH32 0x1FE952F74E12F0563B3067C12C670286C8355ECCABE5021D80C92C82D9E6F61C DUP7 PUSH2 0xF0E JUMP JUMPDEST PUSH2 0x118C PUSH2 0x284 CALLDATALOAD PUSH32 0x2C9D00DEF5E005B562F84C3FB9A0666E42E2AFA5BF780836385BB9F5F452982B PUSH32 0x1E91C2A20C82EA9F056B6A16693DCD43A44F4650E398F507F464B09FE5D868C DUP7 PUSH2 0xF0E JUMP JUMPDEST PUSH1 0xA0 DUP5 ADD MLOAD PUSH32 0x30644E72E131A029B85045B68181585D2833E84879B9709143E1F593F0000001 DUP4 PUSH32 0x30644E72E131A029B85045B68181585D2833E84879B9709143E1F593F0000001 DUP4 PUSH2 0x244 CALLDATALOAD ADDMOD ADDMOD PUSH32 0x30644E72E131A029B85045B68181585D2833E84879B9709143E1F593F0000001 DUP5 PUSH32 0x30644E72E131A029B85045B68181585D2833E84879B9709143E1F593F0000001 DUP1 PUSH1 0x2 DUP7 MULMOD PUSH2 0x264 CALLDATALOAD ADDMOD ADDMOD PUSH32 0x30644E72E131A029B85045B68181585D2833E84879B9709143E1F593F0000001 DUP6 PUSH32 0x30644E72E131A029B85045B68181585D2833E84879B9709143E1F593F0000001 DUP1 PUSH1 0x3 DUP8 MULMOD PUSH2 0x284 CALLDATALOAD ADDMOD ADDMOD PUSH32 0x30644E72E131A029B85045B68181585D2833E84879B9709143E1F593F0000001 PUSH1 0x0 DUP10 ADD MLOAD PUSH32 0x30644E72E131A029B85045B68181585D2833E84879B9709143E1F593F0000001 DUP4 PUSH32 0x30644E72E131A029B85045B68181585D2833E84879B9709143E1F593F0000001 DUP7 DUP9 MULMOD MULMOD MULMOD PUSH32 0x30644E72E131A029B85045B68181585D2833E84879B9709143E1F593F0000001 PUSH2 0x2C0 DUP11 ADD MLOAD PUSH2 0x320 DUP12 ADD MLOAD MULMOD PUSH2 0x1321 PUSH1 0xC4 PUSH1 0xC0 DUP10 ADD PUSH2 0xEB7 JUMP JUMPDEST PUSH2 0x137A PUSH32 0x30644E72E131A029B85045B68181585D2833E84879B9709143E1F593F0000001 PUSH2 0x160 DUP13 ADD MLOAD PUSH32 0x30644E72E131A029B85045B68181585D2833E84879B9709143E1F593F0000001 DUP5 DUP7 ADDMOD ADDMOD PUSH1 0xC0 DUP10 ADD DUP10 PUSH2 0xFB4 JUMP JUMPDEST PUSH32 0x30644E72E131A029B85045B68181585D2833E84879B9709143E1F593F0000001 DUP9 PUSH32 0x30644E72E131A029B85045B68181585D2833E84879B9709143E1F593F0000001 DUP1 PUSH2 0x2A4 CALLDATALOAD PUSH1 0x20 DUP16 ADD MLOAD MULMOD PUSH2 0x244 CALLDATALOAD ADDMOD ADDMOD SWAP5 POP PUSH32 0x30644E72E131A029B85045B68181585D2833E84879B9709143E1F593F0000001 DUP9 PUSH32 0x30644E72E131A029B85045B68181585D2833E84879B9709143E1F593F0000001 DUP1 PUSH2 0x2C4 CALLDATALOAD PUSH1 0x20 DUP16 ADD MLOAD MULMOD PUSH2 0x264 CALLDATALOAD ADDMOD ADDMOD SWAP4 POP PUSH32 0x30644E72E131A029B85045B68181585D2833E84879B9709143E1F593F0000001 PUSH2 0x2E4 CALLDATALOAD PUSH32 0x30644E72E131A029B85045B68181585D2833E84879B9709143E1F593F0000001 PUSH1 0x20 DUP14 ADD MLOAD PUSH1 0x0 DUP15 ADD MLOAD MULMOD MULMOD SWAP3 POP PUSH2 0x150F PUSH32 0x30644E72E131A029B85045B68181585D2833E84879B9709143E1F593F0000001 DUP5 PUSH32 0x30644E72E131A029B85045B68181585D2833E84879B9709143E1F593F0000001 DUP8 DUP10 MULMOD MULMOD PUSH32 0x3B320A9171A303269C269ACEAA145572A8538BBC63C4254445E673FF60633D6 PUSH32 0x2DA16CEE327FE82A2D4C1A5C25C6750818F28B5A57226331259D5DA2D19C6A3D PUSH1 0x40 DUP12 ADD PUSH2 0xF79 JUMP JUMPDEST PUSH2 0x151E PUSH2 0x104 PUSH1 0x80 DUP10 ADD PUSH2 0xEB7 JUMP JUMPDEST PUSH2 0x153A PUSH1 0x80 DUP12 ADD MLOAD PUSH1 0x20 PUSH2 0x144 ADD CALLDATALOAD PUSH2 0x144 CALLDATALOAD PUSH1 0x80 DUP12 ADD PUSH2 0xF0E JUMP JUMPDEST PUSH32 0x30644E72E131A029B85045B68181585D2833E84879B9709143E1F593F0000001 PUSH1 0x80 DUP12 ADD MLOAD PUSH1 0x80 DUP13 ADD MLOAD MULMOD PUSH2 0x157E DUP2 PUSH1 0x20 PUSH2 0x184 ADD CALLDATALOAD PUSH2 0x184 CALLDATALOAD PUSH1 0x80 DUP13 ADD PUSH2 0xF0E JUMP JUMPDEST PUSH2 0x159A PUSH2 0x2E0 DUP13 ADD MLOAD PUSH1 0xA0 DUP11 ADD MLOAD PUSH1 0x80 DUP12 ADD MLOAD PUSH1 0x80 DUP13 ADD PUSH2 0xF79 JUMP JUMPDEST PUSH32 0x30644E72E131A029B85045B68181585D97816A916871CA8D3C208C16D87CFD47 PUSH1 0x20 PUSH1 0x40 DUP11 ADD ADD MLOAD PUSH32 0x30644E72E131A029B85045B68181585D97816A916871CA8D3C208C16D87CFD47 SUB MOD PUSH1 0x20 PUSH1 0x40 DUP11 ADD ADD MSTORE PUSH32 0x30644E72E131A029B85045B68181585D97816A916871CA8D3C208C16D87CFD47 PUSH1 0xA0 DUP10 ADD MLOAD PUSH32 0x30644E72E131A029B85045B68181585D97816A916871CA8D3C208C16D87CFD47 SUB MOD PUSH1 0xA0 DUP10 ADD MSTORE PUSH2 0x1646 DUP9 DUP12 PUSH2 0xEC9 JUMP JUMPDEST PUSH2 0x1653 PUSH1 0x40 DUP10 ADD DUP12 PUSH2 0xEC9 JUMP JUMPDEST PUSH2 0x1660 PUSH1 0x80 DUP10 ADD DUP12 PUSH2 0xEC9 JUMP JUMPDEST POP POP POP POP POP POP POP POP POP POP POP JUMP JUMPDEST PUSH2 0x200 DUP2 ADD PUSH2 0x1680 PUSH2 0x1C0 DUP4 ADD DUP3 PUSH2 0xE97 JUMP JUMPDEST PUSH2 0x1697 PUSH1 0xC0 DUP4 ADD MLOAD PUSH1 0x20 PUSH1 0x4 ADD CALLDATALOAD PUSH1 0x4 CALLDATALOAD DUP5 PUSH2 0xF0E JUMP JUMPDEST PUSH2 0x16AE PUSH1 0xE0 DUP4 ADD MLOAD PUSH1 0x20 PUSH1 0x44 ADD CALLDATALOAD PUSH1 0x44 CALLDATALOAD DUP5 PUSH2 0xF0E JUMP JUMPDEST PUSH2 0x16C6 PUSH2 0x100 DUP4 ADD MLOAD PUSH1 0x20 PUSH1 0x84 ADD CALLDATALOAD PUSH1 0x84 CALLDATALOAD DUP5 PUSH2 0xF0E JUMP JUMPDEST PUSH2 0x1717 PUSH2 0x120 DUP4 ADD MLOAD PUSH32 0x2C9E80DCE358F6427F544E955D19AF8FF01E3B27CB59D8C48F63EF89DE868928 PUSH32 0x1FF0BB3B96AE2D414CB33B3F277E7D88F6179D96C13ACC3D9E107DBB6F2C948E DUP5 PUSH2 0xF0E JUMP JUMPDEST PUSH2 0x1768 PUSH2 0x140 DUP4 ADD MLOAD PUSH32 0x29FF179CB7108F0CC6E21E8AA54DB62C26201261C8BCDCE18E7DD3D2446184E4 PUSH32 0x2E6256B56E4467A32FE35632FF69BD3B6B7A82D725BB514362656FC012649715 DUP5 PUSH2 0xF0E JUMP JUMPDEST POP POP JUMP JUMPDEST PUSH32 0x30644E72E131A029B85045B68181585D2833E84879B9709143E1F593F0000001 PUSH2 0x1A0 DUP3 ADD MLOAD PUSH32 0x30644E72E131A029B85045B68181585D2833E84879B9709143E1F593F0000001 SUB MOD PUSH32 0x30644E72E131A029B85045B68181585D2833E84879B9709143E1F593F0000001 DUP1 PUSH1 0xC0 DUP5 ADD MLOAD PUSH2 0x244 CALLDATALOAD MULMOD DUP3 ADDMOD SWAP1 POP PUSH32 0x30644E72E131A029B85045B68181585D2833E84879B9709143E1F593F0000001 DUP1 PUSH1 0xE0 DUP5 ADD MLOAD PUSH2 0x264 CALLDATALOAD MULMOD DUP3 ADDMOD SWAP1 POP PUSH32 0x30644E72E131A029B85045B68181585D2833E84879B9709143E1F593F0000001 DUP1 PUSH2 0x100 DUP5 ADD MLOAD PUSH2 0x284 CALLDATALOAD MULMOD DUP3 ADDMOD SWAP1 POP PUSH32 0x30644E72E131A029B85045B68181585D2833E84879B9709143E1F593F0000001 DUP1 PUSH2 0x120 DUP5 ADD MLOAD PUSH2 0x2A4 CALLDATALOAD MULMOD DUP3 ADDMOD SWAP1 POP PUSH32 0x30644E72E131A029B85045B68181585D2833E84879B9709143E1F593F0000001 DUP1 PUSH2 0x140 DUP5 ADD MLOAD PUSH2 0x2C4 CALLDATALOAD MULMOD DUP3 ADDMOD SWAP1 POP PUSH32 0x30644E72E131A029B85045B68181585D2833E84879B9709143E1F593F0000001 DUP1 PUSH2 0x160 DUP5 ADD MLOAD PUSH2 0x2E4 CALLDATALOAD MULMOD DUP3 ADDMOD SWAP1 POP PUSH2 0x18EC DUP2 PUSH1 0x2 PUSH1 0x1 PUSH2 0x240 DUP7 ADD PUSH2 0xF79 JUMP JUMPDEST POP POP JUMP JUMPDEST PUSH1 0x0 PUSH1 0x40 MLOAD PUSH2 0x240 DUP2 ADD PUSH1 0x40 MSTORE PUSH2 0x180 DUP2 ADD PUSH2 0x1C0 DUP3 ADD PUSH2 0x200 DUP4 ADD PUSH2 0x1918 PUSH2 0x1C4 DUP5 PUSH2 0xEB7 JUMP JUMPDEST PUSH2 0x1924 PUSH2 0x204 DUP4 PUSH2 0xEB7 JUMP JUMPDEST PUSH2 0x1934 PUSH2 0x160 DUP8 ADD MLOAD DUP4 DUP7 PUSH2 0xFB4 JUMP JUMPDEST PUSH2 0x193E DUP4 DUP6 PUSH2 0xEC9 JUMP JUMPDEST PUSH32 0x30644E72E131A029B85045B68181585D97816A916871CA8D3C208C16D87CFD47 PUSH1 0x20 DUP6 ADD MLOAD PUSH32 0x30644E72E131A029B85045B68181585D97816A916871CA8D3C208C16D87CFD47 SUB MOD PUSH1 0x20 DUP6 ADD MSTORE PUSH32 0x1834F9CC7F8946119DBFFB356857F685323B9661F30928A11F25E716A0E4C1B5 PUSH1 0x40 DUP6 ADD MSTORE PUSH32 0x156F794199EAAB1845FFEECEF053D507569439AF557FB2E06E3553FE5F51C1F6 PUSH1 0x60 DUP6 ADD MSTORE PUSH32 0x139EECFBDB7602316E29FAD8D574E4A3FA77B4CDFA56998C4FAC44572F774E58 PUSH1 0x80 DUP6 ADD MSTORE PUSH32 0x2C3373E7E6A7C4A7C615DE0F4AFCE82A76E1EBBEFBFFC1443CA0561D4D044CF PUSH1 0xA0 DUP6 ADD MSTORE PUSH2 0x1A36 PUSH1 0x60 DUP8 ADD MLOAD DUP5 PUSH1 0xC0 DUP8 ADD PUSH2 0xFB4 JUMP JUMPDEST PUSH32 0x30644E72E131A029B85045B68181585D2833E84879B9709143E1F593F0000001 PUSH1 0x60 DUP8 ADD MLOAD PUSH2 0x160 DUP9 ADD MLOAD MULMOD PUSH32 0x30644E72E131A029B85045B68181585D2833E84879B9709143E1F593F0000001 PUSH32 0x27A358499C5042BB4027FD7A5355D71B8C12C177494F0CAD00A58F9769A2EE2 DUP3 MULMOD SWAP1 POP PUSH2 0x1AB4 DUP2 DUP5 DUP5 PUSH2 0xFB4 JUMP JUMPDEST PUSH2 0x1AC1 DUP3 PUSH1 0xC0 DUP8 ADD PUSH2 0xEC9 JUMP JUMPDEST PUSH2 0x1AD2 PUSH2 0x200 DUP9 ADD PUSH1 0xC0 DUP8 ADD PUSH2 0xEC9 JUMP JUMPDEST PUSH32 0x30644E72E131A029B85045B68181585D97816A916871CA8D3C208C16D87CFD47 PUSH1 0x20 PUSH2 0x240 ADD DUP9 ADD MLOAD PUSH32 0x30644E72E131A029B85045B68181585D97816A916871CA8D3C208C16D87CFD47 SUB MOD PUSH1 0x20 PUSH2 0x240 ADD DUP9 ADD MSTORE PUSH2 0x1B39 PUSH2 0x240 DUP9 ADD PUSH1 0xC0 DUP8 ADD PUSH2 0xEC9 JUMP JUMPDEST PUSH32 0x198E9393920D483A7260BFB731FB5D25F1AA493335A9E71297E485B7AEF312C2 PUSH2 0x100 DUP7 ADD MSTORE PUSH32 0x1800DEEF121F1E76426A00665E5C4479674322D4F75EDADD46DEBD5CD992F6ED PUSH2 0x120 DUP7 ADD MSTORE PUSH32 0x90689D0585FF075EC9E99AD690C3395BC4B313370B38EF355ACDADCD122975B PUSH2 0x140 DUP7 ADD MSTORE PUSH32 0x12C85EA5DB8C6DEB4AAB71808DCB408FE3D1E7690C43D37B4CE6CC0166FA7DAA PUSH2 0x160 DUP7 ADD MSTORE PUSH1 0x20 DUP6 PUSH2 0x180 DUP8 PUSH1 0x8 PUSH2 0x7D0 GAS SUB STATICCALL DUP6 MLOAD DUP2 AND SWAP7 POP POP POP POP POP POP POP SWAP2 SWAP1 POP JUMP JUMPDEST PUSH1 0x40 MLOAD PUSH2 0x360 DUP2 ADD PUSH1 0x40 MSTORE PUSH2 0x1C08 PUSH2 0x206 JUMP JUMPDEST PUSH2 0x1C12 DUP4 DUP3 PUSH2 0x250 JUMP JUMPDEST PUSH2 0x1C1B DUP2 PUSH2 0x9D4 JUMP JUMPDEST PUSH2 0x1C25 DUP4 DUP3 PUSH2 0xB8D JUMP JUMPDEST PUSH2 0x1C2E DUP2 PUSH2 0xC45 JUMP JUMPDEST PUSH2 0x1C37 DUP2 PUSH2 0xFCA JUMP JUMPDEST PUSH2 0x1C40 DUP2 PUSH2 0x166D JUMP JUMPDEST PUSH2 0x1C49 DUP2 PUSH2 0x176C JUMP JUMPDEST PUSH2 0x1C52 DUP2 PUSH2 0x18F0 JUMP JUMPDEST PUSH2 0x360 DUP3 SUB PUSH1 0x40 MSTORE DUP1 PUSH1 0x0 MSTORE PUSH1 0x20 PUSH1 0x0 RETURN JUMPDEST PUSH1 0x0 DUP1 REVERT JUMPDEST PUSH1 0x0 DUP1 REVERT JUMPDEST PUSH1 0x0 DUP2 SWAP1 POP DUP3 PUSH1 0x20 PUSH1 0x18 MUL DUP3 ADD GT ISZERO PUSH2 0x1C8A JUMPI PUSH2 0x1C89 PUSH2 0x1C69 JUMP JUMPDEST JUMPDEST SWAP3 SWAP2 POP POP JUMP JUMPDEST PUSH1 0x0 DUP2 SWAP1 POP DUP3 PUSH1 0x20 PUSH1 0x2 MUL DUP3 ADD GT ISZERO PUSH2 0x1CAC JUMPI PUSH2 0x1CAB PUSH2 0x1C69 JUMP JUMPDEST JUMPDEST SWAP3 SWAP2 POP POP JUMP JUMPDEST PUSH1 0x0 DUP1 PUSH2 0x340 DUP4 DUP6 SUB SLT ISZERO PUSH2 0x1CCA JUMPI PUSH2 0x1CC9 PUSH2 0x1C64 JUMP JUMPDEST JUMPDEST PUSH1 0x0 PUSH2 0x1CD8 DUP6 DUP3 DUP7 ADD PUSH2 0x1C6E JUMP JUMPDEST SWAP3 POP POP PUSH2 0x300 PUSH2 0x1CEA DUP6 DUP3 DUP7 ADD PUSH2 0x1C90 JUMP JUMPDEST SWAP2 POP POP SWAP3 POP SWAP3 SWAP1 POP JUMP JUMPDEST PUSH1 0x0 DUP2 ISZERO ISZERO SWAP1 POP SWAP2 SWAP1 POP JUMP JUMPDEST PUSH2 0x1D09 DUP2 PUSH2 0x1CF4 JUMP JUMPDEST DUP3 MSTORE POP POP JUMP JUMPDEST PUSH1 0x0 PUSH1 0x20 DUP3 ADD SWAP1 POP PUSH2 0x1D24 PUSH1 0x0 DUP4 ADD DUP5 PUSH2 0x1D00 JUMP JUMPDEST SWAP3 SWAP2 POP POP JUMP INVALID LOG2 PUSH5 0x6970667358 0x22 SLT KECCAK256 DUP3 0xEF PUSH30 0x90E4CF9565B0AEE70428C7FC7971E40109810C9F181DCCA37401E7884164 PUSH20 0x6F6C634300081800330000000000000000000000 "},"methodIdentifiers":{"verifyProof(uint256[24],uint256[2])":"c0e9d81c"}}}}}