{
  "_format": "hh-sol-artifact-1",
  "contractName": "PlonkVerifier",
  "sourceName": "contracts/originationWorkgroup/romania_workstep1Verifier.sol",
  "abi": [
    {
      "inputs": [
        {
          "internalType": "uint256[24]",
          "name": "_proof",
          "type": "uint256[24]"
        },
        {
          "internalType": "uint256[513]",
          "name": "_pubSignals",
          "type": "uint256[513]"
        }
      ],
      "name": "verifyProof",
      "outputs": [
        {
          "internalType": "bool",
          "name": "",
          "type": "bool"
        }
      ],
      "stateMutability": "view",
      "type": "function"
    }
  ],
  "bytecode": "0x60806040523480156200001157600080fd5b506203072880620000236000396000f3fe60806040523480156200001157600080fd5b50600436106200002e5760003560e01c80630f085c281462000033575b600080fd5b6200005160048036038101906200004b91906203066f565b62000069565b604051620000609190620306d5565b60405180910390f35b600062030599565b600080600184846000805b8215620000a857828405915084820286039050849550809450828202840390508293508092506200007c565b6001841115620000b757600080fd5b6000861215620000c75788860195505b85965050505050505092915050565b60405181602084028301815160208301925060005b8284101562000130578185527f30644e72e131a029b85045b68181585d2833e84879b9709143e1f593f0000001845183099150602085019450602084019350620000eb565b6200015c7f30644e72e131a029b85045b68181585d2833e84879b9709143e1f593f00000018362000071565b91506020850394506020840393508592505b82841115620001da577f30644e72e131a029b85045b68181585d2833e84879b9709143e1f593f00000018551830990507f30644e72e131a029b85045b68181585d2833e84879b9709143e1f593f00000018451830991508084526020850394506020840393506200016e565b81845250505050505050565b7f30644e72e131a029b85045b68181585d2833e84879b9709143e1f593f0000001811062000218576000805260206000f35b50565b6200022961024435620001e6565b6200023761026435620001e6565b6200024561028435620001e6565b620002536102a435620001e6565b620002616102c435620001e6565b6200026f6102e435620001e6565b565b6000806040517f2b86093ad5a02aad119874a99bbf07c4827bd156761c1b2aa6e72ddc021b934981527f25c05c2b62b70ffa61a888433e6aeb02b5f87aafeff9388616764dba6984602560208201527f2ef6a44ae4b2ed7f65f2985d5c55d273268875dbb3da94ac63a1d1efad90fe8a60408201527f2371d36f7826147a960370bc89fb663a25c126bb12bdfa90df71f45b88c3e89860608201527f1083b90b3449dca2eca6d8edeac759f68eea2f90485908eb872fec5574b5db3160808201527f2a3271d046baa1f81cb87d781574eb5ab9f589fa2437299ef7e75c7cfd946b3e60a08201527f26cc8f5e198b33d9a31dba72b0f51e71d6ed2cc313e460f38d5336e857c1a1ef60c08201527f0907d4cd3961728b7a57ed958a1473413e52dfd6643fd158dbbdfde3de25a35f60e08201527f2a1d1906fe7f8d14f42691c990262a37ccd36cef2cbd8f2c588afb2a22125b986101008201527f032259192b4fbb910bd04de1bb17fc8480f4d6ed00c5cecb354b29a6d4fc6f146101208201527f2e2d9379352a5b3b7d72800f5bedc70e32ffc3d6129898a434d082a92edd8b656101408201527f26dc6205c9e602ff6d98b4d022518875ac8b1b02f9591b12ae9884c7738548256101608201527f1e4028fab567c3f99585867d5b57a16057814f68db279663d073f4d4017924136101808201527f24288959f7620548c5c852e4286b96db9472744b506ada48ca626021143ff2bc6101a08201527f013ad80e40608bbda64d4ed1d4e64f2ad3a299c5eb09711d90d384ed74e1f7576101c08201527f280c2353dcc96e016e4532857c6fbcd9083dd108ba3b82608889afebacafb9376101e08201526000850135610200820152602085013561022082015260408501356102408201526060850135610260820152608085013561028082015260a08501356102a082015260c08501356102c082015260e08501356102e08201526101008501356103008201526101208501356103208201526101408501356103408201526101608501356103608201526101808501356103808201526101a08501356103a08201526101c08501356103c08201526101e08501356103e08201526102008501356104008201526102208501356104208201526102408501356104408201526102608501356104608201526102808501356104808201526102a08501356104a08201526102c08501356104c08201526102e08501356104e08201526103008501356105008201526103208501356105208201526103408501356105408201526103608501356105608201526103808501356105808201526103a08501356105a08201526103c08501356105c08201526103e08501356105e08201526104008501356106008201526104208501356106208201526104408501356106408201526104608501356106608201526104808501356106808201526104a08501356106a08201526104c08501356106c08201526104e08501356106e08201526105008501356107008201526105208501356107208201526105408501356107408201526105608501356107608201526105808501356107808201526105a08501356107a08201526105c08501356107c08201526105e08501356107e08201526106008501356108008201526106208501356108208201526106408501356108408201526106608501356108608201526106808501356108808201526106a08501356108a08201526106c08501356108c08201526106e08501356108e08201526107008501356109008201526107208501356109208201526107408501356109408201526107608501356109608201526107808501356109808201526107a08501356109a08201526107c08501356109c08201526107e08501356109e0820152610800850135610a00820152610820850135610a20820152610840850135610a40820152610860850135610a60820152610880850135610a808201526108a0850135610aa08201526108c0850135610ac08201526108e0850135610ae0820152610900850135610b00820152610920850135610b20820152610940850135610b40820152610960850135610b60820152610980850135610b808201526109a0850135610ba08201526109c0850135610bc08201526109e0850135610be0820152610a00850135610c00820152610a20850135610c20820152610a40850135610c40820152610a60850135610c60820152610a80850135610c80820152610aa0850135610ca0820152610ac0850135610cc0820152610ae0850135610ce0820152610b00850135610d00820152610b20850135610d20820152610b40850135610d40820152610b60850135610d60820152610b80850135610d80820152610ba0850135610da0820152610bc0850135610dc0820152610be0850135610de0820152610c00850135610e00820152610c20850135610e20820152610c40850135610e40820152610c60850135610e60820152610c80850135610e80820152610ca0850135610ea0820152610cc0850135610ec0820152610ce0850135610ee0820152610d00850135610f00820152610d20850135610f20820152610d40850135610f40820152610d60850135610f60820152610d80850135610f80820152610da0850135610fa0820152610dc0850135610fc0820152610de0850135610fe0820152610e00850135611000820152610e20850135611020820152610e40850135611040820152610e60850135611060820152610e80850135611080820152610ea08501356110a0820152610ec08501356110c0820152610ee08501356110e0820152610f00850135611100820152610f20850135611120820152610f40850135611140820152610f60850135611160820152610f80850135611180820152610fa08501356111a0820152610fc08501356111c0820152610fe08501356111e08201526110008501356112008201526110208501356112208201526110408501356112408201526110608501356112608201526110808501356112808201526110a08501356112a08201526110c08501356112c08201526110e08501356112e08201526111008501356113008201526111208501356113208201526111408501356113408201526111608501356113608201526111808501356113808201526111a08501356113a08201526111c08501356113c08201526111e08501356113e08201526112008501356114008201526112208501356114208201526112408501356114408201526112608501356114608201526112808501356114808201526112a08501356114a08201526112c08501356114c08201526112e08501356114e08201526113008501356115008201526113208501356115208201526113408501356115408201526113608501356115608201526113808501356115808201526113a08501356115a08201526113c08501356115c08201526113e08501356115e08201526114008501356116008201526114208501356116208201526114408501356116408201526114608501356116608201526114808501356116808201526114a08501356116a08201526114c08501356116c08201526114e08501356116e08201526115008501356117008201526115208501356117208201526115408501356117408201526115608501356117608201526115808501356117808201526115a08501356117a08201526115c08501356117c08201526115e08501356117e08201526116008501356118008201526116208501356118208201526116408501356118408201526116608501356118608201526116808501356118808201526116a08501356118a08201526116c08501356118c08201526116e08501356118e08201526117008501356119008201526117208501356119208201526117408501356119408201526117608501356119608201526117808501356119808201526117a08501356119a08201526117c08501356119c08201526117e08501356119e0820152611800850135611a00820152611820850135611a20820152611840850135611a40820152611860850135611a60820152611880850135611a808201526118a0850135611aa08201526118c0850135611ac08201526118e0850135611ae0820152611900850135611b00820152611920850135611b20820152611940850135611b40820152611960850135611b60820152611980850135611b808201526119a0850135611ba08201526119c0850135611bc08201526119e0850135611be0820152611a00850135611c00820152611a20850135611c20820152611a40850135611c40820152611a60850135611c60820152611a80850135611c80820152611aa0850135611ca0820152611ac0850135611cc0820152611ae0850135611ce0820152611b00850135611d00820152611b20850135611d20820152611b40850135611d40820152611b60850135611d60820152611b80850135611d80820152611ba0850135611da0820152611bc0850135611dc0820152611be0850135611de0820152611c00850135611e00820152611c20850135611e20820152611c40850135611e40820152611c60850135611e60820152611c80850135611e80820152611ca0850135611ea0820152611cc0850135611ec0820152611ce0850135611ee0820152611d00850135611f00820152611d20850135611f20820152611d40850135611f40820152611d60850135611f60820152611d80850135611f80820152611da0850135611fa0820152611dc0850135611fc0820152611de0850135611fe0820152611e00850135612000820152611e20850135612020820152611e40850135612040820152611e60850135612060820152611e80850135612080820152611ea08501356120a0820152611ec08501356120c0820152611ee08501356120e0820152611f00850135612100820152611f20850135612120820152611f40850135612140820152611f60850135612160820152611f80850135612180820152611fa08501356121a0820152611fc08501356121c0820152611fe08501356121e08201526120008501356122008201526120208501356122208201526120408501356122408201526120608501356122608201526120808501356122808201526120a08501356122a08201526120c08501356122c08201526120e08501356122e08201526121008501356123008201526121208501356123208201526121408501356123408201526121608501356123608201526121808501356123808201526121a08501356123a08201526121c08501356123c08201526121e08501356123e08201526122008501356124008201526122208501356124208201526122408501356124408201526122608501356124608201526122808501356124808201526122a08501356124a08201526122c08501356124c08201526122e08501356124e08201526123008501356125008201526123208501356125208201526123408501356125408201526123608501356125608201526123808501356125808201526123a08501356125a08201526123c08501356125c08201526123e08501356125e08201526124008501356126008201526124208501356126208201526124408501356126408201526124608501356126608201526124808501356126808201526124a08501356126a08201526124c08501356126c08201526124e08501356126e08201526125008501356127008201526125208501356127208201526125408501356127408201526125608501356127608201526125808501356127808201526125a08501356127a08201526125c08501356127c08201526125e08501356127e08201526126008501356128008201526126208501356128208201526126408501356128408201526126608501356128608201526126808501356128808201526126a08501356128a08201526126c08501356128c08201526126e08501356128e08201526127008501356129008201526127208501356129208201526127408501356129408201526127608501356129608201526127808501356129808201526127a08501356129a08201526127c08501356129c08201526127e08501356129e0820152612800850135612a00820152612820850135612a20820152612840850135612a40820152612860850135612a60820152612880850135612a808201526128a0850135612aa08201526128c0850135612ac08201526128e0850135612ae0820152612900850135612b00820152612920850135612b20820152612940850135612b40820152612960850135612b60820152612980850135612b808201526129a0850135612ba08201526129c0850135612bc08201526129e0850135612be0820152612a00850135612c00820152612a20850135612c20820152612a40850135612c40820152612a60850135612c60820152612a80850135612c80820152612aa0850135612ca0820152612ac0850135612cc0820152612ae0850135612ce0820152612b00850135612d00820152612b20850135612d20820152612b40850135612d40820152612b60850135612d60820152612b80850135612d80820152612ba0850135612da0820152612bc0850135612dc0820152612be0850135612de0820152612c00850135612e00820152612c20850135612e20820152612c40850135612e40820152612c60850135612e60820152612c80850135612e80820152612ca0850135612ea0820152612cc0850135612ec0820152612ce0850135612ee0820152612d00850135612f00820152612d20850135612f20820152612d40850135612f40820152612d60850135612f60820152612d80850135612f80820152612da0850135612fa0820152612dc0850135612fc0820152612de0850135612fe0820152612e00850135613000820152612e20850135613020820152612e40850135613040820152612e60850135613060820152612e80850135613080820152612ea08501356130a0820152612ec08501356130c0820152612ee08501356130e0820152612f00850135613100820152612f20850135613120820152612f40850135613140820152612f60850135613160820152612f80850135613180820152612fa08501356131a0820152612fc08501356131c0820152612fe08501356131e08201526130008501356132008201526130208501356132208201526130408501356132408201526130608501356132608201526130808501356132808201526130a08501356132a08201526130c08501356132c08201526130e08501356132e08201526131008501356133008201526131208501356133208201526131408501356133408201526131608501356133608201526131808501356133808201526131a08501356133a08201526131c08501356133c08201526131e08501356133e08201526132008501356134008201526132208501356134208201526132408501356134408201526132608501356134608201526132808501356134808201526132a08501356134a08201526132c08501356134c08201526132e08501356134e08201526133008501356135008201526133208501356135208201526133408501356135408201526133608501356135608201526133808501356135808201526133a08501356135a08201526133c08501356135c08201526133e08501356135e08201526134008501356136008201526134208501356136208201526134408501356136408201526134608501356136608201526134808501356136808201526134a08501356136a08201526134c08501356136c08201526134e08501356136e08201526135008501356137008201526135208501356137208201526135408501356137408201526135608501356137608201526135808501356137808201526135a08501356137a08201526135c08501356137c08201526135e08501356137e08201526136008501356138008201526136208501356138208201526136408501356138408201526136608501356138608201526136808501356138808201526136a08501356138a08201526136c08501356138c08201526136e08501356138e08201526137008501356139008201526137208501356139208201526137408501356139408201526137608501356139608201526137808501356139808201526137a08501356139a08201526137c08501356139c08201526137e08501356139e0820152613800850135613a00820152613820850135613a20820152613840850135613a40820152613860850135613a60820152613880850135613a808201526138a0850135613aa08201526138c0850135613ac08201526138e0850135613ae0820152613900850135613b00820152613920850135613b20820152613940850135613b40820152613960850135613b60820152613980850135613b808201526139a0850135613ba08201526139c0850135613bc08201526139e0850135613be0820152613a00850135613c00820152613a20850135613c20820152613a40850135613c40820152613a60850135613c60820152613a80850135613c80820152613aa0850135613ca0820152613ac0850135613cc0820152613ae0850135613ce0820152613b00850135613d00820152613b20850135613d20820152613b40850135613d40820152613b60850135613d60820152613b80850135613d80820152613ba0850135613da0820152613bc0850135613dc0820152613be0850135613de0820152613c00850135613e00820152613c20850135613e20820152613c40850135613e40820152613c60850135613e60820152613c80850135613e80820152613ca0850135613ea0820152613cc0850135613ec0820152613ce0850135613ee0820152613d00850135613f00820152613d20850135613f20820152613d40850135613f40820152613d60850135613f60820152613d80850135613f80820152613da0850135613fa0820152613dc0850135613fc0820152613de0850135613fe0820152613e00850135614000820152613e20850135614020820152613e40850135614040820152613e60850135614060820152613e80850135614080820152613ea08501356140a0820152613ec08501356140c0820152613ee08501356140e0820152613f00850135614100820152613f20850135614120820152613f40850135614140820152613f60850135614160820152613f80850135614180820152613fa08501356141a0820152613fc08501356141c0820152613fe08501356141e08201526140008501356142008201526004356142208201526020600401356142408201526044356142608201526020604401356142808201526084356142a08201526020608401356142c08201527f30644e72e131a029b85045b68181585d2833e84879b9709143e1f593f00000016142e082200692508260208501527f30644e72e131a029b85045b68181585d2833e84879b9709143e1f593f0000001602080860120066040850152602084015181526040840151602082015260c4356040820152602060c4013560608201527f30644e72e131a029b85045b68181585d2833e84879b9709143e1f593f0000001608082200691508160008501527f30644e72e131a029b85045b68181585d2833e84879b9709143e1f593f00000018283096102c08501528181526101043560208201526020610104013560408201526101443560608201526020610144013560808201526101843560a08201526020610184013560c08201527f30644e72e131a029b85045b68181585d2833e84879b9709143e1f593f000000160e082200691508160608501528181526102443560208201526102643560408201526102843560608201526102a43560808201526102c43560a08201526102e43560c08201527f30644e72e131a029b85045b68181585d2833e84879b9709143e1f593f000000160e08220068060c08601527f30644e72e131a029b85045b68181585d2833e84879b9709143e1f593f000000183850960a08601527f30644e72e131a029b85045b68181585d2833e84879b9709143e1f593f000000183840992507f30644e72e131a029b85045b68181585d2833e84879b9709143e1f593f000000183840992507f30644e72e131a029b85045b68181585d2833e84879b9709143e1f593f000000183840992507f30644e72e131a029b85045b68181585d2833e84879b9709143e1f593f000000183840992507f30644e72e131a029b85045b68181585d2833e84879b9709143e1f593f000000183840992507f30644e72e131a029b85045b68181585d2833e84879b9709143e1f593f000000183840992507f30644e72e131a029b85045b68181585d2833e84879b9709143e1f593f000000183840992507f30644e72e131a029b85045b68181585d2833e84879b9709143e1f593f000000183840992507f30644e72e131a029b85045b68181585d2833e84879b9709143e1f593f000000183840992507f30644e72e131a029b85045b68181585d2833e84879b9709143e1f593f000000183840992507f30644e72e131a029b85045b68181585d2833e84879b9709143e1f593f000000183840992507f30644e72e131a029b85045b68181585d2833e84879b9709143e1f593f000000183840992507f30644e72e131a029b85045b68181585d2833e84879b9709143e1f593f000000183840992507f30644e72e131a029b85045b68181585d2833e84879b9709143e1f593f000000183840992507f30644e72e131a029b85045b68181585d2833e84879b9709143e1f593f000000183840992507f30644e72e131a029b85045b68181585d2833e84879b9709143e1f593f000000183840992508260808601527f30644e72e131a029b85045b68181585d2833e84879b9709143e1f593f0000001806001850301069250826102e0860152826103008601527f30644e72e131a029b85045b68181585d2833e84879b9709143e1f593f000000181820992508260e08601527f30644e72e131a029b85045b68181585d2833e84879b9709143e1f593f00000018184099250826101008601527f30644e72e131a029b85045b68181585d2833e84879b9709143e1f593f00000018184099250826101208601527f30644e72e131a029b85045b68181585d2833e84879b9709143e1f593f00000018184099250826101408601526101c435825260206101c4013560208301526102043560408301526020610204013560608301527f30644e72e131a029b85045b68181585d2833e84879b9709143e1f593f00000016080832006610160860152505050505050565b60017f30644e72e131a029b85045b68181585d2833e84879b9709143e1f593f0000001807f30644e72e131a029b85045b68181585d2833e84879b9709143e1f593f000000183606086015103010662010000096103208301527f30644e72e131a029b85045b68181585d2833e84879b9709143e1f593f00000017eeeb2cb5981ed45649abebde081dcff16c8601de4347e7dd1628ba2daac43b7820990507f30644e72e131a029b85045b68181585d2833e84879b9709143e1f593f0000001807f30644e72e131a029b85045b68181585d2833e84879b9709143e1f593f000000183606086015103010662010000096103408301527f30644e72e131a029b85045b68181585d2833e84879b9709143e1f593f00000017eeeb2cb5981ed45649abebde081dcff16c8601de4347e7dd1628ba2daac43b7820990507f30644e72e131a029b85045b68181585d2833e84879b9709143e1f593f0000001807f30644e72e131a029b85045b68181585d2833e84879b9709143e1f593f000000183606086015103010662010000096103608301527f30644e72e131a029b85045b68181585d2833e84879b9709143e1f593f00000017eeeb2cb5981ed45649abebde081dcff16c8601de4347e7dd1628ba2daac43b7820990507f30644e72e131a029b85045b68181585d2833e84879b9709143e1f593f0000001807f30644e72e131a029b85045b68181585d2833e84879b9709143e1f593f000000183606086015103010662010000096103808301527f30644e72e131a029b85045b68181585d2833e84879b9709143e1f593f00000017eeeb2cb5981ed45649abebde081dcff16c8601de4347e7dd1628ba2daac43b7820990507f30644e72e131a029b85045b68181585d2833e84879b9709143e1f593f0000001807f30644e72e131a029b85045b68181585d2833e84879b9709143e1f593f000000183606086015103010662010000096103a08301527f30644e72e131a029b85045b68181585d2833e84879b9709143e1f593f00000017eeeb2cb5981ed45649abebde081dcff16c8601de4347e7dd1628ba2daac43b7820990507f30644e72e131a029b85045b68181585d2833e84879b9709143e1f593f0000001807f30644e72e131a029b85045b68181585d2833e84879b9709143e1f593f000000183606086015103010662010000096103c08301527f30644e72e131a029b85045b68181585d2833e84879b9709143e1f593f00000017eeeb2cb5981ed45649abebde081dcff16c8601de4347e7dd1628ba2daac43b7820990507f30644e72e131a029b85045b68181585d2833e84879b9709143e1f593f0000001807f30644e72e131a029b85045b68181585d2833e84879b9709143e1f593f000000183606086015103010662010000096103e08301527f30644e72e131a029b85045b68181585d2833e84879b9709143e1f593f00000017eeeb2cb5981ed45649abebde081dcff16c8601de4347e7dd1628ba2daac43b7820990507f30644e72e131a029b85045b68181585d2833e84879b9709143e1f593f0000001807f30644e72e131a029b85045b68181585d2833e84879b9709143e1f593f000000183606086015103010662010000096104008301527f30644e72e131a029b85045b68181585d2833e84879b9709143e1f593f00000017eeeb2cb5981ed45649abebde081dcff16c8601de4347e7dd1628ba2daac43b7820990507f30644e72e131a029b85045b68181585d2833e84879b9709143e1f593f0000001807f30644e72e131a029b85045b68181585d2833e84879b9709143e1f593f000000183606086015103010662010000096104208301527f30644e72e131a029b85045b68181585d2833e84879b9709143e1f593f00000017eeeb2cb5981ed45649abebde081dcff16c8601de4347e7dd1628ba2daac43b7820990507f30644e72e131a029b85045b68181585d2833e84879b9709143e1f593f0000001807f30644e72e131a029b85045b68181585d2833e84879b9709143e1f593f000000183606086015103010662010000096104408301527f30644e72e131a029b85045b68181585d2833e84879b9709143e1f593f00000017eeeb2cb5981ed45649abebde081dcff16c8601de4347e7dd1628ba2daac43b7820990507f30644e72e131a029b85045b68181585d2833e84879b9709143e1f593f0000001807f30644e72e131a029b85045b68181585d2833e84879b9709143e1f593f000000183606086015103010662010000096104608301527f30644e72e131a029b85045b68181585d2833e84879b9709143e1f593f00000017eeeb2cb5981ed45649abebde081dcff16c8601de4347e7dd1628ba2daac43b7820990507f30644e72e131a029b85045b68181585d2833e84879b9709143e1f593f0000001807f30644e72e131a029b85045b68181585d2833e84879b9709143e1f593f000000183606086015103010662010000096104808301527f30644e72e131a029b85045b68181585d2833e84879b9709143e1f593f00000017eeeb2cb5981ed45649abebde081dcff16c8601de4347e7dd1628ba2daac43b7820990507f30644e72e131a029b85045b68181585d2833e84879b9709143e1f593f0000001807f30644e72e131a029b85045b68181585d2833e84879b9709143e1f593f000000183606086015103010662010000096104a08301527f30644e72e131a029b85045b68181585d2833e84879b9709143e1f593f00000017eeeb2cb5981ed45649abebde081dcff16c8601de4347e7dd1628ba2daac43b7820990507f30644e72e131a029b85045b68181585d2833e84879b9709143e1f593f0000001807f30644e72e131a029b85045b68181585d2833e84879b9709143e1f593f000000183606086015103010662010000096104c08301527f30644e72e131a029b85045b68181585d2833e84879b9709143e1f593f00000017eeeb2cb5981ed45649abebde081dcff16c8601de4347e7dd1628ba2daac43b7820990507f30644e72e131a029b85045b68181585d2833e84879b9709143e1f593f0000001807f30644e72e131a029b85045b68181585d2833e84879b9709143e1f593f000000183606086015103010662010000096104e08301527f30644e72e131a029b85045b68181585d2833e84879b9709143e1f593f00000017eeeb2cb5981ed45649abebde081dcff16c8601de4347e7dd1628ba2daac43b7820990507f30644e72e131a029b85045b68181585d2833e84879b9709143e1f593f0000001807f30644e72e131a029b85045b68181585d2833e84879b9709143e1f593f000000183606086015103010662010000096105008301527f30644e72e131a029b85045b68181585d2833e84879b9709143e1f593f00000017eeeb2cb5981ed45649abebde081dcff16c8601de4347e7dd1628ba2daac43b7820990507f30644e72e131a029b85045b68181585d2833e84879b9709143e1f593f0000001807f30644e72e131a029b85045b68181585d2833e84879b9709143e1f593f000000183606086015103010662010000096105208301527f30644e72e131a029b85045b68181585d2833e84879b9709143e1f593f00000017eeeb2cb5981ed45649abebde081dcff16c8601de4347e7dd1628ba2daac43b7820990507f30644e72e131a029b85045b68181585d2833e84879b9709143e1f593f0000001807f30644e72e131a029b85045b68181585d2833e84879b9709143e1f593f000000183606086015103010662010000096105408301527f30644e72e131a029b85045b68181585d2833e84879b9709143e1f593f00000017eeeb2cb5981ed45649abebde081dcff16c8601de4347e7dd1628ba2daac43b7820990507f30644e72e131a029b85045b68181585d2833e84879b9709143e1f593f0000001807f30644e72e131a029b85045b68181585d2833e84879b9709143e1f593f000000183606086015103010662010000096105608301527f30644e72e131a029b85045b68181585d2833e84879b9709143e1f593f00000017eeeb2cb5981ed45649abebde081dcff16c8601de4347e7dd1628ba2daac43b7820990507f30644e72e131a029b85045b68181585d2833e84879b9709143e1f593f0000001807f30644e72e131a029b85045b68181585d2833e84879b9709143e1f593f000000183606086015103010662010000096105808301527f30644e72e131a029b85045b68181585d2833e84879b9709143e1f593f00000017eeeb2cb5981ed45649abebde081dcff16c8601de4347e7dd1628ba2daac43b7820990507f30644e72e131a029b85045b68181585d2833e84879b9709143e1f593f0000001807f30644e72e131a029b85045b68181585d2833e84879b9709143e1f593f000000183606086015103010662010000096105a08301527f30644e72e131a029b85045b68181585d2833e84879b9709143e1f593f00000017eeeb2cb5981ed45649abebde081dcff16c8601de4347e7dd1628ba2daac43b7820990507f30644e72e131a029b85045b68181585d2833e84879b9709143e1f593f0000001807f30644e72e131a029b85045b68181585d2833e84879b9709143e1f593f000000183606086015103010662010000096105c08301527f30644e72e131a029b85045b68181585d2833e84879b9709143e1f593f00000017eeeb2cb5981ed45649abebde081dcff16c8601de4347e7dd1628ba2daac43b7820990507f30644e72e131a029b85045b68181585d2833e84879b9709143e1f593f0000001807f30644e72e131a029b85045b68181585d2833e84879b9709143e1f593f000000183606086015103010662010000096105e08301527f30644e72e131a029b85045b68181585d2833e84879b9709143e1f593f00000017eeeb2cb5981ed45649abebde081dcff16c8601de4347e7dd1628ba2daac43b7820990507f30644e72e131a029b85045b68181585d2833e84879b9709143e1f593f0000001807f30644e72e131a029b85045b68181585d2833e84879b9709143e1f593f000000183606086015103010662010000096106008301527f30644e72e131a029b85045b68181585d2833e84879b9709143e1f593f00000017eeeb2cb5981ed45649abebde081dcff16c8601de4347e7dd1628ba2daac43b7820990507f30644e72e131a029b85045b68181585d2833e84879b9709143e1f593f0000001807f30644e72e131a029b85045b68181585d2833e84879b9709143e1f593f000000183606086015103010662010000096106208301527f30644e72e131a029b85045b68181585d2833e84879b9709143e1f593f00000017eeeb2cb5981ed45649abebde081dcff16c8601de4347e7dd1628ba2daac43b7820990507f30644e72e131a029b85045b68181585d2833e84879b9709143e1f593f0000001807f30644e72e131a029b85045b68181585d2833e84879b9709143e1f593f000000183606086015103010662010000096106408301527f30644e72e131a029b85045b68181585d2833e84879b9709143e1f593f00000017eeeb2cb5981ed45649abebde081dcff16c8601de4347e7dd1628ba2daac43b7820990507f30644e72e131a029b85045b68181585d2833e84879b9709143e1f593f0000001807f30644e72e131a029b85045b68181585d2833e84879b9709143e1f593f000000183606086015103010662010000096106608301527f30644e72e131a029b85045b68181585d2833e84879b9709143e1f593f00000017eeeb2cb5981ed45649abebde081dcff16c8601de4347e7dd1628ba2daac43b7820990507f30644e72e131a029b85045b68181585d2833e84879b9709143e1f593f0000001807f30644e72e131a029b85045b68181585d2833e84879b9709143e1f593f000000183606086015103010662010000096106808301527f30644e72e131a029b85045b68181585d2833e84879b9709143e1f593f00000017eeeb2cb5981ed45649abebde081dcff16c8601de4347e7dd1628ba2daac43b7820990507f30644e72e131a029b85045b68181585d2833e84879b9709143e1f593f0000001807f30644e72e131a029b85045b68181585d2833e84879b9709143e1f593f000000183606086015103010662010000096106a08301527f30644e72e131a029b85045b68181585d2833e84879b9709143e1f593f00000017eeeb2cb5981ed45649abebde081dcff16c8601de4347e7dd1628ba2daac43b7820990507f30644e72e131a029b85045b68181585d2833e84879b9709143e1f593f0000001807f30644e72e131a029b85045b68181585d2833e84879b9709143e1f593f000000183606086015103010662010000096106c08301527f30644e72e131a029b85045b68181585d2833e84879b9709143e1f593f00000017eeeb2cb5981ed45649abebde081dcff16c8601de4347e7dd1628ba2daac43b7820990507f30644e72e131a029b85045b68181585d2833e84879b9709143e1f593f0000001807f30644e72e131a029b85045b68181585d2833e84879b9709143e1f593f000000183606086015103010662010000096106e08301527f30644e72e131a029b85045b68181585d2833e84879b9709143e1f593f00000017eeeb2cb5981ed45649abebde081dcff16c8601de4347e7dd1628ba2daac43b7820990507f30644e72e131a029b85045b68181585d2833e84879b9709143e1f593f0000001807f30644e72e131a029b85045b68181585d2833e84879b9709143e1f593f000000183606086015103010662010000096107008301527f30644e72e131a029b85045b68181585d2833e84879b9709143e1f593f00000017eeeb2cb5981ed45649abebde081dcff16c8601de4347e7dd1628ba2daac43b7820990507f30644e72e131a029b85045b68181585d2833e84879b9709143e1f593f0000001807f30644e72e131a029b85045b68181585d2833e84879b9709143e1f593f000000183606086015103010662010000096107208301527f30644e72e131a029b85045b68181585d2833e84879b9709143e1f593f00000017eeeb2cb5981ed45649abebde081dcff16c8601de4347e7dd1628ba2daac43b7820990507f30644e72e131a029b85045b68181585d2833e84879b9709143e1f593f0000001807f30644e72e131a029b85045b68181585d2833e84879b9709143e1f593f000000183606086015103010662010000096107408301527f30644e72e131a029b85045b68181585d2833e84879b9709143e1f593f00000017eeeb2cb5981ed45649abebde081dcff16c8601de4347e7dd1628ba2daac43b7820990507f30644e72e131a029b85045b68181585d2833e84879b9709143e1f593f0000001807f30644e72e131a029b85045b68181585d2833e84879b9709143e1f593f000000183606086015103010662010000096107608301527f30644e72e131a029b85045b68181585d2833e84879b9709143e1f593f00000017eeeb2cb5981ed45649abebde081dcff16c8601de4347e7dd1628ba2daac43b7820990507f30644e72e131a029b85045b68181585d2833e84879b9709143e1f593f0000001807f30644e72e131a029b85045b68181585d2833e84879b9709143e1f593f000000183606086015103010662010000096107808301527f30644e72e131a029b85045b68181585d2833e84879b9709143e1f593f00000017eeeb2cb5981ed45649abebde081dcff16c8601de4347e7dd1628ba2daac43b7820990507f30644e72e131a029b85045b68181585d2833e84879b9709143e1f593f0000001807f30644e72e131a029b85045b68181585d2833e84879b9709143e1f593f000000183606086015103010662010000096107a08301527f30644e72e131a029b85045b68181585d2833e84879b9709143e1f593f00000017eeeb2cb5981ed45649abebde081dcff16c8601de4347e7dd1628ba2daac43b7820990507f30644e72e131a029b85045b68181585d2833e84879b9709143e1f593f0000001807f30644e72e131a029b85045b68181585d2833e84879b9709143e1f593f000000183606086015103010662010000096107c08301527f30644e72e131a029b85045b68181585d2833e84879b9709143e1f593f00000017eeeb2cb5981ed45649abebde081dcff16c8601de4347e7dd1628ba2daac43b7820990507f30644e72e131a029b85045b68181585d2833e84879b9709143e1f593f0000001807f30644e72e131a029b85045b68181585d2833e84879b9709143e1f593f000000183606086015103010662010000096107e08301527f30644e72e131a029b85045b68181585d2833e84879b9709143e1f593f00000017eeeb2cb5981ed45649abebde081dcff16c8601de4347e7dd1628ba2daac43b7820990507f30644e72e131a029b85045b68181585d2833e84879b9709143e1f593f0000001807f30644e72e131a029b85045b68181585d2833e84879b9709143e1f593f000000183606086015103010662010000096108008301527f30644e72e131a029b85045b68181585d2833e84879b9709143e1f593f00000017eeeb2cb5981ed45649abebde081dcff16c8601de4347e7dd1628ba2daac43b7820990507f30644e72e131a029b85045b68181585d2833e84879b9709143e1f593f0000001807f30644e72e131a029b85045b68181585d2833e84879b9709143e1f593f000000183606086015103010662010000096108208301527f30644e72e131a029b85045b68181585d2833e84879b9709143e1f593f00000017eeeb2cb5981ed45649abebde081dcff16c8601de4347e7dd1628ba2daac43b7820990507f30644e72e131a029b85045b68181585d2833e84879b9709143e1f593f0000001807f30644e72e131a029b85045b68181585d2833e84879b9709143e1f593f000000183606086015103010662010000096108408301527f30644e72e131a029b85045b68181585d2833e84879b9709143e1f593f00000017eeeb2cb5981ed45649abebde081dcff16c8601de4347e7dd1628ba2daac43b7820990507f30644e72e131a029b85045b68181585d2833e84879b9709143e1f593f0000001807f30644e72e131a029b85045b68181585d2833e84879b9709143e1f593f000000183606086015103010662010000096108608301527f30644e72e131a029b85045b68181585d2833e84879b9709143e1f593f00000017eeeb2cb5981ed45649abebde081dcff16c8601de4347e7dd1628ba2daac43b7820990507f30644e72e131a029b85045b68181585d2833e84879b9709143e1f593f0000001807f30644e72e131a029b85045b68181585d2833e84879b9709143e1f593f000000183606086015103010662010000096108808301527f30644e72e131a029b85045b68181585d2833e84879b9709143e1f593f00000017eeeb2cb5981ed45649abebde081dcff16c8601de4347e7dd1628ba2daac43b7820990507f30644e72e131a029b85045b68181585d2833e84879b9709143e1f593f0000001807f30644e72e131a029b85045b68181585d2833e84879b9709143e1f593f000000183606086015103010662010000096108a08301527f30644e72e131a029b85045b68181585d2833e84879b9709143e1f593f00000017eeeb2cb5981ed45649abebde081dcff16c8601de4347e7dd1628ba2daac43b7820990507f30644e72e131a029b85045b68181585d2833e84879b9709143e1f593f0000001807f30644e72e131a029b85045b68181585d2833e84879b9709143e1f593f000000183606086015103010662010000096108c08301527f30644e72e131a029b85045b68181585d2833e84879b9709143e1f593f00000017eeeb2cb5981ed45649abebde081dcff16c8601de4347e7dd1628ba2daac43b7820990507f30644e72e131a029b85045b68181585d2833e84879b9709143e1f593f0000001807f30644e72e131a029b85045b68181585d2833e84879b9709143e1f593f000000183606086015103010662010000096108e08301527f30644e72e131a029b85045b68181585d2833e84879b9709143e1f593f00000017eeeb2cb5981ed45649abebde081dcff16c8601de4347e7dd1628ba2daac43b7820990507f30644e72e131a029b85045b68181585d2833e84879b9709143e1f593f0000001807f30644e72e131a029b85045b68181585d2833e84879b9709143e1f593f000000183606086015103010662010000096109008301527f30644e72e131a029b85045b68181585d2833e84879b9709143e1f593f00000017eeeb2cb5981ed45649abebde081dcff16c8601de4347e7dd1628ba2daac43b7820990507f30644e72e131a029b85045b68181585d2833e84879b9709143e1f593f0000001807f30644e72e131a029b85045b68181585d2833e84879b9709143e1f593f000000183606086015103010662010000096109208301527f30644e72e131a029b85045b68181585d2833e84879b9709143e1f593f00000017eeeb2cb5981ed45649abebde081dcff16c8601de4347e7dd1628ba2daac43b7820990507f30644e72e131a029b85045b68181585d2833e84879b9709143e1f593f0000001807f30644e72e131a029b85045b68181585d2833e84879b9709143e1f593f000000183606086015103010662010000096109408301527f30644e72e131a029b85045b68181585d2833e84879b9709143e1f593f00000017eeeb2cb5981ed45649abebde081dcff16c8601de4347e7dd1628ba2daac43b7820990507f30644e72e131a029b85045b68181585d2833e84879b9709143e1f593f0000001807f30644e72e131a029b85045b68181585d2833e84879b9709143e1f593f000000183606086015103010662010000096109608301527f30644e72e131a029b85045b68181585d2833e84879b9709143e1f593f00000017eeeb2cb5981ed45649abebde081dcff16c8601de4347e7dd1628ba2daac43b7820990507f30644e72e131a029b85045b68181585d2833e84879b9709143e1f593f0000001807f30644e72e131a029b85045b68181585d2833e84879b9709143e1f593f000000183606086015103010662010000096109808301527f30644e72e131a029b85045b68181585d2833e84879b9709143e1f593f00000017eeeb2cb5981ed45649abebde081dcff16c8601de4347e7dd1628ba2daac43b7820990507f30644e72e131a029b85045b68181585d2833e84879b9709143e1f593f0000001807f30644e72e131a029b85045b68181585d2833e84879b9709143e1f593f000000183606086015103010662010000096109a08301527f30644e72e131a029b85045b68181585d2833e84879b9709143e1f593f00000017eeeb2cb5981ed45649abebde081dcff16c8601de4347e7dd1628ba2daac43b7820990507f30644e72e131a029b85045b68181585d2833e84879b9709143e1f593f0000001807f30644e72e131a029b85045b68181585d2833e84879b9709143e1f593f000000183606086015103010662010000096109c08301527f30644e72e131a029b85045b68181585d2833e84879b9709143e1f593f00000017eeeb2cb5981ed45649abebde081dcff16c8601de4347e7dd1628ba2daac43b7820990507f30644e72e131a029b85045b68181585d2833e84879b9709143e1f593f0000001807f30644e72e131a029b85045b68181585d2833e84879b9709143e1f593f000000183606086015103010662010000096109e08301527f30644e72e131a029b85045b68181585d2833e84879b9709143e1f593f00000017eeeb2cb5981ed45649abebde081dcff16c8601de4347e7dd1628ba2daac43b7820990507f30644e72e131a029b85045b68181585d2833e84879b9709143e1f593f0000001807f30644e72e131a029b85045b68181585d2833e84879b9709143e1f593f00000018360608601510301066201000009610a008301527f30644e72e131a029b85045b68181585d2833e84879b9709143e1f593f00000017eeeb2cb5981ed45649abebde081dcff16c8601de4347e7dd1628ba2daac43b7820990507f30644e72e131a029b85045b68181585d2833e84879b9709143e1f593f0000001807f30644e72e131a029b85045b68181585d2833e84879b9709143e1f593f00000018360608601510301066201000009610a208301527f30644e72e131a029b85045b68181585d2833e84879b9709143e1f593f00000017eeeb2cb5981ed45649abebde081dcff16c8601de4347e7dd1628ba2daac43b7820990507f30644e72e131a029b85045b68181585d2833e84879b9709143e1f593f0000001807f30644e72e131a029b85045b68181585d2833e84879b9709143e1f593f00000018360608601510301066201000009610a408301527f30644e72e131a029b85045b68181585d2833e84879b9709143e1f593f00000017eeeb2cb5981ed45649abebde081dcff16c8601de4347e7dd1628ba2daac43b7820990507f30644e72e131a029b85045b68181585d2833e84879b9709143e1f593f0000001807f30644e72e131a029b85045b68181585d2833e84879b9709143e1f593f00000018360608601510301066201000009610a608301527f30644e72e131a029b85045b68181585d2833e84879b9709143e1f593f00000017eeeb2cb5981ed45649abebde081dcff16c8601de4347e7dd1628ba2daac43b7820990507f30644e72e131a029b85045b68181585d2833e84879b9709143e1f593f0000001807f30644e72e131a029b85045b68181585d2833e84879b9709143e1f593f00000018360608601510301066201000009610a808301527f30644e72e131a029b85045b68181585d2833e84879b9709143e1f593f00000017eeeb2cb5981ed45649abebde081dcff16c8601de4347e7dd1628ba2daac43b7820990507f30644e72e131a029b85045b68181585d2833e84879b9709143e1f593f0000001807f30644e72e131a029b85045b68181585d2833e84879b9709143e1f593f00000018360608601510301066201000009610aa08301527f30644e72e131a029b85045b68181585d2833e84879b9709143e1f593f00000017eeeb2cb5981ed45649abebde081dcff16c8601de4347e7dd1628ba2daac43b7820990507f30644e72e131a029b85045b68181585d2833e84879b9709143e1f593f0000001807f30644e72e131a029b85045b68181585d2833e84879b9709143e1f593f00000018360608601510301066201000009610ac08301527f30644e72e131a029b85045b68181585d2833e84879b9709143e1f593f00000017eeeb2cb5981ed45649abebde081dcff16c8601de4347e7dd1628ba2daac43b7820990507f30644e72e131a029b85045b68181585d2833e84879b9709143e1f593f0000001807f30644e72e131a029b85045b68181585d2833e84879b9709143e1f593f00000018360608601510301066201000009610ae08301527f30644e72e131a029b85045b68181585d2833e84879b9709143e1f593f00000017eeeb2cb5981ed45649abebde081dcff16c8601de4347e7dd1628ba2daac43b7820990507f30644e72e131a029b85045b68181585d2833e84879b9709143e1f593f0000001807f30644e72e131a029b85045b68181585d2833e84879b9709143e1f593f00000018360608601510301066201000009610b008301527f30644e72e131a029b85045b68181585d2833e84879b9709143e1f593f00000017eeeb2cb5981ed45649abebde081dcff16c8601de4347e7dd1628ba2daac43b7820990507f30644e72e131a029b85045b68181585d2833e84879b9709143e1f593f0000001807f30644e72e131a029b85045b68181585d2833e84879b9709143e1f593f00000018360608601510301066201000009610b208301527f30644e72e131a029b85045b68181585d2833e84879b9709143e1f593f00000017eeeb2cb5981ed45649abebde081dcff16c8601de4347e7dd1628ba2daac43b7820990507f30644e72e131a029b85045b68181585d2833e84879b9709143e1f593f0000001807f30644e72e131a029b85045b68181585d2833e84879b9709143e1f593f00000018360608601510301066201000009610b408301527f30644e72e131a029b85045b68181585d2833e84879b9709143e1f593f00000017eeeb2cb5981ed45649abebde081dcff16c8601de4347e7dd1628ba2daac43b7820990507f30644e72e131a029b85045b68181585d2833e84879b9709143e1f593f0000001807f30644e72e131a029b85045b68181585d2833e84879b9709143e1f593f00000018360608601510301066201000009610b608301527f30644e72e131a029b85045b68181585d2833e84879b9709143e1f593f00000017eeeb2cb5981ed45649abebde081dcff16c8601de4347e7dd1628ba2daac43b7820990507f30644e72e131a029b85045b68181585d2833e84879b9709143e1f593f0000001807f30644e72e131a029b85045b68181585d2833e84879b9709143e1f593f00000018360608601510301066201000009610b808301527f30644e72e131a029b85045b68181585d2833e84879b9709143e1f593f00000017eeeb2cb5981ed45649abebde081dcff16c8601de4347e7dd1628ba2daac43b7820990507f30644e72e131a029b85045b68181585d2833e84879b9709143e1f593f0000001807f30644e72e131a029b85045b68181585d2833e84879b9709143e1f593f00000018360608601510301066201000009610ba08301527f30644e72e131a029b85045b68181585d2833e84879b9709143e1f593f00000017eeeb2cb5981ed45649abebde081dcff16c8601de4347e7dd1628ba2daac43b7820990507f30644e72e131a029b85045b68181585d2833e84879b9709143e1f593f0000001807f30644e72e131a029b85045b68181585d2833e84879b9709143e1f593f00000018360608601510301066201000009610bc08301527f30644e72e131a029b85045b68181585d2833e84879b9709143e1f593f00000017eeeb2cb5981ed45649abebde081dcff16c8601de4347e7dd1628ba2daac43b7820990507f30644e72e131a029b85045b68181585d2833e84879b9709143e1f593f0000001807f30644e72e131a029b85045b68181585d2833e84879b9709143e1f593f00000018360608601510301066201000009610be08301527f30644e72e131a029b85045b68181585d2833e84879b9709143e1f593f00000017eeeb2cb5981ed45649abebde081dcff16c8601de4347e7dd1628ba2daac43b7820990507f30644e72e131a029b85045b68181585d2833e84879b9709143e1f593f0000001807f30644e72e131a029b85045b68181585d2833e84879b9709143e1f593f00000018360608601510301066201000009610c008301527f30644e72e131a029b85045b68181585d2833e84879b9709143e1f593f00000017eeeb2cb5981ed45649abebde081dcff16c8601de4347e7dd1628ba2daac43b7820990507f30644e72e131a029b85045b68181585d2833e84879b9709143e1f593f0000001807f30644e72e131a029b85045b68181585d2833e84879b9709143e1f593f00000018360608601510301066201000009610c208301527f30644e72e131a029b85045b68181585d2833e84879b9709143e1f593f00000017eeeb2cb5981ed45649abebde081dcff16c8601de4347e7dd1628ba2daac43b7820990507f30644e72e131a029b85045b68181585d2833e84879b9709143e1f593f0000001807f30644e72e131a029b85045b68181585d2833e84879b9709143e1f593f00000018360608601510301066201000009610c408301527f30644e72e131a029b85045b68181585d2833e84879b9709143e1f593f00000017eeeb2cb5981ed45649abebde081dcff16c8601de4347e7dd1628ba2daac43b7820990507f30644e72e131a029b85045b68181585d2833e84879b9709143e1f593f0000001807f30644e72e131a029b85045b68181585d2833e84879b9709143e1f593f00000018360608601510301066201000009610c608301527f30644e72e131a029b85045b68181585d2833e84879b9709143e1f593f00000017eeeb2cb5981ed45649abebde081dcff16c8601de4347e7dd1628ba2daac43b7820990507f30644e72e131a029b85045b68181585d2833e84879b9709143e1f593f0000001807f30644e72e131a029b85045b68181585d2833e84879b9709143e1f593f00000018360608601510301066201000009610c808301527f30644e72e131a029b85045b68181585d2833e84879b9709143e1f593f00000017eeeb2cb5981ed45649abebde081dcff16c8601de4347e7dd1628ba2daac43b7820990507f30644e72e131a029b85045b68181585d2833e84879b9709143e1f593f0000001807f30644e72e131a029b85045b68181585d2833e84879b9709143e1f593f00000018360608601510301066201000009610ca08301527f30644e72e131a029b85045b68181585d2833e84879b9709143e1f593f00000017eeeb2cb5981ed45649abebde081dcff16c8601de4347e7dd1628ba2daac43b7820990507f30644e72e131a029b85045b68181585d2833e84879b9709143e1f593f0000001807f30644e72e131a029b85045b68181585d2833e84879b9709143e1f593f00000018360608601510301066201000009610cc08301527f30644e72e131a029b85045b68181585d2833e84879b9709143e1f593f00000017eeeb2cb5981ed45649abebde081dcff16c8601de4347e7dd1628ba2daac43b7820990507f30644e72e131a029b85045b68181585d2833e84879b9709143e1f593f0000001807f30644e72e131a029b85045b68181585d2833e84879b9709143e1f593f00000018360608601510301066201000009610ce08301527f30644e72e131a029b85045b68181585d2833e84879b9709143e1f593f00000017eeeb2cb5981ed45649abebde081dcff16c8601de4347e7dd1628ba2daac43b7820990507f30644e72e131a029b85045b68181585d2833e84879b9709143e1f593f0000001807f30644e72e131a029b85045b68181585d2833e84879b9709143e1f593f00000018360608601510301066201000009610d008301527f30644e72e131a029b85045b68181585d2833e84879b9709143e1f593f00000017eeeb2cb5981ed45649abebde081dcff16c8601de4347e7dd1628ba2daac43b7820990507f30644e72e131a029b85045b68181585d2833e84879b9709143e1f593f0000001807f30644e72e131a029b85045b68181585d2833e84879b9709143e1f593f00000018360608601510301066201000009610d208301527f30644e72e131a029b85045b68181585d2833e84879b9709143e1f593f00000017eeeb2cb5981ed45649abebde081dcff16c8601de4347e7dd1628ba2daac43b7820990507f30644e72e131a029b85045b68181585d2833e84879b9709143e1f593f0000001807f30644e72e131a029b85045b68181585d2833e84879b9709143e1f593f00000018360608601510301066201000009610d408301527f30644e72e131a029b85045b68181585d2833e84879b9709143e1f593f00000017eeeb2cb5981ed45649abebde081dcff16c8601de4347e7dd1628ba2daac43b7820990507f30644e72e131a029b85045b68181585d2833e84879b9709143e1f593f0000001807f30644e72e131a029b85045b68181585d2833e84879b9709143e1f593f00000018360608601510301066201000009610d608301527f30644e72e131a029b85045b68181585d2833e84879b9709143e1f593f00000017eeeb2cb5981ed45649abebde081dcff16c8601de4347e7dd1628ba2daac43b7820990507f30644e72e131a029b85045b68181585d2833e84879b9709143e1f593f0000001807f30644e72e131a029b85045b68181585d2833e84879b9709143e1f593f00000018360608601510301066201000009610d808301527f30644e72e131a029b85045b68181585d2833e84879b9709143e1f593f00000017eeeb2cb5981ed45649abebde081dcff16c8601de4347e7dd1628ba2daac43b7820990507f30644e72e131a029b85045b68181585d2833e84879b9709143e1f593f0000001807f30644e72e131a029b85045b68181585d2833e84879b9709143e1f593f00000018360608601510301066201000009610da08301527f30644e72e131a029b85045b68181585d2833e84879b9709143e1f593f00000017eeeb2cb5981ed45649abebde081dcff16c8601de4347e7dd1628ba2daac43b7820990507f30644e72e131a029b85045b68181585d2833e84879b9709143e1f593f0000001807f30644e72e131a029b85045b68181585d2833e84879b9709143e1f593f00000018360608601510301066201000009610dc08301527f30644e72e131a029b85045b68181585d2833e84879b9709143e1f593f00000017eeeb2cb5981ed45649abebde081dcff16c8601de4347e7dd1628ba2daac43b7820990507f30644e72e131a029b85045b68181585d2833e84879b9709143e1f593f0000001807f30644e72e131a029b85045b68181585d2833e84879b9709143e1f593f00000018360608601510301066201000009610de08301527f30644e72e131a029b85045b68181585d2833e84879b9709143e1f593f00000017eeeb2cb5981ed45649abebde081dcff16c8601de4347e7dd1628ba2daac43b7820990507f30644e72e131a029b85045b68181585d2833e84879b9709143e1f593f0000001807f30644e72e131a029b85045b68181585d2833e84879b9709143e1f593f00000018360608601510301066201000009610e008301527f30644e72e131a029b85045b68181585d2833e84879b9709143e1f593f00000017eeeb2cb5981ed45649abebde081dcff16c8601de4347e7dd1628ba2daac43b7820990507f30644e72e131a029b85045b68181585d2833e84879b9709143e1f593f0000001807f30644e72e131a029b85045b68181585d2833e84879b9709143e1f593f00000018360608601510301066201000009610e208301527f30644e72e131a029b85045b68181585d2833e84879b9709143e1f593f00000017eeeb2cb5981ed45649abebde081dcff16c8601de4347e7dd1628ba2daac43b7820990507f30644e72e131a029b85045b68181585d2833e84879b9709143e1f593f0000001807f30644e72e131a029b85045b68181585d2833e84879b9709143e1f593f00000018360608601510301066201000009610e408301527f30644e72e131a029b85045b68181585d2833e84879b9709143e1f593f00000017eeeb2cb5981ed45649abebde081dcff16c8601de4347e7dd1628ba2daac43b7820990507f30644e72e131a029b85045b68181585d2833e84879b9709143e1f593f0000001807f30644e72e131a029b85045b68181585d2833e84879b9709143e1f593f00000018360608601510301066201000009610e608301527f30644e72e131a029b85045b68181585d2833e84879b9709143e1f593f00000017eeeb2cb5981ed45649abebde081dcff16c8601de4347e7dd1628ba2daac43b7820990507f30644e72e131a029b85045b68181585d2833e84879b9709143e1f593f0000001807f30644e72e131a029b85045b68181585d2833e84879b9709143e1f593f00000018360608601510301066201000009610e808301527f30644e72e131a029b85045b68181585d2833e84879b9709143e1f593f00000017eeeb2cb5981ed45649abebde081dcff16c8601de4347e7dd1628ba2daac43b7820990507f30644e72e131a029b85045b68181585d2833e84879b9709143e1f593f0000001807f30644e72e131a029b85045b68181585d2833e84879b9709143e1f593f00000018360608601510301066201000009610ea08301527f30644e72e131a029b85045b68181585d2833e84879b9709143e1f593f00000017eeeb2cb5981ed45649abebde081dcff16c8601de4347e7dd1628ba2daac43b7820990507f30644e72e131a029b85045b68181585d2833e84879b9709143e1f593f0000001807f30644e72e131a029b85045b68181585d2833e84879b9709143e1f593f00000018360608601510301066201000009610ec08301527f30644e72e131a029b85045b68181585d2833e84879b9709143e1f593f00000017eeeb2cb5981ed45649abebde081dcff16c8601de4347e7dd1628ba2daac43b7820990507f30644e72e131a029b85045b68181585d2833e84879b9709143e1f593f0000001807f30644e72e131a029b85045b68181585d2833e84879b9709143e1f593f00000018360608601510301066201000009610ee08301527f30644e72e131a029b85045b68181585d2833e84879b9709143e1f593f00000017eeeb2cb5981ed45649abebde081dcff16c8601de4347e7dd1628ba2daac43b7820990507f30644e72e131a029b85045b68181585d2833e84879b9709143e1f593f0000001807f30644e72e131a029b85045b68181585d2833e84879b9709143e1f593f00000018360608601510301066201000009610f008301527f30644e72e131a029b85045b68181585d2833e84879b9709143e1f593f00000017eeeb2cb5981ed45649abebde081dcff16c8601de4347e7dd1628ba2daac43b7820990507f30644e72e131a029b85045b68181585d2833e84879b9709143e1f593f0000001807f30644e72e131a029b85045b68181585d2833e84879b9709143e1f593f00000018360608601510301066201000009610f208301527f30644e72e131a029b85045b68181585d2833e84879b9709143e1f593f00000017eeeb2cb5981ed45649abebde081dcff16c8601de4347e7dd1628ba2daac43b7820990507f30644e72e131a029b85045b68181585d2833e84879b9709143e1f593f0000001807f30644e72e131a029b85045b68181585d2833e84879b9709143e1f593f00000018360608601510301066201000009610f408301527f30644e72e131a029b85045b68181585d2833e84879b9709143e1f593f00000017eeeb2cb5981ed45649abebde081dcff16c8601de4347e7dd1628ba2daac43b7820990507f30644e72e131a029b85045b68181585d2833e84879b9709143e1f593f0000001807f30644e72e131a029b85045b68181585d2833e84879b9709143e1f593f00000018360608601510301066201000009610f608301527f30644e72e131a029b85045b68181585d2833e84879b9709143e1f593f00000017eeeb2cb5981ed45649abebde081dcff16c8601de4347e7dd1628ba2daac43b7820990507f30644e72e131a029b85045b68181585d2833e84879b9709143e1f593f0000001807f30644e72e131a029b85045b68181585d2833e84879b9709143e1f593f00000018360608601510301066201000009610f808301527f30644e72e131a029b85045b68181585d2833e84879b9709143e1f593f00000017eeeb2cb5981ed45649abebde081dcff16c8601de4347e7dd1628ba2daac43b7820990507f30644e72e131a029b85045b68181585d2833e84879b9709143e1f593f0000001807f30644e72e131a029b85045b68181585d2833e84879b9709143e1f593f00000018360608601510301066201000009610fa08301527f30644e72e131a029b85045b68181585d2833e84879b9709143e1f593f00000017eeeb2cb5981ed45649abebde081dcff16c8601de4347e7dd1628ba2daac43b7820990507f30644e72e131a029b85045b68181585d2833e84879b9709143e1f593f0000001807f30644e72e131a029b85045b68181585d2833e84879b9709143e1f593f00000018360608601510301066201000009610fc08301527f30644e72e131a029b85045b68181585d2833e84879b9709143e1f593f00000017eeeb2cb5981ed45649abebde081dcff16c8601de4347e7dd1628ba2daac43b7820990507f30644e72e131a029b85045b68181585d2833e84879b9709143e1f593f0000001807f30644e72e131a029b85045b68181585d2833e84879b9709143e1f593f00000018360608601510301066201000009610fe08301527f30644e72e131a029b85045b68181585d2833e84879b9709143e1f593f00000017eeeb2cb5981ed45649abebde081dcff16c8601de4347e7dd1628ba2daac43b7820990507f30644e72e131a029b85045b68181585d2833e84879b9709143e1f593f0000001807f30644e72e131a029b85045b68181585d2833e84879b9709143e1f593f000000183606086015103010662010000096110008301527f30644e72e131a029b85045b68181585d2833e84879b9709143e1f593f00000017eeeb2cb5981ed45649abebde081dcff16c8601de4347e7dd1628ba2daac43b7820990507f30644e72e131a029b85045b68181585d2833e84879b9709143e1f593f0000001807f30644e72e131a029b85045b68181585d2833e84879b9709143e1f593f000000183606086015103010662010000096110208301527f30644e72e131a029b85045b68181585d2833e84879b9709143e1f593f00000017eeeb2cb5981ed45649abebde081dcff16c8601de4347e7dd1628ba2daac43b7820990507f30644e72e131a029b85045b68181585d2833e84879b9709143e1f593f0000001807f30644e72e131a029b85045b68181585d2833e84879b9709143e1f593f000000183606086015103010662010000096110408301527f30644e72e131a029b85045b68181585d2833e84879b9709143e1f593f00000017eeeb2cb5981ed45649abebde081dcff16c8601de4347e7dd1628ba2daac43b7820990507f30644e72e131a029b85045b68181585d2833e84879b9709143e1f593f0000001807f30644e72e131a029b85045b68181585d2833e84879b9709143e1f593f000000183606086015103010662010000096110608301527f30644e72e131a029b85045b68181585d2833e84879b9709143e1f593f00000017eeeb2cb5981ed45649abebde081dcff16c8601de4347e7dd1628ba2daac43b7820990507f30644e72e131a029b85045b68181585d2833e84879b9709143e1f593f0000001807f30644e72e131a029b85045b68181585d2833e84879b9709143e1f593f000000183606086015103010662010000096110808301527f30644e72e131a029b85045b68181585d2833e84879b9709143e1f593f00000017eeeb2cb5981ed45649abebde081dcff16c8601de4347e7dd1628ba2daac43b7820990507f30644e72e131a029b85045b68181585d2833e84879b9709143e1f593f0000001807f30644e72e131a029b85045b68181585d2833e84879b9709143e1f593f000000183606086015103010662010000096110a08301527f30644e72e131a029b85045b68181585d2833e84879b9709143e1f593f00000017eeeb2cb5981ed45649abebde081dcff16c8601de4347e7dd1628ba2daac43b7820990507f30644e72e131a029b85045b68181585d2833e84879b9709143e1f593f0000001807f30644e72e131a029b85045b68181585d2833e84879b9709143e1f593f000000183606086015103010662010000096110c08301527f30644e72e131a029b85045b68181585d2833e84879b9709143e1f593f00000017eeeb2cb5981ed45649abebde081dcff16c8601de4347e7dd1628ba2daac43b7820990507f30644e72e131a029b85045b68181585d2833e84879b9709143e1f593f0000001807f30644e72e131a029b85045b68181585d2833e84879b9709143e1f593f000000183606086015103010662010000096110e08301527f30644e72e131a029b85045b68181585d2833e84879b9709143e1f593f00000017eeeb2cb5981ed45649abebde081dcff16c8601de4347e7dd1628ba2daac43b7820990507f30644e72e131a029b85045b68181585d2833e84879b9709143e1f593f0000001807f30644e72e131a029b85045b68181585d2833e84879b9709143e1f593f000000183606086015103010662010000096111008301527f30644e72e131a029b85045b68181585d2833e84879b9709143e1f593f00000017eeeb2cb5981ed45649abebde081dcff16c8601de4347e7dd1628ba2daac43b7820990507f30644e72e131a029b85045b68181585d2833e84879b9709143e1f593f0000001807f30644e72e131a029b85045b68181585d2833e84879b9709143e1f593f000000183606086015103010662010000096111208301527f30644e72e131a029b85045b68181585d2833e84879b9709143e1f593f00000017eeeb2cb5981ed45649abebde081dcff16c8601de4347e7dd1628ba2daac43b7820990507f30644e72e131a029b85045b68181585d2833e84879b9709143e1f593f0000001807f30644e72e131a029b85045b68181585d2833e84879b9709143e1f593f000000183606086015103010662010000096111408301527f30644e72e131a029b85045b68181585d2833e84879b9709143e1f593f00000017eeeb2cb5981ed45649abebde081dcff16c8601de4347e7dd1628ba2daac43b7820990507f30644e72e131a029b85045b68181585d2833e84879b9709143e1f593f0000001807f30644e72e131a029b85045b68181585d2833e84879b9709143e1f593f000000183606086015103010662010000096111608301527f30644e72e131a029b85045b68181585d2833e84879b9709143e1f593f00000017eeeb2cb5981ed45649abebde081dcff16c8601de4347e7dd1628ba2daac43b7820990507f30644e72e131a029b85045b68181585d2833e84879b9709143e1f593f0000001807f30644e72e131a029b85045b68181585d2833e84879b9709143e1f593f000000183606086015103010662010000096111808301527f30644e72e131a029b85045b68181585d2833e84879b9709143e1f593f00000017eeeb2cb5981ed45649abebde081dcff16c8601de4347e7dd1628ba2daac43b7820990507f30644e72e131a029b85045b68181585d2833e84879b9709143e1f593f0000001807f30644e72e131a029b85045b68181585d2833e84879b9709143e1f593f000000183606086015103010662010000096111a08301527f30644e72e131a029b85045b68181585d2833e84879b9709143e1f593f00000017eeeb2cb5981ed45649abebde081dcff16c8601de4347e7dd1628ba2daac43b7820990507f30644e72e131a029b85045b68181585d2833e84879b9709143e1f593f0000001807f30644e72e131a029b85045b68181585d2833e84879b9709143e1f593f000000183606086015103010662010000096111c08301527f30644e72e131a029b85045b68181585d2833e84879b9709143e1f593f00000017eeeb2cb5981ed45649abebde081dcff16c8601de4347e7dd1628ba2daac43b7820990507f30644e72e131a029b85045b68181585d2833e84879b9709143e1f593f0000001807f30644e72e131a029b85045b68181585d2833e84879b9709143e1f593f000000183606086015103010662010000096111e08301527f30644e72e131a029b85045b68181585d2833e84879b9709143e1f593f00000017eeeb2cb5981ed45649abebde081dcff16c8601de4347e7dd1628ba2daac43b7820990507f30644e72e131a029b85045b68181585d2833e84879b9709143e1f593f0000001807f30644e72e131a029b85045b68181585d2833e84879b9709143e1f593f000000183606086015103010662010000096112008301527f30644e72e131a029b85045b68181585d2833e84879b9709143e1f593f00000017eeeb2cb5981ed45649abebde081dcff16c8601de4347e7dd1628ba2daac43b7820990507f30644e72e131a029b85045b68181585d2833e84879b9709143e1f593f0000001807f30644e72e131a029b85045b68181585d2833e84879b9709143e1f593f000000183606086015103010662010000096112208301527f30644e72e131a029b85045b68181585d2833e84879b9709143e1f593f00000017eeeb2cb5981ed45649abebde081dcff16c8601de4347e7dd1628ba2daac43b7820990507f30644e72e131a029b85045b68181585d2833e84879b9709143e1f593f0000001807f30644e72e131a029b85045b68181585d2833e84879b9709143e1f593f000000183606086015103010662010000096112408301527f30644e72e131a029b85045b68181585d2833e84879b9709143e1f593f00000017eeeb2cb5981ed45649abebde081dcff16c8601de4347e7dd1628ba2daac43b7820990507f30644e72e131a029b85045b68181585d2833e84879b9709143e1f593f0000001807f30644e72e131a029b85045b68181585d2833e84879b9709143e1f593f000000183606086015103010662010000096112608301527f30644e72e131a029b85045b68181585d2833e84879b9709143e1f593f00000017eeeb2cb5981ed45649abebde081dcff16c8601de4347e7dd1628ba2daac43b7820990507f30644e72e131a029b85045b68181585d2833e84879b9709143e1f593f0000001807f30644e72e131a029b85045b68181585d2833e84879b9709143e1f593f000000183606086015103010662010000096112808301527f30644e72e131a029b85045b68181585d2833e84879b9709143e1f593f00000017eeeb2cb5981ed45649abebde081dcff16c8601de4347e7dd1628ba2daac43b7820990507f30644e72e131a029b85045b68181585d2833e84879b9709143e1f593f0000001807f30644e72e131a029b85045b68181585d2833e84879b9709143e1f593f000000183606086015103010662010000096112a08301527f30644e72e131a029b85045b68181585d2833e84879b9709143e1f593f00000017eeeb2cb5981ed45649abebde081dcff16c8601de4347e7dd1628ba2daac43b7820990507f30644e72e131a029b85045b68181585d2833e84879b9709143e1f593f0000001807f30644e72e131a029b85045b68181585d2833e84879b9709143e1f593f000000183606086015103010662010000096112c08301527f30644e72e131a029b85045b68181585d2833e84879b9709143e1f593f00000017eeeb2cb5981ed45649abebde081dcff16c8601de4347e7dd1628ba2daac43b7820990507f30644e72e131a029b85045b68181585d2833e84879b9709143e1f593f0000001807f30644e72e131a029b85045b68181585d2833e84879b9709143e1f593f000000183606086015103010662010000096112e08301527f30644e72e131a029b85045b68181585d2833e84879b9709143e1f593f00000017eeeb2cb5981ed45649abebde081dcff16c8601de4347e7dd1628ba2daac43b7820990507f30644e72e131a029b85045b68181585d2833e84879b9709143e1f593f0000001807f30644e72e131a029b85045b68181585d2833e84879b9709143e1f593f000000183606086015103010662010000096113008301527f30644e72e131a029b85045b68181585d2833e84879b9709143e1f593f00000017eeeb2cb5981ed45649abebde081dcff16c8601de4347e7dd1628ba2daac43b7820990507f30644e72e131a029b85045b68181585d2833e84879b9709143e1f593f0000001807f30644e72e131a029b85045b68181585d2833e84879b9709143e1f593f000000183606086015103010662010000096113208301527f30644e72e131a029b85045b68181585d2833e84879b9709143e1f593f00000017eeeb2cb5981ed45649abebde081dcff16c8601de4347e7dd1628ba2daac43b7820990507f30644e72e131a029b85045b68181585d2833e84879b9709143e1f593f0000001807f30644e72e131a029b85045b68181585d2833e84879b9709143e1f593f000000183606086015103010662010000096113408301527f30644e72e131a029b85045b68181585d2833e84879b9709143e1f593f00000017eeeb2cb5981ed45649abebde081dcff16c8601de4347e7dd1628ba2daac43b7820990507f30644e72e131a029b85045b68181585d2833e84879b9709143e1f593f0000001807f30644e72e131a029b85045b68181585d2833e84879b9709143e1f593f000000183606086015103010662010000096113608301527f30644e72e131a029b85045b68181585d2833e84879b9709143e1f593f00000017eeeb2cb5981ed45649abebde081dcff16c8601de4347e7dd1628ba2daac43b7820990507f30644e72e131a029b85045b68181585d2833e84879b9709143e1f593f0000001807f30644e72e131a029b85045b68181585d2833e84879b9709143e1f593f000000183606086015103010662010000096113808301527f30644e72e131a029b85045b68181585d2833e84879b9709143e1f593f00000017eeeb2cb5981ed45649abebde081dcff16c8601de4347e7dd1628ba2daac43b7820990507f30644e72e131a029b85045b68181585d2833e84879b9709143e1f593f0000001807f30644e72e131a029b85045b68181585d2833e84879b9709143e1f593f000000183606086015103010662010000096113a08301527f30644e72e131a029b85045b68181585d2833e84879b9709143e1f593f00000017eeeb2cb5981ed45649abebde081dcff16c8601de4347e7dd1628ba2daac43b7820990507f30644e72e131a029b85045b68181585d2833e84879b9709143e1f593f0000001807f30644e72e131a029b85045b68181585d2833e84879b9709143e1f593f000000183606086015103010662010000096113c08301527f30644e72e131a029b85045b68181585d2833e84879b9709143e1f593f00000017eeeb2cb5981ed45649abebde081dcff16c8601de4347e7dd1628ba2daac43b7820990507f30644e72e131a029b85045b68181585d2833e84879b9709143e1f593f0000001807f30644e72e131a029b85045b68181585d2833e84879b9709143e1f593f000000183606086015103010662010000096113e08301527f30644e72e131a029b85045b68181585d2833e84879b9709143e1f593f00000017eeeb2cb5981ed45649abebde081dcff16c8601de4347e7dd1628ba2daac43b7820990507f30644e72e131a029b85045b68181585d2833e84879b9709143e1f593f0000001807f30644e72e131a029b85045b68181585d2833e84879b9709143e1f593f000000183606086015103010662010000096114008301527f30644e72e131a029b85045b68181585d2833e84879b9709143e1f593f00000017eeeb2cb5981ed45649abebde081dcff16c8601de4347e7dd1628ba2daac43b7820990507f30644e72e131a029b85045b68181585d2833e84879b9709143e1f593f0000001807f30644e72e131a029b85045b68181585d2833e84879b9709143e1f593f000000183606086015103010662010000096114208301527f30644e72e131a029b85045b68181585d2833e84879b9709143e1f593f00000017eeeb2cb5981ed45649abebde081dcff16c8601de4347e7dd1628ba2daac43b7820990507f30644e72e131a029b85045b68181585d2833e84879b9709143e1f593f0000001807f30644e72e131a029b85045b68181585d2833e84879b9709143e1f593f000000183606086015103010662010000096114408301527f30644e72e131a029b85045b68181585d2833e84879b9709143e1f593f00000017eeeb2cb5981ed45649abebde081dcff16c8601de4347e7dd1628ba2daac43b7820990507f30644e72e131a029b85045b68181585d2833e84879b9709143e1f593f0000001807f30644e72e131a029b85045b68181585d2833e84879b9709143e1f593f000000183606086015103010662010000096114608301527f30644e72e131a029b85045b68181585d2833e84879b9709143e1f593f00000017eeeb2cb5981ed45649abebde081dcff16c8601de4347e7dd1628ba2daac43b7820990507f30644e72e131a029b85045b68181585d2833e84879b9709143e1f593f0000001807f30644e72e131a029b85045b68181585d2833e84879b9709143e1f593f000000183606086015103010662010000096114808301527f30644e72e131a029b85045b68181585d2833e84879b9709143e1f593f00000017eeeb2cb5981ed45649abebde081dcff16c8601de4347e7dd1628ba2daac43b7820990507f30644e72e131a029b85045b68181585d2833e84879b9709143e1f593f0000001807f30644e72e131a029b85045b68181585d2833e84879b9709143e1f593f000000183606086015103010662010000096114a08301527f30644e72e131a029b85045b68181585d2833e84879b9709143e1f593f00000017eeeb2cb5981ed45649abebde081dcff16c8601de4347e7dd1628ba2daac43b7820990507f30644e72e131a029b85045b68181585d2833e84879b9709143e1f593f0000001807f30644e72e131a029b85045b68181585d2833e84879b9709143e1f593f000000183606086015103010662010000096114c08301527f30644e72e131a029b85045b68181585d2833e84879b9709143e1f593f00000017eeeb2cb5981ed45649abebde081dcff16c8601de4347e7dd1628ba2daac43b7820990507f30644e72e131a029b85045b68181585d2833e84879b9709143e1f593f0000001807f30644e72e131a029b85045b68181585d2833e84879b9709143e1f593f000000183606086015103010662010000096114e08301527f30644e72e131a029b85045b68181585d2833e84879b9709143e1f593f00000017eeeb2cb5981ed45649abebde081dcff16c8601de4347e7dd1628ba2daac43b7820990507f30644e72e131a029b85045b68181585d2833e84879b9709143e1f593f0000001807f30644e72e131a029b85045b68181585d2833e84879b9709143e1f593f000000183606086015103010662010000096115008301527f30644e72e131a029b85045b68181585d2833e84879b9709143e1f593f00000017eeeb2cb5981ed45649abebde081dcff16c8601de4347e7dd1628ba2daac43b7820990507f30644e72e131a029b85045b68181585d2833e84879b9709143e1f593f0000001807f30644e72e131a029b85045b68181585d2833e84879b9709143e1f593f000000183606086015103010662010000096115208301527f30644e72e131a029b85045b68181585d2833e84879b9709143e1f593f00000017eeeb2cb5981ed45649abebde081dcff16c8601de4347e7dd1628ba2daac43b7820990507f30644e72e131a029b85045b68181585d2833e84879b9709143e1f593f0000001807f30644e72e131a029b85045b68181585d2833e84879b9709143e1f593f000000183606086015103010662010000096115408301527f30644e72e131a029b85045b68181585d2833e84879b9709143e1f593f00000017eeeb2cb5981ed45649abebde081dcff16c8601de4347e7dd1628ba2daac43b7820990507f30644e72e131a029b85045b68181585d2833e84879b9709143e1f593f0000001807f30644e72e131a029b85045b68181585d2833e84879b9709143e1f593f000000183606086015103010662010000096115608301527f30644e72e131a029b85045b68181585d2833e84879b9709143e1f593f00000017eeeb2cb5981ed45649abebde081dcff16c8601de4347e7dd1628ba2daac43b7820990507f30644e72e131a029b85045b68181585d2833e84879b9709143e1f593f0000001807f30644e72e131a029b85045b68181585d2833e84879b9709143e1f593f000000183606086015103010662010000096115808301527f30644e72e131a029b85045b68181585d2833e84879b9709143e1f593f00000017eeeb2cb5981ed45649abebde081dcff16c8601de4347e7dd1628ba2daac43b7820990507f30644e72e131a029b85045b68181585d2833e84879b9709143e1f593f0000001807f30644e72e131a029b85045b68181585d2833e84879b9709143e1f593f000000183606086015103010662010000096115a08301527f30644e72e131a029b85045b68181585d2833e84879b9709143e1f593f00000017eeeb2cb5981ed45649abebde081dcff16c8601de4347e7dd1628ba2daac43b7820990507f30644e72e131a029b85045b68181585d2833e84879b9709143e1f593f0000001807f30644e72e131a029b85045b68181585d2833e84879b9709143e1f593f000000183606086015103010662010000096115c08301527f30644e72e131a029b85045b68181585d2833e84879b9709143e1f593f00000017eeeb2cb5981ed45649abebde081dcff16c8601de4347e7dd1628ba2daac43b7820990507f30644e72e131a029b85045b68181585d2833e84879b9709143e1f593f0000001807f30644e72e131a029b85045b68181585d2833e84879b9709143e1f593f000000183606086015103010662010000096115e08301527f30644e72e131a029b85045b68181585d2833e84879b9709143e1f593f00000017eeeb2cb5981ed45649abebde081dcff16c8601de4347e7dd1628ba2daac43b7820990507f30644e72e131a029b85045b68181585d2833e84879b9709143e1f593f0000001807f30644e72e131a029b85045b68181585d2833e84879b9709143e1f593f000000183606086015103010662010000096116008301527f30644e72e131a029b85045b68181585d2833e84879b9709143e1f593f00000017eeeb2cb5981ed45649abebde081dcff16c8601de4347e7dd1628ba2daac43b7820990507f30644e72e131a029b85045b68181585d2833e84879b9709143e1f593f0000001807f30644e72e131a029b85045b68181585d2833e84879b9709143e1f593f000000183606086015103010662010000096116208301527f30644e72e131a029b85045b68181585d2833e84879b9709143e1f593f00000017eeeb2cb5981ed45649abebde081dcff16c8601de4347e7dd1628ba2daac43b7820990507f30644e72e131a029b85045b68181585d2833e84879b9709143e1f593f0000001807f30644e72e131a029b85045b68181585d2833e84879b9709143e1f593f000000183606086015103010662010000096116408301527f30644e72e131a029b85045b68181585d2833e84879b9709143e1f593f00000017eeeb2cb5981ed45649abebde081dcff16c8601de4347e7dd1628ba2daac43b7820990507f30644e72e131a029b85045b68181585d2833e84879b9709143e1f593f0000001807f30644e72e131a029b85045b68181585d2833e84879b9709143e1f593f000000183606086015103010662010000096116608301527f30644e72e131a029b85045b68181585d2833e84879b9709143e1f593f00000017eeeb2cb5981ed45649abebde081dcff16c8601de4347e7dd1628ba2daac43b7820990507f30644e72e131a029b85045b68181585d2833e84879b9709143e1f593f0000001807f30644e72e131a029b85045b68181585d2833e84879b9709143e1f593f000000183606086015103010662010000096116808301527f30644e72e131a029b85045b68181585d2833e84879b9709143e1f593f00000017eeeb2cb5981ed45649abebde081dcff16c8601de4347e7dd1628ba2daac43b7820990507f30644e72e131a029b85045b68181585d2833e84879b9709143e1f593f0000001807f30644e72e131a029b85045b68181585d2833e84879b9709143e1f593f000000183606086015103010662010000096116a08301527f30644e72e131a029b85045b68181585d2833e84879b9709143e1f593f00000017eeeb2cb5981ed45649abebde081dcff16c8601de4347e7dd1628ba2daac43b7820990507f30644e72e131a029b85045b68181585d2833e84879b9709143e1f593f0000001807f30644e72e131a029b85045b68181585d2833e84879b9709143e1f593f000000183606086015103010662010000096116c08301527f30644e72e131a029b85045b68181585d2833e84879b9709143e1f593f00000017eeeb2cb5981ed45649abebde081dcff16c8601de4347e7dd1628ba2daac43b7820990507f30644e72e131a029b85045b68181585d2833e84879b9709143e1f593f0000001807f30644e72e131a029b85045b68181585d2833e84879b9709143e1f593f000000183606086015103010662010000096116e08301527f30644e72e131a029b85045b68181585d2833e84879b9709143e1f593f00000017eeeb2cb5981ed45649abebde081dcff16c8601de4347e7dd1628ba2daac43b7820990507f30644e72e131a029b85045b68181585d2833e84879b9709143e1f593f0000001807f30644e72e131a029b85045b68181585d2833e84879b9709143e1f593f000000183606086015103010662010000096117008301527f30644e72e131a029b85045b68181585d2833e84879b9709143e1f593f00000017eeeb2cb5981ed45649abebde081dcff16c8601de4347e7dd1628ba2daac43b7820990507f30644e72e131a029b85045b68181585d2833e84879b9709143e1f593f0000001807f30644e72e131a029b85045b68181585d2833e84879b9709143e1f593f000000183606086015103010662010000096117208301527f30644e72e131a029b85045b68181585d2833e84879b9709143e1f593f00000017eeeb2cb5981ed45649abebde081dcff16c8601de4347e7dd1628ba2daac43b7820990507f30644e72e131a029b85045b68181585d2833e84879b9709143e1f593f0000001807f30644e72e131a029b85045b68181585d2833e84879b9709143e1f593f000000183606086015103010662010000096117408301527f30644e72e131a029b85045b68181585d2833e84879b9709143e1f593f00000017eeeb2cb5981ed45649abebde081dcff16c8601de4347e7dd1628ba2daac43b7820990507f30644e72e131a029b85045b68181585d2833e84879b9709143e1f593f0000001807f30644e72e131a029b85045b68181585d2833e84879b9709143e1f593f000000183606086015103010662010000096117608301527f30644e72e131a029b85045b68181585d2833e84879b9709143e1f593f00000017eeeb2cb5981ed45649abebde081dcff16c8601de4347e7dd1628ba2daac43b7820990507f30644e72e131a029b85045b68181585d2833e84879b9709143e1f593f0000001807f30644e72e131a029b85045b68181585d2833e84879b9709143e1f593f000000183606086015103010662010000096117808301527f30644e72e131a029b85045b68181585d2833e84879b9709143e1f593f00000017eeeb2cb5981ed45649abebde081dcff16c8601de4347e7dd1628ba2daac43b7820990507f30644e72e131a029b85045b68181585d2833e84879b9709143e1f593f0000001807f30644e72e131a029b85045b68181585d2833e84879b9709143e1f593f000000183606086015103010662010000096117a08301527f30644e72e131a029b85045b68181585d2833e84879b9709143e1f593f00000017eeeb2cb5981ed45649abebde081dcff16c8601de4347e7dd1628ba2daac43b7820990507f30644e72e131a029b85045b68181585d2833e84879b9709143e1f593f0000001807f30644e72e131a029b85045b68181585d2833e84879b9709143e1f593f000000183606086015103010662010000096117c08301527f30644e72e131a029b85045b68181585d2833e84879b9709143e1f593f00000017eeeb2cb5981ed45649abebde081dcff16c8601de4347e7dd1628ba2daac43b7820990507f30644e72e131a029b85045b68181585d2833e84879b9709143e1f593f0000001807f30644e72e131a029b85045b68181585d2833e84879b9709143e1f593f000000183606086015103010662010000096117e08301527f30644e72e131a029b85045b68181585d2833e84879b9709143e1f593f00000017eeeb2cb5981ed45649abebde081dcff16c8601de4347e7dd1628ba2daac43b7820990507f30644e72e131a029b85045b68181585d2833e84879b9709143e1f593f0000001807f30644e72e131a029b85045b68181585d2833e84879b9709143e1f593f000000183606086015103010662010000096118008301527f30644e72e131a029b85045b68181585d2833e84879b9709143e1f593f00000017eeeb2cb5981ed45649abebde081dcff16c8601de4347e7dd1628ba2daac43b7820990507f30644e72e131a029b85045b68181585d2833e84879b9709143e1f593f0000001807f30644e72e131a029b85045b68181585d2833e84879b9709143e1f593f000000183606086015103010662010000096118208301527f30644e72e131a029b85045b68181585d2833e84879b9709143e1f593f00000017eeeb2cb5981ed45649abebde081dcff16c8601de4347e7dd1628ba2daac43b7820990507f30644e72e131a029b85045b68181585d2833e84879b9709143e1f593f0000001807f30644e72e131a029b85045b68181585d2833e84879b9709143e1f593f000000183606086015103010662010000096118408301527f30644e72e131a029b85045b68181585d2833e84879b9709143e1f593f00000017eeeb2cb5981ed45649abebde081dcff16c8601de4347e7dd1628ba2daac43b7820990507f30644e72e131a029b85045b68181585d2833e84879b9709143e1f593f0000001807f30644e72e131a029b85045b68181585d2833e84879b9709143e1f593f000000183606086015103010662010000096118608301527f30644e72e131a029b85045b68181585d2833e84879b9709143e1f593f00000017eeeb2cb5981ed45649abebde081dcff16c8601de4347e7dd1628ba2daac43b7820990507f30644e72e131a029b85045b68181585d2833e84879b9709143e1f593f0000001807f30644e72e131a029b85045b68181585d2833e84879b9709143e1f593f000000183606086015103010662010000096118808301527f30644e72e131a029b85045b68181585d2833e84879b9709143e1f593f00000017eeeb2cb5981ed45649abebde081dcff16c8601de4347e7dd1628ba2daac43b7820990507f30644e72e131a029b85045b68181585d2833e84879b9709143e1f593f0000001807f30644e72e131a029b85045b68181585d2833e84879b9709143e1f593f000000183606086015103010662010000096118a08301527f30644e72e131a029b85045b68181585d2833e84879b9709143e1f593f00000017eeeb2cb5981ed45649abebde081dcff16c8601de4347e7dd1628ba2daac43b7820990507f30644e72e131a029b85045b68181585d2833e84879b9709143e1f593f0000001807f30644e72e131a029b85045b68181585d2833e84879b9709143e1f593f000000183606086015103010662010000096118c08301527f30644e72e131a029b85045b68181585d2833e84879b9709143e1f593f00000017eeeb2cb5981ed45649abebde081dcff16c8601de4347e7dd1628ba2daac43b7820990507f30644e72e131a029b85045b68181585d2833e84879b9709143e1f593f0000001807f30644e72e131a029b85045b68181585d2833e84879b9709143e1f593f000000183606086015103010662010000096118e08301527f30644e72e131a029b85045b68181585d2833e84879b9709143e1f593f00000017eeeb2cb5981ed45649abebde081dcff16c8601de4347e7dd1628ba2daac43b7820990507f30644e72e131a029b85045b68181585d2833e84879b9709143e1f593f0000001807f30644e72e131a029b85045b68181585d2833e84879b9709143e1f593f000000183606086015103010662010000096119008301527f30644e72e131a029b85045b68181585d2833e84879b9709143e1f593f00000017eeeb2cb5981ed45649abebde081dcff16c8601de4347e7dd1628ba2daac43b7820990507f30644e72e131a029b85045b68181585d2833e84879b9709143e1f593f0000001807f30644e72e131a029b85045b68181585d2833e84879b9709143e1f593f000000183606086015103010662010000096119208301527f30644e72e131a029b85045b68181585d2833e84879b9709143e1f593f00000017eeeb2cb5981ed45649abebde081dcff16c8601de4347e7dd1628ba2daac43b7820990507f30644e72e131a029b85045b68181585d2833e84879b9709143e1f593f0000001807f30644e72e131a029b85045b68181585d2833e84879b9709143e1f593f000000183606086015103010662010000096119408301527f30644e72e131a029b85045b68181585d2833e84879b9709143e1f593f00000017eeeb2cb5981ed45649abebde081dcff16c8601de4347e7dd1628ba2daac43b7820990507f30644e72e131a029b85045b68181585d2833e84879b9709143e1f593f0000001807f30644e72e131a029b85045b68181585d2833e84879b9709143e1f593f000000183606086015103010662010000096119608301527f30644e72e131a029b85045b68181585d2833e84879b9709143e1f593f00000017eeeb2cb5981ed45649abebde081dcff16c8601de4347e7dd1628ba2daac43b7820990507f30644e72e131a029b85045b68181585d2833e84879b9709143e1f593f0000001807f30644e72e131a029b85045b68181585d2833e84879b9709143e1f593f000000183606086015103010662010000096119808301527f30644e72e131a029b85045b68181585d2833e84879b9709143e1f593f00000017eeeb2cb5981ed45649abebde081dcff16c8601de4347e7dd1628ba2daac43b7820990507f30644e72e131a029b85045b68181585d2833e84879b9709143e1f593f0000001807f30644e72e131a029b85045b68181585d2833e84879b9709143e1f593f000000183606086015103010662010000096119a08301527f30644e72e131a029b85045b68181585d2833e84879b9709143e1f593f00000017eeeb2cb5981ed45649abebde081dcff16c8601de4347e7dd1628ba2daac43b7820990507f30644e72e131a029b85045b68181585d2833e84879b9709143e1f593f0000001807f30644e72e131a029b85045b68181585d2833e84879b9709143e1f593f000000183606086015103010662010000096119c08301527f30644e72e131a029b85045b68181585d2833e84879b9709143e1f593f00000017eeeb2cb5981ed45649abebde081dcff16c8601de4347e7dd1628ba2daac43b7820990507f30644e72e131a029b85045b68181585d2833e84879b9709143e1f593f0000001807f30644e72e131a029b85045b68181585d2833e84879b9709143e1f593f000000183606086015103010662010000096119e08301527f30644e72e131a029b85045b68181585d2833e84879b9709143e1f593f00000017eeeb2cb5981ed45649abebde081dcff16c8601de4347e7dd1628ba2daac43b7820990507f30644e72e131a029b85045b68181585d2833e84879b9709143e1f593f0000001807f30644e72e131a029b85045b68181585d2833e84879b9709143e1f593f00000018360608601510301066201000009611a008301527f30644e72e131a029b85045b68181585d2833e84879b9709143e1f593f00000017eeeb2cb5981ed45649abebde081dcff16c8601de4347e7dd1628ba2daac43b7820990507f30644e72e131a029b85045b68181585d2833e84879b9709143e1f593f0000001807f30644e72e131a029b85045b68181585d2833e84879b9709143e1f593f00000018360608601510301066201000009611a208301527f30644e72e131a029b85045b68181585d2833e84879b9709143e1f593f00000017eeeb2cb5981ed45649abebde081dcff16c8601de4347e7dd1628ba2daac43b7820990507f30644e72e131a029b85045b68181585d2833e84879b9709143e1f593f0000001807f30644e72e131a029b85045b68181585d2833e84879b9709143e1f593f00000018360608601510301066201000009611a408301527f30644e72e131a029b85045b68181585d2833e84879b9709143e1f593f00000017eeeb2cb5981ed45649abebde081dcff16c8601de4347e7dd1628ba2daac43b7820990507f30644e72e131a029b85045b68181585d2833e84879b9709143e1f593f0000001807f30644e72e131a029b85045b68181585d2833e84879b9709143e1f593f00000018360608601510301066201000009611a608301527f30644e72e131a029b85045b68181585d2833e84879b9709143e1f593f00000017eeeb2cb5981ed45649abebde081dcff16c8601de4347e7dd1628ba2daac43b7820990507f30644e72e131a029b85045b68181585d2833e84879b9709143e1f593f0000001807f30644e72e131a029b85045b68181585d2833e84879b9709143e1f593f00000018360608601510301066201000009611a808301527f30644e72e131a029b85045b68181585d2833e84879b9709143e1f593f00000017eeeb2cb5981ed45649abebde081dcff16c8601de4347e7dd1628ba2daac43b7820990507f30644e72e131a029b85045b68181585d2833e84879b9709143e1f593f0000001807f30644e72e131a029b85045b68181585d2833e84879b9709143e1f593f00000018360608601510301066201000009611aa08301527f30644e72e131a029b85045b68181585d2833e84879b9709143e1f593f00000017eeeb2cb5981ed45649abebde081dcff16c8601de4347e7dd1628ba2daac43b7820990507f30644e72e131a029b85045b68181585d2833e84879b9709143e1f593f0000001807f30644e72e131a029b85045b68181585d2833e84879b9709143e1f593f00000018360608601510301066201000009611ac08301527f30644e72e131a029b85045b68181585d2833e84879b9709143e1f593f00000017eeeb2cb5981ed45649abebde081dcff16c8601de4347e7dd1628ba2daac43b7820990507f30644e72e131a029b85045b68181585d2833e84879b9709143e1f593f0000001807f30644e72e131a029b85045b68181585d2833e84879b9709143e1f593f00000018360608601510301066201000009611ae08301527f30644e72e131a029b85045b68181585d2833e84879b9709143e1f593f00000017eeeb2cb5981ed45649abebde081dcff16c8601de4347e7dd1628ba2daac43b7820990507f30644e72e131a029b85045b68181585d2833e84879b9709143e1f593f0000001807f30644e72e131a029b85045b68181585d2833e84879b9709143e1f593f00000018360608601510301066201000009611b008301527f30644e72e131a029b85045b68181585d2833e84879b9709143e1f593f00000017eeeb2cb5981ed45649abebde081dcff16c8601de4347e7dd1628ba2daac43b7820990507f30644e72e131a029b85045b68181585d2833e84879b9709143e1f593f0000001807f30644e72e131a029b85045b68181585d2833e84879b9709143e1f593f00000018360608601510301066201000009611b208301527f30644e72e131a029b85045b68181585d2833e84879b9709143e1f593f00000017eeeb2cb5981ed45649abebde081dcff16c8601de4347e7dd1628ba2daac43b7820990507f30644e72e131a029b85045b68181585d2833e84879b9709143e1f593f0000001807f30644e72e131a029b85045b68181585d2833e84879b9709143e1f593f00000018360608601510301066201000009611b408301527f30644e72e131a029b85045b68181585d2833e84879b9709143e1f593f00000017eeeb2cb5981ed45649abebde081dcff16c8601de4347e7dd1628ba2daac43b7820990507f30644e72e131a029b85045b68181585d2833e84879b9709143e1f593f0000001807f30644e72e131a029b85045b68181585d2833e84879b9709143e1f593f00000018360608601510301066201000009611b608301527f30644e72e131a029b85045b68181585d2833e84879b9709143e1f593f00000017eeeb2cb5981ed45649abebde081dcff16c8601de4347e7dd1628ba2daac43b7820990507f30644e72e131a029b85045b68181585d2833e84879b9709143e1f593f0000001807f30644e72e131a029b85045b68181585d2833e84879b9709143e1f593f00000018360608601510301066201000009611b808301527f30644e72e131a029b85045b68181585d2833e84879b9709143e1f593f00000017eeeb2cb5981ed45649abebde081dcff16c8601de4347e7dd1628ba2daac43b7820990507f30644e72e131a029b85045b68181585d2833e84879b9709143e1f593f0000001807f30644e72e131a029b85045b68181585d2833e84879b9709143e1f593f00000018360608601510301066201000009611ba08301527f30644e72e131a029b85045b68181585d2833e84879b9709143e1f593f00000017eeeb2cb5981ed45649abebde081dcff16c8601de4347e7dd1628ba2daac43b7820990507f30644e72e131a029b85045b68181585d2833e84879b9709143e1f593f0000001807f30644e72e131a029b85045b68181585d2833e84879b9709143e1f593f00000018360608601510301066201000009611bc08301527f30644e72e131a029b85045b68181585d2833e84879b9709143e1f593f00000017eeeb2cb5981ed45649abebde081dcff16c8601de4347e7dd1628ba2daac43b7820990507f30644e72e131a029b85045b68181585d2833e84879b9709143e1f593f0000001807f30644e72e131a029b85045b68181585d2833e84879b9709143e1f593f00000018360608601510301066201000009611be08301527f30644e72e131a029b85045b68181585d2833e84879b9709143e1f593f00000017eeeb2cb5981ed45649abebde081dcff16c8601de4347e7dd1628ba2daac43b7820990507f30644e72e131a029b85045b68181585d2833e84879b9709143e1f593f0000001807f30644e72e131a029b85045b68181585d2833e84879b9709143e1f593f00000018360608601510301066201000009611c008301527f30644e72e131a029b85045b68181585d2833e84879b9709143e1f593f00000017eeeb2cb5981ed45649abebde081dcff16c8601de4347e7dd1628ba2daac43b7820990507f30644e72e131a029b85045b68181585d2833e84879b9709143e1f593f0000001807f30644e72e131a029b85045b68181585d2833e84879b9709143e1f593f00000018360608601510301066201000009611c208301527f30644e72e131a029b85045b68181585d2833e84879b9709143e1f593f00000017eeeb2cb5981ed45649abebde081dcff16c8601de4347e7dd1628ba2daac43b7820990507f30644e72e131a029b85045b68181585d2833e84879b9709143e1f593f0000001807f30644e72e131a029b85045b68181585d2833e84879b9709143e1f593f00000018360608601510301066201000009611c408301527f30644e72e131a029b85045b68181585d2833e84879b9709143e1f593f00000017eeeb2cb5981ed45649abebde081dcff16c8601de4347e7dd1628ba2daac43b7820990507f30644e72e131a029b85045b68181585d2833e84879b9709143e1f593f0000001807f30644e72e131a029b85045b68181585d2833e84879b9709143e1f593f00000018360608601510301066201000009611c608301527f30644e72e131a029b85045b68181585d2833e84879b9709143e1f593f00000017eeeb2cb5981ed45649abebde081dcff16c8601de4347e7dd1628ba2daac43b7820990507f30644e72e131a029b85045b68181585d2833e84879b9709143e1f593f0000001807f30644e72e131a029b85045b68181585d2833e84879b9709143e1f593f00000018360608601510301066201000009611c808301527f30644e72e131a029b85045b68181585d2833e84879b9709143e1f593f00000017eeeb2cb5981ed45649abebde081dcff16c8601de4347e7dd1628ba2daac43b7820990507f30644e72e131a029b85045b68181585d2833e84879b9709143e1f593f0000001807f30644e72e131a029b85045b68181585d2833e84879b9709143e1f593f00000018360608601510301066201000009611ca08301527f30644e72e131a029b85045b68181585d2833e84879b9709143e1f593f00000017eeeb2cb5981ed45649abebde081dcff16c8601de4347e7dd1628ba2daac43b7820990507f30644e72e131a029b85045b68181585d2833e84879b9709143e1f593f0000001807f30644e72e131a029b85045b68181585d2833e84879b9709143e1f593f00000018360608601510301066201000009611cc08301527f30644e72e131a029b85045b68181585d2833e84879b9709143e1f593f00000017eeeb2cb5981ed45649abebde081dcff16c8601de4347e7dd1628ba2daac43b7820990507f30644e72e131a029b85045b68181585d2833e84879b9709143e1f593f0000001807f30644e72e131a029b85045b68181585d2833e84879b9709143e1f593f00000018360608601510301066201000009611ce08301527f30644e72e131a029b85045b68181585d2833e84879b9709143e1f593f00000017eeeb2cb5981ed45649abebde081dcff16c8601de4347e7dd1628ba2daac43b7820990507f30644e72e131a029b85045b68181585d2833e84879b9709143e1f593f0000001807f30644e72e131a029b85045b68181585d2833e84879b9709143e1f593f00000018360608601510301066201000009611d008301527f30644e72e131a029b85045b68181585d2833e84879b9709143e1f593f00000017eeeb2cb5981ed45649abebde081dcff16c8601de4347e7dd1628ba2daac43b7820990507f30644e72e131a029b85045b68181585d2833e84879b9709143e1f593f0000001807f30644e72e131a029b85045b68181585d2833e84879b9709143e1f593f00000018360608601510301066201000009611d208301527f30644e72e131a029b85045b68181585d2833e84879b9709143e1f593f00000017eeeb2cb5981ed45649abebde081dcff16c8601de4347e7dd1628ba2daac43b7820990507f30644e72e131a029b85045b68181585d2833e84879b9709143e1f593f0000001807f30644e72e131a029b85045b68181585d2833e84879b9709143e1f593f00000018360608601510301066201000009611d408301527f30644e72e131a029b85045b68181585d2833e84879b9709143e1f593f00000017eeeb2cb5981ed45649abebde081dcff16c8601de4347e7dd1628ba2daac43b7820990507f30644e72e131a029b85045b68181585d2833e84879b9709143e1f593f0000001807f30644e72e131a029b85045b68181585d2833e84879b9709143e1f593f00000018360608601510301066201000009611d608301527f30644e72e131a029b85045b68181585d2833e84879b9709143e1f593f00000017eeeb2cb5981ed45649abebde081dcff16c8601de4347e7dd1628ba2daac43b7820990507f30644e72e131a029b85045b68181585d2833e84879b9709143e1f593f0000001807f30644e72e131a029b85045b68181585d2833e84879b9709143e1f593f00000018360608601510301066201000009611d808301527f30644e72e131a029b85045b68181585d2833e84879b9709143e1f593f00000017eeeb2cb5981ed45649abebde081dcff16c8601de4347e7dd1628ba2daac43b7820990507f30644e72e131a029b85045b68181585d2833e84879b9709143e1f593f0000001807f30644e72e131a029b85045b68181585d2833e84879b9709143e1f593f00000018360608601510301066201000009611da08301527f30644e72e131a029b85045b68181585d2833e84879b9709143e1f593f00000017eeeb2cb5981ed45649abebde081dcff16c8601de4347e7dd1628ba2daac43b7820990507f30644e72e131a029b85045b68181585d2833e84879b9709143e1f593f0000001807f30644e72e131a029b85045b68181585d2833e84879b9709143e1f593f00000018360608601510301066201000009611dc08301527f30644e72e131a029b85045b68181585d2833e84879b9709143e1f593f00000017eeeb2cb5981ed45649abebde081dcff16c8601de4347e7dd1628ba2daac43b7820990507f30644e72e131a029b85045b68181585d2833e84879b9709143e1f593f0000001807f30644e72e131a029b85045b68181585d2833e84879b9709143e1f593f00000018360608601510301066201000009611de08301527f30644e72e131a029b85045b68181585d2833e84879b9709143e1f593f00000017eeeb2cb5981ed45649abebde081dcff16c8601de4347e7dd1628ba2daac43b7820990507f30644e72e131a029b85045b68181585d2833e84879b9709143e1f593f0000001807f30644e72e131a029b85045b68181585d2833e84879b9709143e1f593f00000018360608601510301066201000009611e008301527f30644e72e131a029b85045b68181585d2833e84879b9709143e1f593f00000017eeeb2cb5981ed45649abebde081dcff16c8601de4347e7dd1628ba2daac43b7820990507f30644e72e131a029b85045b68181585d2833e84879b9709143e1f593f0000001807f30644e72e131a029b85045b68181585d2833e84879b9709143e1f593f00000018360608601510301066201000009611e208301527f30644e72e131a029b85045b68181585d2833e84879b9709143e1f593f00000017eeeb2cb5981ed45649abebde081dcff16c8601de4347e7dd1628ba2daac43b7820990507f30644e72e131a029b85045b68181585d2833e84879b9709143e1f593f0000001807f30644e72e131a029b85045b68181585d2833e84879b9709143e1f593f00000018360608601510301066201000009611e408301527f30644e72e131a029b85045b68181585d2833e84879b9709143e1f593f00000017eeeb2cb5981ed45649abebde081dcff16c8601de4347e7dd1628ba2daac43b7820990507f30644e72e131a029b85045b68181585d2833e84879b9709143e1f593f0000001807f30644e72e131a029b85045b68181585d2833e84879b9709143e1f593f00000018360608601510301066201000009611e608301527f30644e72e131a029b85045b68181585d2833e84879b9709143e1f593f00000017eeeb2cb5981ed45649abebde081dcff16c8601de4347e7dd1628ba2daac43b7820990507f30644e72e131a029b85045b68181585d2833e84879b9709143e1f593f0000001807f30644e72e131a029b85045b68181585d2833e84879b9709143e1f593f00000018360608601510301066201000009611e808301527f30644e72e131a029b85045b68181585d2833e84879b9709143e1f593f00000017eeeb2cb5981ed45649abebde081dcff16c8601de4347e7dd1628ba2daac43b7820990507f30644e72e131a029b85045b68181585d2833e84879b9709143e1f593f0000001807f30644e72e131a029b85045b68181585d2833e84879b9709143e1f593f00000018360608601510301066201000009611ea08301527f30644e72e131a029b85045b68181585d2833e84879b9709143e1f593f00000017eeeb2cb5981ed45649abebde081dcff16c8601de4347e7dd1628ba2daac43b7820990507f30644e72e131a029b85045b68181585d2833e84879b9709143e1f593f0000001807f30644e72e131a029b85045b68181585d2833e84879b9709143e1f593f00000018360608601510301066201000009611ec08301527f30644e72e131a029b85045b68181585d2833e84879b9709143e1f593f00000017eeeb2cb5981ed45649abebde081dcff16c8601de4347e7dd1628ba2daac43b7820990507f30644e72e131a029b85045b68181585d2833e84879b9709143e1f593f0000001807f30644e72e131a029b85045b68181585d2833e84879b9709143e1f593f00000018360608601510301066201000009611ee08301527f30644e72e131a029b85045b68181585d2833e84879b9709143e1f593f00000017eeeb2cb5981ed45649abebde081dcff16c8601de4347e7dd1628ba2daac43b7820990507f30644e72e131a029b85045b68181585d2833e84879b9709143e1f593f0000001807f30644e72e131a029b85045b68181585d2833e84879b9709143e1f593f00000018360608601510301066201000009611f008301527f30644e72e131a029b85045b68181585d2833e84879b9709143e1f593f00000017eeeb2cb5981ed45649abebde081dcff16c8601de4347e7dd1628ba2daac43b7820990507f30644e72e131a029b85045b68181585d2833e84879b9709143e1f593f0000001807f30644e72e131a029b85045b68181585d2833e84879b9709143e1f593f00000018360608601510301066201000009611f208301527f30644e72e131a029b85045b68181585d2833e84879b9709143e1f593f00000017eeeb2cb5981ed45649abebde081dcff16c8601de4347e7dd1628ba2daac43b7820990507f30644e72e131a029b85045b68181585d2833e84879b9709143e1f593f0000001807f30644e72e131a029b85045b68181585d2833e84879b9709143e1f593f00000018360608601510301066201000009611f408301527f30644e72e131a029b85045b68181585d2833e84879b9709143e1f593f00000017eeeb2cb5981ed45649abebde081dcff16c8601de4347e7dd1628ba2daac43b7820990507f30644e72e131a029b85045b68181585d2833e84879b9709143e1f593f0000001807f30644e72e131a029b85045b68181585d2833e84879b9709143e1f593f00000018360608601510301066201000009611f608301527f30644e72e131a029b85045b68181585d2833e84879b9709143e1f593f00000017eeeb2cb5981ed45649abebde081dcff16c8601de4347e7dd1628ba2daac43b7820990507f30644e72e131a029b85045b68181585d2833e84879b9709143e1f593f0000001807f30644e72e131a029b85045b68181585d2833e84879b9709143e1f593f00000018360608601510301066201000009611f808301527f30644e72e131a029b85045b68181585d2833e84879b9709143e1f593f00000017eeeb2cb5981ed45649abebde081dcff16c8601de4347e7dd1628ba2daac43b7820990507f30644e72e131a029b85045b68181585d2833e84879b9709143e1f593f0000001807f30644e72e131a029b85045b68181585d2833e84879b9709143e1f593f00000018360608601510301066201000009611fa08301527f30644e72e131a029b85045b68181585d2833e84879b9709143e1f593f00000017eeeb2cb5981ed45649abebde081dcff16c8601de4347e7dd1628ba2daac43b7820990507f30644e72e131a029b85045b68181585d2833e84879b9709143e1f593f0000001807f30644e72e131a029b85045b68181585d2833e84879b9709143e1f593f00000018360608601510301066201000009611fc08301527f30644e72e131a029b85045b68181585d2833e84879b9709143e1f593f00000017eeeb2cb5981ed45649abebde081dcff16c8601de4347e7dd1628ba2daac43b7820990507f30644e72e131a029b85045b68181585d2833e84879b9709143e1f593f0000001807f30644e72e131a029b85045b68181585d2833e84879b9709143e1f593f00000018360608601510301066201000009611fe08301527f30644e72e131a029b85045b68181585d2833e84879b9709143e1f593f00000017eeeb2cb5981ed45649abebde081dcff16c8601de4347e7dd1628ba2daac43b7820990507f30644e72e131a029b85045b68181585d2833e84879b9709143e1f593f0000001807f30644e72e131a029b85045b68181585d2833e84879b9709143e1f593f000000183606086015103010662010000096120008301527f30644e72e131a029b85045b68181585d2833e84879b9709143e1f593f00000017eeeb2cb5981ed45649abebde081dcff16c8601de4347e7dd1628ba2daac43b7820990507f30644e72e131a029b85045b68181585d2833e84879b9709143e1f593f0000001807f30644e72e131a029b85045b68181585d2833e84879b9709143e1f593f000000183606086015103010662010000096120208301527f30644e72e131a029b85045b68181585d2833e84879b9709143e1f593f00000017eeeb2cb5981ed45649abebde081dcff16c8601de4347e7dd1628ba2daac43b7820990507f30644e72e131a029b85045b68181585d2833e84879b9709143e1f593f0000001807f30644e72e131a029b85045b68181585d2833e84879b9709143e1f593f000000183606086015103010662010000096120408301527f30644e72e131a029b85045b68181585d2833e84879b9709143e1f593f00000017eeeb2cb5981ed45649abebde081dcff16c8601de4347e7dd1628ba2daac43b7820990507f30644e72e131a029b85045b68181585d2833e84879b9709143e1f593f0000001807f30644e72e131a029b85045b68181585d2833e84879b9709143e1f593f000000183606086015103010662010000096120608301527f30644e72e131a029b85045b68181585d2833e84879b9709143e1f593f00000017eeeb2cb5981ed45649abebde081dcff16c8601de4347e7dd1628ba2daac43b7820990507f30644e72e131a029b85045b68181585d2833e84879b9709143e1f593f0000001807f30644e72e131a029b85045b68181585d2833e84879b9709143e1f593f000000183606086015103010662010000096120808301527f30644e72e131a029b85045b68181585d2833e84879b9709143e1f593f00000017eeeb2cb5981ed45649abebde081dcff16c8601de4347e7dd1628ba2daac43b7820990507f30644e72e131a029b85045b68181585d2833e84879b9709143e1f593f0000001807f30644e72e131a029b85045b68181585d2833e84879b9709143e1f593f000000183606086015103010662010000096120a08301527f30644e72e131a029b85045b68181585d2833e84879b9709143e1f593f00000017eeeb2cb5981ed45649abebde081dcff16c8601de4347e7dd1628ba2daac43b7820990507f30644e72e131a029b85045b68181585d2833e84879b9709143e1f593f0000001807f30644e72e131a029b85045b68181585d2833e84879b9709143e1f593f000000183606086015103010662010000096120c08301527f30644e72e131a029b85045b68181585d2833e84879b9709143e1f593f00000017eeeb2cb5981ed45649abebde081dcff16c8601de4347e7dd1628ba2daac43b7820990507f30644e72e131a029b85045b68181585d2833e84879b9709143e1f593f0000001807f30644e72e131a029b85045b68181585d2833e84879b9709143e1f593f000000183606086015103010662010000096120e08301527f30644e72e131a029b85045b68181585d2833e84879b9709143e1f593f00000017eeeb2cb5981ed45649abebde081dcff16c8601de4347e7dd1628ba2daac43b7820990507f30644e72e131a029b85045b68181585d2833e84879b9709143e1f593f0000001807f30644e72e131a029b85045b68181585d2833e84879b9709143e1f593f000000183606086015103010662010000096121008301527f30644e72e131a029b85045b68181585d2833e84879b9709143e1f593f00000017eeeb2cb5981ed45649abebde081dcff16c8601de4347e7dd1628ba2daac43b7820990507f30644e72e131a029b85045b68181585d2833e84879b9709143e1f593f0000001807f30644e72e131a029b85045b68181585d2833e84879b9709143e1f593f000000183606086015103010662010000096121208301527f30644e72e131a029b85045b68181585d2833e84879b9709143e1f593f00000017eeeb2cb5981ed45649abebde081dcff16c8601de4347e7dd1628ba2daac43b7820990507f30644e72e131a029b85045b68181585d2833e84879b9709143e1f593f0000001807f30644e72e131a029b85045b68181585d2833e84879b9709143e1f593f000000183606086015103010662010000096121408301527f30644e72e131a029b85045b68181585d2833e84879b9709143e1f593f00000017eeeb2cb5981ed45649abebde081dcff16c8601de4347e7dd1628ba2daac43b7820990507f30644e72e131a029b85045b68181585d2833e84879b9709143e1f593f0000001807f30644e72e131a029b85045b68181585d2833e84879b9709143e1f593f000000183606086015103010662010000096121608301527f30644e72e131a029b85045b68181585d2833e84879b9709143e1f593f00000017eeeb2cb5981ed45649abebde081dcff16c8601de4347e7dd1628ba2daac43b7820990507f30644e72e131a029b85045b68181585d2833e84879b9709143e1f593f0000001807f30644e72e131a029b85045b68181585d2833e84879b9709143e1f593f000000183606086015103010662010000096121808301527f30644e72e131a029b85045b68181585d2833e84879b9709143e1f593f00000017eeeb2cb5981ed45649abebde081dcff16c8601de4347e7dd1628ba2daac43b7820990507f30644e72e131a029b85045b68181585d2833e84879b9709143e1f593f0000001807f30644e72e131a029b85045b68181585d2833e84879b9709143e1f593f000000183606086015103010662010000096121a08301527f30644e72e131a029b85045b68181585d2833e84879b9709143e1f593f00000017eeeb2cb5981ed45649abebde081dcff16c8601de4347e7dd1628ba2daac43b7820990507f30644e72e131a029b85045b68181585d2833e84879b9709143e1f593f0000001807f30644e72e131a029b85045b68181585d2833e84879b9709143e1f593f000000183606086015103010662010000096121c08301527f30644e72e131a029b85045b68181585d2833e84879b9709143e1f593f00000017eeeb2cb5981ed45649abebde081dcff16c8601de4347e7dd1628ba2daac43b7820990507f30644e72e131a029b85045b68181585d2833e84879b9709143e1f593f0000001807f30644e72e131a029b85045b68181585d2833e84879b9709143e1f593f000000183606086015103010662010000096121e08301527f30644e72e131a029b85045b68181585d2833e84879b9709143e1f593f00000017eeeb2cb5981ed45649abebde081dcff16c8601de4347e7dd1628ba2daac43b7820990507f30644e72e131a029b85045b68181585d2833e84879b9709143e1f593f0000001807f30644e72e131a029b85045b68181585d2833e84879b9709143e1f593f000000183606086015103010662010000096122008301527f30644e72e131a029b85045b68181585d2833e84879b9709143e1f593f00000017eeeb2cb5981ed45649abebde081dcff16c8601de4347e7dd1628ba2daac43b7820990507f30644e72e131a029b85045b68181585d2833e84879b9709143e1f593f0000001807f30644e72e131a029b85045b68181585d2833e84879b9709143e1f593f000000183606086015103010662010000096122208301527f30644e72e131a029b85045b68181585d2833e84879b9709143e1f593f00000017eeeb2cb5981ed45649abebde081dcff16c8601de4347e7dd1628ba2daac43b7820990507f30644e72e131a029b85045b68181585d2833e84879b9709143e1f593f0000001807f30644e72e131a029b85045b68181585d2833e84879b9709143e1f593f000000183606086015103010662010000096122408301527f30644e72e131a029b85045b68181585d2833e84879b9709143e1f593f00000017eeeb2cb5981ed45649abebde081dcff16c8601de4347e7dd1628ba2daac43b7820990507f30644e72e131a029b85045b68181585d2833e84879b9709143e1f593f0000001807f30644e72e131a029b85045b68181585d2833e84879b9709143e1f593f000000183606086015103010662010000096122608301527f30644e72e131a029b85045b68181585d2833e84879b9709143e1f593f00000017eeeb2cb5981ed45649abebde081dcff16c8601de4347e7dd1628ba2daac43b7820990507f30644e72e131a029b85045b68181585d2833e84879b9709143e1f593f0000001807f30644e72e131a029b85045b68181585d2833e84879b9709143e1f593f000000183606086015103010662010000096122808301527f30644e72e131a029b85045b68181585d2833e84879b9709143e1f593f00000017eeeb2cb5981ed45649abebde081dcff16c8601de4347e7dd1628ba2daac43b7820990507f30644e72e131a029b85045b68181585d2833e84879b9709143e1f593f0000001807f30644e72e131a029b85045b68181585d2833e84879b9709143e1f593f000000183606086015103010662010000096122a08301527f30644e72e131a029b85045b68181585d2833e84879b9709143e1f593f00000017eeeb2cb5981ed45649abebde081dcff16c8601de4347e7dd1628ba2daac43b7820990507f30644e72e131a029b85045b68181585d2833e84879b9709143e1f593f0000001807f30644e72e131a029b85045b68181585d2833e84879b9709143e1f593f000000183606086015103010662010000096122c08301527f30644e72e131a029b85045b68181585d2833e84879b9709143e1f593f00000017eeeb2cb5981ed45649abebde081dcff16c8601de4347e7dd1628ba2daac43b7820990507f30644e72e131a029b85045b68181585d2833e84879b9709143e1f593f0000001807f30644e72e131a029b85045b68181585d2833e84879b9709143e1f593f000000183606086015103010662010000096122e08301527f30644e72e131a029b85045b68181585d2833e84879b9709143e1f593f00000017eeeb2cb5981ed45649abebde081dcff16c8601de4347e7dd1628ba2daac43b7820990507f30644e72e131a029b85045b68181585d2833e84879b9709143e1f593f0000001807f30644e72e131a029b85045b68181585d2833e84879b9709143e1f593f000000183606086015103010662010000096123008301527f30644e72e131a029b85045b68181585d2833e84879b9709143e1f593f00000017eeeb2cb5981ed45649abebde081dcff16c8601de4347e7dd1628ba2daac43b7820990507f30644e72e131a029b85045b68181585d2833e84879b9709143e1f593f0000001807f30644e72e131a029b85045b68181585d2833e84879b9709143e1f593f000000183606086015103010662010000096123208301527f30644e72e131a029b85045b68181585d2833e84879b9709143e1f593f00000017eeeb2cb5981ed45649abebde081dcff16c8601de4347e7dd1628ba2daac43b7820990507f30644e72e131a029b85045b68181585d2833e84879b9709143e1f593f0000001807f30644e72e131a029b85045b68181585d2833e84879b9709143e1f593f000000183606086015103010662010000096123408301527f30644e72e131a029b85045b68181585d2833e84879b9709143e1f593f00000017eeeb2cb5981ed45649abebde081dcff16c8601de4347e7dd1628ba2daac43b7820990507f30644e72e131a029b85045b68181585d2833e84879b9709143e1f593f0000001807f30644e72e131a029b85045b68181585d2833e84879b9709143e1f593f000000183606086015103010662010000096123608301527f30644e72e131a029b85045b68181585d2833e84879b9709143e1f593f00000017eeeb2cb5981ed45649abebde081dcff16c8601de4347e7dd1628ba2daac43b7820990507f30644e72e131a029b85045b68181585d2833e84879b9709143e1f593f0000001807f30644e72e131a029b85045b68181585d2833e84879b9709143e1f593f000000183606086015103010662010000096123808301527f30644e72e131a029b85045b68181585d2833e84879b9709143e1f593f00000017eeeb2cb5981ed45649abebde081dcff16c8601de4347e7dd1628ba2daac43b7820990507f30644e72e131a029b85045b68181585d2833e84879b9709143e1f593f0000001807f30644e72e131a029b85045b68181585d2833e84879b9709143e1f593f000000183606086015103010662010000096123a08301527f30644e72e131a029b85045b68181585d2833e84879b9709143e1f593f00000017eeeb2cb5981ed45649abebde081dcff16c8601de4347e7dd1628ba2daac43b7820990507f30644e72e131a029b85045b68181585d2833e84879b9709143e1f593f0000001807f30644e72e131a029b85045b68181585d2833e84879b9709143e1f593f000000183606086015103010662010000096123c08301527f30644e72e131a029b85045b68181585d2833e84879b9709143e1f593f00000017eeeb2cb5981ed45649abebde081dcff16c8601de4347e7dd1628ba2daac43b7820990507f30644e72e131a029b85045b68181585d2833e84879b9709143e1f593f0000001807f30644e72e131a029b85045b68181585d2833e84879b9709143e1f593f000000183606086015103010662010000096123e08301527f30644e72e131a029b85045b68181585d2833e84879b9709143e1f593f00000017eeeb2cb5981ed45649abebde081dcff16c8601de4347e7dd1628ba2daac43b7820990507f30644e72e131a029b85045b68181585d2833e84879b9709143e1f593f0000001807f30644e72e131a029b85045b68181585d2833e84879b9709143e1f593f000000183606086015103010662010000096124008301527f30644e72e131a029b85045b68181585d2833e84879b9709143e1f593f00000017eeeb2cb5981ed45649abebde081dcff16c8601de4347e7dd1628ba2daac43b7820990507f30644e72e131a029b85045b68181585d2833e84879b9709143e1f593f0000001807f30644e72e131a029b85045b68181585d2833e84879b9709143e1f593f000000183606086015103010662010000096124208301527f30644e72e131a029b85045b68181585d2833e84879b9709143e1f593f00000017eeeb2cb5981ed45649abebde081dcff16c8601de4347e7dd1628ba2daac43b7820990507f30644e72e131a029b85045b68181585d2833e84879b9709143e1f593f0000001807f30644e72e131a029b85045b68181585d2833e84879b9709143e1f593f000000183606086015103010662010000096124408301527f30644e72e131a029b85045b68181585d2833e84879b9709143e1f593f00000017eeeb2cb5981ed45649abebde081dcff16c8601de4347e7dd1628ba2daac43b7820990507f30644e72e131a029b85045b68181585d2833e84879b9709143e1f593f0000001807f30644e72e131a029b85045b68181585d2833e84879b9709143e1f593f000000183606086015103010662010000096124608301527f30644e72e131a029b85045b68181585d2833e84879b9709143e1f593f00000017eeeb2cb5981ed45649abebde081dcff16c8601de4347e7dd1628ba2daac43b7820990507f30644e72e131a029b85045b68181585d2833e84879b9709143e1f593f0000001807f30644e72e131a029b85045b68181585d2833e84879b9709143e1f593f000000183606086015103010662010000096124808301527f30644e72e131a029b85045b68181585d2833e84879b9709143e1f593f00000017eeeb2cb5981ed45649abebde081dcff16c8601de4347e7dd1628ba2daac43b7820990507f30644e72e131a029b85045b68181585d2833e84879b9709143e1f593f0000001807f30644e72e131a029b85045b68181585d2833e84879b9709143e1f593f000000183606086015103010662010000096124a08301527f30644e72e131a029b85045b68181585d2833e84879b9709143e1f593f00000017eeeb2cb5981ed45649abebde081dcff16c8601de4347e7dd1628ba2daac43b7820990507f30644e72e131a029b85045b68181585d2833e84879b9709143e1f593f0000001807f30644e72e131a029b85045b68181585d2833e84879b9709143e1f593f000000183606086015103010662010000096124c08301527f30644e72e131a029b85045b68181585d2833e84879b9709143e1f593f00000017eeeb2cb5981ed45649abebde081dcff16c8601de4347e7dd1628ba2daac43b7820990507f30644e72e131a029b85045b68181585d2833e84879b9709143e1f593f0000001807f30644e72e131a029b85045b68181585d2833e84879b9709143e1f593f000000183606086015103010662010000096124e08301527f30644e72e131a029b85045b68181585d2833e84879b9709143e1f593f00000017eeeb2cb5981ed45649abebde081dcff16c8601de4347e7dd1628ba2daac43b7820990507f30644e72e131a029b85045b68181585d2833e84879b9709143e1f593f0000001807f30644e72e131a029b85045b68181585d2833e84879b9709143e1f593f000000183606086015103010662010000096125008301527f30644e72e131a029b85045b68181585d2833e84879b9709143e1f593f00000017eeeb2cb5981ed45649abebde081dcff16c8601de4347e7dd1628ba2daac43b7820990507f30644e72e131a029b85045b68181585d2833e84879b9709143e1f593f0000001807f30644e72e131a029b85045b68181585d2833e84879b9709143e1f593f000000183606086015103010662010000096125208301527f30644e72e131a029b85045b68181585d2833e84879b9709143e1f593f00000017eeeb2cb5981ed45649abebde081dcff16c8601de4347e7dd1628ba2daac43b7820990507f30644e72e131a029b85045b68181585d2833e84879b9709143e1f593f0000001807f30644e72e131a029b85045b68181585d2833e84879b9709143e1f593f000000183606086015103010662010000096125408301527f30644e72e131a029b85045b68181585d2833e84879b9709143e1f593f00000017eeeb2cb5981ed45649abebde081dcff16c8601de4347e7dd1628ba2daac43b7820990507f30644e72e131a029b85045b68181585d2833e84879b9709143e1f593f0000001807f30644e72e131a029b85045b68181585d2833e84879b9709143e1f593f000000183606086015103010662010000096125608301527f30644e72e131a029b85045b68181585d2833e84879b9709143e1f593f00000017eeeb2cb5981ed45649abebde081dcff16c8601de4347e7dd1628ba2daac43b7820990507f30644e72e131a029b85045b68181585d2833e84879b9709143e1f593f0000001807f30644e72e131a029b85045b68181585d2833e84879b9709143e1f593f000000183606086015103010662010000096125808301527f30644e72e131a029b85045b68181585d2833e84879b9709143e1f593f00000017eeeb2cb5981ed45649abebde081dcff16c8601de4347e7dd1628ba2daac43b7820990507f30644e72e131a029b85045b68181585d2833e84879b9709143e1f593f0000001807f30644e72e131a029b85045b68181585d2833e84879b9709143e1f593f000000183606086015103010662010000096125a08301527f30644e72e131a029b85045b68181585d2833e84879b9709143e1f593f00000017eeeb2cb5981ed45649abebde081dcff16c8601de4347e7dd1628ba2daac43b7820990507f30644e72e131a029b85045b68181585d2833e84879b9709143e1f593f0000001807f30644e72e131a029b85045b68181585d2833e84879b9709143e1f593f000000183606086015103010662010000096125c08301527f30644e72e131a029b85045b68181585d2833e84879b9709143e1f593f00000017eeeb2cb5981ed45649abebde081dcff16c8601de4347e7dd1628ba2daac43b7820990507f30644e72e131a029b85045b68181585d2833e84879b9709143e1f593f0000001807f30644e72e131a029b85045b68181585d2833e84879b9709143e1f593f000000183606086015103010662010000096125e08301527f30644e72e131a029b85045b68181585d2833e84879b9709143e1f593f00000017eeeb2cb5981ed45649abebde081dcff16c8601de4347e7dd1628ba2daac43b7820990507f30644e72e131a029b85045b68181585d2833e84879b9709143e1f593f0000001807f30644e72e131a029b85045b68181585d2833e84879b9709143e1f593f000000183606086015103010662010000096126008301527f30644e72e131a029b85045b68181585d2833e84879b9709143e1f593f00000017eeeb2cb5981ed45649abebde081dcff16c8601de4347e7dd1628ba2daac43b7820990507f30644e72e131a029b85045b68181585d2833e84879b9709143e1f593f0000001807f30644e72e131a029b85045b68181585d2833e84879b9709143e1f593f000000183606086015103010662010000096126208301527f30644e72e131a029b85045b68181585d2833e84879b9709143e1f593f00000017eeeb2cb5981ed45649abebde081dcff16c8601de4347e7dd1628ba2daac43b7820990507f30644e72e131a029b85045b68181585d2833e84879b9709143e1f593f0000001807f30644e72e131a029b85045b68181585d2833e84879b9709143e1f593f000000183606086015103010662010000096126408301527f30644e72e131a029b85045b68181585d2833e84879b9709143e1f593f00000017eeeb2cb5981ed45649abebde081dcff16c8601de4347e7dd1628ba2daac43b7820990507f30644e72e131a029b85045b68181585d2833e84879b9709143e1f593f0000001807f30644e72e131a029b85045b68181585d2833e84879b9709143e1f593f000000183606086015103010662010000096126608301527f30644e72e131a029b85045b68181585d2833e84879b9709143e1f593f00000017eeeb2cb5981ed45649abebde081dcff16c8601de4347e7dd1628ba2daac43b7820990507f30644e72e131a029b85045b68181585d2833e84879b9709143e1f593f0000001807f30644e72e131a029b85045b68181585d2833e84879b9709143e1f593f000000183606086015103010662010000096126808301527f30644e72e131a029b85045b68181585d2833e84879b9709143e1f593f00000017eeeb2cb5981ed45649abebde081dcff16c8601de4347e7dd1628ba2daac43b7820990507f30644e72e131a029b85045b68181585d2833e84879b9709143e1f593f0000001807f30644e72e131a029b85045b68181585d2833e84879b9709143e1f593f000000183606086015103010662010000096126a08301527f30644e72e131a029b85045b68181585d2833e84879b9709143e1f593f00000017eeeb2cb5981ed45649abebde081dcff16c8601de4347e7dd1628ba2daac43b7820990507f30644e72e131a029b85045b68181585d2833e84879b9709143e1f593f0000001807f30644e72e131a029b85045b68181585d2833e84879b9709143e1f593f000000183606086015103010662010000096126c08301527f30644e72e131a029b85045b68181585d2833e84879b9709143e1f593f00000017eeeb2cb5981ed45649abebde081dcff16c8601de4347e7dd1628ba2daac43b7820990507f30644e72e131a029b85045b68181585d2833e84879b9709143e1f593f0000001807f30644e72e131a029b85045b68181585d2833e84879b9709143e1f593f000000183606086015103010662010000096126e08301527f30644e72e131a029b85045b68181585d2833e84879b9709143e1f593f00000017eeeb2cb5981ed45649abebde081dcff16c8601de4347e7dd1628ba2daac43b7820990507f30644e72e131a029b85045b68181585d2833e84879b9709143e1f593f0000001807f30644e72e131a029b85045b68181585d2833e84879b9709143e1f593f000000183606086015103010662010000096127008301527f30644e72e131a029b85045b68181585d2833e84879b9709143e1f593f00000017eeeb2cb5981ed45649abebde081dcff16c8601de4347e7dd1628ba2daac43b7820990507f30644e72e131a029b85045b68181585d2833e84879b9709143e1f593f0000001807f30644e72e131a029b85045b68181585d2833e84879b9709143e1f593f000000183606086015103010662010000096127208301527f30644e72e131a029b85045b68181585d2833e84879b9709143e1f593f00000017eeeb2cb5981ed45649abebde081dcff16c8601de4347e7dd1628ba2daac43b7820990507f30644e72e131a029b85045b68181585d2833e84879b9709143e1f593f0000001807f30644e72e131a029b85045b68181585d2833e84879b9709143e1f593f000000183606086015103010662010000096127408301527f30644e72e131a029b85045b68181585d2833e84879b9709143e1f593f00000017eeeb2cb5981ed45649abebde081dcff16c8601de4347e7dd1628ba2daac43b7820990507f30644e72e131a029b85045b68181585d2833e84879b9709143e1f593f0000001807f30644e72e131a029b85045b68181585d2833e84879b9709143e1f593f000000183606086015103010662010000096127608301527f30644e72e131a029b85045b68181585d2833e84879b9709143e1f593f00000017eeeb2cb5981ed45649abebde081dcff16c8601de4347e7dd1628ba2daac43b7820990507f30644e72e131a029b85045b68181585d2833e84879b9709143e1f593f0000001807f30644e72e131a029b85045b68181585d2833e84879b9709143e1f593f000000183606086015103010662010000096127808301527f30644e72e131a029b85045b68181585d2833e84879b9709143e1f593f00000017eeeb2cb5981ed45649abebde081dcff16c8601de4347e7dd1628ba2daac43b7820990507f30644e72e131a029b85045b68181585d2833e84879b9709143e1f593f0000001807f30644e72e131a029b85045b68181585d2833e84879b9709143e1f593f000000183606086015103010662010000096127a08301527f30644e72e131a029b85045b68181585d2833e84879b9709143e1f593f00000017eeeb2cb5981ed45649abebde081dcff16c8601de4347e7dd1628ba2daac43b7820990507f30644e72e131a029b85045b68181585d2833e84879b9709143e1f593f0000001807f30644e72e131a029b85045b68181585d2833e84879b9709143e1f593f000000183606086015103010662010000096127c08301527f30644e72e131a029b85045b68181585d2833e84879b9709143e1f593f00000017eeeb2cb5981ed45649abebde081dcff16c8601de4347e7dd1628ba2daac43b7820990507f30644e72e131a029b85045b68181585d2833e84879b9709143e1f593f0000001807f30644e72e131a029b85045b68181585d2833e84879b9709143e1f593f000000183606086015103010662010000096127e08301527f30644e72e131a029b85045b68181585d2833e84879b9709143e1f593f00000017eeeb2cb5981ed45649abebde081dcff16c8601de4347e7dd1628ba2daac43b7820990507f30644e72e131a029b85045b68181585d2833e84879b9709143e1f593f0000001807f30644e72e131a029b85045b68181585d2833e84879b9709143e1f593f000000183606086015103010662010000096128008301527f30644e72e131a029b85045b68181585d2833e84879b9709143e1f593f00000017eeeb2cb5981ed45649abebde081dcff16c8601de4347e7dd1628ba2daac43b7820990507f30644e72e131a029b85045b68181585d2833e84879b9709143e1f593f0000001807f30644e72e131a029b85045b68181585d2833e84879b9709143e1f593f000000183606086015103010662010000096128208301527f30644e72e131a029b85045b68181585d2833e84879b9709143e1f593f00000017eeeb2cb5981ed45649abebde081dcff16c8601de4347e7dd1628ba2daac43b7820990507f30644e72e131a029b85045b68181585d2833e84879b9709143e1f593f0000001807f30644e72e131a029b85045b68181585d2833e84879b9709143e1f593f000000183606086015103010662010000096128408301527f30644e72e131a029b85045b68181585d2833e84879b9709143e1f593f00000017eeeb2cb5981ed45649abebde081dcff16c8601de4347e7dd1628ba2daac43b7820990507f30644e72e131a029b85045b68181585d2833e84879b9709143e1f593f0000001807f30644e72e131a029b85045b68181585d2833e84879b9709143e1f593f000000183606086015103010662010000096128608301527f30644e72e131a029b85045b68181585d2833e84879b9709143e1f593f00000017eeeb2cb5981ed45649abebde081dcff16c8601de4347e7dd1628ba2daac43b7820990507f30644e72e131a029b85045b68181585d2833e84879b9709143e1f593f0000001807f30644e72e131a029b85045b68181585d2833e84879b9709143e1f593f000000183606086015103010662010000096128808301527f30644e72e131a029b85045b68181585d2833e84879b9709143e1f593f00000017eeeb2cb5981ed45649abebde081dcff16c8601de4347e7dd1628ba2daac43b7820990507f30644e72e131a029b85045b68181585d2833e84879b9709143e1f593f0000001807f30644e72e131a029b85045b68181585d2833e84879b9709143e1f593f000000183606086015103010662010000096128a08301527f30644e72e131a029b85045b68181585d2833e84879b9709143e1f593f00000017eeeb2cb5981ed45649abebde081dcff16c8601de4347e7dd1628ba2daac43b7820990507f30644e72e131a029b85045b68181585d2833e84879b9709143e1f593f0000001807f30644e72e131a029b85045b68181585d2833e84879b9709143e1f593f000000183606086015103010662010000096128c08301527f30644e72e131a029b85045b68181585d2833e84879b9709143e1f593f00000017eeeb2cb5981ed45649abebde081dcff16c8601de4347e7dd1628ba2daac43b7820990507f30644e72e131a029b85045b68181585d2833e84879b9709143e1f593f0000001807f30644e72e131a029b85045b68181585d2833e84879b9709143e1f593f000000183606086015103010662010000096128e08301527f30644e72e131a029b85045b68181585d2833e84879b9709143e1f593f00000017eeeb2cb5981ed45649abebde081dcff16c8601de4347e7dd1628ba2daac43b7820990507f30644e72e131a029b85045b68181585d2833e84879b9709143e1f593f0000001807f30644e72e131a029b85045b68181585d2833e84879b9709143e1f593f000000183606086015103010662010000096129008301527f30644e72e131a029b85045b68181585d2833e84879b9709143e1f593f00000017eeeb2cb5981ed45649abebde081dcff16c8601de4347e7dd1628ba2daac43b7820990507f30644e72e131a029b85045b68181585d2833e84879b9709143e1f593f0000001807f30644e72e131a029b85045b68181585d2833e84879b9709143e1f593f000000183606086015103010662010000096129208301527f30644e72e131a029b85045b68181585d2833e84879b9709143e1f593f00000017eeeb2cb5981ed45649abebde081dcff16c8601de4347e7dd1628ba2daac43b7820990507f30644e72e131a029b85045b68181585d2833e84879b9709143e1f593f0000001807f30644e72e131a029b85045b68181585d2833e84879b9709143e1f593f000000183606086015103010662010000096129408301527f30644e72e131a029b85045b68181585d2833e84879b9709143e1f593f00000017eeeb2cb5981ed45649abebde081dcff16c8601de4347e7dd1628ba2daac43b7820990507f30644e72e131a029b85045b68181585d2833e84879b9709143e1f593f0000001807f30644e72e131a029b85045b68181585d2833e84879b9709143e1f593f000000183606086015103010662010000096129608301527f30644e72e131a029b85045b68181585d2833e84879b9709143e1f593f00000017eeeb2cb5981ed45649abebde081dcff16c8601de4347e7dd1628ba2daac43b7820990507f30644e72e131a029b85045b68181585d2833e84879b9709143e1f593f0000001807f30644e72e131a029b85045b68181585d2833e84879b9709143e1f593f000000183606086015103010662010000096129808301527f30644e72e131a029b85045b68181585d2833e84879b9709143e1f593f00000017eeeb2cb5981ed45649abebde081dcff16c8601de4347e7dd1628ba2daac43b7820990507f30644e72e131a029b85045b68181585d2833e84879b9709143e1f593f0000001807f30644e72e131a029b85045b68181585d2833e84879b9709143e1f593f000000183606086015103010662010000096129a08301527f30644e72e131a029b85045b68181585d2833e84879b9709143e1f593f00000017eeeb2cb5981ed45649abebde081dcff16c8601de4347e7dd1628ba2daac43b7820990507f30644e72e131a029b85045b68181585d2833e84879b9709143e1f593f0000001807f30644e72e131a029b85045b68181585d2833e84879b9709143e1f593f000000183606086015103010662010000096129c08301527f30644e72e131a029b85045b68181585d2833e84879b9709143e1f593f00000017eeeb2cb5981ed45649abebde081dcff16c8601de4347e7dd1628ba2daac43b7820990507f30644e72e131a029b85045b68181585d2833e84879b9709143e1f593f0000001807f30644e72e131a029b85045b68181585d2833e84879b9709143e1f593f000000183606086015103010662010000096129e08301527f30644e72e131a029b85045b68181585d2833e84879b9709143e1f593f00000017eeeb2cb5981ed45649abebde081dcff16c8601de4347e7dd1628ba2daac43b7820990507f30644e72e131a029b85045b68181585d2833e84879b9709143e1f593f0000001807f30644e72e131a029b85045b68181585d2833e84879b9709143e1f593f00000018360608601510301066201000009612a008301527f30644e72e131a029b85045b68181585d2833e84879b9709143e1f593f00000017eeeb2cb5981ed45649abebde081dcff16c8601de4347e7dd1628ba2daac43b7820990507f30644e72e131a029b85045b68181585d2833e84879b9709143e1f593f0000001807f30644e72e131a029b85045b68181585d2833e84879b9709143e1f593f00000018360608601510301066201000009612a208301527f30644e72e131a029b85045b68181585d2833e84879b9709143e1f593f00000017eeeb2cb5981ed45649abebde081dcff16c8601de4347e7dd1628ba2daac43b7820990507f30644e72e131a029b85045b68181585d2833e84879b9709143e1f593f0000001807f30644e72e131a029b85045b68181585d2833e84879b9709143e1f593f00000018360608601510301066201000009612a408301527f30644e72e131a029b85045b68181585d2833e84879b9709143e1f593f00000017eeeb2cb5981ed45649abebde081dcff16c8601de4347e7dd1628ba2daac43b7820990507f30644e72e131a029b85045b68181585d2833e84879b9709143e1f593f0000001807f30644e72e131a029b85045b68181585d2833e84879b9709143e1f593f00000018360608601510301066201000009612a608301527f30644e72e131a029b85045b68181585d2833e84879b9709143e1f593f00000017eeeb2cb5981ed45649abebde081dcff16c8601de4347e7dd1628ba2daac43b7820990507f30644e72e131a029b85045b68181585d2833e84879b9709143e1f593f0000001807f30644e72e131a029b85045b68181585d2833e84879b9709143e1f593f00000018360608601510301066201000009612a808301527f30644e72e131a029b85045b68181585d2833e84879b9709143e1f593f00000017eeeb2cb5981ed45649abebde081dcff16c8601de4347e7dd1628ba2daac43b7820990507f30644e72e131a029b85045b68181585d2833e84879b9709143e1f593f0000001807f30644e72e131a029b85045b68181585d2833e84879b9709143e1f593f00000018360608601510301066201000009612aa08301527f30644e72e131a029b85045b68181585d2833e84879b9709143e1f593f00000017eeeb2cb5981ed45649abebde081dcff16c8601de4347e7dd1628ba2daac43b7820990507f30644e72e131a029b85045b68181585d2833e84879b9709143e1f593f0000001807f30644e72e131a029b85045b68181585d2833e84879b9709143e1f593f00000018360608601510301066201000009612ac08301527f30644e72e131a029b85045b68181585d2833e84879b9709143e1f593f00000017eeeb2cb5981ed45649abebde081dcff16c8601de4347e7dd1628ba2daac43b7820990507f30644e72e131a029b85045b68181585d2833e84879b9709143e1f593f0000001807f30644e72e131a029b85045b68181585d2833e84879b9709143e1f593f00000018360608601510301066201000009612ae08301527f30644e72e131a029b85045b68181585d2833e84879b9709143e1f593f00000017eeeb2cb5981ed45649abebde081dcff16c8601de4347e7dd1628ba2daac43b7820990507f30644e72e131a029b85045b68181585d2833e84879b9709143e1f593f0000001807f30644e72e131a029b85045b68181585d2833e84879b9709143e1f593f00000018360608601510301066201000009612b008301527f30644e72e131a029b85045b68181585d2833e84879b9709143e1f593f00000017eeeb2cb5981ed45649abebde081dcff16c8601de4347e7dd1628ba2daac43b7820990507f30644e72e131a029b85045b68181585d2833e84879b9709143e1f593f0000001807f30644e72e131a029b85045b68181585d2833e84879b9709143e1f593f00000018360608601510301066201000009612b208301527f30644e72e131a029b85045b68181585d2833e84879b9709143e1f593f00000017eeeb2cb5981ed45649abebde081dcff16c8601de4347e7dd1628ba2daac43b7820990507f30644e72e131a029b85045b68181585d2833e84879b9709143e1f593f0000001807f30644e72e131a029b85045b68181585d2833e84879b9709143e1f593f00000018360608601510301066201000009612b408301527f30644e72e131a029b85045b68181585d2833e84879b9709143e1f593f00000017eeeb2cb5981ed45649abebde081dcff16c8601de4347e7dd1628ba2daac43b7820990507f30644e72e131a029b85045b68181585d2833e84879b9709143e1f593f0000001807f30644e72e131a029b85045b68181585d2833e84879b9709143e1f593f00000018360608601510301066201000009612b608301527f30644e72e131a029b85045b68181585d2833e84879b9709143e1f593f00000017eeeb2cb5981ed45649abebde081dcff16c8601de4347e7dd1628ba2daac43b7820990507f30644e72e131a029b85045b68181585d2833e84879b9709143e1f593f0000001807f30644e72e131a029b85045b68181585d2833e84879b9709143e1f593f00000018360608601510301066201000009612b808301527f30644e72e131a029b85045b68181585d2833e84879b9709143e1f593f00000017eeeb2cb5981ed45649abebde081dcff16c8601de4347e7dd1628ba2daac43b7820990507f30644e72e131a029b85045b68181585d2833e84879b9709143e1f593f0000001807f30644e72e131a029b85045b68181585d2833e84879b9709143e1f593f00000018360608601510301066201000009612ba08301527f30644e72e131a029b85045b68181585d2833e84879b9709143e1f593f00000017eeeb2cb5981ed45649abebde081dcff16c8601de4347e7dd1628ba2daac43b7820990507f30644e72e131a029b85045b68181585d2833e84879b9709143e1f593f0000001807f30644e72e131a029b85045b68181585d2833e84879b9709143e1f593f00000018360608601510301066201000009612bc08301527f30644e72e131a029b85045b68181585d2833e84879b9709143e1f593f00000017eeeb2cb5981ed45649abebde081dcff16c8601de4347e7dd1628ba2daac43b7820990507f30644e72e131a029b85045b68181585d2833e84879b9709143e1f593f0000001807f30644e72e131a029b85045b68181585d2833e84879b9709143e1f593f00000018360608601510301066201000009612be08301527f30644e72e131a029b85045b68181585d2833e84879b9709143e1f593f00000017eeeb2cb5981ed45649abebde081dcff16c8601de4347e7dd1628ba2daac43b7820990507f30644e72e131a029b85045b68181585d2833e84879b9709143e1f593f0000001807f30644e72e131a029b85045b68181585d2833e84879b9709143e1f593f00000018360608601510301066201000009612c008301527f30644e72e131a029b85045b68181585d2833e84879b9709143e1f593f00000017eeeb2cb5981ed45649abebde081dcff16c8601de4347e7dd1628ba2daac43b7820990507f30644e72e131a029b85045b68181585d2833e84879b9709143e1f593f0000001807f30644e72e131a029b85045b68181585d2833e84879b9709143e1f593f00000018360608601510301066201000009612c208301527f30644e72e131a029b85045b68181585d2833e84879b9709143e1f593f00000017eeeb2cb5981ed45649abebde081dcff16c8601de4347e7dd1628ba2daac43b7820990507f30644e72e131a029b85045b68181585d2833e84879b9709143e1f593f0000001807f30644e72e131a029b85045b68181585d2833e84879b9709143e1f593f00000018360608601510301066201000009612c408301527f30644e72e131a029b85045b68181585d2833e84879b9709143e1f593f00000017eeeb2cb5981ed45649abebde081dcff16c8601de4347e7dd1628ba2daac43b7820990507f30644e72e131a029b85045b68181585d2833e84879b9709143e1f593f0000001807f30644e72e131a029b85045b68181585d2833e84879b9709143e1f593f00000018360608601510301066201000009612c608301527f30644e72e131a029b85045b68181585d2833e84879b9709143e1f593f00000017eeeb2cb5981ed45649abebde081dcff16c8601de4347e7dd1628ba2daac43b7820990507f30644e72e131a029b85045b68181585d2833e84879b9709143e1f593f0000001807f30644e72e131a029b85045b68181585d2833e84879b9709143e1f593f00000018360608601510301066201000009612c808301527f30644e72e131a029b85045b68181585d2833e84879b9709143e1f593f00000017eeeb2cb5981ed45649abebde081dcff16c8601de4347e7dd1628ba2daac43b7820990507f30644e72e131a029b85045b68181585d2833e84879b9709143e1f593f0000001807f30644e72e131a029b85045b68181585d2833e84879b9709143e1f593f00000018360608601510301066201000009612ca08301527f30644e72e131a029b85045b68181585d2833e84879b9709143e1f593f00000017eeeb2cb5981ed45649abebde081dcff16c8601de4347e7dd1628ba2daac43b7820990507f30644e72e131a029b85045b68181585d2833e84879b9709143e1f593f0000001807f30644e72e131a029b85045b68181585d2833e84879b9709143e1f593f00000018360608601510301066201000009612cc08301527f30644e72e131a029b85045b68181585d2833e84879b9709143e1f593f00000017eeeb2cb5981ed45649abebde081dcff16c8601de4347e7dd1628ba2daac43b7820990507f30644e72e131a029b85045b68181585d2833e84879b9709143e1f593f0000001807f30644e72e131a029b85045b68181585d2833e84879b9709143e1f593f00000018360608601510301066201000009612ce08301527f30644e72e131a029b85045b68181585d2833e84879b9709143e1f593f00000017eeeb2cb5981ed45649abebde081dcff16c8601de4347e7dd1628ba2daac43b7820990507f30644e72e131a029b85045b68181585d2833e84879b9709143e1f593f0000001807f30644e72e131a029b85045b68181585d2833e84879b9709143e1f593f00000018360608601510301066201000009612d008301527f30644e72e131a029b85045b68181585d2833e84879b9709143e1f593f00000017eeeb2cb5981ed45649abebde081dcff16c8601de4347e7dd1628ba2daac43b7820990507f30644e72e131a029b85045b68181585d2833e84879b9709143e1f593f0000001807f30644e72e131a029b85045b68181585d2833e84879b9709143e1f593f00000018360608601510301066201000009612d208301527f30644e72e131a029b85045b68181585d2833e84879b9709143e1f593f00000017eeeb2cb5981ed45649abebde081dcff16c8601de4347e7dd1628ba2daac43b7820990507f30644e72e131a029b85045b68181585d2833e84879b9709143e1f593f0000001807f30644e72e131a029b85045b68181585d2833e84879b9709143e1f593f00000018360608601510301066201000009612d408301527f30644e72e131a029b85045b68181585d2833e84879b9709143e1f593f00000017eeeb2cb5981ed45649abebde081dcff16c8601de4347e7dd1628ba2daac43b7820990507f30644e72e131a029b85045b68181585d2833e84879b9709143e1f593f0000001807f30644e72e131a029b85045b68181585d2833e84879b9709143e1f593f00000018360608601510301066201000009612d608301527f30644e72e131a029b85045b68181585d2833e84879b9709143e1f593f00000017eeeb2cb5981ed45649abebde081dcff16c8601de4347e7dd1628ba2daac43b7820990507f30644e72e131a029b85045b68181585d2833e84879b9709143e1f593f0000001807f30644e72e131a029b85045b68181585d2833e84879b9709143e1f593f00000018360608601510301066201000009612d808301527f30644e72e131a029b85045b68181585d2833e84879b9709143e1f593f00000017eeeb2cb5981ed45649abebde081dcff16c8601de4347e7dd1628ba2daac43b7820990507f30644e72e131a029b85045b68181585d2833e84879b9709143e1f593f0000001807f30644e72e131a029b85045b68181585d2833e84879b9709143e1f593f00000018360608601510301066201000009612da08301527f30644e72e131a029b85045b68181585d2833e84879b9709143e1f593f00000017eeeb2cb5981ed45649abebde081dcff16c8601de4347e7dd1628ba2daac43b7820990507f30644e72e131a029b85045b68181585d2833e84879b9709143e1f593f0000001807f30644e72e131a029b85045b68181585d2833e84879b9709143e1f593f00000018360608601510301066201000009612dc08301527f30644e72e131a029b85045b68181585d2833e84879b9709143e1f593f00000017eeeb2cb5981ed45649abebde081dcff16c8601de4347e7dd1628ba2daac43b7820990507f30644e72e131a029b85045b68181585d2833e84879b9709143e1f593f0000001807f30644e72e131a029b85045b68181585d2833e84879b9709143e1f593f00000018360608601510301066201000009612de08301527f30644e72e131a029b85045b68181585d2833e84879b9709143e1f593f00000017eeeb2cb5981ed45649abebde081dcff16c8601de4347e7dd1628ba2daac43b7820990507f30644e72e131a029b85045b68181585d2833e84879b9709143e1f593f0000001807f30644e72e131a029b85045b68181585d2833e84879b9709143e1f593f00000018360608601510301066201000009612e008301527f30644e72e131a029b85045b68181585d2833e84879b9709143e1f593f00000017eeeb2cb5981ed45649abebde081dcff16c8601de4347e7dd1628ba2daac43b7820990507f30644e72e131a029b85045b68181585d2833e84879b9709143e1f593f0000001807f30644e72e131a029b85045b68181585d2833e84879b9709143e1f593f00000018360608601510301066201000009612e208301527f30644e72e131a029b85045b68181585d2833e84879b9709143e1f593f00000017eeeb2cb5981ed45649abebde081dcff16c8601de4347e7dd1628ba2daac43b7820990507f30644e72e131a029b85045b68181585d2833e84879b9709143e1f593f0000001807f30644e72e131a029b85045b68181585d2833e84879b9709143e1f593f00000018360608601510301066201000009612e408301527f30644e72e131a029b85045b68181585d2833e84879b9709143e1f593f00000017eeeb2cb5981ed45649abebde081dcff16c8601de4347e7dd1628ba2daac43b7820990507f30644e72e131a029b85045b68181585d2833e84879b9709143e1f593f0000001807f30644e72e131a029b85045b68181585d2833e84879b9709143e1f593f00000018360608601510301066201000009612e608301527f30644e72e131a029b85045b68181585d2833e84879b9709143e1f593f00000017eeeb2cb5981ed45649abebde081dcff16c8601de4347e7dd1628ba2daac43b7820990507f30644e72e131a029b85045b68181585d2833e84879b9709143e1f593f0000001807f30644e72e131a029b85045b68181585d2833e84879b9709143e1f593f00000018360608601510301066201000009612e808301527f30644e72e131a029b85045b68181585d2833e84879b9709143e1f593f00000017eeeb2cb5981ed45649abebde081dcff16c8601de4347e7dd1628ba2daac43b7820990507f30644e72e131a029b85045b68181585d2833e84879b9709143e1f593f0000001807f30644e72e131a029b85045b68181585d2833e84879b9709143e1f593f00000018360608601510301066201000009612ea08301527f30644e72e131a029b85045b68181585d2833e84879b9709143e1f593f00000017eeeb2cb5981ed45649abebde081dcff16c8601de4347e7dd1628ba2daac43b7820990507f30644e72e131a029b85045b68181585d2833e84879b9709143e1f593f0000001807f30644e72e131a029b85045b68181585d2833e84879b9709143e1f593f00000018360608601510301066201000009612ec08301527f30644e72e131a029b85045b68181585d2833e84879b9709143e1f593f00000017eeeb2cb5981ed45649abebde081dcff16c8601de4347e7dd1628ba2daac43b7820990507f30644e72e131a029b85045b68181585d2833e84879b9709143e1f593f0000001807f30644e72e131a029b85045b68181585d2833e84879b9709143e1f593f00000018360608601510301066201000009612ee08301527f30644e72e131a029b85045b68181585d2833e84879b9709143e1f593f00000017eeeb2cb5981ed45649abebde081dcff16c8601de4347e7dd1628ba2daac43b7820990507f30644e72e131a029b85045b68181585d2833e84879b9709143e1f593f0000001807f30644e72e131a029b85045b68181585d2833e84879b9709143e1f593f00000018360608601510301066201000009612f008301527f30644e72e131a029b85045b68181585d2833e84879b9709143e1f593f00000017eeeb2cb5981ed45649abebde081dcff16c8601de4347e7dd1628ba2daac43b7820990507f30644e72e131a029b85045b68181585d2833e84879b9709143e1f593f0000001807f30644e72e131a029b85045b68181585d2833e84879b9709143e1f593f00000018360608601510301066201000009612f208301527f30644e72e131a029b85045b68181585d2833e84879b9709143e1f593f00000017eeeb2cb5981ed45649abebde081dcff16c8601de4347e7dd1628ba2daac43b7820990507f30644e72e131a029b85045b68181585d2833e84879b9709143e1f593f0000001807f30644e72e131a029b85045b68181585d2833e84879b9709143e1f593f00000018360608601510301066201000009612f408301527f30644e72e131a029b85045b68181585d2833e84879b9709143e1f593f00000017eeeb2cb5981ed45649abebde081dcff16c8601de4347e7dd1628ba2daac43b7820990507f30644e72e131a029b85045b68181585d2833e84879b9709143e1f593f0000001807f30644e72e131a029b85045b68181585d2833e84879b9709143e1f593f00000018360608601510301066201000009612f608301527f30644e72e131a029b85045b68181585d2833e84879b9709143e1f593f00000017eeeb2cb5981ed45649abebde081dcff16c8601de4347e7dd1628ba2daac43b7820990507f30644e72e131a029b85045b68181585d2833e84879b9709143e1f593f0000001807f30644e72e131a029b85045b68181585d2833e84879b9709143e1f593f00000018360608601510301066201000009612f808301527f30644e72e131a029b85045b68181585d2833e84879b9709143e1f593f00000017eeeb2cb5981ed45649abebde081dcff16c8601de4347e7dd1628ba2daac43b7820990507f30644e72e131a029b85045b68181585d2833e84879b9709143e1f593f0000001807f30644e72e131a029b85045b68181585d2833e84879b9709143e1f593f00000018360608601510301066201000009612fa08301527f30644e72e131a029b85045b68181585d2833e84879b9709143e1f593f00000017eeeb2cb5981ed45649abebde081dcff16c8601de4347e7dd1628ba2daac43b7820990507f30644e72e131a029b85045b68181585d2833e84879b9709143e1f593f0000001807f30644e72e131a029b85045b68181585d2833e84879b9709143e1f593f00000018360608601510301066201000009612fc08301527f30644e72e131a029b85045b68181585d2833e84879b9709143e1f593f00000017eeeb2cb5981ed45649abebde081dcff16c8601de4347e7dd1628ba2daac43b7820990507f30644e72e131a029b85045b68181585d2833e84879b9709143e1f593f0000001807f30644e72e131a029b85045b68181585d2833e84879b9709143e1f593f00000018360608601510301066201000009612fe08301527f30644e72e131a029b85045b68181585d2833e84879b9709143e1f593f00000017eeeb2cb5981ed45649abebde081dcff16c8601de4347e7dd1628ba2daac43b7820990507f30644e72e131a029b85045b68181585d2833e84879b9709143e1f593f0000001807f30644e72e131a029b85045b68181585d2833e84879b9709143e1f593f000000183606086015103010662010000096130008301527f30644e72e131a029b85045b68181585d2833e84879b9709143e1f593f00000017eeeb2cb5981ed45649abebde081dcff16c8601de4347e7dd1628ba2daac43b7820990507f30644e72e131a029b85045b68181585d2833e84879b9709143e1f593f0000001807f30644e72e131a029b85045b68181585d2833e84879b9709143e1f593f000000183606086015103010662010000096130208301527f30644e72e131a029b85045b68181585d2833e84879b9709143e1f593f00000017eeeb2cb5981ed45649abebde081dcff16c8601de4347e7dd1628ba2daac43b7820990507f30644e72e131a029b85045b68181585d2833e84879b9709143e1f593f0000001807f30644e72e131a029b85045b68181585d2833e84879b9709143e1f593f000000183606086015103010662010000096130408301527f30644e72e131a029b85045b68181585d2833e84879b9709143e1f593f00000017eeeb2cb5981ed45649abebde081dcff16c8601de4347e7dd1628ba2daac43b7820990507f30644e72e131a029b85045b68181585d2833e84879b9709143e1f593f0000001807f30644e72e131a029b85045b68181585d2833e84879b9709143e1f593f000000183606086015103010662010000096130608301527f30644e72e131a029b85045b68181585d2833e84879b9709143e1f593f00000017eeeb2cb5981ed45649abebde081dcff16c8601de4347e7dd1628ba2daac43b7820990507f30644e72e131a029b85045b68181585d2833e84879b9709143e1f593f0000001807f30644e72e131a029b85045b68181585d2833e84879b9709143e1f593f000000183606086015103010662010000096130808301527f30644e72e131a029b85045b68181585d2833e84879b9709143e1f593f00000017eeeb2cb5981ed45649abebde081dcff16c8601de4347e7dd1628ba2daac43b7820990507f30644e72e131a029b85045b68181585d2833e84879b9709143e1f593f0000001807f30644e72e131a029b85045b68181585d2833e84879b9709143e1f593f000000183606086015103010662010000096130a08301527f30644e72e131a029b85045b68181585d2833e84879b9709143e1f593f00000017eeeb2cb5981ed45649abebde081dcff16c8601de4347e7dd1628ba2daac43b7820990507f30644e72e131a029b85045b68181585d2833e84879b9709143e1f593f0000001807f30644e72e131a029b85045b68181585d2833e84879b9709143e1f593f000000183606086015103010662010000096130c08301527f30644e72e131a029b85045b68181585d2833e84879b9709143e1f593f00000017eeeb2cb5981ed45649abebde081dcff16c8601de4347e7dd1628ba2daac43b7820990507f30644e72e131a029b85045b68181585d2833e84879b9709143e1f593f0000001807f30644e72e131a029b85045b68181585d2833e84879b9709143e1f593f000000183606086015103010662010000096130e08301527f30644e72e131a029b85045b68181585d2833e84879b9709143e1f593f00000017eeeb2cb5981ed45649abebde081dcff16c8601de4347e7dd1628ba2daac43b7820990507f30644e72e131a029b85045b68181585d2833e84879b9709143e1f593f0000001807f30644e72e131a029b85045b68181585d2833e84879b9709143e1f593f000000183606086015103010662010000096131008301527f30644e72e131a029b85045b68181585d2833e84879b9709143e1f593f00000017eeeb2cb5981ed45649abebde081dcff16c8601de4347e7dd1628ba2daac43b7820990507f30644e72e131a029b85045b68181585d2833e84879b9709143e1f593f0000001807f30644e72e131a029b85045b68181585d2833e84879b9709143e1f593f000000183606086015103010662010000096131208301527f30644e72e131a029b85045b68181585d2833e84879b9709143e1f593f00000017eeeb2cb5981ed45649abebde081dcff16c8601de4347e7dd1628ba2daac43b7820990507f30644e72e131a029b85045b68181585d2833e84879b9709143e1f593f0000001807f30644e72e131a029b85045b68181585d2833e84879b9709143e1f593f000000183606086015103010662010000096131408301527f30644e72e131a029b85045b68181585d2833e84879b9709143e1f593f00000017eeeb2cb5981ed45649abebde081dcff16c8601de4347e7dd1628ba2daac43b7820990507f30644e72e131a029b85045b68181585d2833e84879b9709143e1f593f0000001807f30644e72e131a029b85045b68181585d2833e84879b9709143e1f593f000000183606086015103010662010000096131608301527f30644e72e131a029b85045b68181585d2833e84879b9709143e1f593f00000017eeeb2cb5981ed45649abebde081dcff16c8601de4347e7dd1628ba2daac43b7820990507f30644e72e131a029b85045b68181585d2833e84879b9709143e1f593f0000001807f30644e72e131a029b85045b68181585d2833e84879b9709143e1f593f000000183606086015103010662010000096131808301527f30644e72e131a029b85045b68181585d2833e84879b9709143e1f593f00000017eeeb2cb5981ed45649abebde081dcff16c8601de4347e7dd1628ba2daac43b7820990507f30644e72e131a029b85045b68181585d2833e84879b9709143e1f593f0000001807f30644e72e131a029b85045b68181585d2833e84879b9709143e1f593f000000183606086015103010662010000096131a08301527f30644e72e131a029b85045b68181585d2833e84879b9709143e1f593f00000017eeeb2cb5981ed45649abebde081dcff16c8601de4347e7dd1628ba2daac43b7820990507f30644e72e131a029b85045b68181585d2833e84879b9709143e1f593f0000001807f30644e72e131a029b85045b68181585d2833e84879b9709143e1f593f000000183606086015103010662010000096131c08301527f30644e72e131a029b85045b68181585d2833e84879b9709143e1f593f00000017eeeb2cb5981ed45649abebde081dcff16c8601de4347e7dd1628ba2daac43b7820990507f30644e72e131a029b85045b68181585d2833e84879b9709143e1f593f0000001807f30644e72e131a029b85045b68181585d2833e84879b9709143e1f593f000000183606086015103010662010000096131e08301527f30644e72e131a029b85045b68181585d2833e84879b9709143e1f593f00000017eeeb2cb5981ed45649abebde081dcff16c8601de4347e7dd1628ba2daac43b7820990507f30644e72e131a029b85045b68181585d2833e84879b9709143e1f593f0000001807f30644e72e131a029b85045b68181585d2833e84879b9709143e1f593f000000183606086015103010662010000096132008301527f30644e72e131a029b85045b68181585d2833e84879b9709143e1f593f00000017eeeb2cb5981ed45649abebde081dcff16c8601de4347e7dd1628ba2daac43b7820990507f30644e72e131a029b85045b68181585d2833e84879b9709143e1f593f0000001807f30644e72e131a029b85045b68181585d2833e84879b9709143e1f593f000000183606086015103010662010000096132208301527f30644e72e131a029b85045b68181585d2833e84879b9709143e1f593f00000017eeeb2cb5981ed45649abebde081dcff16c8601de4347e7dd1628ba2daac43b7820990507f30644e72e131a029b85045b68181585d2833e84879b9709143e1f593f0000001807f30644e72e131a029b85045b68181585d2833e84879b9709143e1f593f000000183606086015103010662010000096132408301527f30644e72e131a029b85045b68181585d2833e84879b9709143e1f593f00000017eeeb2cb5981ed45649abebde081dcff16c8601de4347e7dd1628ba2daac43b7820990507f30644e72e131a029b85045b68181585d2833e84879b9709143e1f593f0000001807f30644e72e131a029b85045b68181585d2833e84879b9709143e1f593f000000183606086015103010662010000096132608301527f30644e72e131a029b85045b68181585d2833e84879b9709143e1f593f00000017eeeb2cb5981ed45649abebde081dcff16c8601de4347e7dd1628ba2daac43b7820990507f30644e72e131a029b85045b68181585d2833e84879b9709143e1f593f0000001807f30644e72e131a029b85045b68181585d2833e84879b9709143e1f593f000000183606086015103010662010000096132808301527f30644e72e131a029b85045b68181585d2833e84879b9709143e1f593f00000017eeeb2cb5981ed45649abebde081dcff16c8601de4347e7dd1628ba2daac43b7820990507f30644e72e131a029b85045b68181585d2833e84879b9709143e1f593f0000001807f30644e72e131a029b85045b68181585d2833e84879b9709143e1f593f000000183606086015103010662010000096132a08301527f30644e72e131a029b85045b68181585d2833e84879b9709143e1f593f00000017eeeb2cb5981ed45649abebde081dcff16c8601de4347e7dd1628ba2daac43b7820990507f30644e72e131a029b85045b68181585d2833e84879b9709143e1f593f0000001807f30644e72e131a029b85045b68181585d2833e84879b9709143e1f593f000000183606086015103010662010000096132c08301527f30644e72e131a029b85045b68181585d2833e84879b9709143e1f593f00000017eeeb2cb5981ed45649abebde081dcff16c8601de4347e7dd1628ba2daac43b7820990507f30644e72e131a029b85045b68181585d2833e84879b9709143e1f593f0000001807f30644e72e131a029b85045b68181585d2833e84879b9709143e1f593f000000183606086015103010662010000096132e08301527f30644e72e131a029b85045b68181585d2833e84879b9709143e1f593f00000017eeeb2cb5981ed45649abebde081dcff16c8601de4347e7dd1628ba2daac43b7820990507f30644e72e131a029b85045b68181585d2833e84879b9709143e1f593f0000001807f30644e72e131a029b85045b68181585d2833e84879b9709143e1f593f000000183606086015103010662010000096133008301527f30644e72e131a029b85045b68181585d2833e84879b9709143e1f593f00000017eeeb2cb5981ed45649abebde081dcff16c8601de4347e7dd1628ba2daac43b7820990507f30644e72e131a029b85045b68181585d2833e84879b9709143e1f593f0000001807f30644e72e131a029b85045b68181585d2833e84879b9709143e1f593f000000183606086015103010662010000096133208301527f30644e72e131a029b85045b68181585d2833e84879b9709143e1f593f00000017eeeb2cb5981ed45649abebde081dcff16c8601de4347e7dd1628ba2daac43b7820990507f30644e72e131a029b85045b68181585d2833e84879b9709143e1f593f0000001807f30644e72e131a029b85045b68181585d2833e84879b9709143e1f593f000000183606086015103010662010000096133408301527f30644e72e131a029b85045b68181585d2833e84879b9709143e1f593f00000017eeeb2cb5981ed45649abebde081dcff16c8601de4347e7dd1628ba2daac43b7820990507f30644e72e131a029b85045b68181585d2833e84879b9709143e1f593f0000001807f30644e72e131a029b85045b68181585d2833e84879b9709143e1f593f000000183606086015103010662010000096133608301527f30644e72e131a029b85045b68181585d2833e84879b9709143e1f593f00000017eeeb2cb5981ed45649abebde081dcff16c8601de4347e7dd1628ba2daac43b7820990507f30644e72e131a029b85045b68181585d2833e84879b9709143e1f593f0000001807f30644e72e131a029b85045b68181585d2833e84879b9709143e1f593f000000183606086015103010662010000096133808301527f30644e72e131a029b85045b68181585d2833e84879b9709143e1f593f00000017eeeb2cb5981ed45649abebde081dcff16c8601de4347e7dd1628ba2daac43b7820990507f30644e72e131a029b85045b68181585d2833e84879b9709143e1f593f0000001807f30644e72e131a029b85045b68181585d2833e84879b9709143e1f593f000000183606086015103010662010000096133a08301527f30644e72e131a029b85045b68181585d2833e84879b9709143e1f593f00000017eeeb2cb5981ed45649abebde081dcff16c8601de4347e7dd1628ba2daac43b7820990507f30644e72e131a029b85045b68181585d2833e84879b9709143e1f593f0000001807f30644e72e131a029b85045b68181585d2833e84879b9709143e1f593f000000183606086015103010662010000096133c08301527f30644e72e131a029b85045b68181585d2833e84879b9709143e1f593f00000017eeeb2cb5981ed45649abebde081dcff16c8601de4347e7dd1628ba2daac43b7820990507f30644e72e131a029b85045b68181585d2833e84879b9709143e1f593f0000001807f30644e72e131a029b85045b68181585d2833e84879b9709143e1f593f000000183606086015103010662010000096133e08301527f30644e72e131a029b85045b68181585d2833e84879b9709143e1f593f00000017eeeb2cb5981ed45649abebde081dcff16c8601de4347e7dd1628ba2daac43b7820990507f30644e72e131a029b85045b68181585d2833e84879b9709143e1f593f0000001807f30644e72e131a029b85045b68181585d2833e84879b9709143e1f593f000000183606086015103010662010000096134008301527f30644e72e131a029b85045b68181585d2833e84879b9709143e1f593f00000017eeeb2cb5981ed45649abebde081dcff16c8601de4347e7dd1628ba2daac43b7820990507f30644e72e131a029b85045b68181585d2833e84879b9709143e1f593f0000001807f30644e72e131a029b85045b68181585d2833e84879b9709143e1f593f000000183606086015103010662010000096134208301527f30644e72e131a029b85045b68181585d2833e84879b9709143e1f593f00000017eeeb2cb5981ed45649abebde081dcff16c8601de4347e7dd1628ba2daac43b7820990507f30644e72e131a029b85045b68181585d2833e84879b9709143e1f593f0000001807f30644e72e131a029b85045b68181585d2833e84879b9709143e1f593f000000183606086015103010662010000096134408301527f30644e72e131a029b85045b68181585d2833e84879b9709143e1f593f00000017eeeb2cb5981ed45649abebde081dcff16c8601de4347e7dd1628ba2daac43b7820990507f30644e72e131a029b85045b68181585d2833e84879b9709143e1f593f0000001807f30644e72e131a029b85045b68181585d2833e84879b9709143e1f593f000000183606086015103010662010000096134608301527f30644e72e131a029b85045b68181585d2833e84879b9709143e1f593f00000017eeeb2cb5981ed45649abebde081dcff16c8601de4347e7dd1628ba2daac43b7820990507f30644e72e131a029b85045b68181585d2833e84879b9709143e1f593f0000001807f30644e72e131a029b85045b68181585d2833e84879b9709143e1f593f000000183606086015103010662010000096134808301527f30644e72e131a029b85045b68181585d2833e84879b9709143e1f593f00000017eeeb2cb5981ed45649abebde081dcff16c8601de4347e7dd1628ba2daac43b7820990507f30644e72e131a029b85045b68181585d2833e84879b9709143e1f593f0000001807f30644e72e131a029b85045b68181585d2833e84879b9709143e1f593f000000183606086015103010662010000096134a08301527f30644e72e131a029b85045b68181585d2833e84879b9709143e1f593f00000017eeeb2cb5981ed45649abebde081dcff16c8601de4347e7dd1628ba2daac43b7820990507f30644e72e131a029b85045b68181585d2833e84879b9709143e1f593f0000001807f30644e72e131a029b85045b68181585d2833e84879b9709143e1f593f000000183606086015103010662010000096134c08301527f30644e72e131a029b85045b68181585d2833e84879b9709143e1f593f00000017eeeb2cb5981ed45649abebde081dcff16c8601de4347e7dd1628ba2daac43b7820990507f30644e72e131a029b85045b68181585d2833e84879b9709143e1f593f0000001807f30644e72e131a029b85045b68181585d2833e84879b9709143e1f593f000000183606086015103010662010000096134e08301527f30644e72e131a029b85045b68181585d2833e84879b9709143e1f593f00000017eeeb2cb5981ed45649abebde081dcff16c8601de4347e7dd1628ba2daac43b7820990507f30644e72e131a029b85045b68181585d2833e84879b9709143e1f593f0000001807f30644e72e131a029b85045b68181585d2833e84879b9709143e1f593f000000183606086015103010662010000096135008301527f30644e72e131a029b85045b68181585d2833e84879b9709143e1f593f00000017eeeb2cb5981ed45649abebde081dcff16c8601de4347e7dd1628ba2daac43b7820990507f30644e72e131a029b85045b68181585d2833e84879b9709143e1f593f0000001807f30644e72e131a029b85045b68181585d2833e84879b9709143e1f593f000000183606086015103010662010000096135208301527f30644e72e131a029b85045b68181585d2833e84879b9709143e1f593f00000017eeeb2cb5981ed45649abebde081dcff16c8601de4347e7dd1628ba2daac43b7820990507f30644e72e131a029b85045b68181585d2833e84879b9709143e1f593f0000001807f30644e72e131a029b85045b68181585d2833e84879b9709143e1f593f000000183606086015103010662010000096135408301527f30644e72e131a029b85045b68181585d2833e84879b9709143e1f593f00000017eeeb2cb5981ed45649abebde081dcff16c8601de4347e7dd1628ba2daac43b7820990507f30644e72e131a029b85045b68181585d2833e84879b9709143e1f593f0000001807f30644e72e131a029b85045b68181585d2833e84879b9709143e1f593f000000183606086015103010662010000096135608301527f30644e72e131a029b85045b68181585d2833e84879b9709143e1f593f00000017eeeb2cb5981ed45649abebde081dcff16c8601de4347e7dd1628ba2daac43b7820990507f30644e72e131a029b85045b68181585d2833e84879b9709143e1f593f0000001807f30644e72e131a029b85045b68181585d2833e84879b9709143e1f593f000000183606086015103010662010000096135808301527f30644e72e131a029b85045b68181585d2833e84879b9709143e1f593f00000017eeeb2cb5981ed45649abebde081dcff16c8601de4347e7dd1628ba2daac43b7820990507f30644e72e131a029b85045b68181585d2833e84879b9709143e1f593f0000001807f30644e72e131a029b85045b68181585d2833e84879b9709143e1f593f000000183606086015103010662010000096135a08301527f30644e72e131a029b85045b68181585d2833e84879b9709143e1f593f00000017eeeb2cb5981ed45649abebde081dcff16c8601de4347e7dd1628ba2daac43b7820990507f30644e72e131a029b85045b68181585d2833e84879b9709143e1f593f0000001807f30644e72e131a029b85045b68181585d2833e84879b9709143e1f593f000000183606086015103010662010000096135c08301527f30644e72e131a029b85045b68181585d2833e84879b9709143e1f593f00000017eeeb2cb5981ed45649abebde081dcff16c8601de4347e7dd1628ba2daac43b7820990507f30644e72e131a029b85045b68181585d2833e84879b9709143e1f593f0000001807f30644e72e131a029b85045b68181585d2833e84879b9709143e1f593f000000183606086015103010662010000096135e08301527f30644e72e131a029b85045b68181585d2833e84879b9709143e1f593f00000017eeeb2cb5981ed45649abebde081dcff16c8601de4347e7dd1628ba2daac43b7820990507f30644e72e131a029b85045b68181585d2833e84879b9709143e1f593f0000001807f30644e72e131a029b85045b68181585d2833e84879b9709143e1f593f000000183606086015103010662010000096136008301527f30644e72e131a029b85045b68181585d2833e84879b9709143e1f593f00000017eeeb2cb5981ed45649abebde081dcff16c8601de4347e7dd1628ba2daac43b7820990507f30644e72e131a029b85045b68181585d2833e84879b9709143e1f593f0000001807f30644e72e131a029b85045b68181585d2833e84879b9709143e1f593f000000183606086015103010662010000096136208301527f30644e72e131a029b85045b68181585d2833e84879b9709143e1f593f00000017eeeb2cb5981ed45649abebde081dcff16c8601de4347e7dd1628ba2daac43b7820990507f30644e72e131a029b85045b68181585d2833e84879b9709143e1f593f0000001807f30644e72e131a029b85045b68181585d2833e84879b9709143e1f593f000000183606086015103010662010000096136408301527f30644e72e131a029b85045b68181585d2833e84879b9709143e1f593f00000017eeeb2cb5981ed45649abebde081dcff16c8601de4347e7dd1628ba2daac43b7820990507f30644e72e131a029b85045b68181585d2833e84879b9709143e1f593f0000001807f30644e72e131a029b85045b68181585d2833e84879b9709143e1f593f000000183606086015103010662010000096136608301527f30644e72e131a029b85045b68181585d2833e84879b9709143e1f593f00000017eeeb2cb5981ed45649abebde081dcff16c8601de4347e7dd1628ba2daac43b7820990507f30644e72e131a029b85045b68181585d2833e84879b9709143e1f593f0000001807f30644e72e131a029b85045b68181585d2833e84879b9709143e1f593f000000183606086015103010662010000096136808301527f30644e72e131a029b85045b68181585d2833e84879b9709143e1f593f00000017eeeb2cb5981ed45649abebde081dcff16c8601de4347e7dd1628ba2daac43b7820990507f30644e72e131a029b85045b68181585d2833e84879b9709143e1f593f0000001807f30644e72e131a029b85045b68181585d2833e84879b9709143e1f593f000000183606086015103010662010000096136a08301527f30644e72e131a029b85045b68181585d2833e84879b9709143e1f593f00000017eeeb2cb5981ed45649abebde081dcff16c8601de4347e7dd1628ba2daac43b7820990507f30644e72e131a029b85045b68181585d2833e84879b9709143e1f593f0000001807f30644e72e131a029b85045b68181585d2833e84879b9709143e1f593f000000183606086015103010662010000096136c08301527f30644e72e131a029b85045b68181585d2833e84879b9709143e1f593f00000017eeeb2cb5981ed45649abebde081dcff16c8601de4347e7dd1628ba2daac43b7820990507f30644e72e131a029b85045b68181585d2833e84879b9709143e1f593f0000001807f30644e72e131a029b85045b68181585d2833e84879b9709143e1f593f000000183606086015103010662010000096136e08301527f30644e72e131a029b85045b68181585d2833e84879b9709143e1f593f00000017eeeb2cb5981ed45649abebde081dcff16c8601de4347e7dd1628ba2daac43b7820990507f30644e72e131a029b85045b68181585d2833e84879b9709143e1f593f0000001807f30644e72e131a029b85045b68181585d2833e84879b9709143e1f593f000000183606086015103010662010000096137008301527f30644e72e131a029b85045b68181585d2833e84879b9709143e1f593f00000017eeeb2cb5981ed45649abebde081dcff16c8601de4347e7dd1628ba2daac43b7820990507f30644e72e131a029b85045b68181585d2833e84879b9709143e1f593f0000001807f30644e72e131a029b85045b68181585d2833e84879b9709143e1f593f000000183606086015103010662010000096137208301527f30644e72e131a029b85045b68181585d2833e84879b9709143e1f593f00000017eeeb2cb5981ed45649abebde081dcff16c8601de4347e7dd1628ba2daac43b7820990507f30644e72e131a029b85045b68181585d2833e84879b9709143e1f593f0000001807f30644e72e131a029b85045b68181585d2833e84879b9709143e1f593f000000183606086015103010662010000096137408301527f30644e72e131a029b85045b68181585d2833e84879b9709143e1f593f00000017eeeb2cb5981ed45649abebde081dcff16c8601de4347e7dd1628ba2daac43b7820990507f30644e72e131a029b85045b68181585d2833e84879b9709143e1f593f0000001807f30644e72e131a029b85045b68181585d2833e84879b9709143e1f593f000000183606086015103010662010000096137608301527f30644e72e131a029b85045b68181585d2833e84879b9709143e1f593f00000017eeeb2cb5981ed45649abebde081dcff16c8601de4347e7dd1628ba2daac43b7820990507f30644e72e131a029b85045b68181585d2833e84879b9709143e1f593f0000001807f30644e72e131a029b85045b68181585d2833e84879b9709143e1f593f000000183606086015103010662010000096137808301527f30644e72e131a029b85045b68181585d2833e84879b9709143e1f593f00000017eeeb2cb5981ed45649abebde081dcff16c8601de4347e7dd1628ba2daac43b7820990507f30644e72e131a029b85045b68181585d2833e84879b9709143e1f593f0000001807f30644e72e131a029b85045b68181585d2833e84879b9709143e1f593f000000183606086015103010662010000096137a08301527f30644e72e131a029b85045b68181585d2833e84879b9709143e1f593f00000017eeeb2cb5981ed45649abebde081dcff16c8601de4347e7dd1628ba2daac43b7820990507f30644e72e131a029b85045b68181585d2833e84879b9709143e1f593f0000001807f30644e72e131a029b85045b68181585d2833e84879b9709143e1f593f000000183606086015103010662010000096137c08301527f30644e72e131a029b85045b68181585d2833e84879b9709143e1f593f00000017eeeb2cb5981ed45649abebde081dcff16c8601de4347e7dd1628ba2daac43b7820990507f30644e72e131a029b85045b68181585d2833e84879b9709143e1f593f0000001807f30644e72e131a029b85045b68181585d2833e84879b9709143e1f593f000000183606086015103010662010000096137e08301527f30644e72e131a029b85045b68181585d2833e84879b9709143e1f593f00000017eeeb2cb5981ed45649abebde081dcff16c8601de4347e7dd1628ba2daac43b7820990507f30644e72e131a029b85045b68181585d2833e84879b9709143e1f593f0000001807f30644e72e131a029b85045b68181585d2833e84879b9709143e1f593f000000183606086015103010662010000096138008301527f30644e72e131a029b85045b68181585d2833e84879b9709143e1f593f00000017eeeb2cb5981ed45649abebde081dcff16c8601de4347e7dd1628ba2daac43b7820990507f30644e72e131a029b85045b68181585d2833e84879b9709143e1f593f0000001807f30644e72e131a029b85045b68181585d2833e84879b9709143e1f593f000000183606086015103010662010000096138208301527f30644e72e131a029b85045b68181585d2833e84879b9709143e1f593f00000017eeeb2cb5981ed45649abebde081dcff16c8601de4347e7dd1628ba2daac43b7820990507f30644e72e131a029b85045b68181585d2833e84879b9709143e1f593f0000001807f30644e72e131a029b85045b68181585d2833e84879b9709143e1f593f000000183606086015103010662010000096138408301527f30644e72e131a029b85045b68181585d2833e84879b9709143e1f593f00000017eeeb2cb5981ed45649abebde081dcff16c8601de4347e7dd1628ba2daac43b7820990507f30644e72e131a029b85045b68181585d2833e84879b9709143e1f593f0000001807f30644e72e131a029b85045b68181585d2833e84879b9709143e1f593f000000183606086015103010662010000096138608301527f30644e72e131a029b85045b68181585d2833e84879b9709143e1f593f00000017eeeb2cb5981ed45649abebde081dcff16c8601de4347e7dd1628ba2daac43b7820990507f30644e72e131a029b85045b68181585d2833e84879b9709143e1f593f0000001807f30644e72e131a029b85045b68181585d2833e84879b9709143e1f593f000000183606086015103010662010000096138808301527f30644e72e131a029b85045b68181585d2833e84879b9709143e1f593f00000017eeeb2cb5981ed45649abebde081dcff16c8601de4347e7dd1628ba2daac43b7820990507f30644e72e131a029b85045b68181585d2833e84879b9709143e1f593f0000001807f30644e72e131a029b85045b68181585d2833e84879b9709143e1f593f000000183606086015103010662010000096138a08301527f30644e72e131a029b85045b68181585d2833e84879b9709143e1f593f00000017eeeb2cb5981ed45649abebde081dcff16c8601de4347e7dd1628ba2daac43b7820990507f30644e72e131a029b85045b68181585d2833e84879b9709143e1f593f0000001807f30644e72e131a029b85045b68181585d2833e84879b9709143e1f593f000000183606086015103010662010000096138c08301527f30644e72e131a029b85045b68181585d2833e84879b9709143e1f593f00000017eeeb2cb5981ed45649abebde081dcff16c8601de4347e7dd1628ba2daac43b7820990507f30644e72e131a029b85045b68181585d2833e84879b9709143e1f593f0000001807f30644e72e131a029b85045b68181585d2833e84879b9709143e1f593f000000183606086015103010662010000096138e08301527f30644e72e131a029b85045b68181585d2833e84879b9709143e1f593f00000017eeeb2cb5981ed45649abebde081dcff16c8601de4347e7dd1628ba2daac43b7820990507f30644e72e131a029b85045b68181585d2833e84879b9709143e1f593f0000001807f30644e72e131a029b85045b68181585d2833e84879b9709143e1f593f000000183606086015103010662010000096139008301527f30644e72e131a029b85045b68181585d2833e84879b9709143e1f593f00000017eeeb2cb5981ed45649abebde081dcff16c8601de4347e7dd1628ba2daac43b7820990507f30644e72e131a029b85045b68181585d2833e84879b9709143e1f593f0000001807f30644e72e131a029b85045b68181585d2833e84879b9709143e1f593f000000183606086015103010662010000096139208301527f30644e72e131a029b85045b68181585d2833e84879b9709143e1f593f00000017eeeb2cb5981ed45649abebde081dcff16c8601de4347e7dd1628ba2daac43b7820990507f30644e72e131a029b85045b68181585d2833e84879b9709143e1f593f0000001807f30644e72e131a029b85045b68181585d2833e84879b9709143e1f593f000000183606086015103010662010000096139408301527f30644e72e131a029b85045b68181585d2833e84879b9709143e1f593f00000017eeeb2cb5981ed45649abebde081dcff16c8601de4347e7dd1628ba2daac43b7820990507f30644e72e131a029b85045b68181585d2833e84879b9709143e1f593f0000001807f30644e72e131a029b85045b68181585d2833e84879b9709143e1f593f000000183606086015103010662010000096139608301527f30644e72e131a029b85045b68181585d2833e84879b9709143e1f593f00000017eeeb2cb5981ed45649abebde081dcff16c8601de4347e7dd1628ba2daac43b7820990507f30644e72e131a029b85045b68181585d2833e84879b9709143e1f593f0000001807f30644e72e131a029b85045b68181585d2833e84879b9709143e1f593f000000183606086015103010662010000096139808301527f30644e72e131a029b85045b68181585d2833e84879b9709143e1f593f00000017eeeb2cb5981ed45649abebde081dcff16c8601de4347e7dd1628ba2daac43b7820990507f30644e72e131a029b85045b68181585d2833e84879b9709143e1f593f0000001807f30644e72e131a029b85045b68181585d2833e84879b9709143e1f593f000000183606086015103010662010000096139a08301527f30644e72e131a029b85045b68181585d2833e84879b9709143e1f593f00000017eeeb2cb5981ed45649abebde081dcff16c8601de4347e7dd1628ba2daac43b7820990507f30644e72e131a029b85045b68181585d2833e84879b9709143e1f593f0000001807f30644e72e131a029b85045b68181585d2833e84879b9709143e1f593f000000183606086015103010662010000096139c08301527f30644e72e131a029b85045b68181585d2833e84879b9709143e1f593f00000017eeeb2cb5981ed45649abebde081dcff16c8601de4347e7dd1628ba2daac43b7820990507f30644e72e131a029b85045b68181585d2833e84879b9709143e1f593f0000001807f30644e72e131a029b85045b68181585d2833e84879b9709143e1f593f000000183606086015103010662010000096139e08301527f30644e72e131a029b85045b68181585d2833e84879b9709143e1f593f00000017eeeb2cb5981ed45649abebde081dcff16c8601de4347e7dd1628ba2daac43b7820990507f30644e72e131a029b85045b68181585d2833e84879b9709143e1f593f0000001807f30644e72e131a029b85045b68181585d2833e84879b9709143e1f593f00000018360608601510301066201000009613a008301527f30644e72e131a029b85045b68181585d2833e84879b9709143e1f593f00000017eeeb2cb5981ed45649abebde081dcff16c8601de4347e7dd1628ba2daac43b7820990507f30644e72e131a029b85045b68181585d2833e84879b9709143e1f593f0000001807f30644e72e131a029b85045b68181585d2833e84879b9709143e1f593f00000018360608601510301066201000009613a208301527f30644e72e131a029b85045b68181585d2833e84879b9709143e1f593f00000017eeeb2cb5981ed45649abebde081dcff16c8601de4347e7dd1628ba2daac43b7820990507f30644e72e131a029b85045b68181585d2833e84879b9709143e1f593f0000001807f30644e72e131a029b85045b68181585d2833e84879b9709143e1f593f00000018360608601510301066201000009613a408301527f30644e72e131a029b85045b68181585d2833e84879b9709143e1f593f00000017eeeb2cb5981ed45649abebde081dcff16c8601de4347e7dd1628ba2daac43b7820990507f30644e72e131a029b85045b68181585d2833e84879b9709143e1f593f0000001807f30644e72e131a029b85045b68181585d2833e84879b9709143e1f593f00000018360608601510301066201000009613a608301527f30644e72e131a029b85045b68181585d2833e84879b9709143e1f593f00000017eeeb2cb5981ed45649abebde081dcff16c8601de4347e7dd1628ba2daac43b7820990507f30644e72e131a029b85045b68181585d2833e84879b9709143e1f593f0000001807f30644e72e131a029b85045b68181585d2833e84879b9709143e1f593f00000018360608601510301066201000009613a808301527f30644e72e131a029b85045b68181585d2833e84879b9709143e1f593f00000017eeeb2cb5981ed45649abebde081dcff16c8601de4347e7dd1628ba2daac43b7820990507f30644e72e131a029b85045b68181585d2833e84879b9709143e1f593f0000001807f30644e72e131a029b85045b68181585d2833e84879b9709143e1f593f00000018360608601510301066201000009613aa08301527f30644e72e131a029b85045b68181585d2833e84879b9709143e1f593f00000017eeeb2cb5981ed45649abebde081dcff16c8601de4347e7dd1628ba2daac43b7820990507f30644e72e131a029b85045b68181585d2833e84879b9709143e1f593f0000001807f30644e72e131a029b85045b68181585d2833e84879b9709143e1f593f00000018360608601510301066201000009613ac08301527f30644e72e131a029b85045b68181585d2833e84879b9709143e1f593f00000017eeeb2cb5981ed45649abebde081dcff16c8601de4347e7dd1628ba2daac43b7820990507f30644e72e131a029b85045b68181585d2833e84879b9709143e1f593f0000001807f30644e72e131a029b85045b68181585d2833e84879b9709143e1f593f00000018360608601510301066201000009613ae08301527f30644e72e131a029b85045b68181585d2833e84879b9709143e1f593f00000017eeeb2cb5981ed45649abebde081dcff16c8601de4347e7dd1628ba2daac43b7820990507f30644e72e131a029b85045b68181585d2833e84879b9709143e1f593f0000001807f30644e72e131a029b85045b68181585d2833e84879b9709143e1f593f00000018360608601510301066201000009613b008301527f30644e72e131a029b85045b68181585d2833e84879b9709143e1f593f00000017eeeb2cb5981ed45649abebde081dcff16c8601de4347e7dd1628ba2daac43b7820990507f30644e72e131a029b85045b68181585d2833e84879b9709143e1f593f0000001807f30644e72e131a029b85045b68181585d2833e84879b9709143e1f593f00000018360608601510301066201000009613b208301527f30644e72e131a029b85045b68181585d2833e84879b9709143e1f593f00000017eeeb2cb5981ed45649abebde081dcff16c8601de4347e7dd1628ba2daac43b7820990507f30644e72e131a029b85045b68181585d2833e84879b9709143e1f593f0000001807f30644e72e131a029b85045b68181585d2833e84879b9709143e1f593f00000018360608601510301066201000009613b408301527f30644e72e131a029b85045b68181585d2833e84879b9709143e1f593f00000017eeeb2cb5981ed45649abebde081dcff16c8601de4347e7dd1628ba2daac43b7820990507f30644e72e131a029b85045b68181585d2833e84879b9709143e1f593f0000001807f30644e72e131a029b85045b68181585d2833e84879b9709143e1f593f00000018360608601510301066201000009613b608301527f30644e72e131a029b85045b68181585d2833e84879b9709143e1f593f00000017eeeb2cb5981ed45649abebde081dcff16c8601de4347e7dd1628ba2daac43b7820990507f30644e72e131a029b85045b68181585d2833e84879b9709143e1f593f0000001807f30644e72e131a029b85045b68181585d2833e84879b9709143e1f593f00000018360608601510301066201000009613b808301527f30644e72e131a029b85045b68181585d2833e84879b9709143e1f593f00000017eeeb2cb5981ed45649abebde081dcff16c8601de4347e7dd1628ba2daac43b7820990507f30644e72e131a029b85045b68181585d2833e84879b9709143e1f593f0000001807f30644e72e131a029b85045b68181585d2833e84879b9709143e1f593f00000018360608601510301066201000009613ba08301527f30644e72e131a029b85045b68181585d2833e84879b9709143e1f593f00000017eeeb2cb5981ed45649abebde081dcff16c8601de4347e7dd1628ba2daac43b7820990507f30644e72e131a029b85045b68181585d2833e84879b9709143e1f593f0000001807f30644e72e131a029b85045b68181585d2833e84879b9709143e1f593f00000018360608601510301066201000009613bc08301527f30644e72e131a029b85045b68181585d2833e84879b9709143e1f593f00000017eeeb2cb5981ed45649abebde081dcff16c8601de4347e7dd1628ba2daac43b7820990507f30644e72e131a029b85045b68181585d2833e84879b9709143e1f593f0000001807f30644e72e131a029b85045b68181585d2833e84879b9709143e1f593f00000018360608601510301066201000009613be08301527f30644e72e131a029b85045b68181585d2833e84879b9709143e1f593f00000017eeeb2cb5981ed45649abebde081dcff16c8601de4347e7dd1628ba2daac43b7820990507f30644e72e131a029b85045b68181585d2833e84879b9709143e1f593f0000001807f30644e72e131a029b85045b68181585d2833e84879b9709143e1f593f00000018360608601510301066201000009613c008301527f30644e72e131a029b85045b68181585d2833e84879b9709143e1f593f00000017eeeb2cb5981ed45649abebde081dcff16c8601de4347e7dd1628ba2daac43b7820990507f30644e72e131a029b85045b68181585d2833e84879b9709143e1f593f0000001807f30644e72e131a029b85045b68181585d2833e84879b9709143e1f593f00000018360608601510301066201000009613c208301527f30644e72e131a029b85045b68181585d2833e84879b9709143e1f593f00000017eeeb2cb5981ed45649abebde081dcff16c8601de4347e7dd1628ba2daac43b7820990507f30644e72e131a029b85045b68181585d2833e84879b9709143e1f593f0000001807f30644e72e131a029b85045b68181585d2833e84879b9709143e1f593f00000018360608601510301066201000009613c408301527f30644e72e131a029b85045b68181585d2833e84879b9709143e1f593f00000017eeeb2cb5981ed45649abebde081dcff16c8601de4347e7dd1628ba2daac43b7820990507f30644e72e131a029b85045b68181585d2833e84879b9709143e1f593f0000001807f30644e72e131a029b85045b68181585d2833e84879b9709143e1f593f00000018360608601510301066201000009613c608301527f30644e72e131a029b85045b68181585d2833e84879b9709143e1f593f00000017eeeb2cb5981ed45649abebde081dcff16c8601de4347e7dd1628ba2daac43b7820990507f30644e72e131a029b85045b68181585d2833e84879b9709143e1f593f0000001807f30644e72e131a029b85045b68181585d2833e84879b9709143e1f593f00000018360608601510301066201000009613c808301527f30644e72e131a029b85045b68181585d2833e84879b9709143e1f593f00000017eeeb2cb5981ed45649abebde081dcff16c8601de4347e7dd1628ba2daac43b7820990507f30644e72e131a029b85045b68181585d2833e84879b9709143e1f593f0000001807f30644e72e131a029b85045b68181585d2833e84879b9709143e1f593f00000018360608601510301066201000009613ca08301527f30644e72e131a029b85045b68181585d2833e84879b9709143e1f593f00000017eeeb2cb5981ed45649abebde081dcff16c8601de4347e7dd1628ba2daac43b7820990507f30644e72e131a029b85045b68181585d2833e84879b9709143e1f593f0000001807f30644e72e131a029b85045b68181585d2833e84879b9709143e1f593f00000018360608601510301066201000009613cc08301527f30644e72e131a029b85045b68181585d2833e84879b9709143e1f593f00000017eeeb2cb5981ed45649abebde081dcff16c8601de4347e7dd1628ba2daac43b7820990507f30644e72e131a029b85045b68181585d2833e84879b9709143e1f593f0000001807f30644e72e131a029b85045b68181585d2833e84879b9709143e1f593f00000018360608601510301066201000009613ce08301527f30644e72e131a029b85045b68181585d2833e84879b9709143e1f593f00000017eeeb2cb5981ed45649abebde081dcff16c8601de4347e7dd1628ba2daac43b7820990507f30644e72e131a029b85045b68181585d2833e84879b9709143e1f593f0000001807f30644e72e131a029b85045b68181585d2833e84879b9709143e1f593f00000018360608601510301066201000009613d008301527f30644e72e131a029b85045b68181585d2833e84879b9709143e1f593f00000017eeeb2cb5981ed45649abebde081dcff16c8601de4347e7dd1628ba2daac43b7820990507f30644e72e131a029b85045b68181585d2833e84879b9709143e1f593f0000001807f30644e72e131a029b85045b68181585d2833e84879b9709143e1f593f00000018360608601510301066201000009613d208301527f30644e72e131a029b85045b68181585d2833e84879b9709143e1f593f00000017eeeb2cb5981ed45649abebde081dcff16c8601de4347e7dd1628ba2daac43b7820990507f30644e72e131a029b85045b68181585d2833e84879b9709143e1f593f0000001807f30644e72e131a029b85045b68181585d2833e84879b9709143e1f593f00000018360608601510301066201000009613d408301527f30644e72e131a029b85045b68181585d2833e84879b9709143e1f593f00000017eeeb2cb5981ed45649abebde081dcff16c8601de4347e7dd1628ba2daac43b7820990507f30644e72e131a029b85045b68181585d2833e84879b9709143e1f593f0000001807f30644e72e131a029b85045b68181585d2833e84879b9709143e1f593f00000018360608601510301066201000009613d608301527f30644e72e131a029b85045b68181585d2833e84879b9709143e1f593f00000017eeeb2cb5981ed45649abebde081dcff16c8601de4347e7dd1628ba2daac43b7820990507f30644e72e131a029b85045b68181585d2833e84879b9709143e1f593f0000001807f30644e72e131a029b85045b68181585d2833e84879b9709143e1f593f00000018360608601510301066201000009613d808301527f30644e72e131a029b85045b68181585d2833e84879b9709143e1f593f00000017eeeb2cb5981ed45649abebde081dcff16c8601de4347e7dd1628ba2daac43b7820990507f30644e72e131a029b85045b68181585d2833e84879b9709143e1f593f0000001807f30644e72e131a029b85045b68181585d2833e84879b9709143e1f593f00000018360608601510301066201000009613da08301527f30644e72e131a029b85045b68181585d2833e84879b9709143e1f593f00000017eeeb2cb5981ed45649abebde081dcff16c8601de4347e7dd1628ba2daac43b7820990507f30644e72e131a029b85045b68181585d2833e84879b9709143e1f593f0000001807f30644e72e131a029b85045b68181585d2833e84879b9709143e1f593f00000018360608601510301066201000009613dc08301527f30644e72e131a029b85045b68181585d2833e84879b9709143e1f593f00000017eeeb2cb5981ed45649abebde081dcff16c8601de4347e7dd1628ba2daac43b7820990507f30644e72e131a029b85045b68181585d2833e84879b9709143e1f593f0000001807f30644e72e131a029b85045b68181585d2833e84879b9709143e1f593f00000018360608601510301066201000009613de08301527f30644e72e131a029b85045b68181585d2833e84879b9709143e1f593f00000017eeeb2cb5981ed45649abebde081dcff16c8601de4347e7dd1628ba2daac43b7820990507f30644e72e131a029b85045b68181585d2833e84879b9709143e1f593f0000001807f30644e72e131a029b85045b68181585d2833e84879b9709143e1f593f00000018360608601510301066201000009613e008301527f30644e72e131a029b85045b68181585d2833e84879b9709143e1f593f00000017eeeb2cb5981ed45649abebde081dcff16c8601de4347e7dd1628ba2daac43b7820990507f30644e72e131a029b85045b68181585d2833e84879b9709143e1f593f0000001807f30644e72e131a029b85045b68181585d2833e84879b9709143e1f593f00000018360608601510301066201000009613e208301527f30644e72e131a029b85045b68181585d2833e84879b9709143e1f593f00000017eeeb2cb5981ed45649abebde081dcff16c8601de4347e7dd1628ba2daac43b7820990507f30644e72e131a029b85045b68181585d2833e84879b9709143e1f593f0000001807f30644e72e131a029b85045b68181585d2833e84879b9709143e1f593f00000018360608601510301066201000009613e408301527f30644e72e131a029b85045b68181585d2833e84879b9709143e1f593f00000017eeeb2cb5981ed45649abebde081dcff16c8601de4347e7dd1628ba2daac43b7820990507f30644e72e131a029b85045b68181585d2833e84879b9709143e1f593f0000001807f30644e72e131a029b85045b68181585d2833e84879b9709143e1f593f00000018360608601510301066201000009613e608301527f30644e72e131a029b85045b68181585d2833e84879b9709143e1f593f00000017eeeb2cb5981ed45649abebde081dcff16c8601de4347e7dd1628ba2daac43b7820990507f30644e72e131a029b85045b68181585d2833e84879b9709143e1f593f0000001807f30644e72e131a029b85045b68181585d2833e84879b9709143e1f593f00000018360608601510301066201000009613e808301527f30644e72e131a029b85045b68181585d2833e84879b9709143e1f593f00000017eeeb2cb5981ed45649abebde081dcff16c8601de4347e7dd1628ba2daac43b7820990507f30644e72e131a029b85045b68181585d2833e84879b9709143e1f593f0000001807f30644e72e131a029b85045b68181585d2833e84879b9709143e1f593f00000018360608601510301066201000009613ea08301527f30644e72e131a029b85045b68181585d2833e84879b9709143e1f593f00000017eeeb2cb5981ed45649abebde081dcff16c8601de4347e7dd1628ba2daac43b7820990507f30644e72e131a029b85045b68181585d2833e84879b9709143e1f593f0000001807f30644e72e131a029b85045b68181585d2833e84879b9709143e1f593f00000018360608601510301066201000009613ec08301527f30644e72e131a029b85045b68181585d2833e84879b9709143e1f593f00000017eeeb2cb5981ed45649abebde081dcff16c8601de4347e7dd1628ba2daac43b7820990507f30644e72e131a029b85045b68181585d2833e84879b9709143e1f593f0000001807f30644e72e131a029b85045b68181585d2833e84879b9709143e1f593f00000018360608601510301066201000009613ee08301527f30644e72e131a029b85045b68181585d2833e84879b9709143e1f593f00000017eeeb2cb5981ed45649abebde081dcff16c8601de4347e7dd1628ba2daac43b7820990507f30644e72e131a029b85045b68181585d2833e84879b9709143e1f593f0000001807f30644e72e131a029b85045b68181585d2833e84879b9709143e1f593f00000018360608601510301066201000009613f008301527f30644e72e131a029b85045b68181585d2833e84879b9709143e1f593f00000017eeeb2cb5981ed45649abebde081dcff16c8601de4347e7dd1628ba2daac43b7820990507f30644e72e131a029b85045b68181585d2833e84879b9709143e1f593f0000001807f30644e72e131a029b85045b68181585d2833e84879b9709143e1f593f00000018360608601510301066201000009613f208301527f30644e72e131a029b85045b68181585d2833e84879b9709143e1f593f00000017eeeb2cb5981ed45649abebde081dcff16c8601de4347e7dd1628ba2daac43b7820990507f30644e72e131a029b85045b68181585d2833e84879b9709143e1f593f0000001807f30644e72e131a029b85045b68181585d2833e84879b9709143e1f593f00000018360608601510301066201000009613f408301527f30644e72e131a029b85045b68181585d2833e84879b9709143e1f593f00000017eeeb2cb5981ed45649abebde081dcff16c8601de4347e7dd1628ba2daac43b7820990507f30644e72e131a029b85045b68181585d2833e84879b9709143e1f593f0000001807f30644e72e131a029b85045b68181585d2833e84879b9709143e1f593f00000018360608601510301066201000009613f608301527f30644e72e131a029b85045b68181585d2833e84879b9709143e1f593f00000017eeeb2cb5981ed45649abebde081dcff16c8601de4347e7dd1628ba2daac43b7820990507f30644e72e131a029b85045b68181585d2833e84879b9709143e1f593f0000001807f30644e72e131a029b85045b68181585d2833e84879b9709143e1f593f00000018360608601510301066201000009613f808301527f30644e72e131a029b85045b68181585d2833e84879b9709143e1f593f00000017eeeb2cb5981ed45649abebde081dcff16c8601de4347e7dd1628ba2daac43b7820990507f30644e72e131a029b85045b68181585d2833e84879b9709143e1f593f0000001807f30644e72e131a029b85045b68181585d2833e84879b9709143e1f593f00000018360608601510301066201000009613fa08301527f30644e72e131a029b85045b68181585d2833e84879b9709143e1f593f00000017eeeb2cb5981ed45649abebde081dcff16c8601de4347e7dd1628ba2daac43b7820990507f30644e72e131a029b85045b68181585d2833e84879b9709143e1f593f0000001807f30644e72e131a029b85045b68181585d2833e84879b9709143e1f593f00000018360608601510301066201000009613fc08301527f30644e72e131a029b85045b68181585d2833e84879b9709143e1f593f00000017eeeb2cb5981ed45649abebde081dcff16c8601de4347e7dd1628ba2daac43b7820990507f30644e72e131a029b85045b68181585d2833e84879b9709143e1f593f0000001807f30644e72e131a029b85045b68181585d2833e84879b9709143e1f593f00000018360608601510301066201000009613fe08301527f30644e72e131a029b85045b68181585d2833e84879b9709143e1f593f00000017eeeb2cb5981ed45649abebde081dcff16c8601de4347e7dd1628ba2daac43b7820990507f30644e72e131a029b85045b68181585d2833e84879b9709143e1f593f0000001807f30644e72e131a029b85045b68181585d2833e84879b9709143e1f593f000000183606086015103010662010000096140008301527f30644e72e131a029b85045b68181585d2833e84879b9709143e1f593f00000017eeeb2cb5981ed45649abebde081dcff16c8601de4347e7dd1628ba2daac43b7820990507f30644e72e131a029b85045b68181585d2833e84879b9709143e1f593f0000001807f30644e72e131a029b85045b68181585d2833e84879b9709143e1f593f000000183606086015103010662010000096140208301527f30644e72e131a029b85045b68181585d2833e84879b9709143e1f593f00000017eeeb2cb5981ed45649abebde081dcff16c8601de4347e7dd1628ba2daac43b7820990507f30644e72e131a029b85045b68181585d2833e84879b9709143e1f593f0000001807f30644e72e131a029b85045b68181585d2833e84879b9709143e1f593f000000183606086015103010662010000096140408301527f30644e72e131a029b85045b68181585d2833e84879b9709143e1f593f00000017eeeb2cb5981ed45649abebde081dcff16c8601de4347e7dd1628ba2daac43b7820990507f30644e72e131a029b85045b68181585d2833e84879b9709143e1f593f0000001807f30644e72e131a029b85045b68181585d2833e84879b9709143e1f593f000000183606086015103010662010000096140608301527f30644e72e131a029b85045b68181585d2833e84879b9709143e1f593f00000017eeeb2cb5981ed45649abebde081dcff16c8601de4347e7dd1628ba2daac43b7820990507f30644e72e131a029b85045b68181585d2833e84879b9709143e1f593f0000001807f30644e72e131a029b85045b68181585d2833e84879b9709143e1f593f000000183606086015103010662010000096140808301527f30644e72e131a029b85045b68181585d2833e84879b9709143e1f593f00000017eeeb2cb5981ed45649abebde081dcff16c8601de4347e7dd1628ba2daac43b7820990507f30644e72e131a029b85045b68181585d2833e84879b9709143e1f593f0000001807f30644e72e131a029b85045b68181585d2833e84879b9709143e1f593f000000183606086015103010662010000096140a08301527f30644e72e131a029b85045b68181585d2833e84879b9709143e1f593f00000017eeeb2cb5981ed45649abebde081dcff16c8601de4347e7dd1628ba2daac43b7820990507f30644e72e131a029b85045b68181585d2833e84879b9709143e1f593f0000001807f30644e72e131a029b85045b68181585d2833e84879b9709143e1f593f000000183606086015103010662010000096140c08301527f30644e72e131a029b85045b68181585d2833e84879b9709143e1f593f00000017eeeb2cb5981ed45649abebde081dcff16c8601de4347e7dd1628ba2daac43b7820990507f30644e72e131a029b85045b68181585d2833e84879b9709143e1f593f0000001807f30644e72e131a029b85045b68181585d2833e84879b9709143e1f593f000000183606086015103010662010000096140e08301527f30644e72e131a029b85045b68181585d2833e84879b9709143e1f593f00000017eeeb2cb5981ed45649abebde081dcff16c8601de4347e7dd1628ba2daac43b7820990507f30644e72e131a029b85045b68181585d2833e84879b9709143e1f593f0000001807f30644e72e131a029b85045b68181585d2833e84879b9709143e1f593f000000183606086015103010662010000096141008301527f30644e72e131a029b85045b68181585d2833e84879b9709143e1f593f00000017eeeb2cb5981ed45649abebde081dcff16c8601de4347e7dd1628ba2daac43b7820990507f30644e72e131a029b85045b68181585d2833e84879b9709143e1f593f0000001807f30644e72e131a029b85045b68181585d2833e84879b9709143e1f593f000000183606086015103010662010000096141208301527f30644e72e131a029b85045b68181585d2833e84879b9709143e1f593f00000017eeeb2cb5981ed45649abebde081dcff16c8601de4347e7dd1628ba2daac43b7820990507f30644e72e131a029b85045b68181585d2833e84879b9709143e1f593f0000001807f30644e72e131a029b85045b68181585d2833e84879b9709143e1f593f000000183606086015103010662010000096141408301527f30644e72e131a029b85045b68181585d2833e84879b9709143e1f593f00000017eeeb2cb5981ed45649abebde081dcff16c8601de4347e7dd1628ba2daac43b7820990507f30644e72e131a029b85045b68181585d2833e84879b9709143e1f593f0000001807f30644e72e131a029b85045b68181585d2833e84879b9709143e1f593f000000183606086015103010662010000096141608301527f30644e72e131a029b85045b68181585d2833e84879b9709143e1f593f00000017eeeb2cb5981ed45649abebde081dcff16c8601de4347e7dd1628ba2daac43b7820990507f30644e72e131a029b85045b68181585d2833e84879b9709143e1f593f0000001807f30644e72e131a029b85045b68181585d2833e84879b9709143e1f593f000000183606086015103010662010000096141808301527f30644e72e131a029b85045b68181585d2833e84879b9709143e1f593f00000017eeeb2cb5981ed45649abebde081dcff16c8601de4347e7dd1628ba2daac43b7820990507f30644e72e131a029b85045b68181585d2833e84879b9709143e1f593f0000001807f30644e72e131a029b85045b68181585d2833e84879b9709143e1f593f000000183606086015103010662010000096141a08301527f30644e72e131a029b85045b68181585d2833e84879b9709143e1f593f00000017eeeb2cb5981ed45649abebde081dcff16c8601de4347e7dd1628ba2daac43b7820990507f30644e72e131a029b85045b68181585d2833e84879b9709143e1f593f0000001807f30644e72e131a029b85045b68181585d2833e84879b9709143e1f593f000000183606086015103010662010000096141c08301527f30644e72e131a029b85045b68181585d2833e84879b9709143e1f593f00000017eeeb2cb5981ed45649abebde081dcff16c8601de4347e7dd1628ba2daac43b7820990507f30644e72e131a029b85045b68181585d2833e84879b9709143e1f593f0000001807f30644e72e131a029b85045b68181585d2833e84879b9709143e1f593f000000183606086015103010662010000096141e08301527f30644e72e131a029b85045b68181585d2833e84879b9709143e1f593f00000017eeeb2cb5981ed45649abebde081dcff16c8601de4347e7dd1628ba2daac43b7820990507f30644e72e131a029b85045b68181585d2833e84879b9709143e1f593f0000001807f30644e72e131a029b85045b68181585d2833e84879b9709143e1f593f000000183606086015103010662010000096142008301527f30644e72e131a029b85045b68181585d2833e84879b9709143e1f593f00000017eeeb2cb5981ed45649abebde081dcff16c8601de4347e7dd1628ba2daac43b7820990507f30644e72e131a029b85045b68181585d2833e84879b9709143e1f593f0000001807f30644e72e131a029b85045b68181585d2833e84879b9709143e1f593f000000183606086015103010662010000096142208301527f30644e72e131a029b85045b68181585d2833e84879b9709143e1f593f00000017eeeb2cb5981ed45649abebde081dcff16c8601de4347e7dd1628ba2daac43b7820990507f30644e72e131a029b85045b68181585d2833e84879b9709143e1f593f0000001807f30644e72e131a029b85045b68181585d2833e84879b9709143e1f593f000000183606086015103010662010000096142408301527f30644e72e131a029b85045b68181585d2833e84879b9709143e1f593f00000017eeeb2cb5981ed45649abebde081dcff16c8601de4347e7dd1628ba2daac43b7820990507f30644e72e131a029b85045b68181585d2833e84879b9709143e1f593f0000001807f30644e72e131a029b85045b68181585d2833e84879b9709143e1f593f000000183606086015103010662010000096142608301527f30644e72e131a029b85045b68181585d2833e84879b9709143e1f593f00000017eeeb2cb5981ed45649abebde081dcff16c8601de4347e7dd1628ba2daac43b7820990507f30644e72e131a029b85045b68181585d2833e84879b9709143e1f593f0000001807f30644e72e131a029b85045b68181585d2833e84879b9709143e1f593f000000183606086015103010662010000096142808301527f30644e72e131a029b85045b68181585d2833e84879b9709143e1f593f00000017eeeb2cb5981ed45649abebde081dcff16c8601de4347e7dd1628ba2daac43b7820990507f30644e72e131a029b85045b68181585d2833e84879b9709143e1f593f0000001807f30644e72e131a029b85045b68181585d2833e84879b9709143e1f593f000000183606086015103010662010000096142a08301527f30644e72e131a029b85045b68181585d2833e84879b9709143e1f593f00000017eeeb2cb5981ed45649abebde081dcff16c8601de4347e7dd1628ba2daac43b7820990507f30644e72e131a029b85045b68181585d2833e84879b9709143e1f593f0000001807f30644e72e131a029b85045b68181585d2833e84879b9709143e1f593f000000183606086015103010662010000096142c08301527f30644e72e131a029b85045b68181585d2833e84879b9709143e1f593f00000017eeeb2cb5981ed45649abebde081dcff16c8601de4347e7dd1628ba2daac43b7820990507f30644e72e131a029b85045b68181585d2833e84879b9709143e1f593f0000001807f30644e72e131a029b85045b68181585d2833e84879b9709143e1f593f000000183606086015103010662010000096142e08301527f30644e72e131a029b85045b68181585d2833e84879b9709143e1f593f00000017eeeb2cb5981ed45649abebde081dcff16c8601de4347e7dd1628ba2daac43b7820990507f30644e72e131a029b85045b68181585d2833e84879b9709143e1f593f0000001807f30644e72e131a029b85045b68181585d2833e84879b9709143e1f593f000000183606086015103010662010000096143008301527f30644e72e131a029b85045b68181585d2833e84879b9709143e1f593f00000017eeeb2cb5981ed45649abebde081dcff16c8601de4347e7dd1628ba2daac43b7820990507f30644e72e131a029b85045b68181585d2833e84879b9709143e1f593f0000001807f30644e72e131a029b85045b68181585d2833e84879b9709143e1f593f0000001836060860151030106620100000961432083015262015b0c6102026103008401620000d6565b6102e0820151600191507f30644e72e131a029b85045b68181585d2833e84879b9709143e1f593f000000181610320850151096103208401527f30644e72e131a029b85045b68181585d2833e84879b9709143e1f593f00000017eeeb2cb5981ed45649abebde081dcff16c8601de4347e7dd1628ba2daac43b7830991507f30644e72e131a029b85045b68181585d2833e84879b9709143e1f593f000000180826103408601510983096103408401527f30644e72e131a029b85045b68181585d2833e84879b9709143e1f593f00000017eeeb2cb5981ed45649abebde081dcff16c8601de4347e7dd1628ba2daac43b7830991507f30644e72e131a029b85045b68181585d2833e84879b9709143e1f593f000000180826103608601510983096103608401527f30644e72e131a029b85045b68181585d2833e84879b9709143e1f593f00000017eeeb2cb5981ed45649abebde081dcff16c8601de4347e7dd1628ba2daac43b7830991507f30644e72e131a029b85045b68181585d2833e84879b9709143e1f593f000000180826103808601510983096103808401527f30644e72e131a029b85045b68181585d2833e84879b9709143e1f593f00000017eeeb2cb5981ed45649abebde081dcff16c8601de4347e7dd1628ba2daac43b7830991507f30644e72e131a029b85045b68181585d2833e84879b9709143e1f593f000000180826103a08601510983096103a08401527f30644e72e131a029b85045b68181585d2833e84879b9709143e1f593f00000017eeeb2cb5981ed45649abebde081dcff16c8601de4347e7dd1628ba2daac43b7830991507f30644e72e131a029b85045b68181585d2833e84879b9709143e1f593f000000180826103c08601510983096103c08401527f30644e72e131a029b85045b68181585d2833e84879b9709143e1f593f00000017eeeb2cb5981ed45649abebde081dcff16c8601de4347e7dd1628ba2daac43b7830991507f30644e72e131a029b85045b68181585d2833e84879b9709143e1f593f000000180826103e08601510983096103e08401527f30644e72e131a029b85045b68181585d2833e84879b9709143e1f593f00000017eeeb2cb5981ed45649abebde081dcff16c8601de4347e7dd1628ba2daac43b7830991507f30644e72e131a029b85045b68181585d2833e84879b9709143e1f593f000000180826104008601510983096104008401527f30644e72e131a029b85045b68181585d2833e84879b9709143e1f593f00000017eeeb2cb5981ed45649abebde081dcff16c8601de4347e7dd1628ba2daac43b7830991507f30644e72e131a029b85045b68181585d2833e84879b9709143e1f593f000000180826104208601510983096104208401527f30644e72e131a029b85045b68181585d2833e84879b9709143e1f593f00000017eeeb2cb5981ed45649abebde081dcff16c8601de4347e7dd1628ba2daac43b7830991507f30644e72e131a029b85045b68181585d2833e84879b9709143e1f593f000000180826104408601510983096104408401527f30644e72e131a029b85045b68181585d2833e84879b9709143e1f593f00000017eeeb2cb5981ed45649abebde081dcff16c8601de4347e7dd1628ba2daac43b7830991507f30644e72e131a029b85045b68181585d2833e84879b9709143e1f593f000000180826104608601510983096104608401527f30644e72e131a029b85045b68181585d2833e84879b9709143e1f593f00000017eeeb2cb5981ed45649abebde081dcff16c8601de4347e7dd1628ba2daac43b7830991507f30644e72e131a029b85045b68181585d2833e84879b9709143e1f593f000000180826104808601510983096104808401527f30644e72e131a029b85045b68181585d2833e84879b9709143e1f593f00000017eeeb2cb5981ed45649abebde081dcff16c8601de4347e7dd1628ba2daac43b7830991507f30644e72e131a029b85045b68181585d2833e84879b9709143e1f593f000000180826104a08601510983096104a08401527f30644e72e131a029b85045b68181585d2833e84879b9709143e1f593f00000017eeeb2cb5981ed45649abebde081dcff16c8601de4347e7dd1628ba2daac43b7830991507f30644e72e131a029b85045b68181585d2833e84879b9709143e1f593f000000180826104c08601510983096104c08401527f30644e72e131a029b85045b68181585d2833e84879b9709143e1f593f00000017eeeb2cb5981ed45649abebde081dcff16c8601de4347e7dd1628ba2daac43b7830991507f30644e72e131a029b85045b68181585d2833e84879b9709143e1f593f000000180826104e08601510983096104e08401527f30644e72e131a029b85045b68181585d2833e84879b9709143e1f593f00000017eeeb2cb5981ed45649abebde081dcff16c8601de4347e7dd1628ba2daac43b7830991507f30644e72e131a029b85045b68181585d2833e84879b9709143e1f593f000000180826105008601510983096105008401527f30644e72e131a029b85045b68181585d2833e84879b9709143e1f593f00000017eeeb2cb5981ed45649abebde081dcff16c8601de4347e7dd1628ba2daac43b7830991507f30644e72e131a029b85045b68181585d2833e84879b9709143e1f593f000000180826105208601510983096105208401527f30644e72e131a029b85045b68181585d2833e84879b9709143e1f593f00000017eeeb2cb5981ed45649abebde081dcff16c8601de4347e7dd1628ba2daac43b7830991507f30644e72e131a029b85045b68181585d2833e84879b9709143e1f593f000000180826105408601510983096105408401527f30644e72e131a029b85045b68181585d2833e84879b9709143e1f593f00000017eeeb2cb5981ed45649abebde081dcff16c8601de4347e7dd1628ba2daac43b7830991507f30644e72e131a029b85045b68181585d2833e84879b9709143e1f593f000000180826105608601510983096105608401527f30644e72e131a029b85045b68181585d2833e84879b9709143e1f593f00000017eeeb2cb5981ed45649abebde081dcff16c8601de4347e7dd1628ba2daac43b7830991507f30644e72e131a029b85045b68181585d2833e84879b9709143e1f593f000000180826105808601510983096105808401527f30644e72e131a029b85045b68181585d2833e84879b9709143e1f593f00000017eeeb2cb5981ed45649abebde081dcff16c8601de4347e7dd1628ba2daac43b7830991507f30644e72e131a029b85045b68181585d2833e84879b9709143e1f593f000000180826105a08601510983096105a08401527f30644e72e131a029b85045b68181585d2833e84879b9709143e1f593f00000017eeeb2cb5981ed45649abebde081dcff16c8601de4347e7dd1628ba2daac43b7830991507f30644e72e131a029b85045b68181585d2833e84879b9709143e1f593f000000180826105c08601510983096105c08401527f30644e72e131a029b85045b68181585d2833e84879b9709143e1f593f00000017eeeb2cb5981ed45649abebde081dcff16c8601de4347e7dd1628ba2daac43b7830991507f30644e72e131a029b85045b68181585d2833e84879b9709143e1f593f000000180826105e08601510983096105e08401527f30644e72e131a029b85045b68181585d2833e84879b9709143e1f593f00000017eeeb2cb5981ed45649abebde081dcff16c8601de4347e7dd1628ba2daac43b7830991507f30644e72e131a029b85045b68181585d2833e84879b9709143e1f593f000000180826106008601510983096106008401527f30644e72e131a029b85045b68181585d2833e84879b9709143e1f593f00000017eeeb2cb5981ed45649abebde081dcff16c8601de4347e7dd1628ba2daac43b7830991507f30644e72e131a029b85045b68181585d2833e84879b9709143e1f593f000000180826106208601510983096106208401527f30644e72e131a029b85045b68181585d2833e84879b9709143e1f593f00000017eeeb2cb5981ed45649abebde081dcff16c8601de4347e7dd1628ba2daac43b7830991507f30644e72e131a029b85045b68181585d2833e84879b9709143e1f593f000000180826106408601510983096106408401527f30644e72e131a029b85045b68181585d2833e84879b9709143e1f593f00000017eeeb2cb5981ed45649abebde081dcff16c8601de4347e7dd1628ba2daac43b7830991507f30644e72e131a029b85045b68181585d2833e84879b9709143e1f593f000000180826106608601510983096106608401527f30644e72e131a029b85045b68181585d2833e84879b9709143e1f593f00000017eeeb2cb5981ed45649abebde081dcff16c8601de4347e7dd1628ba2daac43b7830991507f30644e72e131a029b85045b68181585d2833e84879b9709143e1f593f000000180826106808601510983096106808401527f30644e72e131a029b85045b68181585d2833e84879b9709143e1f593f00000017eeeb2cb5981ed45649abebde081dcff16c8601de4347e7dd1628ba2daac43b7830991507f30644e72e131a029b85045b68181585d2833e84879b9709143e1f593f000000180826106a08601510983096106a08401527f30644e72e131a029b85045b68181585d2833e84879b9709143e1f593f00000017eeeb2cb5981ed45649abebde081dcff16c8601de4347e7dd1628ba2daac43b7830991507f30644e72e131a029b85045b68181585d2833e84879b9709143e1f593f000000180826106c08601510983096106c08401527f30644e72e131a029b85045b68181585d2833e84879b9709143e1f593f00000017eeeb2cb5981ed45649abebde081dcff16c8601de4347e7dd1628ba2daac43b7830991507f30644e72e131a029b85045b68181585d2833e84879b9709143e1f593f000000180826106e08601510983096106e08401527f30644e72e131a029b85045b68181585d2833e84879b9709143e1f593f00000017eeeb2cb5981ed45649abebde081dcff16c8601de4347e7dd1628ba2daac43b7830991507f30644e72e131a029b85045b68181585d2833e84879b9709143e1f593f000000180826107008601510983096107008401527f30644e72e131a029b85045b68181585d2833e84879b9709143e1f593f00000017eeeb2cb5981ed45649abebde081dcff16c8601de4347e7dd1628ba2daac43b7830991507f30644e72e131a029b85045b68181585d2833e84879b9709143e1f593f000000180826107208601510983096107208401527f30644e72e131a029b85045b68181585d2833e84879b9709143e1f593f00000017eeeb2cb5981ed45649abebde081dcff16c8601de4347e7dd1628ba2daac43b7830991507f30644e72e131a029b85045b68181585d2833e84879b9709143e1f593f000000180826107408601510983096107408401527f30644e72e131a029b85045b68181585d2833e84879b9709143e1f593f00000017eeeb2cb5981ed45649abebde081dcff16c8601de4347e7dd1628ba2daac43b7830991507f30644e72e131a029b85045b68181585d2833e84879b9709143e1f593f000000180826107608601510983096107608401527f30644e72e131a029b85045b68181585d2833e84879b9709143e1f593f00000017eeeb2cb5981ed45649abebde081dcff16c8601de4347e7dd1628ba2daac43b7830991507f30644e72e131a029b85045b68181585d2833e84879b9709143e1f593f000000180826107808601510983096107808401527f30644e72e131a029b85045b68181585d2833e84879b9709143e1f593f00000017eeeb2cb5981ed45649abebde081dcff16c8601de4347e7dd1628ba2daac43b7830991507f30644e72e131a029b85045b68181585d2833e84879b9709143e1f593f000000180826107a08601510983096107a08401527f30644e72e131a029b85045b68181585d2833e84879b9709143e1f593f00000017eeeb2cb5981ed45649abebde081dcff16c8601de4347e7dd1628ba2daac43b7830991507f30644e72e131a029b85045b68181585d2833e84879b9709143e1f593f000000180826107c08601510983096107c08401527f30644e72e131a029b85045b68181585d2833e84879b9709143e1f593f00000017eeeb2cb5981ed45649abebde081dcff16c8601de4347e7dd1628ba2daac43b7830991507f30644e72e131a029b85045b68181585d2833e84879b9709143e1f593f000000180826107e08601510983096107e08401527f30644e72e131a029b85045b68181585d2833e84879b9709143e1f593f00000017eeeb2cb5981ed45649abebde081dcff16c8601de4347e7dd1628ba2daac43b7830991507f30644e72e131a029b85045b68181585d2833e84879b9709143e1f593f000000180826108008601510983096108008401527f30644e72e131a029b85045b68181585d2833e84879b9709143e1f593f00000017eeeb2cb5981ed45649abebde081dcff16c8601de4347e7dd1628ba2daac43b7830991507f30644e72e131a029b85045b68181585d2833e84879b9709143e1f593f000000180826108208601510983096108208401527f30644e72e131a029b85045b68181585d2833e84879b9709143e1f593f00000017eeeb2cb5981ed45649abebde081dcff16c8601de4347e7dd1628ba2daac43b7830991507f30644e72e131a029b85045b68181585d2833e84879b9709143e1f593f000000180826108408601510983096108408401527f30644e72e131a029b85045b68181585d2833e84879b9709143e1f593f00000017eeeb2cb5981ed45649abebde081dcff16c8601de4347e7dd1628ba2daac43b7830991507f30644e72e131a029b85045b68181585d2833e84879b9709143e1f593f000000180826108608601510983096108608401527f30644e72e131a029b85045b68181585d2833e84879b9709143e1f593f00000017eeeb2cb5981ed45649abebde081dcff16c8601de4347e7dd1628ba2daac43b7830991507f30644e72e131a029b85045b68181585d2833e84879b9709143e1f593f000000180826108808601510983096108808401527f30644e72e131a029b85045b68181585d2833e84879b9709143e1f593f00000017eeeb2cb5981ed45649abebde081dcff16c8601de4347e7dd1628ba2daac43b7830991507f30644e72e131a029b85045b68181585d2833e84879b9709143e1f593f000000180826108a08601510983096108a08401527f30644e72e131a029b85045b68181585d2833e84879b9709143e1f593f00000017eeeb2cb5981ed45649abebde081dcff16c8601de4347e7dd1628ba2daac43b7830991507f30644e72e131a029b85045b68181585d2833e84879b9709143e1f593f000000180826108c08601510983096108c08401527f30644e72e131a029b85045b68181585d2833e84879b9709143e1f593f00000017eeeb2cb5981ed45649abebde081dcff16c8601de4347e7dd1628ba2daac43b7830991507f30644e72e131a029b85045b68181585d2833e84879b9709143e1f593f000000180826108e08601510983096108e08401527f30644e72e131a029b85045b68181585d2833e84879b9709143e1f593f00000017eeeb2cb5981ed45649abebde081dcff16c8601de4347e7dd1628ba2daac43b7830991507f30644e72e131a029b85045b68181585d2833e84879b9709143e1f593f000000180826109008601510983096109008401527f30644e72e131a029b85045b68181585d2833e84879b9709143e1f593f00000017eeeb2cb5981ed45649abebde081dcff16c8601de4347e7dd1628ba2daac43b7830991507f30644e72e131a029b85045b68181585d2833e84879b9709143e1f593f000000180826109208601510983096109208401527f30644e72e131a029b85045b68181585d2833e84879b9709143e1f593f00000017eeeb2cb5981ed45649abebde081dcff16c8601de4347e7dd1628ba2daac43b7830991507f30644e72e131a029b85045b68181585d2833e84879b9709143e1f593f000000180826109408601510983096109408401527f30644e72e131a029b85045b68181585d2833e84879b9709143e1f593f00000017eeeb2cb5981ed45649abebde081dcff16c8601de4347e7dd1628ba2daac43b7830991507f30644e72e131a029b85045b68181585d2833e84879b9709143e1f593f000000180826109608601510983096109608401527f30644e72e131a029b85045b68181585d2833e84879b9709143e1f593f00000017eeeb2cb5981ed45649abebde081dcff16c8601de4347e7dd1628ba2daac43b7830991507f30644e72e131a029b85045b68181585d2833e84879b9709143e1f593f000000180826109808601510983096109808401527f30644e72e131a029b85045b68181585d2833e84879b9709143e1f593f00000017eeeb2cb5981ed45649abebde081dcff16c8601de4347e7dd1628ba2daac43b7830991507f30644e72e131a029b85045b68181585d2833e84879b9709143e1f593f000000180826109a08601510983096109a08401527f30644e72e131a029b85045b68181585d2833e84879b9709143e1f593f00000017eeeb2cb5981ed45649abebde081dcff16c8601de4347e7dd1628ba2daac43b7830991507f30644e72e131a029b85045b68181585d2833e84879b9709143e1f593f000000180826109c08601510983096109c08401527f30644e72e131a029b85045b68181585d2833e84879b9709143e1f593f00000017eeeb2cb5981ed45649abebde081dcff16c8601de4347e7dd1628ba2daac43b7830991507f30644e72e131a029b85045b68181585d2833e84879b9709143e1f593f000000180826109e08601510983096109e08401527f30644e72e131a029b85045b68181585d2833e84879b9709143e1f593f00000017eeeb2cb5981ed45649abebde081dcff16c8601de4347e7dd1628ba2daac43b7830991507f30644e72e131a029b85045b68181585d2833e84879b9709143e1f593f00000018082610a00860151098309610a008401527f30644e72e131a029b85045b68181585d2833e84879b9709143e1f593f00000017eeeb2cb5981ed45649abebde081dcff16c8601de4347e7dd1628ba2daac43b7830991507f30644e72e131a029b85045b68181585d2833e84879b9709143e1f593f00000018082610a20860151098309610a208401527f30644e72e131a029b85045b68181585d2833e84879b9709143e1f593f00000017eeeb2cb5981ed45649abebde081dcff16c8601de4347e7dd1628ba2daac43b7830991507f30644e72e131a029b85045b68181585d2833e84879b9709143e1f593f00000018082610a40860151098309610a408401527f30644e72e131a029b85045b68181585d2833e84879b9709143e1f593f00000017eeeb2cb5981ed45649abebde081dcff16c8601de4347e7dd1628ba2daac43b7830991507f30644e72e131a029b85045b68181585d2833e84879b9709143e1f593f00000018082610a60860151098309610a608401527f30644e72e131a029b85045b68181585d2833e84879b9709143e1f593f00000017eeeb2cb5981ed45649abebde081dcff16c8601de4347e7dd1628ba2daac43b7830991507f30644e72e131a029b85045b68181585d2833e84879b9709143e1f593f00000018082610a80860151098309610a808401527f30644e72e131a029b85045b68181585d2833e84879b9709143e1f593f00000017eeeb2cb5981ed45649abebde081dcff16c8601de4347e7dd1628ba2daac43b7830991507f30644e72e131a029b85045b68181585d2833e84879b9709143e1f593f00000018082610aa0860151098309610aa08401527f30644e72e131a029b85045b68181585d2833e84879b9709143e1f593f00000017eeeb2cb5981ed45649abebde081dcff16c8601de4347e7dd1628ba2daac43b7830991507f30644e72e131a029b85045b68181585d2833e84879b9709143e1f593f00000018082610ac0860151098309610ac08401527f30644e72e131a029b85045b68181585d2833e84879b9709143e1f593f00000017eeeb2cb5981ed45649abebde081dcff16c8601de4347e7dd1628ba2daac43b7830991507f30644e72e131a029b85045b68181585d2833e84879b9709143e1f593f00000018082610ae0860151098309610ae08401527f30644e72e131a029b85045b68181585d2833e84879b9709143e1f593f00000017eeeb2cb5981ed45649abebde081dcff16c8601de4347e7dd1628ba2daac43b7830991507f30644e72e131a029b85045b68181585d2833e84879b9709143e1f593f00000018082610b00860151098309610b008401527f30644e72e131a029b85045b68181585d2833e84879b9709143e1f593f00000017eeeb2cb5981ed45649abebde081dcff16c8601de4347e7dd1628ba2daac43b7830991507f30644e72e131a029b85045b68181585d2833e84879b9709143e1f593f00000018082610b20860151098309610b208401527f30644e72e131a029b85045b68181585d2833e84879b9709143e1f593f00000017eeeb2cb5981ed45649abebde081dcff16c8601de4347e7dd1628ba2daac43b7830991507f30644e72e131a029b85045b68181585d2833e84879b9709143e1f593f00000018082610b40860151098309610b408401527f30644e72e131a029b85045b68181585d2833e84879b9709143e1f593f00000017eeeb2cb5981ed45649abebde081dcff16c8601de4347e7dd1628ba2daac43b7830991507f30644e72e131a029b85045b68181585d2833e84879b9709143e1f593f00000018082610b60860151098309610b608401527f30644e72e131a029b85045b68181585d2833e84879b9709143e1f593f00000017eeeb2cb5981ed45649abebde081dcff16c8601de4347e7dd1628ba2daac43b7830991507f30644e72e131a029b85045b68181585d2833e84879b9709143e1f593f00000018082610b80860151098309610b808401527f30644e72e131a029b85045b68181585d2833e84879b9709143e1f593f00000017eeeb2cb5981ed45649abebde081dcff16c8601de4347e7dd1628ba2daac43b7830991507f30644e72e131a029b85045b68181585d2833e84879b9709143e1f593f00000018082610ba0860151098309610ba08401527f30644e72e131a029b85045b68181585d2833e84879b9709143e1f593f00000017eeeb2cb5981ed45649abebde081dcff16c8601de4347e7dd1628ba2daac43b7830991507f30644e72e131a029b85045b68181585d2833e84879b9709143e1f593f00000018082610bc0860151098309610bc08401527f30644e72e131a029b85045b68181585d2833e84879b9709143e1f593f00000017eeeb2cb5981ed45649abebde081dcff16c8601de4347e7dd1628ba2daac43b7830991507f30644e72e131a029b85045b68181585d2833e84879b9709143e1f593f00000018082610be0860151098309610be08401527f30644e72e131a029b85045b68181585d2833e84879b9709143e1f593f00000017eeeb2cb5981ed45649abebde081dcff16c8601de4347e7dd1628ba2daac43b7830991507f30644e72e131a029b85045b68181585d2833e84879b9709143e1f593f00000018082610c00860151098309610c008401527f30644e72e131a029b85045b68181585d2833e84879b9709143e1f593f00000017eeeb2cb5981ed45649abebde081dcff16c8601de4347e7dd1628ba2daac43b7830991507f30644e72e131a029b85045b68181585d2833e84879b9709143e1f593f00000018082610c20860151098309610c208401527f30644e72e131a029b85045b68181585d2833e84879b9709143e1f593f00000017eeeb2cb5981ed45649abebde081dcff16c8601de4347e7dd1628ba2daac43b7830991507f30644e72e131a029b85045b68181585d2833e84879b9709143e1f593f00000018082610c40860151098309610c408401527f30644e72e131a029b85045b68181585d2833e84879b9709143e1f593f00000017eeeb2cb5981ed45649abebde081dcff16c8601de4347e7dd1628ba2daac43b7830991507f30644e72e131a029b85045b68181585d2833e84879b9709143e1f593f00000018082610c60860151098309610c608401527f30644e72e131a029b85045b68181585d2833e84879b9709143e1f593f00000017eeeb2cb5981ed45649abebde081dcff16c8601de4347e7dd1628ba2daac43b7830991507f30644e72e131a029b85045b68181585d2833e84879b9709143e1f593f00000018082610c80860151098309610c808401527f30644e72e131a029b85045b68181585d2833e84879b9709143e1f593f00000017eeeb2cb5981ed45649abebde081dcff16c8601de4347e7dd1628ba2daac43b7830991507f30644e72e131a029b85045b68181585d2833e84879b9709143e1f593f00000018082610ca0860151098309610ca08401527f30644e72e131a029b85045b68181585d2833e84879b9709143e1f593f00000017eeeb2cb5981ed45649abebde081dcff16c8601de4347e7dd1628ba2daac43b7830991507f30644e72e131a029b85045b68181585d2833e84879b9709143e1f593f00000018082610cc0860151098309610cc08401527f30644e72e131a029b85045b68181585d2833e84879b9709143e1f593f00000017eeeb2cb5981ed45649abebde081dcff16c8601de4347e7dd1628ba2daac43b7830991507f30644e72e131a029b85045b68181585d2833e84879b9709143e1f593f00000018082610ce0860151098309610ce08401527f30644e72e131a029b85045b68181585d2833e84879b9709143e1f593f00000017eeeb2cb5981ed45649abebde081dcff16c8601de4347e7dd1628ba2daac43b7830991507f30644e72e131a029b85045b68181585d2833e84879b9709143e1f593f00000018082610d00860151098309610d008401527f30644e72e131a029b85045b68181585d2833e84879b9709143e1f593f00000017eeeb2cb5981ed45649abebde081dcff16c8601de4347e7dd1628ba2daac43b7830991507f30644e72e131a029b85045b68181585d2833e84879b9709143e1f593f00000018082610d20860151098309610d208401527f30644e72e131a029b85045b68181585d2833e84879b9709143e1f593f00000017eeeb2cb5981ed45649abebde081dcff16c8601de4347e7dd1628ba2daac43b7830991507f30644e72e131a029b85045b68181585d2833e84879b9709143e1f593f00000018082610d40860151098309610d408401527f30644e72e131a029b85045b68181585d2833e84879b9709143e1f593f00000017eeeb2cb5981ed45649abebde081dcff16c8601de4347e7dd1628ba2daac43b7830991507f30644e72e131a029b85045b68181585d2833e84879b9709143e1f593f00000018082610d60860151098309610d608401527f30644e72e131a029b85045b68181585d2833e84879b9709143e1f593f00000017eeeb2cb5981ed45649abebde081dcff16c8601de4347e7dd1628ba2daac43b7830991507f30644e72e131a029b85045b68181585d2833e84879b9709143e1f593f00000018082610d80860151098309610d808401527f30644e72e131a029b85045b68181585d2833e84879b9709143e1f593f00000017eeeb2cb5981ed45649abebde081dcff16c8601de4347e7dd1628ba2daac43b7830991507f30644e72e131a029b85045b68181585d2833e84879b9709143e1f593f00000018082610da0860151098309610da08401527f30644e72e131a029b85045b68181585d2833e84879b9709143e1f593f00000017eeeb2cb5981ed45649abebde081dcff16c8601de4347e7dd1628ba2daac43b7830991507f30644e72e131a029b85045b68181585d2833e84879b9709143e1f593f00000018082610dc0860151098309610dc08401527f30644e72e131a029b85045b68181585d2833e84879b9709143e1f593f00000017eeeb2cb5981ed45649abebde081dcff16c8601de4347e7dd1628ba2daac43b7830991507f30644e72e131a029b85045b68181585d2833e84879b9709143e1f593f00000018082610de0860151098309610de08401527f30644e72e131a029b85045b68181585d2833e84879b9709143e1f593f00000017eeeb2cb5981ed45649abebde081dcff16c8601de4347e7dd1628ba2daac43b7830991507f30644e72e131a029b85045b68181585d2833e84879b9709143e1f593f00000018082610e00860151098309610e008401527f30644e72e131a029b85045b68181585d2833e84879b9709143e1f593f00000017eeeb2cb5981ed45649abebde081dcff16c8601de4347e7dd1628ba2daac43b7830991507f30644e72e131a029b85045b68181585d2833e84879b9709143e1f593f00000018082610e20860151098309610e208401527f30644e72e131a029b85045b68181585d2833e84879b9709143e1f593f00000017eeeb2cb5981ed45649abebde081dcff16c8601de4347e7dd1628ba2daac43b7830991507f30644e72e131a029b85045b68181585d2833e84879b9709143e1f593f00000018082610e40860151098309610e408401527f30644e72e131a029b85045b68181585d2833e84879b9709143e1f593f00000017eeeb2cb5981ed45649abebde081dcff16c8601de4347e7dd1628ba2daac43b7830991507f30644e72e131a029b85045b68181585d2833e84879b9709143e1f593f00000018082610e60860151098309610e608401527f30644e72e131a029b85045b68181585d2833e84879b9709143e1f593f00000017eeeb2cb5981ed45649abebde081dcff16c8601de4347e7dd1628ba2daac43b7830991507f30644e72e131a029b85045b68181585d2833e84879b9709143e1f593f00000018082610e80860151098309610e808401527f30644e72e131a029b85045b68181585d2833e84879b9709143e1f593f00000017eeeb2cb5981ed45649abebde081dcff16c8601de4347e7dd1628ba2daac43b7830991507f30644e72e131a029b85045b68181585d2833e84879b9709143e1f593f00000018082610ea0860151098309610ea08401527f30644e72e131a029b85045b68181585d2833e84879b9709143e1f593f00000017eeeb2cb5981ed45649abebde081dcff16c8601de4347e7dd1628ba2daac43b7830991507f30644e72e131a029b85045b68181585d2833e84879b9709143e1f593f00000018082610ec0860151098309610ec08401527f30644e72e131a029b85045b68181585d2833e84879b9709143e1f593f00000017eeeb2cb5981ed45649abebde081dcff16c8601de4347e7dd1628ba2daac43b7830991507f30644e72e131a029b85045b68181585d2833e84879b9709143e1f593f00000018082610ee0860151098309610ee08401527f30644e72e131a029b85045b68181585d2833e84879b9709143e1f593f00000017eeeb2cb5981ed45649abebde081dcff16c8601de4347e7dd1628ba2daac43b7830991507f30644e72e131a029b85045b68181585d2833e84879b9709143e1f593f00000018082610f00860151098309610f008401527f30644e72e131a029b85045b68181585d2833e84879b9709143e1f593f00000017eeeb2cb5981ed45649abebde081dcff16c8601de4347e7dd1628ba2daac43b7830991507f30644e72e131a029b85045b68181585d2833e84879b9709143e1f593f00000018082610f20860151098309610f208401527f30644e72e131a029b85045b68181585d2833e84879b9709143e1f593f00000017eeeb2cb5981ed45649abebde081dcff16c8601de4347e7dd1628ba2daac43b7830991507f30644e72e131a029b85045b68181585d2833e84879b9709143e1f593f00000018082610f40860151098309610f408401527f30644e72e131a029b85045b68181585d2833e84879b9709143e1f593f00000017eeeb2cb5981ed45649abebde081dcff16c8601de4347e7dd1628ba2daac43b7830991507f30644e72e131a029b85045b68181585d2833e84879b9709143e1f593f00000018082610f60860151098309610f608401527f30644e72e131a029b85045b68181585d2833e84879b9709143e1f593f00000017eeeb2cb5981ed45649abebde081dcff16c8601de4347e7dd1628ba2daac43b7830991507f30644e72e131a029b85045b68181585d2833e84879b9709143e1f593f00000018082610f80860151098309610f808401527f30644e72e131a029b85045b68181585d2833e84879b9709143e1f593f00000017eeeb2cb5981ed45649abebde081dcff16c8601de4347e7dd1628ba2daac43b7830991507f30644e72e131a029b85045b68181585d2833e84879b9709143e1f593f00000018082610fa0860151098309610fa08401527f30644e72e131a029b85045b68181585d2833e84879b9709143e1f593f00000017eeeb2cb5981ed45649abebde081dcff16c8601de4347e7dd1628ba2daac43b7830991507f30644e72e131a029b85045b68181585d2833e84879b9709143e1f593f00000018082610fc0860151098309610fc08401527f30644e72e131a029b85045b68181585d2833e84879b9709143e1f593f00000017eeeb2cb5981ed45649abebde081dcff16c8601de4347e7dd1628ba2daac43b7830991507f30644e72e131a029b85045b68181585d2833e84879b9709143e1f593f00000018082610fe0860151098309610fe08401527f30644e72e131a029b85045b68181585d2833e84879b9709143e1f593f00000017eeeb2cb5981ed45649abebde081dcff16c8601de4347e7dd1628ba2daac43b7830991507f30644e72e131a029b85045b68181585d2833e84879b9709143e1f593f000000180826110008601510983096110008401527f30644e72e131a029b85045b68181585d2833e84879b9709143e1f593f00000017eeeb2cb5981ed45649abebde081dcff16c8601de4347e7dd1628ba2daac43b7830991507f30644e72e131a029b85045b68181585d2833e84879b9709143e1f593f000000180826110208601510983096110208401527f30644e72e131a029b85045b68181585d2833e84879b9709143e1f593f00000017eeeb2cb5981ed45649abebde081dcff16c8601de4347e7dd1628ba2daac43b7830991507f30644e72e131a029b85045b68181585d2833e84879b9709143e1f593f000000180826110408601510983096110408401527f30644e72e131a029b85045b68181585d2833e84879b9709143e1f593f00000017eeeb2cb5981ed45649abebde081dcff16c8601de4347e7dd1628ba2daac43b7830991507f30644e72e131a029b85045b68181585d2833e84879b9709143e1f593f000000180826110608601510983096110608401527f30644e72e131a029b85045b68181585d2833e84879b9709143e1f593f00000017eeeb2cb5981ed45649abebde081dcff16c8601de4347e7dd1628ba2daac43b7830991507f30644e72e131a029b85045b68181585d2833e84879b9709143e1f593f000000180826110808601510983096110808401527f30644e72e131a029b85045b68181585d2833e84879b9709143e1f593f00000017eeeb2cb5981ed45649abebde081dcff16c8601de4347e7dd1628ba2daac43b7830991507f30644e72e131a029b85045b68181585d2833e84879b9709143e1f593f000000180826110a08601510983096110a08401527f30644e72e131a029b85045b68181585d2833e84879b9709143e1f593f00000017eeeb2cb5981ed45649abebde081dcff16c8601de4347e7dd1628ba2daac43b7830991507f30644e72e131a029b85045b68181585d2833e84879b9709143e1f593f000000180826110c08601510983096110c08401527f30644e72e131a029b85045b68181585d2833e84879b9709143e1f593f00000017eeeb2cb5981ed45649abebde081dcff16c8601de4347e7dd1628ba2daac43b7830991507f30644e72e131a029b85045b68181585d2833e84879b9709143e1f593f000000180826110e08601510983096110e08401527f30644e72e131a029b85045b68181585d2833e84879b9709143e1f593f00000017eeeb2cb5981ed45649abebde081dcff16c8601de4347e7dd1628ba2daac43b7830991507f30644e72e131a029b85045b68181585d2833e84879b9709143e1f593f000000180826111008601510983096111008401527f30644e72e131a029b85045b68181585d2833e84879b9709143e1f593f00000017eeeb2cb5981ed45649abebde081dcff16c8601de4347e7dd1628ba2daac43b7830991507f30644e72e131a029b85045b68181585d2833e84879b9709143e1f593f000000180826111208601510983096111208401527f30644e72e131a029b85045b68181585d2833e84879b9709143e1f593f00000017eeeb2cb5981ed45649abebde081dcff16c8601de4347e7dd1628ba2daac43b7830991507f30644e72e131a029b85045b68181585d2833e84879b9709143e1f593f000000180826111408601510983096111408401527f30644e72e131a029b85045b68181585d2833e84879b9709143e1f593f00000017eeeb2cb5981ed45649abebde081dcff16c8601de4347e7dd1628ba2daac43b7830991507f30644e72e131a029b85045b68181585d2833e84879b9709143e1f593f000000180826111608601510983096111608401527f30644e72e131a029b85045b68181585d2833e84879b9709143e1f593f00000017eeeb2cb5981ed45649abebde081dcff16c8601de4347e7dd1628ba2daac43b7830991507f30644e72e131a029b85045b68181585d2833e84879b9709143e1f593f000000180826111808601510983096111808401527f30644e72e131a029b85045b68181585d2833e84879b9709143e1f593f00000017eeeb2cb5981ed45649abebde081dcff16c8601de4347e7dd1628ba2daac43b7830991507f30644e72e131a029b85045b68181585d2833e84879b9709143e1f593f000000180826111a08601510983096111a08401527f30644e72e131a029b85045b68181585d2833e84879b9709143e1f593f00000017eeeb2cb5981ed45649abebde081dcff16c8601de4347e7dd1628ba2daac43b7830991507f30644e72e131a029b85045b68181585d2833e84879b9709143e1f593f000000180826111c08601510983096111c08401527f30644e72e131a029b85045b68181585d2833e84879b9709143e1f593f00000017eeeb2cb5981ed45649abebde081dcff16c8601de4347e7dd1628ba2daac43b7830991507f30644e72e131a029b85045b68181585d2833e84879b9709143e1f593f000000180826111e08601510983096111e08401527f30644e72e131a029b85045b68181585d2833e84879b9709143e1f593f00000017eeeb2cb5981ed45649abebde081dcff16c8601de4347e7dd1628ba2daac43b7830991507f30644e72e131a029b85045b68181585d2833e84879b9709143e1f593f000000180826112008601510983096112008401527f30644e72e131a029b85045b68181585d2833e84879b9709143e1f593f00000017eeeb2cb5981ed45649abebde081dcff16c8601de4347e7dd1628ba2daac43b7830991507f30644e72e131a029b85045b68181585d2833e84879b9709143e1f593f000000180826112208601510983096112208401527f30644e72e131a029b85045b68181585d2833e84879b9709143e1f593f00000017eeeb2cb5981ed45649abebde081dcff16c8601de4347e7dd1628ba2daac43b7830991507f30644e72e131a029b85045b68181585d2833e84879b9709143e1f593f000000180826112408601510983096112408401527f30644e72e131a029b85045b68181585d2833e84879b9709143e1f593f00000017eeeb2cb5981ed45649abebde081dcff16c8601de4347e7dd1628ba2daac43b7830991507f30644e72e131a029b85045b68181585d2833e84879b9709143e1f593f000000180826112608601510983096112608401527f30644e72e131a029b85045b68181585d2833e84879b9709143e1f593f00000017eeeb2cb5981ed45649abebde081dcff16c8601de4347e7dd1628ba2daac43b7830991507f30644e72e131a029b85045b68181585d2833e84879b9709143e1f593f000000180826112808601510983096112808401527f30644e72e131a029b85045b68181585d2833e84879b9709143e1f593f00000017eeeb2cb5981ed45649abebde081dcff16c8601de4347e7dd1628ba2daac43b7830991507f30644e72e131a029b85045b68181585d2833e84879b9709143e1f593f000000180826112a08601510983096112a08401527f30644e72e131a029b85045b68181585d2833e84879b9709143e1f593f00000017eeeb2cb5981ed45649abebde081dcff16c8601de4347e7dd1628ba2daac43b7830991507f30644e72e131a029b85045b68181585d2833e84879b9709143e1f593f000000180826112c08601510983096112c08401527f30644e72e131a029b85045b68181585d2833e84879b9709143e1f593f00000017eeeb2cb5981ed45649abebde081dcff16c8601de4347e7dd1628ba2daac43b7830991507f30644e72e131a029b85045b68181585d2833e84879b9709143e1f593f000000180826112e08601510983096112e08401527f30644e72e131a029b85045b68181585d2833e84879b9709143e1f593f00000017eeeb2cb5981ed45649abebde081dcff16c8601de4347e7dd1628ba2daac43b7830991507f30644e72e131a029b85045b68181585d2833e84879b9709143e1f593f000000180826113008601510983096113008401527f30644e72e131a029b85045b68181585d2833e84879b9709143e1f593f00000017eeeb2cb5981ed45649abebde081dcff16c8601de4347e7dd1628ba2daac43b7830991507f30644e72e131a029b85045b68181585d2833e84879b9709143e1f593f000000180826113208601510983096113208401527f30644e72e131a029b85045b68181585d2833e84879b9709143e1f593f00000017eeeb2cb5981ed45649abebde081dcff16c8601de4347e7dd1628ba2daac43b7830991507f30644e72e131a029b85045b68181585d2833e84879b9709143e1f593f000000180826113408601510983096113408401527f30644e72e131a029b85045b68181585d2833e84879b9709143e1f593f00000017eeeb2cb5981ed45649abebde081dcff16c8601de4347e7dd1628ba2daac43b7830991507f30644e72e131a029b85045b68181585d2833e84879b9709143e1f593f000000180826113608601510983096113608401527f30644e72e131a029b85045b68181585d2833e84879b9709143e1f593f00000017eeeb2cb5981ed45649abebde081dcff16c8601de4347e7dd1628ba2daac43b7830991507f30644e72e131a029b85045b68181585d2833e84879b9709143e1f593f000000180826113808601510983096113808401527f30644e72e131a029b85045b68181585d2833e84879b9709143e1f593f00000017eeeb2cb5981ed45649abebde081dcff16c8601de4347e7dd1628ba2daac43b7830991507f30644e72e131a029b85045b68181585d2833e84879b9709143e1f593f000000180826113a08601510983096113a08401527f30644e72e131a029b85045b68181585d2833e84879b9709143e1f593f00000017eeeb2cb5981ed45649abebde081dcff16c8601de4347e7dd1628ba2daac43b7830991507f30644e72e131a029b85045b68181585d2833e84879b9709143e1f593f000000180826113c08601510983096113c08401527f30644e72e131a029b85045b68181585d2833e84879b9709143e1f593f00000017eeeb2cb5981ed45649abebde081dcff16c8601de4347e7dd1628ba2daac43b7830991507f30644e72e131a029b85045b68181585d2833e84879b9709143e1f593f000000180826113e08601510983096113e08401527f30644e72e131a029b85045b68181585d2833e84879b9709143e1f593f00000017eeeb2cb5981ed45649abebde081dcff16c8601de4347e7dd1628ba2daac43b7830991507f30644e72e131a029b85045b68181585d2833e84879b9709143e1f593f000000180826114008601510983096114008401527f30644e72e131a029b85045b68181585d2833e84879b9709143e1f593f00000017eeeb2cb5981ed45649abebde081dcff16c8601de4347e7dd1628ba2daac43b7830991507f30644e72e131a029b85045b68181585d2833e84879b9709143e1f593f000000180826114208601510983096114208401527f30644e72e131a029b85045b68181585d2833e84879b9709143e1f593f00000017eeeb2cb5981ed45649abebde081dcff16c8601de4347e7dd1628ba2daac43b7830991507f30644e72e131a029b85045b68181585d2833e84879b9709143e1f593f000000180826114408601510983096114408401527f30644e72e131a029b85045b68181585d2833e84879b9709143e1f593f00000017eeeb2cb5981ed45649abebde081dcff16c8601de4347e7dd1628ba2daac43b7830991507f30644e72e131a029b85045b68181585d2833e84879b9709143e1f593f000000180826114608601510983096114608401527f30644e72e131a029b85045b68181585d2833e84879b9709143e1f593f00000017eeeb2cb5981ed45649abebde081dcff16c8601de4347e7dd1628ba2daac43b7830991507f30644e72e131a029b85045b68181585d2833e84879b9709143e1f593f000000180826114808601510983096114808401527f30644e72e131a029b85045b68181585d2833e84879b9709143e1f593f00000017eeeb2cb5981ed45649abebde081dcff16c8601de4347e7dd1628ba2daac43b7830991507f30644e72e131a029b85045b68181585d2833e84879b9709143e1f593f000000180826114a08601510983096114a08401527f30644e72e131a029b85045b68181585d2833e84879b9709143e1f593f00000017eeeb2cb5981ed45649abebde081dcff16c8601de4347e7dd1628ba2daac43b7830991507f30644e72e131a029b85045b68181585d2833e84879b9709143e1f593f000000180826114c08601510983096114c08401527f30644e72e131a029b85045b68181585d2833e84879b9709143e1f593f00000017eeeb2cb5981ed45649abebde081dcff16c8601de4347e7dd1628ba2daac43b7830991507f30644e72e131a029b85045b68181585d2833e84879b9709143e1f593f000000180826114e08601510983096114e08401527f30644e72e131a029b85045b68181585d2833e84879b9709143e1f593f00000017eeeb2cb5981ed45649abebde081dcff16c8601de4347e7dd1628ba2daac43b7830991507f30644e72e131a029b85045b68181585d2833e84879b9709143e1f593f000000180826115008601510983096115008401527f30644e72e131a029b85045b68181585d2833e84879b9709143e1f593f00000017eeeb2cb5981ed45649abebde081dcff16c8601de4347e7dd1628ba2daac43b7830991507f30644e72e131a029b85045b68181585d2833e84879b9709143e1f593f000000180826115208601510983096115208401527f30644e72e131a029b85045b68181585d2833e84879b9709143e1f593f00000017eeeb2cb5981ed45649abebde081dcff16c8601de4347e7dd1628ba2daac43b7830991507f30644e72e131a029b85045b68181585d2833e84879b9709143e1f593f000000180826115408601510983096115408401527f30644e72e131a029b85045b68181585d2833e84879b9709143e1f593f00000017eeeb2cb5981ed45649abebde081dcff16c8601de4347e7dd1628ba2daac43b7830991507f30644e72e131a029b85045b68181585d2833e84879b9709143e1f593f000000180826115608601510983096115608401527f30644e72e131a029b85045b68181585d2833e84879b9709143e1f593f00000017eeeb2cb5981ed45649abebde081dcff16c8601de4347e7dd1628ba2daac43b7830991507f30644e72e131a029b85045b68181585d2833e84879b9709143e1f593f000000180826115808601510983096115808401527f30644e72e131a029b85045b68181585d2833e84879b9709143e1f593f00000017eeeb2cb5981ed45649abebde081dcff16c8601de4347e7dd1628ba2daac43b7830991507f30644e72e131a029b85045b68181585d2833e84879b9709143e1f593f000000180826115a08601510983096115a08401527f30644e72e131a029b85045b68181585d2833e84879b9709143e1f593f00000017eeeb2cb5981ed45649abebde081dcff16c8601de4347e7dd1628ba2daac43b7830991507f30644e72e131a029b85045b68181585d2833e84879b9709143e1f593f000000180826115c08601510983096115c08401527f30644e72e131a029b85045b68181585d2833e84879b9709143e1f593f00000017eeeb2cb5981ed45649abebde081dcff16c8601de4347e7dd1628ba2daac43b7830991507f30644e72e131a029b85045b68181585d2833e84879b9709143e1f593f000000180826115e08601510983096115e08401527f30644e72e131a029b85045b68181585d2833e84879b9709143e1f593f00000017eeeb2cb5981ed45649abebde081dcff16c8601de4347e7dd1628ba2daac43b7830991507f30644e72e131a029b85045b68181585d2833e84879b9709143e1f593f000000180826116008601510983096116008401527f30644e72e131a029b85045b68181585d2833e84879b9709143e1f593f00000017eeeb2cb5981ed45649abebde081dcff16c8601de4347e7dd1628ba2daac43b7830991507f30644e72e131a029b85045b68181585d2833e84879b9709143e1f593f000000180826116208601510983096116208401527f30644e72e131a029b85045b68181585d2833e84879b9709143e1f593f00000017eeeb2cb5981ed45649abebde081dcff16c8601de4347e7dd1628ba2daac43b7830991507f30644e72e131a029b85045b68181585d2833e84879b9709143e1f593f000000180826116408601510983096116408401527f30644e72e131a029b85045b68181585d2833e84879b9709143e1f593f00000017eeeb2cb5981ed45649abebde081dcff16c8601de4347e7dd1628ba2daac43b7830991507f30644e72e131a029b85045b68181585d2833e84879b9709143e1f593f000000180826116608601510983096116608401527f30644e72e131a029b85045b68181585d2833e84879b9709143e1f593f00000017eeeb2cb5981ed45649abebde081dcff16c8601de4347e7dd1628ba2daac43b7830991507f30644e72e131a029b85045b68181585d2833e84879b9709143e1f593f000000180826116808601510983096116808401527f30644e72e131a029b85045b68181585d2833e84879b9709143e1f593f00000017eeeb2cb5981ed45649abebde081dcff16c8601de4347e7dd1628ba2daac43b7830991507f30644e72e131a029b85045b68181585d2833e84879b9709143e1f593f000000180826116a08601510983096116a08401527f30644e72e131a029b85045b68181585d2833e84879b9709143e1f593f00000017eeeb2cb5981ed45649abebde081dcff16c8601de4347e7dd1628ba2daac43b7830991507f30644e72e131a029b85045b68181585d2833e84879b9709143e1f593f000000180826116c08601510983096116c08401527f30644e72e131a029b85045b68181585d2833e84879b9709143e1f593f00000017eeeb2cb5981ed45649abebde081dcff16c8601de4347e7dd1628ba2daac43b7830991507f30644e72e131a029b85045b68181585d2833e84879b9709143e1f593f000000180826116e08601510983096116e08401527f30644e72e131a029b85045b68181585d2833e84879b9709143e1f593f00000017eeeb2cb5981ed45649abebde081dcff16c8601de4347e7dd1628ba2daac43b7830991507f30644e72e131a029b85045b68181585d2833e84879b9709143e1f593f000000180826117008601510983096117008401527f30644e72e131a029b85045b68181585d2833e84879b9709143e1f593f00000017eeeb2cb5981ed45649abebde081dcff16c8601de4347e7dd1628ba2daac43b7830991507f30644e72e131a029b85045b68181585d2833e84879b9709143e1f593f000000180826117208601510983096117208401527f30644e72e131a029b85045b68181585d2833e84879b9709143e1f593f00000017eeeb2cb5981ed45649abebde081dcff16c8601de4347e7dd1628ba2daac43b7830991507f30644e72e131a029b85045b68181585d2833e84879b9709143e1f593f000000180826117408601510983096117408401527f30644e72e131a029b85045b68181585d2833e84879b9709143e1f593f00000017eeeb2cb5981ed45649abebde081dcff16c8601de4347e7dd1628ba2daac43b7830991507f30644e72e131a029b85045b68181585d2833e84879b9709143e1f593f000000180826117608601510983096117608401527f30644e72e131a029b85045b68181585d2833e84879b9709143e1f593f00000017eeeb2cb5981ed45649abebde081dcff16c8601de4347e7dd1628ba2daac43b7830991507f30644e72e131a029b85045b68181585d2833e84879b9709143e1f593f000000180826117808601510983096117808401527f30644e72e131a029b85045b68181585d2833e84879b9709143e1f593f00000017eeeb2cb5981ed45649abebde081dcff16c8601de4347e7dd1628ba2daac43b7830991507f30644e72e131a029b85045b68181585d2833e84879b9709143e1f593f000000180826117a08601510983096117a08401527f30644e72e131a029b85045b68181585d2833e84879b9709143e1f593f00000017eeeb2cb5981ed45649abebde081dcff16c8601de4347e7dd1628ba2daac43b7830991507f30644e72e131a029b85045b68181585d2833e84879b9709143e1f593f000000180826117c08601510983096117c08401527f30644e72e131a029b85045b68181585d2833e84879b9709143e1f593f00000017eeeb2cb5981ed45649abebde081dcff16c8601de4347e7dd1628ba2daac43b7830991507f30644e72e131a029b85045b68181585d2833e84879b9709143e1f593f000000180826117e08601510983096117e08401527f30644e72e131a029b85045b68181585d2833e84879b9709143e1f593f00000017eeeb2cb5981ed45649abebde081dcff16c8601de4347e7dd1628ba2daac43b7830991507f30644e72e131a029b85045b68181585d2833e84879b9709143e1f593f000000180826118008601510983096118008401527f30644e72e131a029b85045b68181585d2833e84879b9709143e1f593f00000017eeeb2cb5981ed45649abebde081dcff16c8601de4347e7dd1628ba2daac43b7830991507f30644e72e131a029b85045b68181585d2833e84879b9709143e1f593f000000180826118208601510983096118208401527f30644e72e131a029b85045b68181585d2833e84879b9709143e1f593f00000017eeeb2cb5981ed45649abebde081dcff16c8601de4347e7dd1628ba2daac43b7830991507f30644e72e131a029b85045b68181585d2833e84879b9709143e1f593f000000180826118408601510983096118408401527f30644e72e131a029b85045b68181585d2833e84879b9709143e1f593f00000017eeeb2cb5981ed45649abebde081dcff16c8601de4347e7dd1628ba2daac43b7830991507f30644e72e131a029b85045b68181585d2833e84879b9709143e1f593f000000180826118608601510983096118608401527f30644e72e131a029b85045b68181585d2833e84879b9709143e1f593f00000017eeeb2cb5981ed45649abebde081dcff16c8601de4347e7dd1628ba2daac43b7830991507f30644e72e131a029b85045b68181585d2833e84879b9709143e1f593f000000180826118808601510983096118808401527f30644e72e131a029b85045b68181585d2833e84879b9709143e1f593f00000017eeeb2cb5981ed45649abebde081dcff16c8601de4347e7dd1628ba2daac43b7830991507f30644e72e131a029b85045b68181585d2833e84879b9709143e1f593f000000180826118a08601510983096118a08401527f30644e72e131a029b85045b68181585d2833e84879b9709143e1f593f00000017eeeb2cb5981ed45649abebde081dcff16c8601de4347e7dd1628ba2daac43b7830991507f30644e72e131a029b85045b68181585d2833e84879b9709143e1f593f000000180826118c08601510983096118c08401527f30644e72e131a029b85045b68181585d2833e84879b9709143e1f593f00000017eeeb2cb5981ed45649abebde081dcff16c8601de4347e7dd1628ba2daac43b7830991507f30644e72e131a029b85045b68181585d2833e84879b9709143e1f593f000000180826118e08601510983096118e08401527f30644e72e131a029b85045b68181585d2833e84879b9709143e1f593f00000017eeeb2cb5981ed45649abebde081dcff16c8601de4347e7dd1628ba2daac43b7830991507f30644e72e131a029b85045b68181585d2833e84879b9709143e1f593f000000180826119008601510983096119008401527f30644e72e131a029b85045b68181585d2833e84879b9709143e1f593f00000017eeeb2cb5981ed45649abebde081dcff16c8601de4347e7dd1628ba2daac43b7830991507f30644e72e131a029b85045b68181585d2833e84879b9709143e1f593f000000180826119208601510983096119208401527f30644e72e131a029b85045b68181585d2833e84879b9709143e1f593f00000017eeeb2cb5981ed45649abebde081dcff16c8601de4347e7dd1628ba2daac43b7830991507f30644e72e131a029b85045b68181585d2833e84879b9709143e1f593f000000180826119408601510983096119408401527f30644e72e131a029b85045b68181585d2833e84879b9709143e1f593f00000017eeeb2cb5981ed45649abebde081dcff16c8601de4347e7dd1628ba2daac43b7830991507f30644e72e131a029b85045b68181585d2833e84879b9709143e1f593f000000180826119608601510983096119608401527f30644e72e131a029b85045b68181585d2833e84879b9709143e1f593f00000017eeeb2cb5981ed45649abebde081dcff16c8601de4347e7dd1628ba2daac43b7830991507f30644e72e131a029b85045b68181585d2833e84879b9709143e1f593f000000180826119808601510983096119808401527f30644e72e131a029b85045b68181585d2833e84879b9709143e1f593f00000017eeeb2cb5981ed45649abebde081dcff16c8601de4347e7dd1628ba2daac43b7830991507f30644e72e131a029b85045b68181585d2833e84879b9709143e1f593f000000180826119a08601510983096119a08401527f30644e72e131a029b85045b68181585d2833e84879b9709143e1f593f00000017eeeb2cb5981ed45649abebde081dcff16c8601de4347e7dd1628ba2daac43b7830991507f30644e72e131a029b85045b68181585d2833e84879b9709143e1f593f000000180826119c08601510983096119c08401527f30644e72e131a029b85045b68181585d2833e84879b9709143e1f593f00000017eeeb2cb5981ed45649abebde081dcff16c8601de4347e7dd1628ba2daac43b7830991507f30644e72e131a029b85045b68181585d2833e84879b9709143e1f593f000000180826119e08601510983096119e08401527f30644e72e131a029b85045b68181585d2833e84879b9709143e1f593f00000017eeeb2cb5981ed45649abebde081dcff16c8601de4347e7dd1628ba2daac43b7830991507f30644e72e131a029b85045b68181585d2833e84879b9709143e1f593f00000018082611a00860151098309611a008401527f30644e72e131a029b85045b68181585d2833e84879b9709143e1f593f00000017eeeb2cb5981ed45649abebde081dcff16c8601de4347e7dd1628ba2daac43b7830991507f30644e72e131a029b85045b68181585d2833e84879b9709143e1f593f00000018082611a20860151098309611a208401527f30644e72e131a029b85045b68181585d2833e84879b9709143e1f593f00000017eeeb2cb5981ed45649abebde081dcff16c8601de4347e7dd1628ba2daac43b7830991507f30644e72e131a029b85045b68181585d2833e84879b9709143e1f593f00000018082611a40860151098309611a408401527f30644e72e131a029b85045b68181585d2833e84879b9709143e1f593f00000017eeeb2cb5981ed45649abebde081dcff16c8601de4347e7dd1628ba2daac43b7830991507f30644e72e131a029b85045b68181585d2833e84879b9709143e1f593f00000018082611a60860151098309611a608401527f30644e72e131a029b85045b68181585d2833e84879b9709143e1f593f00000017eeeb2cb5981ed45649abebde081dcff16c8601de4347e7dd1628ba2daac43b7830991507f30644e72e131a029b85045b68181585d2833e84879b9709143e1f593f00000018082611a80860151098309611a808401527f30644e72e131a029b85045b68181585d2833e84879b9709143e1f593f00000017eeeb2cb5981ed45649abebde081dcff16c8601de4347e7dd1628ba2daac43b7830991507f30644e72e131a029b85045b68181585d2833e84879b9709143e1f593f00000018082611aa0860151098309611aa08401527f30644e72e131a029b85045b68181585d2833e84879b9709143e1f593f00000017eeeb2cb5981ed45649abebde081dcff16c8601de4347e7dd1628ba2daac43b7830991507f30644e72e131a029b85045b68181585d2833e84879b9709143e1f593f00000018082611ac0860151098309611ac08401527f30644e72e131a029b85045b68181585d2833e84879b9709143e1f593f00000017eeeb2cb5981ed45649abebde081dcff16c8601de4347e7dd1628ba2daac43b7830991507f30644e72e131a029b85045b68181585d2833e84879b9709143e1f593f00000018082611ae0860151098309611ae08401527f30644e72e131a029b85045b68181585d2833e84879b9709143e1f593f00000017eeeb2cb5981ed45649abebde081dcff16c8601de4347e7dd1628ba2daac43b7830991507f30644e72e131a029b85045b68181585d2833e84879b9709143e1f593f00000018082611b00860151098309611b008401527f30644e72e131a029b85045b68181585d2833e84879b9709143e1f593f00000017eeeb2cb5981ed45649abebde081dcff16c8601de4347e7dd1628ba2daac43b7830991507f30644e72e131a029b85045b68181585d2833e84879b9709143e1f593f00000018082611b20860151098309611b208401527f30644e72e131a029b85045b68181585d2833e84879b9709143e1f593f00000017eeeb2cb5981ed45649abebde081dcff16c8601de4347e7dd1628ba2daac43b7830991507f30644e72e131a029b85045b68181585d2833e84879b9709143e1f593f00000018082611b40860151098309611b408401527f30644e72e131a029b85045b68181585d2833e84879b9709143e1f593f00000017eeeb2cb5981ed45649abebde081dcff16c8601de4347e7dd1628ba2daac43b7830991507f30644e72e131a029b85045b68181585d2833e84879b9709143e1f593f00000018082611b60860151098309611b608401527f30644e72e131a029b85045b68181585d2833e84879b9709143e1f593f00000017eeeb2cb5981ed45649abebde081dcff16c8601de4347e7dd1628ba2daac43b7830991507f30644e72e131a029b85045b68181585d2833e84879b9709143e1f593f00000018082611b80860151098309611b808401527f30644e72e131a029b85045b68181585d2833e84879b9709143e1f593f00000017eeeb2cb5981ed45649abebde081dcff16c8601de4347e7dd1628ba2daac43b7830991507f30644e72e131a029b85045b68181585d2833e84879b9709143e1f593f00000018082611ba0860151098309611ba08401527f30644e72e131a029b85045b68181585d2833e84879b9709143e1f593f00000017eeeb2cb5981ed45649abebde081dcff16c8601de4347e7dd1628ba2daac43b7830991507f30644e72e131a029b85045b68181585d2833e84879b9709143e1f593f00000018082611bc0860151098309611bc08401527f30644e72e131a029b85045b68181585d2833e84879b9709143e1f593f00000017eeeb2cb5981ed45649abebde081dcff16c8601de4347e7dd1628ba2daac43b7830991507f30644e72e131a029b85045b68181585d2833e84879b9709143e1f593f00000018082611be0860151098309611be08401527f30644e72e131a029b85045b68181585d2833e84879b9709143e1f593f00000017eeeb2cb5981ed45649abebde081dcff16c8601de4347e7dd1628ba2daac43b7830991507f30644e72e131a029b85045b68181585d2833e84879b9709143e1f593f00000018082611c00860151098309611c008401527f30644e72e131a029b85045b68181585d2833e84879b9709143e1f593f00000017eeeb2cb5981ed45649abebde081dcff16c8601de4347e7dd1628ba2daac43b7830991507f30644e72e131a029b85045b68181585d2833e84879b9709143e1f593f00000018082611c20860151098309611c208401527f30644e72e131a029b85045b68181585d2833e84879b9709143e1f593f00000017eeeb2cb5981ed45649abebde081dcff16c8601de4347e7dd1628ba2daac43b7830991507f30644e72e131a029b85045b68181585d2833e84879b9709143e1f593f00000018082611c40860151098309611c408401527f30644e72e131a029b85045b68181585d2833e84879b9709143e1f593f00000017eeeb2cb5981ed45649abebde081dcff16c8601de4347e7dd1628ba2daac43b7830991507f30644e72e131a029b85045b68181585d2833e84879b9709143e1f593f00000018082611c60860151098309611c608401527f30644e72e131a029b85045b68181585d2833e84879b9709143e1f593f00000017eeeb2cb5981ed45649abebde081dcff16c8601de4347e7dd1628ba2daac43b7830991507f30644e72e131a029b85045b68181585d2833e84879b9709143e1f593f00000018082611c80860151098309611c808401527f30644e72e131a029b85045b68181585d2833e84879b9709143e1f593f00000017eeeb2cb5981ed45649abebde081dcff16c8601de4347e7dd1628ba2daac43b7830991507f30644e72e131a029b85045b68181585d2833e84879b9709143e1f593f00000018082611ca0860151098309611ca08401527f30644e72e131a029b85045b68181585d2833e84879b9709143e1f593f00000017eeeb2cb5981ed45649abebde081dcff16c8601de4347e7dd1628ba2daac43b7830991507f30644e72e131a029b85045b68181585d2833e84879b9709143e1f593f00000018082611cc0860151098309611cc08401527f30644e72e131a029b85045b68181585d2833e84879b9709143e1f593f00000017eeeb2cb5981ed45649abebde081dcff16c8601de4347e7dd1628ba2daac43b7830991507f30644e72e131a029b85045b68181585d2833e84879b9709143e1f593f00000018082611ce0860151098309611ce08401527f30644e72e131a029b85045b68181585d2833e84879b9709143e1f593f00000017eeeb2cb5981ed45649abebde081dcff16c8601de4347e7dd1628ba2daac43b7830991507f30644e72e131a029b85045b68181585d2833e84879b9709143e1f593f00000018082611d00860151098309611d008401527f30644e72e131a029b85045b68181585d2833e84879b9709143e1f593f00000017eeeb2cb5981ed45649abebde081dcff16c8601de4347e7dd1628ba2daac43b7830991507f30644e72e131a029b85045b68181585d2833e84879b9709143e1f593f00000018082611d20860151098309611d208401527f30644e72e131a029b85045b68181585d2833e84879b9709143e1f593f00000017eeeb2cb5981ed45649abebde081dcff16c8601de4347e7dd1628ba2daac43b7830991507f30644e72e131a029b85045b68181585d2833e84879b9709143e1f593f00000018082611d40860151098309611d408401527f30644e72e131a029b85045b68181585d2833e84879b9709143e1f593f00000017eeeb2cb5981ed45649abebde081dcff16c8601de4347e7dd1628ba2daac43b7830991507f30644e72e131a029b85045b68181585d2833e84879b9709143e1f593f00000018082611d60860151098309611d608401527f30644e72e131a029b85045b68181585d2833e84879b9709143e1f593f00000017eeeb2cb5981ed45649abebde081dcff16c8601de4347e7dd1628ba2daac43b7830991507f30644e72e131a029b85045b68181585d2833e84879b9709143e1f593f00000018082611d80860151098309611d808401527f30644e72e131a029b85045b68181585d2833e84879b9709143e1f593f00000017eeeb2cb5981ed45649abebde081dcff16c8601de4347e7dd1628ba2daac43b7830991507f30644e72e131a029b85045b68181585d2833e84879b9709143e1f593f00000018082611da0860151098309611da08401527f30644e72e131a029b85045b68181585d2833e84879b9709143e1f593f00000017eeeb2cb5981ed45649abebde081dcff16c8601de4347e7dd1628ba2daac43b7830991507f30644e72e131a029b85045b68181585d2833e84879b9709143e1f593f00000018082611dc0860151098309611dc08401527f30644e72e131a029b85045b68181585d2833e84879b9709143e1f593f00000017eeeb2cb5981ed45649abebde081dcff16c8601de4347e7dd1628ba2daac43b7830991507f30644e72e131a029b85045b68181585d2833e84879b9709143e1f593f00000018082611de0860151098309611de08401527f30644e72e131a029b85045b68181585d2833e84879b9709143e1f593f00000017eeeb2cb5981ed45649abebde081dcff16c8601de4347e7dd1628ba2daac43b7830991507f30644e72e131a029b85045b68181585d2833e84879b9709143e1f593f00000018082611e00860151098309611e008401527f30644e72e131a029b85045b68181585d2833e84879b9709143e1f593f00000017eeeb2cb5981ed45649abebde081dcff16c8601de4347e7dd1628ba2daac43b7830991507f30644e72e131a029b85045b68181585d2833e84879b9709143e1f593f00000018082611e20860151098309611e208401527f30644e72e131a029b85045b68181585d2833e84879b9709143e1f593f00000017eeeb2cb5981ed45649abebde081dcff16c8601de4347e7dd1628ba2daac43b7830991507f30644e72e131a029b85045b68181585d2833e84879b9709143e1f593f00000018082611e40860151098309611e408401527f30644e72e131a029b85045b68181585d2833e84879b9709143e1f593f00000017eeeb2cb5981ed45649abebde081dcff16c8601de4347e7dd1628ba2daac43b7830991507f30644e72e131a029b85045b68181585d2833e84879b9709143e1f593f00000018082611e60860151098309611e608401527f30644e72e131a029b85045b68181585d2833e84879b9709143e1f593f00000017eeeb2cb5981ed45649abebde081dcff16c8601de4347e7dd1628ba2daac43b7830991507f30644e72e131a029b85045b68181585d2833e84879b9709143e1f593f00000018082611e80860151098309611e808401527f30644e72e131a029b85045b68181585d2833e84879b9709143e1f593f00000017eeeb2cb5981ed45649abebde081dcff16c8601de4347e7dd1628ba2daac43b7830991507f30644e72e131a029b85045b68181585d2833e84879b9709143e1f593f00000018082611ea0860151098309611ea08401527f30644e72e131a029b85045b68181585d2833e84879b9709143e1f593f00000017eeeb2cb5981ed45649abebde081dcff16c8601de4347e7dd1628ba2daac43b7830991507f30644e72e131a029b85045b68181585d2833e84879b9709143e1f593f00000018082611ec0860151098309611ec08401527f30644e72e131a029b85045b68181585d2833e84879b9709143e1f593f00000017eeeb2cb5981ed45649abebde081dcff16c8601de4347e7dd1628ba2daac43b7830991507f30644e72e131a029b85045b68181585d2833e84879b9709143e1f593f00000018082611ee0860151098309611ee08401527f30644e72e131a029b85045b68181585d2833e84879b9709143e1f593f00000017eeeb2cb5981ed45649abebde081dcff16c8601de4347e7dd1628ba2daac43b7830991507f30644e72e131a029b85045b68181585d2833e84879b9709143e1f593f00000018082611f00860151098309611f008401527f30644e72e131a029b85045b68181585d2833e84879b9709143e1f593f00000017eeeb2cb5981ed45649abebde081dcff16c8601de4347e7dd1628ba2daac43b7830991507f30644e72e131a029b85045b68181585d2833e84879b9709143e1f593f00000018082611f20860151098309611f208401527f30644e72e131a029b85045b68181585d2833e84879b9709143e1f593f00000017eeeb2cb5981ed45649abebde081dcff16c8601de4347e7dd1628ba2daac43b7830991507f30644e72e131a029b85045b68181585d2833e84879b9709143e1f593f00000018082611f40860151098309611f408401527f30644e72e131a029b85045b68181585d2833e84879b9709143e1f593f00000017eeeb2cb5981ed45649abebde081dcff16c8601de4347e7dd1628ba2daac43b7830991507f30644e72e131a029b85045b68181585d2833e84879b9709143e1f593f00000018082611f60860151098309611f608401527f30644e72e131a029b85045b68181585d2833e84879b9709143e1f593f00000017eeeb2cb5981ed45649abebde081dcff16c8601de4347e7dd1628ba2daac43b7830991507f30644e72e131a029b85045b68181585d2833e84879b9709143e1f593f00000018082611f80860151098309611f808401527f30644e72e131a029b85045b68181585d2833e84879b9709143e1f593f00000017eeeb2cb5981ed45649abebde081dcff16c8601de4347e7dd1628ba2daac43b7830991507f30644e72e131a029b85045b68181585d2833e84879b9709143e1f593f00000018082611fa0860151098309611fa08401527f30644e72e131a029b85045b68181585d2833e84879b9709143e1f593f00000017eeeb2cb5981ed45649abebde081dcff16c8601de4347e7dd1628ba2daac43b7830991507f30644e72e131a029b85045b68181585d2833e84879b9709143e1f593f00000018082611fc0860151098309611fc08401527f30644e72e131a029b85045b68181585d2833e84879b9709143e1f593f00000017eeeb2cb5981ed45649abebde081dcff16c8601de4347e7dd1628ba2daac43b7830991507f30644e72e131a029b85045b68181585d2833e84879b9709143e1f593f00000018082611fe0860151098309611fe08401527f30644e72e131a029b85045b68181585d2833e84879b9709143e1f593f00000017eeeb2cb5981ed45649abebde081dcff16c8601de4347e7dd1628ba2daac43b7830991507f30644e72e131a029b85045b68181585d2833e84879b9709143e1f593f000000180826120008601510983096120008401527f30644e72e131a029b85045b68181585d2833e84879b9709143e1f593f00000017eeeb2cb5981ed45649abebde081dcff16c8601de4347e7dd1628ba2daac43b7830991507f30644e72e131a029b85045b68181585d2833e84879b9709143e1f593f000000180826120208601510983096120208401527f30644e72e131a029b85045b68181585d2833e84879b9709143e1f593f00000017eeeb2cb5981ed45649abebde081dcff16c8601de4347e7dd1628ba2daac43b7830991507f30644e72e131a029b85045b68181585d2833e84879b9709143e1f593f000000180826120408601510983096120408401527f30644e72e131a029b85045b68181585d2833e84879b9709143e1f593f00000017eeeb2cb5981ed45649abebde081dcff16c8601de4347e7dd1628ba2daac43b7830991507f30644e72e131a029b85045b68181585d2833e84879b9709143e1f593f000000180826120608601510983096120608401527f30644e72e131a029b85045b68181585d2833e84879b9709143e1f593f00000017eeeb2cb5981ed45649abebde081dcff16c8601de4347e7dd1628ba2daac43b7830991507f30644e72e131a029b85045b68181585d2833e84879b9709143e1f593f000000180826120808601510983096120808401527f30644e72e131a029b85045b68181585d2833e84879b9709143e1f593f00000017eeeb2cb5981ed45649abebde081dcff16c8601de4347e7dd1628ba2daac43b7830991507f30644e72e131a029b85045b68181585d2833e84879b9709143e1f593f000000180826120a08601510983096120a08401527f30644e72e131a029b85045b68181585d2833e84879b9709143e1f593f00000017eeeb2cb5981ed45649abebde081dcff16c8601de4347e7dd1628ba2daac43b7830991507f30644e72e131a029b85045b68181585d2833e84879b9709143e1f593f000000180826120c08601510983096120c08401527f30644e72e131a029b85045b68181585d2833e84879b9709143e1f593f00000017eeeb2cb5981ed45649abebde081dcff16c8601de4347e7dd1628ba2daac43b7830991507f30644e72e131a029b85045b68181585d2833e84879b9709143e1f593f000000180826120e08601510983096120e08401527f30644e72e131a029b85045b68181585d2833e84879b9709143e1f593f00000017eeeb2cb5981ed45649abebde081dcff16c8601de4347e7dd1628ba2daac43b7830991507f30644e72e131a029b85045b68181585d2833e84879b9709143e1f593f000000180826121008601510983096121008401527f30644e72e131a029b85045b68181585d2833e84879b9709143e1f593f00000017eeeb2cb5981ed45649abebde081dcff16c8601de4347e7dd1628ba2daac43b7830991507f30644e72e131a029b85045b68181585d2833e84879b9709143e1f593f000000180826121208601510983096121208401527f30644e72e131a029b85045b68181585d2833e84879b9709143e1f593f00000017eeeb2cb5981ed45649abebde081dcff16c8601de4347e7dd1628ba2daac43b7830991507f30644e72e131a029b85045b68181585d2833e84879b9709143e1f593f000000180826121408601510983096121408401527f30644e72e131a029b85045b68181585d2833e84879b9709143e1f593f00000017eeeb2cb5981ed45649abebde081dcff16c8601de4347e7dd1628ba2daac43b7830991507f30644e72e131a029b85045b68181585d2833e84879b9709143e1f593f000000180826121608601510983096121608401527f30644e72e131a029b85045b68181585d2833e84879b9709143e1f593f00000017eeeb2cb5981ed45649abebde081dcff16c8601de4347e7dd1628ba2daac43b7830991507f30644e72e131a029b85045b68181585d2833e84879b9709143e1f593f000000180826121808601510983096121808401527f30644e72e131a029b85045b68181585d2833e84879b9709143e1f593f00000017eeeb2cb5981ed45649abebde081dcff16c8601de4347e7dd1628ba2daac43b7830991507f30644e72e131a029b85045b68181585d2833e84879b9709143e1f593f000000180826121a08601510983096121a08401527f30644e72e131a029b85045b68181585d2833e84879b9709143e1f593f00000017eeeb2cb5981ed45649abebde081dcff16c8601de4347e7dd1628ba2daac43b7830991507f30644e72e131a029b85045b68181585d2833e84879b9709143e1f593f000000180826121c08601510983096121c08401527f30644e72e131a029b85045b68181585d2833e84879b9709143e1f593f00000017eeeb2cb5981ed45649abebde081dcff16c8601de4347e7dd1628ba2daac43b7830991507f30644e72e131a029b85045b68181585d2833e84879b9709143e1f593f000000180826121e08601510983096121e08401527f30644e72e131a029b85045b68181585d2833e84879b9709143e1f593f00000017eeeb2cb5981ed45649abebde081dcff16c8601de4347e7dd1628ba2daac43b7830991507f30644e72e131a029b85045b68181585d2833e84879b9709143e1f593f000000180826122008601510983096122008401527f30644e72e131a029b85045b68181585d2833e84879b9709143e1f593f00000017eeeb2cb5981ed45649abebde081dcff16c8601de4347e7dd1628ba2daac43b7830991507f30644e72e131a029b85045b68181585d2833e84879b9709143e1f593f000000180826122208601510983096122208401527f30644e72e131a029b85045b68181585d2833e84879b9709143e1f593f00000017eeeb2cb5981ed45649abebde081dcff16c8601de4347e7dd1628ba2daac43b7830991507f30644e72e131a029b85045b68181585d2833e84879b9709143e1f593f000000180826122408601510983096122408401527f30644e72e131a029b85045b68181585d2833e84879b9709143e1f593f00000017eeeb2cb5981ed45649abebde081dcff16c8601de4347e7dd1628ba2daac43b7830991507f30644e72e131a029b85045b68181585d2833e84879b9709143e1f593f000000180826122608601510983096122608401527f30644e72e131a029b85045b68181585d2833e84879b9709143e1f593f00000017eeeb2cb5981ed45649abebde081dcff16c8601de4347e7dd1628ba2daac43b7830991507f30644e72e131a029b85045b68181585d2833e84879b9709143e1f593f000000180826122808601510983096122808401527f30644e72e131a029b85045b68181585d2833e84879b9709143e1f593f00000017eeeb2cb5981ed45649abebde081dcff16c8601de4347e7dd1628ba2daac43b7830991507f30644e72e131a029b85045b68181585d2833e84879b9709143e1f593f000000180826122a08601510983096122a08401527f30644e72e131a029b85045b68181585d2833e84879b9709143e1f593f00000017eeeb2cb5981ed45649abebde081dcff16c8601de4347e7dd1628ba2daac43b7830991507f30644e72e131a029b85045b68181585d2833e84879b9709143e1f593f000000180826122c08601510983096122c08401527f30644e72e131a029b85045b68181585d2833e84879b9709143e1f593f00000017eeeb2cb5981ed45649abebde081dcff16c8601de4347e7dd1628ba2daac43b7830991507f30644e72e131a029b85045b68181585d2833e84879b9709143e1f593f000000180826122e08601510983096122e08401527f30644e72e131a029b85045b68181585d2833e84879b9709143e1f593f00000017eeeb2cb5981ed45649abebde081dcff16c8601de4347e7dd1628ba2daac43b7830991507f30644e72e131a029b85045b68181585d2833e84879b9709143e1f593f000000180826123008601510983096123008401527f30644e72e131a029b85045b68181585d2833e84879b9709143e1f593f00000017eeeb2cb5981ed45649abebde081dcff16c8601de4347e7dd1628ba2daac43b7830991507f30644e72e131a029b85045b68181585d2833e84879b9709143e1f593f000000180826123208601510983096123208401527f30644e72e131a029b85045b68181585d2833e84879b9709143e1f593f00000017eeeb2cb5981ed45649abebde081dcff16c8601de4347e7dd1628ba2daac43b7830991507f30644e72e131a029b85045b68181585d2833e84879b9709143e1f593f000000180826123408601510983096123408401527f30644e72e131a029b85045b68181585d2833e84879b9709143e1f593f00000017eeeb2cb5981ed45649abebde081dcff16c8601de4347e7dd1628ba2daac43b7830991507f30644e72e131a029b85045b68181585d2833e84879b9709143e1f593f000000180826123608601510983096123608401527f30644e72e131a029b85045b68181585d2833e84879b9709143e1f593f00000017eeeb2cb5981ed45649abebde081dcff16c8601de4347e7dd1628ba2daac43b7830991507f30644e72e131a029b85045b68181585d2833e84879b9709143e1f593f000000180826123808601510983096123808401527f30644e72e131a029b85045b68181585d2833e84879b9709143e1f593f00000017eeeb2cb5981ed45649abebde081dcff16c8601de4347e7dd1628ba2daac43b7830991507f30644e72e131a029b85045b68181585d2833e84879b9709143e1f593f000000180826123a08601510983096123a08401527f30644e72e131a029b85045b68181585d2833e84879b9709143e1f593f00000017eeeb2cb5981ed45649abebde081dcff16c8601de4347e7dd1628ba2daac43b7830991507f30644e72e131a029b85045b68181585d2833e84879b9709143e1f593f000000180826123c08601510983096123c08401527f30644e72e131a029b85045b68181585d2833e84879b9709143e1f593f00000017eeeb2cb5981ed45649abebde081dcff16c8601de4347e7dd1628ba2daac43b7830991507f30644e72e131a029b85045b68181585d2833e84879b9709143e1f593f000000180826123e08601510983096123e08401527f30644e72e131a029b85045b68181585d2833e84879b9709143e1f593f00000017eeeb2cb5981ed45649abebde081dcff16c8601de4347e7dd1628ba2daac43b7830991507f30644e72e131a029b85045b68181585d2833e84879b9709143e1f593f000000180826124008601510983096124008401527f30644e72e131a029b85045b68181585d2833e84879b9709143e1f593f00000017eeeb2cb5981ed45649abebde081dcff16c8601de4347e7dd1628ba2daac43b7830991507f30644e72e131a029b85045b68181585d2833e84879b9709143e1f593f000000180826124208601510983096124208401527f30644e72e131a029b85045b68181585d2833e84879b9709143e1f593f00000017eeeb2cb5981ed45649abebde081dcff16c8601de4347e7dd1628ba2daac43b7830991507f30644e72e131a029b85045b68181585d2833e84879b9709143e1f593f000000180826124408601510983096124408401527f30644e72e131a029b85045b68181585d2833e84879b9709143e1f593f00000017eeeb2cb5981ed45649abebde081dcff16c8601de4347e7dd1628ba2daac43b7830991507f30644e72e131a029b85045b68181585d2833e84879b9709143e1f593f000000180826124608601510983096124608401527f30644e72e131a029b85045b68181585d2833e84879b9709143e1f593f00000017eeeb2cb5981ed45649abebde081dcff16c8601de4347e7dd1628ba2daac43b7830991507f30644e72e131a029b85045b68181585d2833e84879b9709143e1f593f000000180826124808601510983096124808401527f30644e72e131a029b85045b68181585d2833e84879b9709143e1f593f00000017eeeb2cb5981ed45649abebde081dcff16c8601de4347e7dd1628ba2daac43b7830991507f30644e72e131a029b85045b68181585d2833e84879b9709143e1f593f000000180826124a08601510983096124a08401527f30644e72e131a029b85045b68181585d2833e84879b9709143e1f593f00000017eeeb2cb5981ed45649abebde081dcff16c8601de4347e7dd1628ba2daac43b7830991507f30644e72e131a029b85045b68181585d2833e84879b9709143e1f593f000000180826124c08601510983096124c08401527f30644e72e131a029b85045b68181585d2833e84879b9709143e1f593f00000017eeeb2cb5981ed45649abebde081dcff16c8601de4347e7dd1628ba2daac43b7830991507f30644e72e131a029b85045b68181585d2833e84879b9709143e1f593f000000180826124e08601510983096124e08401527f30644e72e131a029b85045b68181585d2833e84879b9709143e1f593f00000017eeeb2cb5981ed45649abebde081dcff16c8601de4347e7dd1628ba2daac43b7830991507f30644e72e131a029b85045b68181585d2833e84879b9709143e1f593f000000180826125008601510983096125008401527f30644e72e131a029b85045b68181585d2833e84879b9709143e1f593f00000017eeeb2cb5981ed45649abebde081dcff16c8601de4347e7dd1628ba2daac43b7830991507f30644e72e131a029b85045b68181585d2833e84879b9709143e1f593f000000180826125208601510983096125208401527f30644e72e131a029b85045b68181585d2833e84879b9709143e1f593f00000017eeeb2cb5981ed45649abebde081dcff16c8601de4347e7dd1628ba2daac43b7830991507f30644e72e131a029b85045b68181585d2833e84879b9709143e1f593f000000180826125408601510983096125408401527f30644e72e131a029b85045b68181585d2833e84879b9709143e1f593f00000017eeeb2cb5981ed45649abebde081dcff16c8601de4347e7dd1628ba2daac43b7830991507f30644e72e131a029b85045b68181585d2833e84879b9709143e1f593f000000180826125608601510983096125608401527f30644e72e131a029b85045b68181585d2833e84879b9709143e1f593f00000017eeeb2cb5981ed45649abebde081dcff16c8601de4347e7dd1628ba2daac43b7830991507f30644e72e131a029b85045b68181585d2833e84879b9709143e1f593f000000180826125808601510983096125808401527f30644e72e131a029b85045b68181585d2833e84879b9709143e1f593f00000017eeeb2cb5981ed45649abebde081dcff16c8601de4347e7dd1628ba2daac43b7830991507f30644e72e131a029b85045b68181585d2833e84879b9709143e1f593f000000180826125a08601510983096125a08401527f30644e72e131a029b85045b68181585d2833e84879b9709143e1f593f00000017eeeb2cb5981ed45649abebde081dcff16c8601de4347e7dd1628ba2daac43b7830991507f30644e72e131a029b85045b68181585d2833e84879b9709143e1f593f000000180826125c08601510983096125c08401527f30644e72e131a029b85045b68181585d2833e84879b9709143e1f593f00000017eeeb2cb5981ed45649abebde081dcff16c8601de4347e7dd1628ba2daac43b7830991507f30644e72e131a029b85045b68181585d2833e84879b9709143e1f593f000000180826125e08601510983096125e08401527f30644e72e131a029b85045b68181585d2833e84879b9709143e1f593f00000017eeeb2cb5981ed45649abebde081dcff16c8601de4347e7dd1628ba2daac43b7830991507f30644e72e131a029b85045b68181585d2833e84879b9709143e1f593f000000180826126008601510983096126008401527f30644e72e131a029b85045b68181585d2833e84879b9709143e1f593f00000017eeeb2cb5981ed45649abebde081dcff16c8601de4347e7dd1628ba2daac43b7830991507f30644e72e131a029b85045b68181585d2833e84879b9709143e1f593f000000180826126208601510983096126208401527f30644e72e131a029b85045b68181585d2833e84879b9709143e1f593f00000017eeeb2cb5981ed45649abebde081dcff16c8601de4347e7dd1628ba2daac43b7830991507f30644e72e131a029b85045b68181585d2833e84879b9709143e1f593f000000180826126408601510983096126408401527f30644e72e131a029b85045b68181585d2833e84879b9709143e1f593f00000017eeeb2cb5981ed45649abebde081dcff16c8601de4347e7dd1628ba2daac43b7830991507f30644e72e131a029b85045b68181585d2833e84879b9709143e1f593f000000180826126608601510983096126608401527f30644e72e131a029b85045b68181585d2833e84879b9709143e1f593f00000017eeeb2cb5981ed45649abebde081dcff16c8601de4347e7dd1628ba2daac43b7830991507f30644e72e131a029b85045b68181585d2833e84879b9709143e1f593f000000180826126808601510983096126808401527f30644e72e131a029b85045b68181585d2833e84879b9709143e1f593f00000017eeeb2cb5981ed45649abebde081dcff16c8601de4347e7dd1628ba2daac43b7830991507f30644e72e131a029b85045b68181585d2833e84879b9709143e1f593f000000180826126a08601510983096126a08401527f30644e72e131a029b85045b68181585d2833e84879b9709143e1f593f00000017eeeb2cb5981ed45649abebde081dcff16c8601de4347e7dd1628ba2daac43b7830991507f30644e72e131a029b85045b68181585d2833e84879b9709143e1f593f000000180826126c08601510983096126c08401527f30644e72e131a029b85045b68181585d2833e84879b9709143e1f593f00000017eeeb2cb5981ed45649abebde081dcff16c8601de4347e7dd1628ba2daac43b7830991507f30644e72e131a029b85045b68181585d2833e84879b9709143e1f593f000000180826126e08601510983096126e08401527f30644e72e131a029b85045b68181585d2833e84879b9709143e1f593f00000017eeeb2cb5981ed45649abebde081dcff16c8601de4347e7dd1628ba2daac43b7830991507f30644e72e131a029b85045b68181585d2833e84879b9709143e1f593f000000180826127008601510983096127008401527f30644e72e131a029b85045b68181585d2833e84879b9709143e1f593f00000017eeeb2cb5981ed45649abebde081dcff16c8601de4347e7dd1628ba2daac43b7830991507f30644e72e131a029b85045b68181585d2833e84879b9709143e1f593f000000180826127208601510983096127208401527f30644e72e131a029b85045b68181585d2833e84879b9709143e1f593f00000017eeeb2cb5981ed45649abebde081dcff16c8601de4347e7dd1628ba2daac43b7830991507f30644e72e131a029b85045b68181585d2833e84879b9709143e1f593f000000180826127408601510983096127408401527f30644e72e131a029b85045b68181585d2833e84879b9709143e1f593f00000017eeeb2cb5981ed45649abebde081dcff16c8601de4347e7dd1628ba2daac43b7830991507f30644e72e131a029b85045b68181585d2833e84879b9709143e1f593f000000180826127608601510983096127608401527f30644e72e131a029b85045b68181585d2833e84879b9709143e1f593f00000017eeeb2cb5981ed45649abebde081dcff16c8601de4347e7dd1628ba2daac43b7830991507f30644e72e131a029b85045b68181585d2833e84879b9709143e1f593f000000180826127808601510983096127808401527f30644e72e131a029b85045b68181585d2833e84879b9709143e1f593f00000017eeeb2cb5981ed45649abebde081dcff16c8601de4347e7dd1628ba2daac43b7830991507f30644e72e131a029b85045b68181585d2833e84879b9709143e1f593f000000180826127a08601510983096127a08401527f30644e72e131a029b85045b68181585d2833e84879b9709143e1f593f00000017eeeb2cb5981ed45649abebde081dcff16c8601de4347e7dd1628ba2daac43b7830991507f30644e72e131a029b85045b68181585d2833e84879b9709143e1f593f000000180826127c08601510983096127c08401527f30644e72e131a029b85045b68181585d2833e84879b9709143e1f593f00000017eeeb2cb5981ed45649abebde081dcff16c8601de4347e7dd1628ba2daac43b7830991507f30644e72e131a029b85045b68181585d2833e84879b9709143e1f593f000000180826127e08601510983096127e08401527f30644e72e131a029b85045b68181585d2833e84879b9709143e1f593f00000017eeeb2cb5981ed45649abebde081dcff16c8601de4347e7dd1628ba2daac43b7830991507f30644e72e131a029b85045b68181585d2833e84879b9709143e1f593f000000180826128008601510983096128008401527f30644e72e131a029b85045b68181585d2833e84879b9709143e1f593f00000017eeeb2cb5981ed45649abebde081dcff16c8601de4347e7dd1628ba2daac43b7830991507f30644e72e131a029b85045b68181585d2833e84879b9709143e1f593f000000180826128208601510983096128208401527f30644e72e131a029b85045b68181585d2833e84879b9709143e1f593f00000017eeeb2cb5981ed45649abebde081dcff16c8601de4347e7dd1628ba2daac43b7830991507f30644e72e131a029b85045b68181585d2833e84879b9709143e1f593f000000180826128408601510983096128408401527f30644e72e131a029b85045b68181585d2833e84879b9709143e1f593f00000017eeeb2cb5981ed45649abebde081dcff16c8601de4347e7dd1628ba2daac43b7830991507f30644e72e131a029b85045b68181585d2833e84879b9709143e1f593f000000180826128608601510983096128608401527f30644e72e131a029b85045b68181585d2833e84879b9709143e1f593f00000017eeeb2cb5981ed45649abebde081dcff16c8601de4347e7dd1628ba2daac43b7830991507f30644e72e131a029b85045b68181585d2833e84879b9709143e1f593f000000180826128808601510983096128808401527f30644e72e131a029b85045b68181585d2833e84879b9709143e1f593f00000017eeeb2cb5981ed45649abebde081dcff16c8601de4347e7dd1628ba2daac43b7830991507f30644e72e131a029b85045b68181585d2833e84879b9709143e1f593f000000180826128a08601510983096128a08401527f30644e72e131a029b85045b68181585d2833e84879b9709143e1f593f00000017eeeb2cb5981ed45649abebde081dcff16c8601de4347e7dd1628ba2daac43b7830991507f30644e72e131a029b85045b68181585d2833e84879b9709143e1f593f000000180826128c08601510983096128c08401527f30644e72e131a029b85045b68181585d2833e84879b9709143e1f593f00000017eeeb2cb5981ed45649abebde081dcff16c8601de4347e7dd1628ba2daac43b7830991507f30644e72e131a029b85045b68181585d2833e84879b9709143e1f593f000000180826128e08601510983096128e08401527f30644e72e131a029b85045b68181585d2833e84879b9709143e1f593f00000017eeeb2cb5981ed45649abebde081dcff16c8601de4347e7dd1628ba2daac43b7830991507f30644e72e131a029b85045b68181585d2833e84879b9709143e1f593f000000180826129008601510983096129008401527f30644e72e131a029b85045b68181585d2833e84879b9709143e1f593f00000017eeeb2cb5981ed45649abebde081dcff16c8601de4347e7dd1628ba2daac43b7830991507f30644e72e131a029b85045b68181585d2833e84879b9709143e1f593f000000180826129208601510983096129208401527f30644e72e131a029b85045b68181585d2833e84879b9709143e1f593f00000017eeeb2cb5981ed45649abebde081dcff16c8601de4347e7dd1628ba2daac43b7830991507f30644e72e131a029b85045b68181585d2833e84879b9709143e1f593f000000180826129408601510983096129408401527f30644e72e131a029b85045b68181585d2833e84879b9709143e1f593f00000017eeeb2cb5981ed45649abebde081dcff16c8601de4347e7dd1628ba2daac43b7830991507f30644e72e131a029b85045b68181585d2833e84879b9709143e1f593f000000180826129608601510983096129608401527f30644e72e131a029b85045b68181585d2833e84879b9709143e1f593f00000017eeeb2cb5981ed45649abebde081dcff16c8601de4347e7dd1628ba2daac43b7830991507f30644e72e131a029b85045b68181585d2833e84879b9709143e1f593f000000180826129808601510983096129808401527f30644e72e131a029b85045b68181585d2833e84879b9709143e1f593f00000017eeeb2cb5981ed45649abebde081dcff16c8601de4347e7dd1628ba2daac43b7830991507f30644e72e131a029b85045b68181585d2833e84879b9709143e1f593f000000180826129a08601510983096129a08401527f30644e72e131a029b85045b68181585d2833e84879b9709143e1f593f00000017eeeb2cb5981ed45649abebde081dcff16c8601de4347e7dd1628ba2daac43b7830991507f30644e72e131a029b85045b68181585d2833e84879b9709143e1f593f000000180826129c08601510983096129c08401527f30644e72e131a029b85045b68181585d2833e84879b9709143e1f593f00000017eeeb2cb5981ed45649abebde081dcff16c8601de4347e7dd1628ba2daac43b7830991507f30644e72e131a029b85045b68181585d2833e84879b9709143e1f593f000000180826129e08601510983096129e08401527f30644e72e131a029b85045b68181585d2833e84879b9709143e1f593f00000017eeeb2cb5981ed45649abebde081dcff16c8601de4347e7dd1628ba2daac43b7830991507f30644e72e131a029b85045b68181585d2833e84879b9709143e1f593f00000018082612a00860151098309612a008401527f30644e72e131a029b85045b68181585d2833e84879b9709143e1f593f00000017eeeb2cb5981ed45649abebde081dcff16c8601de4347e7dd1628ba2daac43b7830991507f30644e72e131a029b85045b68181585d2833e84879b9709143e1f593f00000018082612a20860151098309612a208401527f30644e72e131a029b85045b68181585d2833e84879b9709143e1f593f00000017eeeb2cb5981ed45649abebde081dcff16c8601de4347e7dd1628ba2daac43b7830991507f30644e72e131a029b85045b68181585d2833e84879b9709143e1f593f00000018082612a40860151098309612a408401527f30644e72e131a029b85045b68181585d2833e84879b9709143e1f593f00000017eeeb2cb5981ed45649abebde081dcff16c8601de4347e7dd1628ba2daac43b7830991507f30644e72e131a029b85045b68181585d2833e84879b9709143e1f593f00000018082612a60860151098309612a608401527f30644e72e131a029b85045b68181585d2833e84879b9709143e1f593f00000017eeeb2cb5981ed45649abebde081dcff16c8601de4347e7dd1628ba2daac43b7830991507f30644e72e131a029b85045b68181585d2833e84879b9709143e1f593f00000018082612a80860151098309612a808401527f30644e72e131a029b85045b68181585d2833e84879b9709143e1f593f00000017eeeb2cb5981ed45649abebde081dcff16c8601de4347e7dd1628ba2daac43b7830991507f30644e72e131a029b85045b68181585d2833e84879b9709143e1f593f00000018082612aa0860151098309612aa08401527f30644e72e131a029b85045b68181585d2833e84879b9709143e1f593f00000017eeeb2cb5981ed45649abebde081dcff16c8601de4347e7dd1628ba2daac43b7830991507f30644e72e131a029b85045b68181585d2833e84879b9709143e1f593f00000018082612ac0860151098309612ac08401527f30644e72e131a029b85045b68181585d2833e84879b9709143e1f593f00000017eeeb2cb5981ed45649abebde081dcff16c8601de4347e7dd1628ba2daac43b7830991507f30644e72e131a029b85045b68181585d2833e84879b9709143e1f593f00000018082612ae0860151098309612ae08401527f30644e72e131a029b85045b68181585d2833e84879b9709143e1f593f00000017eeeb2cb5981ed45649abebde081dcff16c8601de4347e7dd1628ba2daac43b7830991507f30644e72e131a029b85045b68181585d2833e84879b9709143e1f593f00000018082612b00860151098309612b008401527f30644e72e131a029b85045b68181585d2833e84879b9709143e1f593f00000017eeeb2cb5981ed45649abebde081dcff16c8601de4347e7dd1628ba2daac43b7830991507f30644e72e131a029b85045b68181585d2833e84879b9709143e1f593f00000018082612b20860151098309612b208401527f30644e72e131a029b85045b68181585d2833e84879b9709143e1f593f00000017eeeb2cb5981ed45649abebde081dcff16c8601de4347e7dd1628ba2daac43b7830991507f30644e72e131a029b85045b68181585d2833e84879b9709143e1f593f00000018082612b40860151098309612b408401527f30644e72e131a029b85045b68181585d2833e84879b9709143e1f593f00000017eeeb2cb5981ed45649abebde081dcff16c8601de4347e7dd1628ba2daac43b7830991507f30644e72e131a029b85045b68181585d2833e84879b9709143e1f593f00000018082612b60860151098309612b608401527f30644e72e131a029b85045b68181585d2833e84879b9709143e1f593f00000017eeeb2cb5981ed45649abebde081dcff16c8601de4347e7dd1628ba2daac43b7830991507f30644e72e131a029b85045b68181585d2833e84879b9709143e1f593f00000018082612b80860151098309612b808401527f30644e72e131a029b85045b68181585d2833e84879b9709143e1f593f00000017eeeb2cb5981ed45649abebde081dcff16c8601de4347e7dd1628ba2daac43b7830991507f30644e72e131a029b85045b68181585d2833e84879b9709143e1f593f00000018082612ba0860151098309612ba08401527f30644e72e131a029b85045b68181585d2833e84879b9709143e1f593f00000017eeeb2cb5981ed45649abebde081dcff16c8601de4347e7dd1628ba2daac43b7830991507f30644e72e131a029b85045b68181585d2833e84879b9709143e1f593f00000018082612bc0860151098309612bc08401527f30644e72e131a029b85045b68181585d2833e84879b9709143e1f593f00000017eeeb2cb5981ed45649abebde081dcff16c8601de4347e7dd1628ba2daac43b7830991507f30644e72e131a029b85045b68181585d2833e84879b9709143e1f593f00000018082612be0860151098309612be08401527f30644e72e131a029b85045b68181585d2833e84879b9709143e1f593f00000017eeeb2cb5981ed45649abebde081dcff16c8601de4347e7dd1628ba2daac43b7830991507f30644e72e131a029b85045b68181585d2833e84879b9709143e1f593f00000018082612c00860151098309612c008401527f30644e72e131a029b85045b68181585d2833e84879b9709143e1f593f00000017eeeb2cb5981ed45649abebde081dcff16c8601de4347e7dd1628ba2daac43b7830991507f30644e72e131a029b85045b68181585d2833e84879b9709143e1f593f00000018082612c20860151098309612c208401527f30644e72e131a029b85045b68181585d2833e84879b9709143e1f593f00000017eeeb2cb5981ed45649abebde081dcff16c8601de4347e7dd1628ba2daac43b7830991507f30644e72e131a029b85045b68181585d2833e84879b9709143e1f593f00000018082612c40860151098309612c408401527f30644e72e131a029b85045b68181585d2833e84879b9709143e1f593f00000017eeeb2cb5981ed45649abebde081dcff16c8601de4347e7dd1628ba2daac43b7830991507f30644e72e131a029b85045b68181585d2833e84879b9709143e1f593f00000018082612c60860151098309612c608401527f30644e72e131a029b85045b68181585d2833e84879b9709143e1f593f00000017eeeb2cb5981ed45649abebde081dcff16c8601de4347e7dd1628ba2daac43b7830991507f30644e72e131a029b85045b68181585d2833e84879b9709143e1f593f00000018082612c80860151098309612c808401527f30644e72e131a029b85045b68181585d2833e84879b9709143e1f593f00000017eeeb2cb5981ed45649abebde081dcff16c8601de4347e7dd1628ba2daac43b7830991507f30644e72e131a029b85045b68181585d2833e84879b9709143e1f593f00000018082612ca0860151098309612ca08401527f30644e72e131a029b85045b68181585d2833e84879b9709143e1f593f00000017eeeb2cb5981ed45649abebde081dcff16c8601de4347e7dd1628ba2daac43b7830991507f30644e72e131a029b85045b68181585d2833e84879b9709143e1f593f00000018082612cc0860151098309612cc08401527f30644e72e131a029b85045b68181585d2833e84879b9709143e1f593f00000017eeeb2cb5981ed45649abebde081dcff16c8601de4347e7dd1628ba2daac43b7830991507f30644e72e131a029b85045b68181585d2833e84879b9709143e1f593f00000018082612ce0860151098309612ce08401527f30644e72e131a029b85045b68181585d2833e84879b9709143e1f593f00000017eeeb2cb5981ed45649abebde081dcff16c8601de4347e7dd1628ba2daac43b7830991507f30644e72e131a029b85045b68181585d2833e84879b9709143e1f593f00000018082612d00860151098309612d008401527f30644e72e131a029b85045b68181585d2833e84879b9709143e1f593f00000017eeeb2cb5981ed45649abebde081dcff16c8601de4347e7dd1628ba2daac43b7830991507f30644e72e131a029b85045b68181585d2833e84879b9709143e1f593f00000018082612d20860151098309612d208401527f30644e72e131a029b85045b68181585d2833e84879b9709143e1f593f00000017eeeb2cb5981ed45649abebde081dcff16c8601de4347e7dd1628ba2daac43b7830991507f30644e72e131a029b85045b68181585d2833e84879b9709143e1f593f00000018082612d40860151098309612d408401527f30644e72e131a029b85045b68181585d2833e84879b9709143e1f593f00000017eeeb2cb5981ed45649abebde081dcff16c8601de4347e7dd1628ba2daac43b7830991507f30644e72e131a029b85045b68181585d2833e84879b9709143e1f593f00000018082612d60860151098309612d608401527f30644e72e131a029b85045b68181585d2833e84879b9709143e1f593f00000017eeeb2cb5981ed45649abebde081dcff16c8601de4347e7dd1628ba2daac43b7830991507f30644e72e131a029b85045b68181585d2833e84879b9709143e1f593f00000018082612d80860151098309612d808401527f30644e72e131a029b85045b68181585d2833e84879b9709143e1f593f00000017eeeb2cb5981ed45649abebde081dcff16c8601de4347e7dd1628ba2daac43b7830991507f30644e72e131a029b85045b68181585d2833e84879b9709143e1f593f00000018082612da0860151098309612da08401527f30644e72e131a029b85045b68181585d2833e84879b9709143e1f593f00000017eeeb2cb5981ed45649abebde081dcff16c8601de4347e7dd1628ba2daac43b7830991507f30644e72e131a029b85045b68181585d2833e84879b9709143e1f593f00000018082612dc0860151098309612dc08401527f30644e72e131a029b85045b68181585d2833e84879b9709143e1f593f00000017eeeb2cb5981ed45649abebde081dcff16c8601de4347e7dd1628ba2daac43b7830991507f30644e72e131a029b85045b68181585d2833e84879b9709143e1f593f00000018082612de0860151098309612de08401527f30644e72e131a029b85045b68181585d2833e84879b9709143e1f593f00000017eeeb2cb5981ed45649abebde081dcff16c8601de4347e7dd1628ba2daac43b7830991507f30644e72e131a029b85045b68181585d2833e84879b9709143e1f593f00000018082612e00860151098309612e008401527f30644e72e131a029b85045b68181585d2833e84879b9709143e1f593f00000017eeeb2cb5981ed45649abebde081dcff16c8601de4347e7dd1628ba2daac43b7830991507f30644e72e131a029b85045b68181585d2833e84879b9709143e1f593f00000018082612e20860151098309612e208401527f30644e72e131a029b85045b68181585d2833e84879b9709143e1f593f00000017eeeb2cb5981ed45649abebde081dcff16c8601de4347e7dd1628ba2daac43b7830991507f30644e72e131a029b85045b68181585d2833e84879b9709143e1f593f00000018082612e40860151098309612e408401527f30644e72e131a029b85045b68181585d2833e84879b9709143e1f593f00000017eeeb2cb5981ed45649abebde081dcff16c8601de4347e7dd1628ba2daac43b7830991507f30644e72e131a029b85045b68181585d2833e84879b9709143e1f593f00000018082612e60860151098309612e608401527f30644e72e131a029b85045b68181585d2833e84879b9709143e1f593f00000017eeeb2cb5981ed45649abebde081dcff16c8601de4347e7dd1628ba2daac43b7830991507f30644e72e131a029b85045b68181585d2833e84879b9709143e1f593f00000018082612e80860151098309612e808401527f30644e72e131a029b85045b68181585d2833e84879b9709143e1f593f00000017eeeb2cb5981ed45649abebde081dcff16c8601de4347e7dd1628ba2daac43b7830991507f30644e72e131a029b85045b68181585d2833e84879b9709143e1f593f00000018082612ea0860151098309612ea08401527f30644e72e131a029b85045b68181585d2833e84879b9709143e1f593f00000017eeeb2cb5981ed45649abebde081dcff16c8601de4347e7dd1628ba2daac43b7830991507f30644e72e131a029b85045b68181585d2833e84879b9709143e1f593f00000018082612ec0860151098309612ec08401527f30644e72e131a029b85045b68181585d2833e84879b9709143e1f593f00000017eeeb2cb5981ed45649abebde081dcff16c8601de4347e7dd1628ba2daac43b7830991507f30644e72e131a029b85045b68181585d2833e84879b9709143e1f593f00000018082612ee0860151098309612ee08401527f30644e72e131a029b85045b68181585d2833e84879b9709143e1f593f00000017eeeb2cb5981ed45649abebde081dcff16c8601de4347e7dd1628ba2daac43b7830991507f30644e72e131a029b85045b68181585d2833e84879b9709143e1f593f00000018082612f00860151098309612f008401527f30644e72e131a029b85045b68181585d2833e84879b9709143e1f593f00000017eeeb2cb5981ed45649abebde081dcff16c8601de4347e7dd1628ba2daac43b7830991507f30644e72e131a029b85045b68181585d2833e84879b9709143e1f593f00000018082612f20860151098309612f208401527f30644e72e131a029b85045b68181585d2833e84879b9709143e1f593f00000017eeeb2cb5981ed45649abebde081dcff16c8601de4347e7dd1628ba2daac43b7830991507f30644e72e131a029b85045b68181585d2833e84879b9709143e1f593f00000018082612f40860151098309612f408401527f30644e72e131a029b85045b68181585d2833e84879b9709143e1f593f00000017eeeb2cb5981ed45649abebde081dcff16c8601de4347e7dd1628ba2daac43b7830991507f30644e72e131a029b85045b68181585d2833e84879b9709143e1f593f00000018082612f60860151098309612f608401527f30644e72e131a029b85045b68181585d2833e84879b9709143e1f593f00000017eeeb2cb5981ed45649abebde081dcff16c8601de4347e7dd1628ba2daac43b7830991507f30644e72e131a029b85045b68181585d2833e84879b9709143e1f593f00000018082612f80860151098309612f808401527f30644e72e131a029b85045b68181585d2833e84879b9709143e1f593f00000017eeeb2cb5981ed45649abebde081dcff16c8601de4347e7dd1628ba2daac43b7830991507f30644e72e131a029b85045b68181585d2833e84879b9709143e1f593f00000018082612fa0860151098309612fa08401527f30644e72e131a029b85045b68181585d2833e84879b9709143e1f593f00000017eeeb2cb5981ed45649abebde081dcff16c8601de4347e7dd1628ba2daac43b7830991507f30644e72e131a029b85045b68181585d2833e84879b9709143e1f593f00000018082612fc0860151098309612fc08401527f30644e72e131a029b85045b68181585d2833e84879b9709143e1f593f00000017eeeb2cb5981ed45649abebde081dcff16c8601de4347e7dd1628ba2daac43b7830991507f30644e72e131a029b85045b68181585d2833e84879b9709143e1f593f00000018082612fe0860151098309612fe08401527f30644e72e131a029b85045b68181585d2833e84879b9709143e1f593f00000017eeeb2cb5981ed45649abebde081dcff16c8601de4347e7dd1628ba2daac43b7830991507f30644e72e131a029b85045b68181585d2833e84879b9709143e1f593f000000180826130008601510983096130008401527f30644e72e131a029b85045b68181585d2833e84879b9709143e1f593f00000017eeeb2cb5981ed45649abebde081dcff16c8601de4347e7dd1628ba2daac43b7830991507f30644e72e131a029b85045b68181585d2833e84879b9709143e1f593f000000180826130208601510983096130208401527f30644e72e131a029b85045b68181585d2833e84879b9709143e1f593f00000017eeeb2cb5981ed45649abebde081dcff16c8601de4347e7dd1628ba2daac43b7830991507f30644e72e131a029b85045b68181585d2833e84879b9709143e1f593f000000180826130408601510983096130408401527f30644e72e131a029b85045b68181585d2833e84879b9709143e1f593f00000017eeeb2cb5981ed45649abebde081dcff16c8601de4347e7dd1628ba2daac43b7830991507f30644e72e131a029b85045b68181585d2833e84879b9709143e1f593f000000180826130608601510983096130608401527f30644e72e131a029b85045b68181585d2833e84879b9709143e1f593f00000017eeeb2cb5981ed45649abebde081dcff16c8601de4347e7dd1628ba2daac43b7830991507f30644e72e131a029b85045b68181585d2833e84879b9709143e1f593f000000180826130808601510983096130808401527f30644e72e131a029b85045b68181585d2833e84879b9709143e1f593f00000017eeeb2cb5981ed45649abebde081dcff16c8601de4347e7dd1628ba2daac43b7830991507f30644e72e131a029b85045b68181585d2833e84879b9709143e1f593f000000180826130a08601510983096130a08401527f30644e72e131a029b85045b68181585d2833e84879b9709143e1f593f00000017eeeb2cb5981ed45649abebde081dcff16c8601de4347e7dd1628ba2daac43b7830991507f30644e72e131a029b85045b68181585d2833e84879b9709143e1f593f000000180826130c08601510983096130c08401527f30644e72e131a029b85045b68181585d2833e84879b9709143e1f593f00000017eeeb2cb5981ed45649abebde081dcff16c8601de4347e7dd1628ba2daac43b7830991507f30644e72e131a029b85045b68181585d2833e84879b9709143e1f593f000000180826130e08601510983096130e08401527f30644e72e131a029b85045b68181585d2833e84879b9709143e1f593f00000017eeeb2cb5981ed45649abebde081dcff16c8601de4347e7dd1628ba2daac43b7830991507f30644e72e131a029b85045b68181585d2833e84879b9709143e1f593f000000180826131008601510983096131008401527f30644e72e131a029b85045b68181585d2833e84879b9709143e1f593f00000017eeeb2cb5981ed45649abebde081dcff16c8601de4347e7dd1628ba2daac43b7830991507f30644e72e131a029b85045b68181585d2833e84879b9709143e1f593f000000180826131208601510983096131208401527f30644e72e131a029b85045b68181585d2833e84879b9709143e1f593f00000017eeeb2cb5981ed45649abebde081dcff16c8601de4347e7dd1628ba2daac43b7830991507f30644e72e131a029b85045b68181585d2833e84879b9709143e1f593f000000180826131408601510983096131408401527f30644e72e131a029b85045b68181585d2833e84879b9709143e1f593f00000017eeeb2cb5981ed45649abebde081dcff16c8601de4347e7dd1628ba2daac43b7830991507f30644e72e131a029b85045b68181585d2833e84879b9709143e1f593f000000180826131608601510983096131608401527f30644e72e131a029b85045b68181585d2833e84879b9709143e1f593f00000017eeeb2cb5981ed45649abebde081dcff16c8601de4347e7dd1628ba2daac43b7830991507f30644e72e131a029b85045b68181585d2833e84879b9709143e1f593f000000180826131808601510983096131808401527f30644e72e131a029b85045b68181585d2833e84879b9709143e1f593f00000017eeeb2cb5981ed45649abebde081dcff16c8601de4347e7dd1628ba2daac43b7830991507f30644e72e131a029b85045b68181585d2833e84879b9709143e1f593f000000180826131a08601510983096131a08401527f30644e72e131a029b85045b68181585d2833e84879b9709143e1f593f00000017eeeb2cb5981ed45649abebde081dcff16c8601de4347e7dd1628ba2daac43b7830991507f30644e72e131a029b85045b68181585d2833e84879b9709143e1f593f000000180826131c08601510983096131c08401527f30644e72e131a029b85045b68181585d2833e84879b9709143e1f593f00000017eeeb2cb5981ed45649abebde081dcff16c8601de4347e7dd1628ba2daac43b7830991507f30644e72e131a029b85045b68181585d2833e84879b9709143e1f593f000000180826131e08601510983096131e08401527f30644e72e131a029b85045b68181585d2833e84879b9709143e1f593f00000017eeeb2cb5981ed45649abebde081dcff16c8601de4347e7dd1628ba2daac43b7830991507f30644e72e131a029b85045b68181585d2833e84879b9709143e1f593f000000180826132008601510983096132008401527f30644e72e131a029b85045b68181585d2833e84879b9709143e1f593f00000017eeeb2cb5981ed45649abebde081dcff16c8601de4347e7dd1628ba2daac43b7830991507f30644e72e131a029b85045b68181585d2833e84879b9709143e1f593f000000180826132208601510983096132208401527f30644e72e131a029b85045b68181585d2833e84879b9709143e1f593f00000017eeeb2cb5981ed45649abebde081dcff16c8601de4347e7dd1628ba2daac43b7830991507f30644e72e131a029b85045b68181585d2833e84879b9709143e1f593f000000180826132408601510983096132408401527f30644e72e131a029b85045b68181585d2833e84879b9709143e1f593f00000017eeeb2cb5981ed45649abebde081dcff16c8601de4347e7dd1628ba2daac43b7830991507f30644e72e131a029b85045b68181585d2833e84879b9709143e1f593f000000180826132608601510983096132608401527f30644e72e131a029b85045b68181585d2833e84879b9709143e1f593f00000017eeeb2cb5981ed45649abebde081dcff16c8601de4347e7dd1628ba2daac43b7830991507f30644e72e131a029b85045b68181585d2833e84879b9709143e1f593f000000180826132808601510983096132808401527f30644e72e131a029b85045b68181585d2833e84879b9709143e1f593f00000017eeeb2cb5981ed45649abebde081dcff16c8601de4347e7dd1628ba2daac43b7830991507f30644e72e131a029b85045b68181585d2833e84879b9709143e1f593f000000180826132a08601510983096132a08401527f30644e72e131a029b85045b68181585d2833e84879b9709143e1f593f00000017eeeb2cb5981ed45649abebde081dcff16c8601de4347e7dd1628ba2daac43b7830991507f30644e72e131a029b85045b68181585d2833e84879b9709143e1f593f000000180826132c08601510983096132c08401527f30644e72e131a029b85045b68181585d2833e84879b9709143e1f593f00000017eeeb2cb5981ed45649abebde081dcff16c8601de4347e7dd1628ba2daac43b7830991507f30644e72e131a029b85045b68181585d2833e84879b9709143e1f593f000000180826132e08601510983096132e08401527f30644e72e131a029b85045b68181585d2833e84879b9709143e1f593f00000017eeeb2cb5981ed45649abebde081dcff16c8601de4347e7dd1628ba2daac43b7830991507f30644e72e131a029b85045b68181585d2833e84879b9709143e1f593f000000180826133008601510983096133008401527f30644e72e131a029b85045b68181585d2833e84879b9709143e1f593f00000017eeeb2cb5981ed45649abebde081dcff16c8601de4347e7dd1628ba2daac43b7830991507f30644e72e131a029b85045b68181585d2833e84879b9709143e1f593f000000180826133208601510983096133208401527f30644e72e131a029b85045b68181585d2833e84879b9709143e1f593f00000017eeeb2cb5981ed45649abebde081dcff16c8601de4347e7dd1628ba2daac43b7830991507f30644e72e131a029b85045b68181585d2833e84879b9709143e1f593f000000180826133408601510983096133408401527f30644e72e131a029b85045b68181585d2833e84879b9709143e1f593f00000017eeeb2cb5981ed45649abebde081dcff16c8601de4347e7dd1628ba2daac43b7830991507f30644e72e131a029b85045b68181585d2833e84879b9709143e1f593f000000180826133608601510983096133608401527f30644e72e131a029b85045b68181585d2833e84879b9709143e1f593f00000017eeeb2cb5981ed45649abebde081dcff16c8601de4347e7dd1628ba2daac43b7830991507f30644e72e131a029b85045b68181585d2833e84879b9709143e1f593f000000180826133808601510983096133808401527f30644e72e131a029b85045b68181585d2833e84879b9709143e1f593f00000017eeeb2cb5981ed45649abebde081dcff16c8601de4347e7dd1628ba2daac43b7830991507f30644e72e131a029b85045b68181585d2833e84879b9709143e1f593f000000180826133a08601510983096133a08401527f30644e72e131a029b85045b68181585d2833e84879b9709143e1f593f00000017eeeb2cb5981ed45649abebde081dcff16c8601de4347e7dd1628ba2daac43b7830991507f30644e72e131a029b85045b68181585d2833e84879b9709143e1f593f000000180826133c08601510983096133c08401527f30644e72e131a029b85045b68181585d2833e84879b9709143e1f593f00000017eeeb2cb5981ed45649abebde081dcff16c8601de4347e7dd1628ba2daac43b7830991507f30644e72e131a029b85045b68181585d2833e84879b9709143e1f593f000000180826133e08601510983096133e08401527f30644e72e131a029b85045b68181585d2833e84879b9709143e1f593f00000017eeeb2cb5981ed45649abebde081dcff16c8601de4347e7dd1628ba2daac43b7830991507f30644e72e131a029b85045b68181585d2833e84879b9709143e1f593f000000180826134008601510983096134008401527f30644e72e131a029b85045b68181585d2833e84879b9709143e1f593f00000017eeeb2cb5981ed45649abebde081dcff16c8601de4347e7dd1628ba2daac43b7830991507f30644e72e131a029b85045b68181585d2833e84879b9709143e1f593f000000180826134208601510983096134208401527f30644e72e131a029b85045b68181585d2833e84879b9709143e1f593f00000017eeeb2cb5981ed45649abebde081dcff16c8601de4347e7dd1628ba2daac43b7830991507f30644e72e131a029b85045b68181585d2833e84879b9709143e1f593f000000180826134408601510983096134408401527f30644e72e131a029b85045b68181585d2833e84879b9709143e1f593f00000017eeeb2cb5981ed45649abebde081dcff16c8601de4347e7dd1628ba2daac43b7830991507f30644e72e131a029b85045b68181585d2833e84879b9709143e1f593f000000180826134608601510983096134608401527f30644e72e131a029b85045b68181585d2833e84879b9709143e1f593f00000017eeeb2cb5981ed45649abebde081dcff16c8601de4347e7dd1628ba2daac43b7830991507f30644e72e131a029b85045b68181585d2833e84879b9709143e1f593f000000180826134808601510983096134808401527f30644e72e131a029b85045b68181585d2833e84879b9709143e1f593f00000017eeeb2cb5981ed45649abebde081dcff16c8601de4347e7dd1628ba2daac43b7830991507f30644e72e131a029b85045b68181585d2833e84879b9709143e1f593f000000180826134a08601510983096134a08401527f30644e72e131a029b85045b68181585d2833e84879b9709143e1f593f00000017eeeb2cb5981ed45649abebde081dcff16c8601de4347e7dd1628ba2daac43b7830991507f30644e72e131a029b85045b68181585d2833e84879b9709143e1f593f000000180826134c08601510983096134c08401527f30644e72e131a029b85045b68181585d2833e84879b9709143e1f593f00000017eeeb2cb5981ed45649abebde081dcff16c8601de4347e7dd1628ba2daac43b7830991507f30644e72e131a029b85045b68181585d2833e84879b9709143e1f593f000000180826134e08601510983096134e08401527f30644e72e131a029b85045b68181585d2833e84879b9709143e1f593f00000017eeeb2cb5981ed45649abebde081dcff16c8601de4347e7dd1628ba2daac43b7830991507f30644e72e131a029b85045b68181585d2833e84879b9709143e1f593f000000180826135008601510983096135008401527f30644e72e131a029b85045b68181585d2833e84879b9709143e1f593f00000017eeeb2cb5981ed45649abebde081dcff16c8601de4347e7dd1628ba2daac43b7830991507f30644e72e131a029b85045b68181585d2833e84879b9709143e1f593f000000180826135208601510983096135208401527f30644e72e131a029b85045b68181585d2833e84879b9709143e1f593f00000017eeeb2cb5981ed45649abebde081dcff16c8601de4347e7dd1628ba2daac43b7830991507f30644e72e131a029b85045b68181585d2833e84879b9709143e1f593f000000180826135408601510983096135408401527f30644e72e131a029b85045b68181585d2833e84879b9709143e1f593f00000017eeeb2cb5981ed45649abebde081dcff16c8601de4347e7dd1628ba2daac43b7830991507f30644e72e131a029b85045b68181585d2833e84879b9709143e1f593f000000180826135608601510983096135608401527f30644e72e131a029b85045b68181585d2833e84879b9709143e1f593f00000017eeeb2cb5981ed45649abebde081dcff16c8601de4347e7dd1628ba2daac43b7830991507f30644e72e131a029b85045b68181585d2833e84879b9709143e1f593f000000180826135808601510983096135808401527f30644e72e131a029b85045b68181585d2833e84879b9709143e1f593f00000017eeeb2cb5981ed45649abebde081dcff16c8601de4347e7dd1628ba2daac43b7830991507f30644e72e131a029b85045b68181585d2833e84879b9709143e1f593f000000180826135a08601510983096135a08401527f30644e72e131a029b85045b68181585d2833e84879b9709143e1f593f00000017eeeb2cb5981ed45649abebde081dcff16c8601de4347e7dd1628ba2daac43b7830991507f30644e72e131a029b85045b68181585d2833e84879b9709143e1f593f000000180826135c08601510983096135c08401527f30644e72e131a029b85045b68181585d2833e84879b9709143e1f593f00000017eeeb2cb5981ed45649abebde081dcff16c8601de4347e7dd1628ba2daac43b7830991507f30644e72e131a029b85045b68181585d2833e84879b9709143e1f593f000000180826135e08601510983096135e08401527f30644e72e131a029b85045b68181585d2833e84879b9709143e1f593f00000017eeeb2cb5981ed45649abebde081dcff16c8601de4347e7dd1628ba2daac43b7830991507f30644e72e131a029b85045b68181585d2833e84879b9709143e1f593f000000180826136008601510983096136008401527f30644e72e131a029b85045b68181585d2833e84879b9709143e1f593f00000017eeeb2cb5981ed45649abebde081dcff16c8601de4347e7dd1628ba2daac43b7830991507f30644e72e131a029b85045b68181585d2833e84879b9709143e1f593f000000180826136208601510983096136208401527f30644e72e131a029b85045b68181585d2833e84879b9709143e1f593f00000017eeeb2cb5981ed45649abebde081dcff16c8601de4347e7dd1628ba2daac43b7830991507f30644e72e131a029b85045b68181585d2833e84879b9709143e1f593f000000180826136408601510983096136408401527f30644e72e131a029b85045b68181585d2833e84879b9709143e1f593f00000017eeeb2cb5981ed45649abebde081dcff16c8601de4347e7dd1628ba2daac43b7830991507f30644e72e131a029b85045b68181585d2833e84879b9709143e1f593f000000180826136608601510983096136608401527f30644e72e131a029b85045b68181585d2833e84879b9709143e1f593f00000017eeeb2cb5981ed45649abebde081dcff16c8601de4347e7dd1628ba2daac43b7830991507f30644e72e131a029b85045b68181585d2833e84879b9709143e1f593f000000180826136808601510983096136808401527f30644e72e131a029b85045b68181585d2833e84879b9709143e1f593f00000017eeeb2cb5981ed45649abebde081dcff16c8601de4347e7dd1628ba2daac43b7830991507f30644e72e131a029b85045b68181585d2833e84879b9709143e1f593f000000180826136a08601510983096136a08401527f30644e72e131a029b85045b68181585d2833e84879b9709143e1f593f00000017eeeb2cb5981ed45649abebde081dcff16c8601de4347e7dd1628ba2daac43b7830991507f30644e72e131a029b85045b68181585d2833e84879b9709143e1f593f000000180826136c08601510983096136c08401527f30644e72e131a029b85045b68181585d2833e84879b9709143e1f593f00000017eeeb2cb5981ed45649abebde081dcff16c8601de4347e7dd1628ba2daac43b7830991507f30644e72e131a029b85045b68181585d2833e84879b9709143e1f593f000000180826136e08601510983096136e08401527f30644e72e131a029b85045b68181585d2833e84879b9709143e1f593f00000017eeeb2cb5981ed45649abebde081dcff16c8601de4347e7dd1628ba2daac43b7830991507f30644e72e131a029b85045b68181585d2833e84879b9709143e1f593f000000180826137008601510983096137008401527f30644e72e131a029b85045b68181585d2833e84879b9709143e1f593f00000017eeeb2cb5981ed45649abebde081dcff16c8601de4347e7dd1628ba2daac43b7830991507f30644e72e131a029b85045b68181585d2833e84879b9709143e1f593f000000180826137208601510983096137208401527f30644e72e131a029b85045b68181585d2833e84879b9709143e1f593f00000017eeeb2cb5981ed45649abebde081dcff16c8601de4347e7dd1628ba2daac43b7830991507f30644e72e131a029b85045b68181585d2833e84879b9709143e1f593f000000180826137408601510983096137408401527f30644e72e131a029b85045b68181585d2833e84879b9709143e1f593f00000017eeeb2cb5981ed45649abebde081dcff16c8601de4347e7dd1628ba2daac43b7830991507f30644e72e131a029b85045b68181585d2833e84879b9709143e1f593f000000180826137608601510983096137608401527f30644e72e131a029b85045b68181585d2833e84879b9709143e1f593f00000017eeeb2cb5981ed45649abebde081dcff16c8601de4347e7dd1628ba2daac43b7830991507f30644e72e131a029b85045b68181585d2833e84879b9709143e1f593f000000180826137808601510983096137808401527f30644e72e131a029b85045b68181585d2833e84879b9709143e1f593f00000017eeeb2cb5981ed45649abebde081dcff16c8601de4347e7dd1628ba2daac43b7830991507f30644e72e131a029b85045b68181585d2833e84879b9709143e1f593f000000180826137a08601510983096137a08401527f30644e72e131a029b85045b68181585d2833e84879b9709143e1f593f00000017eeeb2cb5981ed45649abebde081dcff16c8601de4347e7dd1628ba2daac43b7830991507f30644e72e131a029b85045b68181585d2833e84879b9709143e1f593f000000180826137c08601510983096137c08401527f30644e72e131a029b85045b68181585d2833e84879b9709143e1f593f00000017eeeb2cb5981ed45649abebde081dcff16c8601de4347e7dd1628ba2daac43b7830991507f30644e72e131a029b85045b68181585d2833e84879b9709143e1f593f000000180826137e08601510983096137e08401527f30644e72e131a029b85045b68181585d2833e84879b9709143e1f593f00000017eeeb2cb5981ed45649abebde081dcff16c8601de4347e7dd1628ba2daac43b7830991507f30644e72e131a029b85045b68181585d2833e84879b9709143e1f593f000000180826138008601510983096138008401527f30644e72e131a029b85045b68181585d2833e84879b9709143e1f593f00000017eeeb2cb5981ed45649abebde081dcff16c8601de4347e7dd1628ba2daac43b7830991507f30644e72e131a029b85045b68181585d2833e84879b9709143e1f593f000000180826138208601510983096138208401527f30644e72e131a029b85045b68181585d2833e84879b9709143e1f593f00000017eeeb2cb5981ed45649abebde081dcff16c8601de4347e7dd1628ba2daac43b7830991507f30644e72e131a029b85045b68181585d2833e84879b9709143e1f593f000000180826138408601510983096138408401527f30644e72e131a029b85045b68181585d2833e84879b9709143e1f593f00000017eeeb2cb5981ed45649abebde081dcff16c8601de4347e7dd1628ba2daac43b7830991507f30644e72e131a029b85045b68181585d2833e84879b9709143e1f593f000000180826138608601510983096138608401527f30644e72e131a029b85045b68181585d2833e84879b9709143e1f593f00000017eeeb2cb5981ed45649abebde081dcff16c8601de4347e7dd1628ba2daac43b7830991507f30644e72e131a029b85045b68181585d2833e84879b9709143e1f593f000000180826138808601510983096138808401527f30644e72e131a029b85045b68181585d2833e84879b9709143e1f593f00000017eeeb2cb5981ed45649abebde081dcff16c8601de4347e7dd1628ba2daac43b7830991507f30644e72e131a029b85045b68181585d2833e84879b9709143e1f593f000000180826138a08601510983096138a08401527f30644e72e131a029b85045b68181585d2833e84879b9709143e1f593f00000017eeeb2cb5981ed45649abebde081dcff16c8601de4347e7dd1628ba2daac43b7830991507f30644e72e131a029b85045b68181585d2833e84879b9709143e1f593f000000180826138c08601510983096138c08401527f30644e72e131a029b85045b68181585d2833e84879b9709143e1f593f00000017eeeb2cb5981ed45649abebde081dcff16c8601de4347e7dd1628ba2daac43b7830991507f30644e72e131a029b85045b68181585d2833e84879b9709143e1f593f000000180826138e08601510983096138e08401527f30644e72e131a029b85045b68181585d2833e84879b9709143e1f593f00000017eeeb2cb5981ed45649abebde081dcff16c8601de4347e7dd1628ba2daac43b7830991507f30644e72e131a029b85045b68181585d2833e84879b9709143e1f593f000000180826139008601510983096139008401527f30644e72e131a029b85045b68181585d2833e84879b9709143e1f593f00000017eeeb2cb5981ed45649abebde081dcff16c8601de4347e7dd1628ba2daac43b7830991507f30644e72e131a029b85045b68181585d2833e84879b9709143e1f593f000000180826139208601510983096139208401527f30644e72e131a029b85045b68181585d2833e84879b9709143e1f593f00000017eeeb2cb5981ed45649abebde081dcff16c8601de4347e7dd1628ba2daac43b7830991507f30644e72e131a029b85045b68181585d2833e84879b9709143e1f593f000000180826139408601510983096139408401527f30644e72e131a029b85045b68181585d2833e84879b9709143e1f593f00000017eeeb2cb5981ed45649abebde081dcff16c8601de4347e7dd1628ba2daac43b7830991507f30644e72e131a029b85045b68181585d2833e84879b9709143e1f593f000000180826139608601510983096139608401527f30644e72e131a029b85045b68181585d2833e84879b9709143e1f593f00000017eeeb2cb5981ed45649abebde081dcff16c8601de4347e7dd1628ba2daac43b7830991507f30644e72e131a029b85045b68181585d2833e84879b9709143e1f593f000000180826139808601510983096139808401527f30644e72e131a029b85045b68181585d2833e84879b9709143e1f593f00000017eeeb2cb5981ed45649abebde081dcff16c8601de4347e7dd1628ba2daac43b7830991507f30644e72e131a029b85045b68181585d2833e84879b9709143e1f593f000000180826139a08601510983096139a08401527f30644e72e131a029b85045b68181585d2833e84879b9709143e1f593f00000017eeeb2cb5981ed45649abebde081dcff16c8601de4347e7dd1628ba2daac43b7830991507f30644e72e131a029b85045b68181585d2833e84879b9709143e1f593f000000180826139c08601510983096139c08401527f30644e72e131a029b85045b68181585d2833e84879b9709143e1f593f00000017eeeb2cb5981ed45649abebde081dcff16c8601de4347e7dd1628ba2daac43b7830991507f30644e72e131a029b85045b68181585d2833e84879b9709143e1f593f000000180826139e08601510983096139e08401527f30644e72e131a029b85045b68181585d2833e84879b9709143e1f593f00000017eeeb2cb5981ed45649abebde081dcff16c8601de4347e7dd1628ba2daac43b7830991507f30644e72e131a029b85045b68181585d2833e84879b9709143e1f593f00000018082613a00860151098309613a008401527f30644e72e131a029b85045b68181585d2833e84879b9709143e1f593f00000017eeeb2cb5981ed45649abebde081dcff16c8601de4347e7dd1628ba2daac43b7830991507f30644e72e131a029b85045b68181585d2833e84879b9709143e1f593f00000018082613a20860151098309613a208401527f30644e72e131a029b85045b68181585d2833e84879b9709143e1f593f00000017eeeb2cb5981ed45649abebde081dcff16c8601de4347e7dd1628ba2daac43b7830991507f30644e72e131a029b85045b68181585d2833e84879b9709143e1f593f00000018082613a40860151098309613a408401527f30644e72e131a029b85045b68181585d2833e84879b9709143e1f593f00000017eeeb2cb5981ed45649abebde081dcff16c8601de4347e7dd1628ba2daac43b7830991507f30644e72e131a029b85045b68181585d2833e84879b9709143e1f593f00000018082613a60860151098309613a608401527f30644e72e131a029b85045b68181585d2833e84879b9709143e1f593f00000017eeeb2cb5981ed45649abebde081dcff16c8601de4347e7dd1628ba2daac43b7830991507f30644e72e131a029b85045b68181585d2833e84879b9709143e1f593f00000018082613a80860151098309613a808401527f30644e72e131a029b85045b68181585d2833e84879b9709143e1f593f00000017eeeb2cb5981ed45649abebde081dcff16c8601de4347e7dd1628ba2daac43b7830991507f30644e72e131a029b85045b68181585d2833e84879b9709143e1f593f00000018082613aa0860151098309613aa08401527f30644e72e131a029b85045b68181585d2833e84879b9709143e1f593f00000017eeeb2cb5981ed45649abebde081dcff16c8601de4347e7dd1628ba2daac43b7830991507f30644e72e131a029b85045b68181585d2833e84879b9709143e1f593f00000018082613ac0860151098309613ac08401527f30644e72e131a029b85045b68181585d2833e84879b9709143e1f593f00000017eeeb2cb5981ed45649abebde081dcff16c8601de4347e7dd1628ba2daac43b7830991507f30644e72e131a029b85045b68181585d2833e84879b9709143e1f593f00000018082613ae0860151098309613ae08401527f30644e72e131a029b85045b68181585d2833e84879b9709143e1f593f00000017eeeb2cb5981ed45649abebde081dcff16c8601de4347e7dd1628ba2daac43b7830991507f30644e72e131a029b85045b68181585d2833e84879b9709143e1f593f00000018082613b00860151098309613b008401527f30644e72e131a029b85045b68181585d2833e84879b9709143e1f593f00000017eeeb2cb5981ed45649abebde081dcff16c8601de4347e7dd1628ba2daac43b7830991507f30644e72e131a029b85045b68181585d2833e84879b9709143e1f593f00000018082613b20860151098309613b208401527f30644e72e131a029b85045b68181585d2833e84879b9709143e1f593f00000017eeeb2cb5981ed45649abebde081dcff16c8601de4347e7dd1628ba2daac43b7830991507f30644e72e131a029b85045b68181585d2833e84879b9709143e1f593f00000018082613b40860151098309613b408401527f30644e72e131a029b85045b68181585d2833e84879b9709143e1f593f00000017eeeb2cb5981ed45649abebde081dcff16c8601de4347e7dd1628ba2daac43b7830991507f30644e72e131a029b85045b68181585d2833e84879b9709143e1f593f00000018082613b60860151098309613b608401527f30644e72e131a029b85045b68181585d2833e84879b9709143e1f593f00000017eeeb2cb5981ed45649abebde081dcff16c8601de4347e7dd1628ba2daac43b7830991507f30644e72e131a029b85045b68181585d2833e84879b9709143e1f593f00000018082613b80860151098309613b808401527f30644e72e131a029b85045b68181585d2833e84879b9709143e1f593f00000017eeeb2cb5981ed45649abebde081dcff16c8601de4347e7dd1628ba2daac43b7830991507f30644e72e131a029b85045b68181585d2833e84879b9709143e1f593f00000018082613ba0860151098309613ba08401527f30644e72e131a029b85045b68181585d2833e84879b9709143e1f593f00000017eeeb2cb5981ed45649abebde081dcff16c8601de4347e7dd1628ba2daac43b7830991507f30644e72e131a029b85045b68181585d2833e84879b9709143e1f593f00000018082613bc0860151098309613bc08401527f30644e72e131a029b85045b68181585d2833e84879b9709143e1f593f00000017eeeb2cb5981ed45649abebde081dcff16c8601de4347e7dd1628ba2daac43b7830991507f30644e72e131a029b85045b68181585d2833e84879b9709143e1f593f00000018082613be0860151098309613be08401527f30644e72e131a029b85045b68181585d2833e84879b9709143e1f593f00000017eeeb2cb5981ed45649abebde081dcff16c8601de4347e7dd1628ba2daac43b7830991507f30644e72e131a029b85045b68181585d2833e84879b9709143e1f593f00000018082613c00860151098309613c008401527f30644e72e131a029b85045b68181585d2833e84879b9709143e1f593f00000017eeeb2cb5981ed45649abebde081dcff16c8601de4347e7dd1628ba2daac43b7830991507f30644e72e131a029b85045b68181585d2833e84879b9709143e1f593f00000018082613c20860151098309613c208401527f30644e72e131a029b85045b68181585d2833e84879b9709143e1f593f00000017eeeb2cb5981ed45649abebde081dcff16c8601de4347e7dd1628ba2daac43b7830991507f30644e72e131a029b85045b68181585d2833e84879b9709143e1f593f00000018082613c40860151098309613c408401527f30644e72e131a029b85045b68181585d2833e84879b9709143e1f593f00000017eeeb2cb5981ed45649abebde081dcff16c8601de4347e7dd1628ba2daac43b7830991507f30644e72e131a029b85045b68181585d2833e84879b9709143e1f593f00000018082613c60860151098309613c608401527f30644e72e131a029b85045b68181585d2833e84879b9709143e1f593f00000017eeeb2cb5981ed45649abebde081dcff16c8601de4347e7dd1628ba2daac43b7830991507f30644e72e131a029b85045b68181585d2833e84879b9709143e1f593f00000018082613c80860151098309613c808401527f30644e72e131a029b85045b68181585d2833e84879b9709143e1f593f00000017eeeb2cb5981ed45649abebde081dcff16c8601de4347e7dd1628ba2daac43b7830991507f30644e72e131a029b85045b68181585d2833e84879b9709143e1f593f00000018082613ca0860151098309613ca08401527f30644e72e131a029b85045b68181585d2833e84879b9709143e1f593f00000017eeeb2cb5981ed45649abebde081dcff16c8601de4347e7dd1628ba2daac43b7830991507f30644e72e131a029b85045b68181585d2833e84879b9709143e1f593f00000018082613cc0860151098309613cc08401527f30644e72e131a029b85045b68181585d2833e84879b9709143e1f593f00000017eeeb2cb5981ed45649abebde081dcff16c8601de4347e7dd1628ba2daac43b7830991507f30644e72e131a029b85045b68181585d2833e84879b9709143e1f593f00000018082613ce0860151098309613ce08401527f30644e72e131a029b85045b68181585d2833e84879b9709143e1f593f00000017eeeb2cb5981ed45649abebde081dcff16c8601de4347e7dd1628ba2daac43b7830991507f30644e72e131a029b85045b68181585d2833e84879b9709143e1f593f00000018082613d00860151098309613d008401527f30644e72e131a029b85045b68181585d2833e84879b9709143e1f593f00000017eeeb2cb5981ed45649abebde081dcff16c8601de4347e7dd1628ba2daac43b7830991507f30644e72e131a029b85045b68181585d2833e84879b9709143e1f593f00000018082613d20860151098309613d208401527f30644e72e131a029b85045b68181585d2833e84879b9709143e1f593f00000017eeeb2cb5981ed45649abebde081dcff16c8601de4347e7dd1628ba2daac43b7830991507f30644e72e131a029b85045b68181585d2833e84879b9709143e1f593f00000018082613d40860151098309613d408401527f30644e72e131a029b85045b68181585d2833e84879b9709143e1f593f00000017eeeb2cb5981ed45649abebde081dcff16c8601de4347e7dd1628ba2daac43b7830991507f30644e72e131a029b85045b68181585d2833e84879b9709143e1f593f00000018082613d60860151098309613d608401527f30644e72e131a029b85045b68181585d2833e84879b9709143e1f593f00000017eeeb2cb5981ed45649abebde081dcff16c8601de4347e7dd1628ba2daac43b7830991507f30644e72e131a029b85045b68181585d2833e84879b9709143e1f593f00000018082613d80860151098309613d808401527f30644e72e131a029b85045b68181585d2833e84879b9709143e1f593f00000017eeeb2cb5981ed45649abebde081dcff16c8601de4347e7dd1628ba2daac43b7830991507f30644e72e131a029b85045b68181585d2833e84879b9709143e1f593f00000018082613da0860151098309613da08401527f30644e72e131a029b85045b68181585d2833e84879b9709143e1f593f00000017eeeb2cb5981ed45649abebde081dcff16c8601de4347e7dd1628ba2daac43b7830991507f30644e72e131a029b85045b68181585d2833e84879b9709143e1f593f00000018082613dc0860151098309613dc08401527f30644e72e131a029b85045b68181585d2833e84879b9709143e1f593f00000017eeeb2cb5981ed45649abebde081dcff16c8601de4347e7dd1628ba2daac43b7830991507f30644e72e131a029b85045b68181585d2833e84879b9709143e1f593f00000018082613de0860151098309613de08401527f30644e72e131a029b85045b68181585d2833e84879b9709143e1f593f00000017eeeb2cb5981ed45649abebde081dcff16c8601de4347e7dd1628ba2daac43b7830991507f30644e72e131a029b85045b68181585d2833e84879b9709143e1f593f00000018082613e00860151098309613e008401527f30644e72e131a029b85045b68181585d2833e84879b9709143e1f593f00000017eeeb2cb5981ed45649abebde081dcff16c8601de4347e7dd1628ba2daac43b7830991507f30644e72e131a029b85045b68181585d2833e84879b9709143e1f593f00000018082613e20860151098309613e208401527f30644e72e131a029b85045b68181585d2833e84879b9709143e1f593f00000017eeeb2cb5981ed45649abebde081dcff16c8601de4347e7dd1628ba2daac43b7830991507f30644e72e131a029b85045b68181585d2833e84879b9709143e1f593f00000018082613e40860151098309613e408401527f30644e72e131a029b85045b68181585d2833e84879b9709143e1f593f00000017eeeb2cb5981ed45649abebde081dcff16c8601de4347e7dd1628ba2daac43b7830991507f30644e72e131a029b85045b68181585d2833e84879b9709143e1f593f00000018082613e60860151098309613e608401527f30644e72e131a029b85045b68181585d2833e84879b9709143e1f593f00000017eeeb2cb5981ed45649abebde081dcff16c8601de4347e7dd1628ba2daac43b7830991507f30644e72e131a029b85045b68181585d2833e84879b9709143e1f593f00000018082613e80860151098309613e808401527f30644e72e131a029b85045b68181585d2833e84879b9709143e1f593f00000017eeeb2cb5981ed45649abebde081dcff16c8601de4347e7dd1628ba2daac43b7830991507f30644e72e131a029b85045b68181585d2833e84879b9709143e1f593f00000018082613ea0860151098309613ea08401527f30644e72e131a029b85045b68181585d2833e84879b9709143e1f593f00000017eeeb2cb5981ed45649abebde081dcff16c8601de4347e7dd1628ba2daac43b7830991507f30644e72e131a029b85045b68181585d2833e84879b9709143e1f593f00000018082613ec0860151098309613ec08401527f30644e72e131a029b85045b68181585d2833e84879b9709143e1f593f00000017eeeb2cb5981ed45649abebde081dcff16c8601de4347e7dd1628ba2daac43b7830991507f30644e72e131a029b85045b68181585d2833e84879b9709143e1f593f00000018082613ee0860151098309613ee08401527f30644e72e131a029b85045b68181585d2833e84879b9709143e1f593f00000017eeeb2cb5981ed45649abebde081dcff16c8601de4347e7dd1628ba2daac43b7830991507f30644e72e131a029b85045b68181585d2833e84879b9709143e1f593f00000018082613f00860151098309613f008401527f30644e72e131a029b85045b68181585d2833e84879b9709143e1f593f00000017eeeb2cb5981ed45649abebde081dcff16c8601de4347e7dd1628ba2daac43b7830991507f30644e72e131a029b85045b68181585d2833e84879b9709143e1f593f00000018082613f20860151098309613f208401527f30644e72e131a029b85045b68181585d2833e84879b9709143e1f593f00000017eeeb2cb5981ed45649abebde081dcff16c8601de4347e7dd1628ba2daac43b7830991507f30644e72e131a029b85045b68181585d2833e84879b9709143e1f593f00000018082613f40860151098309613f408401527f30644e72e131a029b85045b68181585d2833e84879b9709143e1f593f00000017eeeb2cb5981ed45649abebde081dcff16c8601de4347e7dd1628ba2daac43b7830991507f30644e72e131a029b85045b68181585d2833e84879b9709143e1f593f00000018082613f60860151098309613f608401527f30644e72e131a029b85045b68181585d2833e84879b9709143e1f593f00000017eeeb2cb5981ed45649abebde081dcff16c8601de4347e7dd1628ba2daac43b7830991507f30644e72e131a029b85045b68181585d2833e84879b9709143e1f593f00000018082613f80860151098309613f808401527f30644e72e131a029b85045b68181585d2833e84879b9709143e1f593f00000017eeeb2cb5981ed45649abebde081dcff16c8601de4347e7dd1628ba2daac43b7830991507f30644e72e131a029b85045b68181585d2833e84879b9709143e1f593f00000018082613fa0860151098309613fa08401527f30644e72e131a029b85045b68181585d2833e84879b9709143e1f593f00000017eeeb2cb5981ed45649abebde081dcff16c8601de4347e7dd1628ba2daac43b7830991507f30644e72e131a029b85045b68181585d2833e84879b9709143e1f593f00000018082613fc0860151098309613fc08401527f30644e72e131a029b85045b68181585d2833e84879b9709143e1f593f00000017eeeb2cb5981ed45649abebde081dcff16c8601de4347e7dd1628ba2daac43b7830991507f30644e72e131a029b85045b68181585d2833e84879b9709143e1f593f00000018082613fe0860151098309613fe08401527f30644e72e131a029b85045b68181585d2833e84879b9709143e1f593f00000017eeeb2cb5981ed45649abebde081dcff16c8601de4347e7dd1628ba2daac43b7830991507f30644e72e131a029b85045b68181585d2833e84879b9709143e1f593f000000180826140008601510983096140008401527f30644e72e131a029b85045b68181585d2833e84879b9709143e1f593f00000017eeeb2cb5981ed45649abebde081dcff16c8601de4347e7dd1628ba2daac43b7830991507f30644e72e131a029b85045b68181585d2833e84879b9709143e1f593f000000180826140208601510983096140208401527f30644e72e131a029b85045b68181585d2833e84879b9709143e1f593f00000017eeeb2cb5981ed45649abebde081dcff16c8601de4347e7dd1628ba2daac43b7830991507f30644e72e131a029b85045b68181585d2833e84879b9709143e1f593f000000180826140408601510983096140408401527f30644e72e131a029b85045b68181585d2833e84879b9709143e1f593f00000017eeeb2cb5981ed45649abebde081dcff16c8601de4347e7dd1628ba2daac43b7830991507f30644e72e131a029b85045b68181585d2833e84879b9709143e1f593f000000180826140608601510983096140608401527f30644e72e131a029b85045b68181585d2833e84879b9709143e1f593f00000017eeeb2cb5981ed45649abebde081dcff16c8601de4347e7dd1628ba2daac43b7830991507f30644e72e131a029b85045b68181585d2833e84879b9709143e1f593f000000180826140808601510983096140808401527f30644e72e131a029b85045b68181585d2833e84879b9709143e1f593f00000017eeeb2cb5981ed45649abebde081dcff16c8601de4347e7dd1628ba2daac43b7830991507f30644e72e131a029b85045b68181585d2833e84879b9709143e1f593f000000180826140a08601510983096140a08401527f30644e72e131a029b85045b68181585d2833e84879b9709143e1f593f00000017eeeb2cb5981ed45649abebde081dcff16c8601de4347e7dd1628ba2daac43b7830991507f30644e72e131a029b85045b68181585d2833e84879b9709143e1f593f000000180826140c08601510983096140c08401527f30644e72e131a029b85045b68181585d2833e84879b9709143e1f593f00000017eeeb2cb5981ed45649abebde081dcff16c8601de4347e7dd1628ba2daac43b7830991507f30644e72e131a029b85045b68181585d2833e84879b9709143e1f593f000000180826140e08601510983096140e08401527f30644e72e131a029b85045b68181585d2833e84879b9709143e1f593f00000017eeeb2cb5981ed45649abebde081dcff16c8601de4347e7dd1628ba2daac43b7830991507f30644e72e131a029b85045b68181585d2833e84879b9709143e1f593f000000180826141008601510983096141008401527f30644e72e131a029b85045b68181585d2833e84879b9709143e1f593f00000017eeeb2cb5981ed45649abebde081dcff16c8601de4347e7dd1628ba2daac43b7830991507f30644e72e131a029b85045b68181585d2833e84879b9709143e1f593f000000180826141208601510983096141208401527f30644e72e131a029b85045b68181585d2833e84879b9709143e1f593f00000017eeeb2cb5981ed45649abebde081dcff16c8601de4347e7dd1628ba2daac43b7830991507f30644e72e131a029b85045b68181585d2833e84879b9709143e1f593f000000180826141408601510983096141408401527f30644e72e131a029b85045b68181585d2833e84879b9709143e1f593f00000017eeeb2cb5981ed45649abebde081dcff16c8601de4347e7dd1628ba2daac43b7830991507f30644e72e131a029b85045b68181585d2833e84879b9709143e1f593f000000180826141608601510983096141608401527f30644e72e131a029b85045b68181585d2833e84879b9709143e1f593f00000017eeeb2cb5981ed45649abebde081dcff16c8601de4347e7dd1628ba2daac43b7830991507f30644e72e131a029b85045b68181585d2833e84879b9709143e1f593f000000180826141808601510983096141808401527f30644e72e131a029b85045b68181585d2833e84879b9709143e1f593f00000017eeeb2cb5981ed45649abebde081dcff16c8601de4347e7dd1628ba2daac43b7830991507f30644e72e131a029b85045b68181585d2833e84879b9709143e1f593f000000180826141a08601510983096141a08401527f30644e72e131a029b85045b68181585d2833e84879b9709143e1f593f00000017eeeb2cb5981ed45649abebde081dcff16c8601de4347e7dd1628ba2daac43b7830991507f30644e72e131a029b85045b68181585d2833e84879b9709143e1f593f000000180826141c08601510983096141c08401527f30644e72e131a029b85045b68181585d2833e84879b9709143e1f593f00000017eeeb2cb5981ed45649abebde081dcff16c8601de4347e7dd1628ba2daac43b7830991507f30644e72e131a029b85045b68181585d2833e84879b9709143e1f593f000000180826141e08601510983096141e08401527f30644e72e131a029b85045b68181585d2833e84879b9709143e1f593f00000017eeeb2cb5981ed45649abebde081dcff16c8601de4347e7dd1628ba2daac43b7830991507f30644e72e131a029b85045b68181585d2833e84879b9709143e1f593f000000180826142008601510983096142008401527f30644e72e131a029b85045b68181585d2833e84879b9709143e1f593f00000017eeeb2cb5981ed45649abebde081dcff16c8601de4347e7dd1628ba2daac43b7830991507f30644e72e131a029b85045b68181585d2833e84879b9709143e1f593f000000180826142208601510983096142208401527f30644e72e131a029b85045b68181585d2833e84879b9709143e1f593f00000017eeeb2cb5981ed45649abebde081dcff16c8601de4347e7dd1628ba2daac43b7830991507f30644e72e131a029b85045b68181585d2833e84879b9709143e1f593f000000180826142408601510983096142408401527f30644e72e131a029b85045b68181585d2833e84879b9709143e1f593f00000017eeeb2cb5981ed45649abebde081dcff16c8601de4347e7dd1628ba2daac43b7830991507f30644e72e131a029b85045b68181585d2833e84879b9709143e1f593f000000180826142608601510983096142608401527f30644e72e131a029b85045b68181585d2833e84879b9709143e1f593f00000017eeeb2cb5981ed45649abebde081dcff16c8601de4347e7dd1628ba2daac43b7830991507f30644e72e131a029b85045b68181585d2833e84879b9709143e1f593f000000180826142808601510983096142808401527f30644e72e131a029b85045b68181585d2833e84879b9709143e1f593f00000017eeeb2cb5981ed45649abebde081dcff16c8601de4347e7dd1628ba2daac43b7830991507f30644e72e131a029b85045b68181585d2833e84879b9709143e1f593f000000180826142a08601510983096142a08401527f30644e72e131a029b85045b68181585d2833e84879b9709143e1f593f00000017eeeb2cb5981ed45649abebde081dcff16c8601de4347e7dd1628ba2daac43b7830991507f30644e72e131a029b85045b68181585d2833e84879b9709143e1f593f000000180826142c08601510983096142c08401527f30644e72e131a029b85045b68181585d2833e84879b9709143e1f593f00000017eeeb2cb5981ed45649abebde081dcff16c8601de4347e7dd1628ba2daac43b7830991507f30644e72e131a029b85045b68181585d2833e84879b9709143e1f593f000000180826142e08601510983096142e08401527f30644e72e131a029b85045b68181585d2833e84879b9709143e1f593f00000017eeeb2cb5981ed45649abebde081dcff16c8601de4347e7dd1628ba2daac43b7830991507f30644e72e131a029b85045b68181585d2833e84879b9709143e1f593f000000180826143008601510983096143008401527f30644e72e131a029b85045b68181585d2833e84879b9709143e1f593f00000017eeeb2cb5981ed45649abebde081dcff16c8601de4347e7dd1628ba2daac43b7830991507f30644e72e131a029b85045b68181585d2833e84879b9709143e1f593f00000018082614320860151098309614320840152505050565b60007f30644e72e131a029b85045b68181585d2833e84879b9709143e1f593f0000001807f30644e72e131a029b85045b68181585d2833e84879b9709143e1f593f00000016000860135610320860151098303010690507f30644e72e131a029b85045b68181585d2833e84879b9709143e1f593f0000001807f30644e72e131a029b85045b68181585d2833e84879b9709143e1f593f00000016020860135610340860151098303010690507f30644e72e131a029b85045b68181585d2833e84879b9709143e1f593f0000001807f30644e72e131a029b85045b68181585d2833e84879b9709143e1f593f00000016040860135610360860151098303010690507f30644e72e131a029b85045b68181585d2833e84879b9709143e1f593f0000001807f30644e72e131a029b85045b68181585d2833e84879b9709143e1f593f00000016060860135610380860151098303010690507f30644e72e131a029b85045b68181585d2833e84879b9709143e1f593f0000001807f30644e72e131a029b85045b68181585d2833e84879b9709143e1f593f000000160808601356103a0860151098303010690507f30644e72e131a029b85045b68181585d2833e84879b9709143e1f593f0000001807f30644e72e131a029b85045b68181585d2833e84879b9709143e1f593f000000160a08601356103c0860151098303010690507f30644e72e131a029b85045b68181585d2833e84879b9709143e1f593f0000001807f30644e72e131a029b85045b68181585d2833e84879b9709143e1f593f000000160c08601356103e0860151098303010690507f30644e72e131a029b85045b68181585d2833e84879b9709143e1f593f0000001807f30644e72e131a029b85045b68181585d2833e84879b9709143e1f593f000000160e0860135610400860151098303010690507f30644e72e131a029b85045b68181585d2833e84879b9709143e1f593f0000001807f30644e72e131a029b85045b68181585d2833e84879b9709143e1f593f0000001610100860135610420860151098303010690507f30644e72e131a029b85045b68181585d2833e84879b9709143e1f593f0000001807f30644e72e131a029b85045b68181585d2833e84879b9709143e1f593f0000001610120860135610440860151098303010690507f30644e72e131a029b85045b68181585d2833e84879b9709143e1f593f0000001807f30644e72e131a029b85045b68181585d2833e84879b9709143e1f593f0000001610140860135610460860151098303010690507f30644e72e131a029b85045b68181585d2833e84879b9709143e1f593f0000001807f30644e72e131a029b85045b68181585d2833e84879b9709143e1f593f0000001610160860135610480860151098303010690507f30644e72e131a029b85045b68181585d2833e84879b9709143e1f593f0000001807f30644e72e131a029b85045b68181585d2833e84879b9709143e1f593f00000016101808601356104a0860151098303010690507f30644e72e131a029b85045b68181585d2833e84879b9709143e1f593f0000001807f30644e72e131a029b85045b68181585d2833e84879b9709143e1f593f00000016101a08601356104c0860151098303010690507f30644e72e131a029b85045b68181585d2833e84879b9709143e1f593f0000001807f30644e72e131a029b85045b68181585d2833e84879b9709143e1f593f00000016101c08601356104e0860151098303010690507f30644e72e131a029b85045b68181585d2833e84879b9709143e1f593f0000001807f30644e72e131a029b85045b68181585d2833e84879b9709143e1f593f00000016101e0860135610500860151098303010690507f30644e72e131a029b85045b68181585d2833e84879b9709143e1f593f0000001807f30644e72e131a029b85045b68181585d2833e84879b9709143e1f593f0000001610200860135610520860151098303010690507f30644e72e131a029b85045b68181585d2833e84879b9709143e1f593f0000001807f30644e72e131a029b85045b68181585d2833e84879b9709143e1f593f0000001610220860135610540860151098303010690507f30644e72e131a029b85045b68181585d2833e84879b9709143e1f593f0000001807f30644e72e131a029b85045b68181585d2833e84879b9709143e1f593f0000001610240860135610560860151098303010690507f30644e72e131a029b85045b68181585d2833e84879b9709143e1f593f0000001807f30644e72e131a029b85045b68181585d2833e84879b9709143e1f593f0000001610260860135610580860151098303010690507f30644e72e131a029b85045b68181585d2833e84879b9709143e1f593f0000001807f30644e72e131a029b85045b68181585d2833e84879b9709143e1f593f00000016102808601356105a0860151098303010690507f30644e72e131a029b85045b68181585d2833e84879b9709143e1f593f0000001807f30644e72e131a029b85045b68181585d2833e84879b9709143e1f593f00000016102a08601356105c0860151098303010690507f30644e72e131a029b85045b68181585d2833e84879b9709143e1f593f0000001807f30644e72e131a029b85045b68181585d2833e84879b9709143e1f593f00000016102c08601356105e0860151098303010690507f30644e72e131a029b85045b68181585d2833e84879b9709143e1f593f0000001807f30644e72e131a029b85045b68181585d2833e84879b9709143e1f593f00000016102e0860135610600860151098303010690507f30644e72e131a029b85045b68181585d2833e84879b9709143e1f593f0000001807f30644e72e131a029b85045b68181585d2833e84879b9709143e1f593f0000001610300860135610620860151098303010690507f30644e72e131a029b85045b68181585d2833e84879b9709143e1f593f0000001807f30644e72e131a029b85045b68181585d2833e84879b9709143e1f593f0000001610320860135610640860151098303010690507f30644e72e131a029b85045b68181585d2833e84879b9709143e1f593f0000001807f30644e72e131a029b85045b68181585d2833e84879b9709143e1f593f0000001610340860135610660860151098303010690507f30644e72e131a029b85045b68181585d2833e84879b9709143e1f593f0000001807f30644e72e131a029b85045b68181585d2833e84879b9709143e1f593f0000001610360860135610680860151098303010690507f30644e72e131a029b85045b68181585d2833e84879b9709143e1f593f0000001807f30644e72e131a029b85045b68181585d2833e84879b9709143e1f593f00000016103808601356106a0860151098303010690507f30644e72e131a029b85045b68181585d2833e84879b9709143e1f593f0000001807f30644e72e131a029b85045b68181585d2833e84879b9709143e1f593f00000016103a08601356106c0860151098303010690507f30644e72e131a029b85045b68181585d2833e84879b9709143e1f593f0000001807f30644e72e131a029b85045b68181585d2833e84879b9709143e1f593f00000016103c08601356106e0860151098303010690507f30644e72e131a029b85045b68181585d2833e84879b9709143e1f593f0000001807f30644e72e131a029b85045b68181585d2833e84879b9709143e1f593f00000016103e0860135610700860151098303010690507f30644e72e131a029b85045b68181585d2833e84879b9709143e1f593f0000001807f30644e72e131a029b85045b68181585d2833e84879b9709143e1f593f0000001610400860135610720860151098303010690507f30644e72e131a029b85045b68181585d2833e84879b9709143e1f593f0000001807f30644e72e131a029b85045b68181585d2833e84879b9709143e1f593f0000001610420860135610740860151098303010690507f30644e72e131a029b85045b68181585d2833e84879b9709143e1f593f0000001807f30644e72e131a029b85045b68181585d2833e84879b9709143e1f593f0000001610440860135610760860151098303010690507f30644e72e131a029b85045b68181585d2833e84879b9709143e1f593f0000001807f30644e72e131a029b85045b68181585d2833e84879b9709143e1f593f0000001610460860135610780860151098303010690507f30644e72e131a029b85045b68181585d2833e84879b9709143e1f593f0000001807f30644e72e131a029b85045b68181585d2833e84879b9709143e1f593f00000016104808601356107a0860151098303010690507f30644e72e131a029b85045b68181585d2833e84879b9709143e1f593f0000001807f30644e72e131a029b85045b68181585d2833e84879b9709143e1f593f00000016104a08601356107c0860151098303010690507f30644e72e131a029b85045b68181585d2833e84879b9709143e1f593f0000001807f30644e72e131a029b85045b68181585d2833e84879b9709143e1f593f00000016104c08601356107e0860151098303010690507f30644e72e131a029b85045b68181585d2833e84879b9709143e1f593f0000001807f30644e72e131a029b85045b68181585d2833e84879b9709143e1f593f00000016104e0860135610800860151098303010690507f30644e72e131a029b85045b68181585d2833e84879b9709143e1f593f0000001807f30644e72e131a029b85045b68181585d2833e84879b9709143e1f593f0000001610500860135610820860151098303010690507f30644e72e131a029b85045b68181585d2833e84879b9709143e1f593f0000001807f30644e72e131a029b85045b68181585d2833e84879b9709143e1f593f0000001610520860135610840860151098303010690507f30644e72e131a029b85045b68181585d2833e84879b9709143e1f593f0000001807f30644e72e131a029b85045b68181585d2833e84879b9709143e1f593f0000001610540860135610860860151098303010690507f30644e72e131a029b85045b68181585d2833e84879b9709143e1f593f0000001807f30644e72e131a029b85045b68181585d2833e84879b9709143e1f593f0000001610560860135610880860151098303010690507f30644e72e131a029b85045b68181585d2833e84879b9709143e1f593f0000001807f30644e72e131a029b85045b68181585d2833e84879b9709143e1f593f00000016105808601356108a0860151098303010690507f30644e72e131a029b85045b68181585d2833e84879b9709143e1f593f0000001807f30644e72e131a029b85045b68181585d2833e84879b9709143e1f593f00000016105a08601356108c0860151098303010690507f30644e72e131a029b85045b68181585d2833e84879b9709143e1f593f0000001807f30644e72e131a029b85045b68181585d2833e84879b9709143e1f593f00000016105c08601356108e0860151098303010690507f30644e72e131a029b85045b68181585d2833e84879b9709143e1f593f0000001807f30644e72e131a029b85045b68181585d2833e84879b9709143e1f593f00000016105e0860135610900860151098303010690507f30644e72e131a029b85045b68181585d2833e84879b9709143e1f593f0000001807f30644e72e131a029b85045b68181585d2833e84879b9709143e1f593f0000001610600860135610920860151098303010690507f30644e72e131a029b85045b68181585d2833e84879b9709143e1f593f0000001807f30644e72e131a029b85045b68181585d2833e84879b9709143e1f593f0000001610620860135610940860151098303010690507f30644e72e131a029b85045b68181585d2833e84879b9709143e1f593f0000001807f30644e72e131a029b85045b68181585d2833e84879b9709143e1f593f0000001610640860135610960860151098303010690507f30644e72e131a029b85045b68181585d2833e84879b9709143e1f593f0000001807f30644e72e131a029b85045b68181585d2833e84879b9709143e1f593f0000001610660860135610980860151098303010690507f30644e72e131a029b85045b68181585d2833e84879b9709143e1f593f0000001807f30644e72e131a029b85045b68181585d2833e84879b9709143e1f593f00000016106808601356109a0860151098303010690507f30644e72e131a029b85045b68181585d2833e84879b9709143e1f593f0000001807f30644e72e131a029b85045b68181585d2833e84879b9709143e1f593f00000016106a08601356109c0860151098303010690507f30644e72e131a029b85045b68181585d2833e84879b9709143e1f593f0000001807f30644e72e131a029b85045b68181585d2833e84879b9709143e1f593f00000016106c08601356109e0860151098303010690507f30644e72e131a029b85045b68181585d2833e84879b9709143e1f593f0000001807f30644e72e131a029b85045b68181585d2833e84879b9709143e1f593f00000016106e0860135610a00860151098303010690507f30644e72e131a029b85045b68181585d2833e84879b9709143e1f593f0000001807f30644e72e131a029b85045b68181585d2833e84879b9709143e1f593f0000001610700860135610a20860151098303010690507f30644e72e131a029b85045b68181585d2833e84879b9709143e1f593f0000001807f30644e72e131a029b85045b68181585d2833e84879b9709143e1f593f0000001610720860135610a40860151098303010690507f30644e72e131a029b85045b68181585d2833e84879b9709143e1f593f0000001807f30644e72e131a029b85045b68181585d2833e84879b9709143e1f593f0000001610740860135610a60860151098303010690507f30644e72e131a029b85045b68181585d2833e84879b9709143e1f593f0000001807f30644e72e131a029b85045b68181585d2833e84879b9709143e1f593f0000001610760860135610a80860151098303010690507f30644e72e131a029b85045b68181585d2833e84879b9709143e1f593f0000001807f30644e72e131a029b85045b68181585d2833e84879b9709143e1f593f0000001610780860135610aa0860151098303010690507f30644e72e131a029b85045b68181585d2833e84879b9709143e1f593f0000001807f30644e72e131a029b85045b68181585d2833e84879b9709143e1f593f00000016107a0860135610ac0860151098303010690507f30644e72e131a029b85045b68181585d2833e84879b9709143e1f593f0000001807f30644e72e131a029b85045b68181585d2833e84879b9709143e1f593f00000016107c0860135610ae0860151098303010690507f30644e72e131a029b85045b68181585d2833e84879b9709143e1f593f0000001807f30644e72e131a029b85045b68181585d2833e84879b9709143e1f593f00000016107e0860135610b00860151098303010690507f30644e72e131a029b85045b68181585d2833e84879b9709143e1f593f0000001807f30644e72e131a029b85045b68181585d2833e84879b9709143e1f593f0000001610800860135610b20860151098303010690507f30644e72e131a029b85045b68181585d2833e84879b9709143e1f593f0000001807f30644e72e131a029b85045b68181585d2833e84879b9709143e1f593f0000001610820860135610b40860151098303010690507f30644e72e131a029b85045b68181585d2833e84879b9709143e1f593f0000001807f30644e72e131a029b85045b68181585d2833e84879b9709143e1f593f0000001610840860135610b60860151098303010690507f30644e72e131a029b85045b68181585d2833e84879b9709143e1f593f0000001807f30644e72e131a029b85045b68181585d2833e84879b9709143e1f593f0000001610860860135610b80860151098303010690507f30644e72e131a029b85045b68181585d2833e84879b9709143e1f593f0000001807f30644e72e131a029b85045b68181585d2833e84879b9709143e1f593f0000001610880860135610ba0860151098303010690507f30644e72e131a029b85045b68181585d2833e84879b9709143e1f593f0000001807f30644e72e131a029b85045b68181585d2833e84879b9709143e1f593f00000016108a0860135610bc0860151098303010690507f30644e72e131a029b85045b68181585d2833e84879b9709143e1f593f0000001807f30644e72e131a029b85045b68181585d2833e84879b9709143e1f593f00000016108c0860135610be0860151098303010690507f30644e72e131a029b85045b68181585d2833e84879b9709143e1f593f0000001807f30644e72e131a029b85045b68181585d2833e84879b9709143e1f593f00000016108e0860135610c00860151098303010690507f30644e72e131a029b85045b68181585d2833e84879b9709143e1f593f0000001807f30644e72e131a029b85045b68181585d2833e84879b9709143e1f593f0000001610900860135610c20860151098303010690507f30644e72e131a029b85045b68181585d2833e84879b9709143e1f593f0000001807f30644e72e131a029b85045b68181585d2833e84879b9709143e1f593f0000001610920860135610c40860151098303010690507f30644e72e131a029b85045b68181585d2833e84879b9709143e1f593f0000001807f30644e72e131a029b85045b68181585d2833e84879b9709143e1f593f0000001610940860135610c60860151098303010690507f30644e72e131a029b85045b68181585d2833e84879b9709143e1f593f0000001807f30644e72e131a029b85045b68181585d2833e84879b9709143e1f593f0000001610960860135610c80860151098303010690507f30644e72e131a029b85045b68181585d2833e84879b9709143e1f593f0000001807f30644e72e131a029b85045b68181585d2833e84879b9709143e1f593f0000001610980860135610ca0860151098303010690507f30644e72e131a029b85045b68181585d2833e84879b9709143e1f593f0000001807f30644e72e131a029b85045b68181585d2833e84879b9709143e1f593f00000016109a0860135610cc0860151098303010690507f30644e72e131a029b85045b68181585d2833e84879b9709143e1f593f0000001807f30644e72e131a029b85045b68181585d2833e84879b9709143e1f593f00000016109c0860135610ce0860151098303010690507f30644e72e131a029b85045b68181585d2833e84879b9709143e1f593f0000001807f30644e72e131a029b85045b68181585d2833e84879b9709143e1f593f00000016109e0860135610d00860151098303010690507f30644e72e131a029b85045b68181585d2833e84879b9709143e1f593f0000001807f30644e72e131a029b85045b68181585d2833e84879b9709143e1f593f0000001610a00860135610d20860151098303010690507f30644e72e131a029b85045b68181585d2833e84879b9709143e1f593f0000001807f30644e72e131a029b85045b68181585d2833e84879b9709143e1f593f0000001610a20860135610d40860151098303010690507f30644e72e131a029b85045b68181585d2833e84879b9709143e1f593f0000001807f30644e72e131a029b85045b68181585d2833e84879b9709143e1f593f0000001610a40860135610d60860151098303010690507f30644e72e131a029b85045b68181585d2833e84879b9709143e1f593f0000001807f30644e72e131a029b85045b68181585d2833e84879b9709143e1f593f0000001610a60860135610d80860151098303010690507f30644e72e131a029b85045b68181585d2833e84879b9709143e1f593f0000001807f30644e72e131a029b85045b68181585d2833e84879b9709143e1f593f0000001610a80860135610da0860151098303010690507f30644e72e131a029b85045b68181585d2833e84879b9709143e1f593f0000001807f30644e72e131a029b85045b68181585d2833e84879b9709143e1f593f0000001610aa0860135610dc0860151098303010690507f30644e72e131a029b85045b68181585d2833e84879b9709143e1f593f0000001807f30644e72e131a029b85045b68181585d2833e84879b9709143e1f593f0000001610ac0860135610de0860151098303010690507f30644e72e131a029b85045b68181585d2833e84879b9709143e1f593f0000001807f30644e72e131a029b85045b68181585d2833e84879b9709143e1f593f0000001610ae0860135610e00860151098303010690507f30644e72e131a029b85045b68181585d2833e84879b9709143e1f593f0000001807f30644e72e131a029b85045b68181585d2833e84879b9709143e1f593f0000001610b00860135610e20860151098303010690507f30644e72e131a029b85045b68181585d2833e84879b9709143e1f593f0000001807f30644e72e131a029b85045b68181585d2833e84879b9709143e1f593f0000001610b20860135610e40860151098303010690507f30644e72e131a029b85045b68181585d2833e84879b9709143e1f593f0000001807f30644e72e131a029b85045b68181585d2833e84879b9709143e1f593f0000001610b40860135610e60860151098303010690507f30644e72e131a029b85045b68181585d2833e84879b9709143e1f593f0000001807f30644e72e131a029b85045b68181585d2833e84879b9709143e1f593f0000001610b60860135610e80860151098303010690507f30644e72e131a029b85045b68181585d2833e84879b9709143e1f593f0000001807f30644e72e131a029b85045b68181585d2833e84879b9709143e1f593f0000001610b80860135610ea0860151098303010690507f30644e72e131a029b85045b68181585d2833e84879b9709143e1f593f0000001807f30644e72e131a029b85045b68181585d2833e84879b9709143e1f593f0000001610ba0860135610ec0860151098303010690507f30644e72e131a029b85045b68181585d2833e84879b9709143e1f593f0000001807f30644e72e131a029b85045b68181585d2833e84879b9709143e1f593f0000001610bc0860135610ee0860151098303010690507f30644e72e131a029b85045b68181585d2833e84879b9709143e1f593f0000001807f30644e72e131a029b85045b68181585d2833e84879b9709143e1f593f0000001610be0860135610f00860151098303010690507f30644e72e131a029b85045b68181585d2833e84879b9709143e1f593f0000001807f30644e72e131a029b85045b68181585d2833e84879b9709143e1f593f0000001610c00860135610f20860151098303010690507f30644e72e131a029b85045b68181585d2833e84879b9709143e1f593f0000001807f30644e72e131a029b85045b68181585d2833e84879b9709143e1f593f0000001610c20860135610f40860151098303010690507f30644e72e131a029b85045b68181585d2833e84879b9709143e1f593f0000001807f30644e72e131a029b85045b68181585d2833e84879b9709143e1f593f0000001610c40860135610f60860151098303010690507f30644e72e131a029b85045b68181585d2833e84879b9709143e1f593f0000001807f30644e72e131a029b85045b68181585d2833e84879b9709143e1f593f0000001610c60860135610f80860151098303010690507f30644e72e131a029b85045b68181585d2833e84879b9709143e1f593f0000001807f30644e72e131a029b85045b68181585d2833e84879b9709143e1f593f0000001610c80860135610fa0860151098303010690507f30644e72e131a029b85045b68181585d2833e84879b9709143e1f593f0000001807f30644e72e131a029b85045b68181585d2833e84879b9709143e1f593f0000001610ca0860135610fc0860151098303010690507f30644e72e131a029b85045b68181585d2833e84879b9709143e1f593f0000001807f30644e72e131a029b85045b68181585d2833e84879b9709143e1f593f0000001610cc0860135610fe0860151098303010690507f30644e72e131a029b85045b68181585d2833e84879b9709143e1f593f0000001807f30644e72e131a029b85045b68181585d2833e84879b9709143e1f593f0000001610ce0860135611000860151098303010690507f30644e72e131a029b85045b68181585d2833e84879b9709143e1f593f0000001807f30644e72e131a029b85045b68181585d2833e84879b9709143e1f593f0000001610d00860135611020860151098303010690507f30644e72e131a029b85045b68181585d2833e84879b9709143e1f593f0000001807f30644e72e131a029b85045b68181585d2833e84879b9709143e1f593f0000001610d20860135611040860151098303010690507f30644e72e131a029b85045b68181585d2833e84879b9709143e1f593f0000001807f30644e72e131a029b85045b68181585d2833e84879b9709143e1f593f0000001610d40860135611060860151098303010690507f30644e72e131a029b85045b68181585d2833e84879b9709143e1f593f0000001807f30644e72e131a029b85045b68181585d2833e84879b9709143e1f593f0000001610d60860135611080860151098303010690507f30644e72e131a029b85045b68181585d2833e84879b9709143e1f593f0000001807f30644e72e131a029b85045b68181585d2833e84879b9709143e1f593f0000001610d808601356110a0860151098303010690507f30644e72e131a029b85045b68181585d2833e84879b9709143e1f593f0000001807f30644e72e131a029b85045b68181585d2833e84879b9709143e1f593f0000001610da08601356110c0860151098303010690507f30644e72e131a029b85045b68181585d2833e84879b9709143e1f593f0000001807f30644e72e131a029b85045b68181585d2833e84879b9709143e1f593f0000001610dc08601356110e0860151098303010690507f30644e72e131a029b85045b68181585d2833e84879b9709143e1f593f0000001807f30644e72e131a029b85045b68181585d2833e84879b9709143e1f593f0000001610de0860135611100860151098303010690507f30644e72e131a029b85045b68181585d2833e84879b9709143e1f593f0000001807f30644e72e131a029b85045b68181585d2833e84879b9709143e1f593f0000001610e00860135611120860151098303010690507f30644e72e131a029b85045b68181585d2833e84879b9709143e1f593f0000001807f30644e72e131a029b85045b68181585d2833e84879b9709143e1f593f0000001610e20860135611140860151098303010690507f30644e72e131a029b85045b68181585d2833e84879b9709143e1f593f0000001807f30644e72e131a029b85045b68181585d2833e84879b9709143e1f593f0000001610e40860135611160860151098303010690507f30644e72e131a029b85045b68181585d2833e84879b9709143e1f593f0000001807f30644e72e131a029b85045b68181585d2833e84879b9709143e1f593f0000001610e60860135611180860151098303010690507f30644e72e131a029b85045b68181585d2833e84879b9709143e1f593f0000001807f30644e72e131a029b85045b68181585d2833e84879b9709143e1f593f0000001610e808601356111a0860151098303010690507f30644e72e131a029b85045b68181585d2833e84879b9709143e1f593f0000001807f30644e72e131a029b85045b68181585d2833e84879b9709143e1f593f0000001610ea08601356111c0860151098303010690507f30644e72e131a029b85045b68181585d2833e84879b9709143e1f593f0000001807f30644e72e131a029b85045b68181585d2833e84879b9709143e1f593f0000001610ec08601356111e0860151098303010690507f30644e72e131a029b85045b68181585d2833e84879b9709143e1f593f0000001807f30644e72e131a029b85045b68181585d2833e84879b9709143e1f593f0000001610ee0860135611200860151098303010690507f30644e72e131a029b85045b68181585d2833e84879b9709143e1f593f0000001807f30644e72e131a029b85045b68181585d2833e84879b9709143e1f593f0000001610f00860135611220860151098303010690507f30644e72e131a029b85045b68181585d2833e84879b9709143e1f593f0000001807f30644e72e131a029b85045b68181585d2833e84879b9709143e1f593f0000001610f20860135611240860151098303010690507f30644e72e131a029b85045b68181585d2833e84879b9709143e1f593f0000001807f30644e72e131a029b85045b68181585d2833e84879b9709143e1f593f0000001610f40860135611260860151098303010690507f30644e72e131a029b85045b68181585d2833e84879b9709143e1f593f0000001807f30644e72e131a029b85045b68181585d2833e84879b9709143e1f593f0000001610f60860135611280860151098303010690507f30644e72e131a029b85045b68181585d2833e84879b9709143e1f593f0000001807f30644e72e131a029b85045b68181585d2833e84879b9709143e1f593f0000001610f808601356112a0860151098303010690507f30644e72e131a029b85045b68181585d2833e84879b9709143e1f593f0000001807f30644e72e131a029b85045b68181585d2833e84879b9709143e1f593f0000001610fa08601356112c0860151098303010690507f30644e72e131a029b85045b68181585d2833e84879b9709143e1f593f0000001807f30644e72e131a029b85045b68181585d2833e84879b9709143e1f593f0000001610fc08601356112e0860151098303010690507f30644e72e131a029b85045b68181585d2833e84879b9709143e1f593f0000001807f30644e72e131a029b85045b68181585d2833e84879b9709143e1f593f0000001610fe0860135611300860151098303010690507f30644e72e131a029b85045b68181585d2833e84879b9709143e1f593f0000001807f30644e72e131a029b85045b68181585d2833e84879b9709143e1f593f0000001611000860135611320860151098303010690507f30644e72e131a029b85045b68181585d2833e84879b9709143e1f593f0000001807f30644e72e131a029b85045b68181585d2833e84879b9709143e1f593f0000001611020860135611340860151098303010690507f30644e72e131a029b85045b68181585d2833e84879b9709143e1f593f0000001807f30644e72e131a029b85045b68181585d2833e84879b9709143e1f593f0000001611040860135611360860151098303010690507f30644e72e131a029b85045b68181585d2833e84879b9709143e1f593f0000001807f30644e72e131a029b85045b68181585d2833e84879b9709143e1f593f0000001611060860135611380860151098303010690507f30644e72e131a029b85045b68181585d2833e84879b9709143e1f593f0000001807f30644e72e131a029b85045b68181585d2833e84879b9709143e1f593f00000016110808601356113a0860151098303010690507f30644e72e131a029b85045b68181585d2833e84879b9709143e1f593f0000001807f30644e72e131a029b85045b68181585d2833e84879b9709143e1f593f00000016110a08601356113c0860151098303010690507f30644e72e131a029b85045b68181585d2833e84879b9709143e1f593f0000001807f30644e72e131a029b85045b68181585d2833e84879b9709143e1f593f00000016110c08601356113e0860151098303010690507f30644e72e131a029b85045b68181585d2833e84879b9709143e1f593f0000001807f30644e72e131a029b85045b68181585d2833e84879b9709143e1f593f00000016110e0860135611400860151098303010690507f30644e72e131a029b85045b68181585d2833e84879b9709143e1f593f0000001807f30644e72e131a029b85045b68181585d2833e84879b9709143e1f593f0000001611100860135611420860151098303010690507f30644e72e131a029b85045b68181585d2833e84879b9709143e1f593f0000001807f30644e72e131a029b85045b68181585d2833e84879b9709143e1f593f0000001611120860135611440860151098303010690507f30644e72e131a029b85045b68181585d2833e84879b9709143e1f593f0000001807f30644e72e131a029b85045b68181585d2833e84879b9709143e1f593f0000001611140860135611460860151098303010690507f30644e72e131a029b85045b68181585d2833e84879b9709143e1f593f0000001807f30644e72e131a029b85045b68181585d2833e84879b9709143e1f593f0000001611160860135611480860151098303010690507f30644e72e131a029b85045b68181585d2833e84879b9709143e1f593f0000001807f30644e72e131a029b85045b68181585d2833e84879b9709143e1f593f00000016111808601356114a0860151098303010690507f30644e72e131a029b85045b68181585d2833e84879b9709143e1f593f0000001807f30644e72e131a029b85045b68181585d2833e84879b9709143e1f593f00000016111a08601356114c0860151098303010690507f30644e72e131a029b85045b68181585d2833e84879b9709143e1f593f0000001807f30644e72e131a029b85045b68181585d2833e84879b9709143e1f593f00000016111c08601356114e0860151098303010690507f30644e72e131a029b85045b68181585d2833e84879b9709143e1f593f0000001807f30644e72e131a029b85045b68181585d2833e84879b9709143e1f593f00000016111e0860135611500860151098303010690507f30644e72e131a029b85045b68181585d2833e84879b9709143e1f593f0000001807f30644e72e131a029b85045b68181585d2833e84879b9709143e1f593f0000001611200860135611520860151098303010690507f30644e72e131a029b85045b68181585d2833e84879b9709143e1f593f0000001807f30644e72e131a029b85045b68181585d2833e84879b9709143e1f593f0000001611220860135611540860151098303010690507f30644e72e131a029b85045b68181585d2833e84879b9709143e1f593f0000001807f30644e72e131a029b85045b68181585d2833e84879b9709143e1f593f0000001611240860135611560860151098303010690507f30644e72e131a029b85045b68181585d2833e84879b9709143e1f593f0000001807f30644e72e131a029b85045b68181585d2833e84879b9709143e1f593f0000001611260860135611580860151098303010690507f30644e72e131a029b85045b68181585d2833e84879b9709143e1f593f0000001807f30644e72e131a029b85045b68181585d2833e84879b9709143e1f593f00000016112808601356115a0860151098303010690507f30644e72e131a029b85045b68181585d2833e84879b9709143e1f593f0000001807f30644e72e131a029b85045b68181585d2833e84879b9709143e1f593f00000016112a08601356115c0860151098303010690507f30644e72e131a029b85045b68181585d2833e84879b9709143e1f593f0000001807f30644e72e131a029b85045b68181585d2833e84879b9709143e1f593f00000016112c08601356115e0860151098303010690507f30644e72e131a029b85045b68181585d2833e84879b9709143e1f593f0000001807f30644e72e131a029b85045b68181585d2833e84879b9709143e1f593f00000016112e0860135611600860151098303010690507f30644e72e131a029b85045b68181585d2833e84879b9709143e1f593f0000001807f30644e72e131a029b85045b68181585d2833e84879b9709143e1f593f0000001611300860135611620860151098303010690507f30644e72e131a029b85045b68181585d2833e84879b9709143e1f593f0000001807f30644e72e131a029b85045b68181585d2833e84879b9709143e1f593f0000001611320860135611640860151098303010690507f30644e72e131a029b85045b68181585d2833e84879b9709143e1f593f0000001807f30644e72e131a029b85045b68181585d2833e84879b9709143e1f593f0000001611340860135611660860151098303010690507f30644e72e131a029b85045b68181585d2833e84879b9709143e1f593f0000001807f30644e72e131a029b85045b68181585d2833e84879b9709143e1f593f0000001611360860135611680860151098303010690507f30644e72e131a029b85045b68181585d2833e84879b9709143e1f593f0000001807f30644e72e131a029b85045b68181585d2833e84879b9709143e1f593f00000016113808601356116a0860151098303010690507f30644e72e131a029b85045b68181585d2833e84879b9709143e1f593f0000001807f30644e72e131a029b85045b68181585d2833e84879b9709143e1f593f00000016113a08601356116c0860151098303010690507f30644e72e131a029b85045b68181585d2833e84879b9709143e1f593f0000001807f30644e72e131a029b85045b68181585d2833e84879b9709143e1f593f00000016113c08601356116e0860151098303010690507f30644e72e131a029b85045b68181585d2833e84879b9709143e1f593f0000001807f30644e72e131a029b85045b68181585d2833e84879b9709143e1f593f00000016113e0860135611700860151098303010690507f30644e72e131a029b85045b68181585d2833e84879b9709143e1f593f0000001807f30644e72e131a029b85045b68181585d2833e84879b9709143e1f593f0000001611400860135611720860151098303010690507f30644e72e131a029b85045b68181585d2833e84879b9709143e1f593f0000001807f30644e72e131a029b85045b68181585d2833e84879b9709143e1f593f0000001611420860135611740860151098303010690507f30644e72e131a029b85045b68181585d2833e84879b9709143e1f593f0000001807f30644e72e131a029b85045b68181585d2833e84879b9709143e1f593f0000001611440860135611760860151098303010690507f30644e72e131a029b85045b68181585d2833e84879b9709143e1f593f0000001807f30644e72e131a029b85045b68181585d2833e84879b9709143e1f593f0000001611460860135611780860151098303010690507f30644e72e131a029b85045b68181585d2833e84879b9709143e1f593f0000001807f30644e72e131a029b85045b68181585d2833e84879b9709143e1f593f00000016114808601356117a0860151098303010690507f30644e72e131a029b85045b68181585d2833e84879b9709143e1f593f0000001807f30644e72e131a029b85045b68181585d2833e84879b9709143e1f593f00000016114a08601356117c0860151098303010690507f30644e72e131a029b85045b68181585d2833e84879b9709143e1f593f0000001807f30644e72e131a029b85045b68181585d2833e84879b9709143e1f593f00000016114c08601356117e0860151098303010690507f30644e72e131a029b85045b68181585d2833e84879b9709143e1f593f0000001807f30644e72e131a029b85045b68181585d2833e84879b9709143e1f593f00000016114e0860135611800860151098303010690507f30644e72e131a029b85045b68181585d2833e84879b9709143e1f593f0000001807f30644e72e131a029b85045b68181585d2833e84879b9709143e1f593f0000001611500860135611820860151098303010690507f30644e72e131a029b85045b68181585d2833e84879b9709143e1f593f0000001807f30644e72e131a029b85045b68181585d2833e84879b9709143e1f593f0000001611520860135611840860151098303010690507f30644e72e131a029b85045b68181585d2833e84879b9709143e1f593f0000001807f30644e72e131a029b85045b68181585d2833e84879b9709143e1f593f0000001611540860135611860860151098303010690507f30644e72e131a029b85045b68181585d2833e84879b9709143e1f593f0000001807f30644e72e131a029b85045b68181585d2833e84879b9709143e1f593f0000001611560860135611880860151098303010690507f30644e72e131a029b85045b68181585d2833e84879b9709143e1f593f0000001807f30644e72e131a029b85045b68181585d2833e84879b9709143e1f593f00000016115808601356118a0860151098303010690507f30644e72e131a029b85045b68181585d2833e84879b9709143e1f593f0000001807f30644e72e131a029b85045b68181585d2833e84879b9709143e1f593f00000016115a08601356118c0860151098303010690507f30644e72e131a029b85045b68181585d2833e84879b9709143e1f593f0000001807f30644e72e131a029b85045b68181585d2833e84879b9709143e1f593f00000016115c08601356118e0860151098303010690507f30644e72e131a029b85045b68181585d2833e84879b9709143e1f593f0000001807f30644e72e131a029b85045b68181585d2833e84879b9709143e1f593f00000016115e0860135611900860151098303010690507f30644e72e131a029b85045b68181585d2833e84879b9709143e1f593f0000001807f30644e72e131a029b85045b68181585d2833e84879b9709143e1f593f0000001611600860135611920860151098303010690507f30644e72e131a029b85045b68181585d2833e84879b9709143e1f593f0000001807f30644e72e131a029b85045b68181585d2833e84879b9709143e1f593f0000001611620860135611940860151098303010690507f30644e72e131a029b85045b68181585d2833e84879b9709143e1f593f0000001807f30644e72e131a029b85045b68181585d2833e84879b9709143e1f593f0000001611640860135611960860151098303010690507f30644e72e131a029b85045b68181585d2833e84879b9709143e1f593f0000001807f30644e72e131a029b85045b68181585d2833e84879b9709143e1f593f0000001611660860135611980860151098303010690507f30644e72e131a029b85045b68181585d2833e84879b9709143e1f593f0000001807f30644e72e131a029b85045b68181585d2833e84879b9709143e1f593f00000016116808601356119a0860151098303010690507f30644e72e131a029b85045b68181585d2833e84879b9709143e1f593f0000001807f30644e72e131a029b85045b68181585d2833e84879b9709143e1f593f00000016116a08601356119c0860151098303010690507f30644e72e131a029b85045b68181585d2833e84879b9709143e1f593f0000001807f30644e72e131a029b85045b68181585d2833e84879b9709143e1f593f00000016116c08601356119e0860151098303010690507f30644e72e131a029b85045b68181585d2833e84879b9709143e1f593f0000001807f30644e72e131a029b85045b68181585d2833e84879b9709143e1f593f00000016116e0860135611a00860151098303010690507f30644e72e131a029b85045b68181585d2833e84879b9709143e1f593f0000001807f30644e72e131a029b85045b68181585d2833e84879b9709143e1f593f0000001611700860135611a20860151098303010690507f30644e72e131a029b85045b68181585d2833e84879b9709143e1f593f0000001807f30644e72e131a029b85045b68181585d2833e84879b9709143e1f593f0000001611720860135611a40860151098303010690507f30644e72e131a029b85045b68181585d2833e84879b9709143e1f593f0000001807f30644e72e131a029b85045b68181585d2833e84879b9709143e1f593f0000001611740860135611a60860151098303010690507f30644e72e131a029b85045b68181585d2833e84879b9709143e1f593f0000001807f30644e72e131a029b85045b68181585d2833e84879b9709143e1f593f0000001611760860135611a80860151098303010690507f30644e72e131a029b85045b68181585d2833e84879b9709143e1f593f0000001807f30644e72e131a029b85045b68181585d2833e84879b9709143e1f593f0000001611780860135611aa0860151098303010690507f30644e72e131a029b85045b68181585d2833e84879b9709143e1f593f0000001807f30644e72e131a029b85045b68181585d2833e84879b9709143e1f593f00000016117a0860135611ac0860151098303010690507f30644e72e131a029b85045b68181585d2833e84879b9709143e1f593f0000001807f30644e72e131a029b85045b68181585d2833e84879b9709143e1f593f00000016117c0860135611ae0860151098303010690507f30644e72e131a029b85045b68181585d2833e84879b9709143e1f593f0000001807f30644e72e131a029b85045b68181585d2833e84879b9709143e1f593f00000016117e0860135611b00860151098303010690507f30644e72e131a029b85045b68181585d2833e84879b9709143e1f593f0000001807f30644e72e131a029b85045b68181585d2833e84879b9709143e1f593f0000001611800860135611b20860151098303010690507f30644e72e131a029b85045b68181585d2833e84879b9709143e1f593f0000001807f30644e72e131a029b85045b68181585d2833e84879b9709143e1f593f0000001611820860135611b40860151098303010690507f30644e72e131a029b85045b68181585d2833e84879b9709143e1f593f0000001807f30644e72e131a029b85045b68181585d2833e84879b9709143e1f593f0000001611840860135611b60860151098303010690507f30644e72e131a029b85045b68181585d2833e84879b9709143e1f593f0000001807f30644e72e131a029b85045b68181585d2833e84879b9709143e1f593f0000001611860860135611b80860151098303010690507f30644e72e131a029b85045b68181585d2833e84879b9709143e1f593f0000001807f30644e72e131a029b85045b68181585d2833e84879b9709143e1f593f0000001611880860135611ba0860151098303010690507f30644e72e131a029b85045b68181585d2833e84879b9709143e1f593f0000001807f30644e72e131a029b85045b68181585d2833e84879b9709143e1f593f00000016118a0860135611bc0860151098303010690507f30644e72e131a029b85045b68181585d2833e84879b9709143e1f593f0000001807f30644e72e131a029b85045b68181585d2833e84879b9709143e1f593f00000016118c0860135611be0860151098303010690507f30644e72e131a029b85045b68181585d2833e84879b9709143e1f593f0000001807f30644e72e131a029b85045b68181585d2833e84879b9709143e1f593f00000016118e0860135611c00860151098303010690507f30644e72e131a029b85045b68181585d2833e84879b9709143e1f593f0000001807f30644e72e131a029b85045b68181585d2833e84879b9709143e1f593f0000001611900860135611c20860151098303010690507f30644e72e131a029b85045b68181585d2833e84879b9709143e1f593f0000001807f30644e72e131a029b85045b68181585d2833e84879b9709143e1f593f0000001611920860135611c40860151098303010690507f30644e72e131a029b85045b68181585d2833e84879b9709143e1f593f0000001807f30644e72e131a029b85045b68181585d2833e84879b9709143e1f593f0000001611940860135611c60860151098303010690507f30644e72e131a029b85045b68181585d2833e84879b9709143e1f593f0000001807f30644e72e131a029b85045b68181585d2833e84879b9709143e1f593f0000001611960860135611c80860151098303010690507f30644e72e131a029b85045b68181585d2833e84879b9709143e1f593f0000001807f30644e72e131a029b85045b68181585d2833e84879b9709143e1f593f0000001611980860135611ca0860151098303010690507f30644e72e131a029b85045b68181585d2833e84879b9709143e1f593f0000001807f30644e72e131a029b85045b68181585d2833e84879b9709143e1f593f00000016119a0860135611cc0860151098303010690507f30644e72e131a029b85045b68181585d2833e84879b9709143e1f593f0000001807f30644e72e131a029b85045b68181585d2833e84879b9709143e1f593f00000016119c0860135611ce0860151098303010690507f30644e72e131a029b85045b68181585d2833e84879b9709143e1f593f0000001807f30644e72e131a029b85045b68181585d2833e84879b9709143e1f593f00000016119e0860135611d00860151098303010690507f30644e72e131a029b85045b68181585d2833e84879b9709143e1f593f0000001807f30644e72e131a029b85045b68181585d2833e84879b9709143e1f593f0000001611a00860135611d20860151098303010690507f30644e72e131a029b85045b68181585d2833e84879b9709143e1f593f0000001807f30644e72e131a029b85045b68181585d2833e84879b9709143e1f593f0000001611a20860135611d40860151098303010690507f30644e72e131a029b85045b68181585d2833e84879b9709143e1f593f0000001807f30644e72e131a029b85045b68181585d2833e84879b9709143e1f593f0000001611a40860135611d60860151098303010690507f30644e72e131a029b85045b68181585d2833e84879b9709143e1f593f0000001807f30644e72e131a029b85045b68181585d2833e84879b9709143e1f593f0000001611a60860135611d80860151098303010690507f30644e72e131a029b85045b68181585d2833e84879b9709143e1f593f0000001807f30644e72e131a029b85045b68181585d2833e84879b9709143e1f593f0000001611a80860135611da0860151098303010690507f30644e72e131a029b85045b68181585d2833e84879b9709143e1f593f0000001807f30644e72e131a029b85045b68181585d2833e84879b9709143e1f593f0000001611aa0860135611dc0860151098303010690507f30644e72e131a029b85045b68181585d2833e84879b9709143e1f593f0000001807f30644e72e131a029b85045b68181585d2833e84879b9709143e1f593f0000001611ac0860135611de0860151098303010690507f30644e72e131a029b85045b68181585d2833e84879b9709143e1f593f0000001807f30644e72e131a029b85045b68181585d2833e84879b9709143e1f593f0000001611ae0860135611e00860151098303010690507f30644e72e131a029b85045b68181585d2833e84879b9709143e1f593f0000001807f30644e72e131a029b85045b68181585d2833e84879b9709143e1f593f0000001611b00860135611e20860151098303010690507f30644e72e131a029b85045b68181585d2833e84879b9709143e1f593f0000001807f30644e72e131a029b85045b68181585d2833e84879b9709143e1f593f0000001611b20860135611e40860151098303010690507f30644e72e131a029b85045b68181585d2833e84879b9709143e1f593f0000001807f30644e72e131a029b85045b68181585d2833e84879b9709143e1f593f0000001611b40860135611e60860151098303010690507f30644e72e131a029b85045b68181585d2833e84879b9709143e1f593f0000001807f30644e72e131a029b85045b68181585d2833e84879b9709143e1f593f0000001611b60860135611e80860151098303010690507f30644e72e131a029b85045b68181585d2833e84879b9709143e1f593f0000001807f30644e72e131a029b85045b68181585d2833e84879b9709143e1f593f0000001611b80860135611ea0860151098303010690507f30644e72e131a029b85045b68181585d2833e84879b9709143e1f593f0000001807f30644e72e131a029b85045b68181585d2833e84879b9709143e1f593f0000001611ba0860135611ec0860151098303010690507f30644e72e131a029b85045b68181585d2833e84879b9709143e1f593f0000001807f30644e72e131a029b85045b68181585d2833e84879b9709143e1f593f0000001611bc0860135611ee0860151098303010690507f30644e72e131a029b85045b68181585d2833e84879b9709143e1f593f0000001807f30644e72e131a029b85045b68181585d2833e84879b9709143e1f593f0000001611be0860135611f00860151098303010690507f30644e72e131a029b85045b68181585d2833e84879b9709143e1f593f0000001807f30644e72e131a029b85045b68181585d2833e84879b9709143e1f593f0000001611c00860135611f20860151098303010690507f30644e72e131a029b85045b68181585d2833e84879b9709143e1f593f0000001807f30644e72e131a029b85045b68181585d2833e84879b9709143e1f593f0000001611c20860135611f40860151098303010690507f30644e72e131a029b85045b68181585d2833e84879b9709143e1f593f0000001807f30644e72e131a029b85045b68181585d2833e84879b9709143e1f593f0000001611c40860135611f60860151098303010690507f30644e72e131a029b85045b68181585d2833e84879b9709143e1f593f0000001807f30644e72e131a029b85045b68181585d2833e84879b9709143e1f593f0000001611c60860135611f80860151098303010690507f30644e72e131a029b85045b68181585d2833e84879b9709143e1f593f0000001807f30644e72e131a029b85045b68181585d2833e84879b9709143e1f593f0000001611c80860135611fa0860151098303010690507f30644e72e131a029b85045b68181585d2833e84879b9709143e1f593f0000001807f30644e72e131a029b85045b68181585d2833e84879b9709143e1f593f0000001611ca0860135611fc0860151098303010690507f30644e72e131a029b85045b68181585d2833e84879b9709143e1f593f0000001807f30644e72e131a029b85045b68181585d2833e84879b9709143e1f593f0000001611cc0860135611fe0860151098303010690507f30644e72e131a029b85045b68181585d2833e84879b9709143e1f593f0000001807f30644e72e131a029b85045b68181585d2833e84879b9709143e1f593f0000001611ce0860135612000860151098303010690507f30644e72e131a029b85045b68181585d2833e84879b9709143e1f593f0000001807f30644e72e131a029b85045b68181585d2833e84879b9709143e1f593f0000001611d00860135612020860151098303010690507f30644e72e131a029b85045b68181585d2833e84879b9709143e1f593f0000001807f30644e72e131a029b85045b68181585d2833e84879b9709143e1f593f0000001611d20860135612040860151098303010690507f30644e72e131a029b85045b68181585d2833e84879b9709143e1f593f0000001807f30644e72e131a029b85045b68181585d2833e84879b9709143e1f593f0000001611d40860135612060860151098303010690507f30644e72e131a029b85045b68181585d2833e84879b9709143e1f593f0000001807f30644e72e131a029b85045b68181585d2833e84879b9709143e1f593f0000001611d60860135612080860151098303010690507f30644e72e131a029b85045b68181585d2833e84879b9709143e1f593f0000001807f30644e72e131a029b85045b68181585d2833e84879b9709143e1f593f0000001611d808601356120a0860151098303010690507f30644e72e131a029b85045b68181585d2833e84879b9709143e1f593f0000001807f30644e72e131a029b85045b68181585d2833e84879b9709143e1f593f0000001611da08601356120c0860151098303010690507f30644e72e131a029b85045b68181585d2833e84879b9709143e1f593f0000001807f30644e72e131a029b85045b68181585d2833e84879b9709143e1f593f0000001611dc08601356120e0860151098303010690507f30644e72e131a029b85045b68181585d2833e84879b9709143e1f593f0000001807f30644e72e131a029b85045b68181585d2833e84879b9709143e1f593f0000001611de0860135612100860151098303010690507f30644e72e131a029b85045b68181585d2833e84879b9709143e1f593f0000001807f30644e72e131a029b85045b68181585d2833e84879b9709143e1f593f0000001611e00860135612120860151098303010690507f30644e72e131a029b85045b68181585d2833e84879b9709143e1f593f0000001807f30644e72e131a029b85045b68181585d2833e84879b9709143e1f593f0000001611e20860135612140860151098303010690507f30644e72e131a029b85045b68181585d2833e84879b9709143e1f593f0000001807f30644e72e131a029b85045b68181585d2833e84879b9709143e1f593f0000001611e40860135612160860151098303010690507f30644e72e131a029b85045b68181585d2833e84879b9709143e1f593f0000001807f30644e72e131a029b85045b68181585d2833e84879b9709143e1f593f0000001611e60860135612180860151098303010690507f30644e72e131a029b85045b68181585d2833e84879b9709143e1f593f0000001807f30644e72e131a029b85045b68181585d2833e84879b9709143e1f593f0000001611e808601356121a0860151098303010690507f30644e72e131a029b85045b68181585d2833e84879b9709143e1f593f0000001807f30644e72e131a029b85045b68181585d2833e84879b9709143e1f593f0000001611ea08601356121c0860151098303010690507f30644e72e131a029b85045b68181585d2833e84879b9709143e1f593f0000001807f30644e72e131a029b85045b68181585d2833e84879b9709143e1f593f0000001611ec08601356121e0860151098303010690507f30644e72e131a029b85045b68181585d2833e84879b9709143e1f593f0000001807f30644e72e131a029b85045b68181585d2833e84879b9709143e1f593f0000001611ee0860135612200860151098303010690507f30644e72e131a029b85045b68181585d2833e84879b9709143e1f593f0000001807f30644e72e131a029b85045b68181585d2833e84879b9709143e1f593f0000001611f00860135612220860151098303010690507f30644e72e131a029b85045b68181585d2833e84879b9709143e1f593f0000001807f30644e72e131a029b85045b68181585d2833e84879b9709143e1f593f0000001611f20860135612240860151098303010690507f30644e72e131a029b85045b68181585d2833e84879b9709143e1f593f0000001807f30644e72e131a029b85045b68181585d2833e84879b9709143e1f593f0000001611f40860135612260860151098303010690507f30644e72e131a029b85045b68181585d2833e84879b9709143e1f593f0000001807f30644e72e131a029b85045b68181585d2833e84879b9709143e1f593f0000001611f60860135612280860151098303010690507f30644e72e131a029b85045b68181585d2833e84879b9709143e1f593f0000001807f30644e72e131a029b85045b68181585d2833e84879b9709143e1f593f0000001611f808601356122a0860151098303010690507f30644e72e131a029b85045b68181585d2833e84879b9709143e1f593f0000001807f30644e72e131a029b85045b68181585d2833e84879b9709143e1f593f0000001611fa08601356122c0860151098303010690507f30644e72e131a029b85045b68181585d2833e84879b9709143e1f593f0000001807f30644e72e131a029b85045b68181585d2833e84879b9709143e1f593f0000001611fc08601356122e0860151098303010690507f30644e72e131a029b85045b68181585d2833e84879b9709143e1f593f0000001807f30644e72e131a029b85045b68181585d2833e84879b9709143e1f593f0000001611fe0860135612300860151098303010690507f30644e72e131a029b85045b68181585d2833e84879b9709143e1f593f0000001807f30644e72e131a029b85045b68181585d2833e84879b9709143e1f593f0000001612000860135612320860151098303010690507f30644e72e131a029b85045b68181585d2833e84879b9709143e1f593f0000001807f30644e72e131a029b85045b68181585d2833e84879b9709143e1f593f0000001612020860135612340860151098303010690507f30644e72e131a029b85045b68181585d2833e84879b9709143e1f593f0000001807f30644e72e131a029b85045b68181585d2833e84879b9709143e1f593f0000001612040860135612360860151098303010690507f30644e72e131a029b85045b68181585d2833e84879b9709143e1f593f0000001807f30644e72e131a029b85045b68181585d2833e84879b9709143e1f593f0000001612060860135612380860151098303010690507f30644e72e131a029b85045b68181585d2833e84879b9709143e1f593f0000001807f30644e72e131a029b85045b68181585d2833e84879b9709143e1f593f00000016120808601356123a0860151098303010690507f30644e72e131a029b85045b68181585d2833e84879b9709143e1f593f0000001807f30644e72e131a029b85045b68181585d2833e84879b9709143e1f593f00000016120a08601356123c0860151098303010690507f30644e72e131a029b85045b68181585d2833e84879b9709143e1f593f0000001807f30644e72e131a029b85045b68181585d2833e84879b9709143e1f593f00000016120c08601356123e0860151098303010690507f30644e72e131a029b85045b68181585d2833e84879b9709143e1f593f0000001807f30644e72e131a029b85045b68181585d2833e84879b9709143e1f593f00000016120e0860135612400860151098303010690507f30644e72e131a029b85045b68181585d2833e84879b9709143e1f593f0000001807f30644e72e131a029b85045b68181585d2833e84879b9709143e1f593f0000001612100860135612420860151098303010690507f30644e72e131a029b85045b68181585d2833e84879b9709143e1f593f0000001807f30644e72e131a029b85045b68181585d2833e84879b9709143e1f593f0000001612120860135612440860151098303010690507f30644e72e131a029b85045b68181585d2833e84879b9709143e1f593f0000001807f30644e72e131a029b85045b68181585d2833e84879b9709143e1f593f0000001612140860135612460860151098303010690507f30644e72e131a029b85045b68181585d2833e84879b9709143e1f593f0000001807f30644e72e131a029b85045b68181585d2833e84879b9709143e1f593f0000001612160860135612480860151098303010690507f30644e72e131a029b85045b68181585d2833e84879b9709143e1f593f0000001807f30644e72e131a029b85045b68181585d2833e84879b9709143e1f593f00000016121808601356124a0860151098303010690507f30644e72e131a029b85045b68181585d2833e84879b9709143e1f593f0000001807f30644e72e131a029b85045b68181585d2833e84879b9709143e1f593f00000016121a08601356124c0860151098303010690507f30644e72e131a029b85045b68181585d2833e84879b9709143e1f593f0000001807f30644e72e131a029b85045b68181585d2833e84879b9709143e1f593f00000016121c08601356124e0860151098303010690507f30644e72e131a029b85045b68181585d2833e84879b9709143e1f593f0000001807f30644e72e131a029b85045b68181585d2833e84879b9709143e1f593f00000016121e0860135612500860151098303010690507f30644e72e131a029b85045b68181585d2833e84879b9709143e1f593f0000001807f30644e72e131a029b85045b68181585d2833e84879b9709143e1f593f0000001612200860135612520860151098303010690507f30644e72e131a029b85045b68181585d2833e84879b9709143e1f593f0000001807f30644e72e131a029b85045b68181585d2833e84879b9709143e1f593f0000001612220860135612540860151098303010690507f30644e72e131a029b85045b68181585d2833e84879b9709143e1f593f0000001807f30644e72e131a029b85045b68181585d2833e84879b9709143e1f593f0000001612240860135612560860151098303010690507f30644e72e131a029b85045b68181585d2833e84879b9709143e1f593f0000001807f30644e72e131a029b85045b68181585d2833e84879b9709143e1f593f0000001612260860135612580860151098303010690507f30644e72e131a029b85045b68181585d2833e84879b9709143e1f593f0000001807f30644e72e131a029b85045b68181585d2833e84879b9709143e1f593f00000016122808601356125a0860151098303010690507f30644e72e131a029b85045b68181585d2833e84879b9709143e1f593f0000001807f30644e72e131a029b85045b68181585d2833e84879b9709143e1f593f00000016122a08601356125c0860151098303010690507f30644e72e131a029b85045b68181585d2833e84879b9709143e1f593f0000001807f30644e72e131a029b85045b68181585d2833e84879b9709143e1f593f00000016122c08601356125e0860151098303010690507f30644e72e131a029b85045b68181585d2833e84879b9709143e1f593f0000001807f30644e72e131a029b85045b68181585d2833e84879b9709143e1f593f00000016122e0860135612600860151098303010690507f30644e72e131a029b85045b68181585d2833e84879b9709143e1f593f0000001807f30644e72e131a029b85045b68181585d2833e84879b9709143e1f593f0000001612300860135612620860151098303010690507f30644e72e131a029b85045b68181585d2833e84879b9709143e1f593f0000001807f30644e72e131a029b85045b68181585d2833e84879b9709143e1f593f0000001612320860135612640860151098303010690507f30644e72e131a029b85045b68181585d2833e84879b9709143e1f593f0000001807f30644e72e131a029b85045b68181585d2833e84879b9709143e1f593f0000001612340860135612660860151098303010690507f30644e72e131a029b85045b68181585d2833e84879b9709143e1f593f0000001807f30644e72e131a029b85045b68181585d2833e84879b9709143e1f593f0000001612360860135612680860151098303010690507f30644e72e131a029b85045b68181585d2833e84879b9709143e1f593f0000001807f30644e72e131a029b85045b68181585d2833e84879b9709143e1f593f00000016123808601356126a0860151098303010690507f30644e72e131a029b85045b68181585d2833e84879b9709143e1f593f0000001807f30644e72e131a029b85045b68181585d2833e84879b9709143e1f593f00000016123a08601356126c0860151098303010690507f30644e72e131a029b85045b68181585d2833e84879b9709143e1f593f0000001807f30644e72e131a029b85045b68181585d2833e84879b9709143e1f593f00000016123c08601356126e0860151098303010690507f30644e72e131a029b85045b68181585d2833e84879b9709143e1f593f0000001807f30644e72e131a029b85045b68181585d2833e84879b9709143e1f593f00000016123e0860135612700860151098303010690507f30644e72e131a029b85045b68181585d2833e84879b9709143e1f593f0000001807f30644e72e131a029b85045b68181585d2833e84879b9709143e1f593f0000001612400860135612720860151098303010690507f30644e72e131a029b85045b68181585d2833e84879b9709143e1f593f0000001807f30644e72e131a029b85045b68181585d2833e84879b9709143e1f593f0000001612420860135612740860151098303010690507f30644e72e131a029b85045b68181585d2833e84879b9709143e1f593f0000001807f30644e72e131a029b85045b68181585d2833e84879b9709143e1f593f0000001612440860135612760860151098303010690507f30644e72e131a029b85045b68181585d2833e84879b9709143e1f593f0000001807f30644e72e131a029b85045b68181585d2833e84879b9709143e1f593f0000001612460860135612780860151098303010690507f30644e72e131a029b85045b68181585d2833e84879b9709143e1f593f0000001807f30644e72e131a029b85045b68181585d2833e84879b9709143e1f593f00000016124808601356127a0860151098303010690507f30644e72e131a029b85045b68181585d2833e84879b9709143e1f593f0000001807f30644e72e131a029b85045b68181585d2833e84879b9709143e1f593f00000016124a08601356127c0860151098303010690507f30644e72e131a029b85045b68181585d2833e84879b9709143e1f593f0000001807f30644e72e131a029b85045b68181585d2833e84879b9709143e1f593f00000016124c08601356127e0860151098303010690507f30644e72e131a029b85045b68181585d2833e84879b9709143e1f593f0000001807f30644e72e131a029b85045b68181585d2833e84879b9709143e1f593f00000016124e0860135612800860151098303010690507f30644e72e131a029b85045b68181585d2833e84879b9709143e1f593f0000001807f30644e72e131a029b85045b68181585d2833e84879b9709143e1f593f0000001612500860135612820860151098303010690507f30644e72e131a029b85045b68181585d2833e84879b9709143e1f593f0000001807f30644e72e131a029b85045b68181585d2833e84879b9709143e1f593f0000001612520860135612840860151098303010690507f30644e72e131a029b85045b68181585d2833e84879b9709143e1f593f0000001807f30644e72e131a029b85045b68181585d2833e84879b9709143e1f593f0000001612540860135612860860151098303010690507f30644e72e131a029b85045b68181585d2833e84879b9709143e1f593f0000001807f30644e72e131a029b85045b68181585d2833e84879b9709143e1f593f0000001612560860135612880860151098303010690507f30644e72e131a029b85045b68181585d2833e84879b9709143e1f593f0000001807f30644e72e131a029b85045b68181585d2833e84879b9709143e1f593f00000016125808601356128a0860151098303010690507f30644e72e131a029b85045b68181585d2833e84879b9709143e1f593f0000001807f30644e72e131a029b85045b68181585d2833e84879b9709143e1f593f00000016125a08601356128c0860151098303010690507f30644e72e131a029b85045b68181585d2833e84879b9709143e1f593f0000001807f30644e72e131a029b85045b68181585d2833e84879b9709143e1f593f00000016125c08601356128e0860151098303010690507f30644e72e131a029b85045b68181585d2833e84879b9709143e1f593f0000001807f30644e72e131a029b85045b68181585d2833e84879b9709143e1f593f00000016125e0860135612900860151098303010690507f30644e72e131a029b85045b68181585d2833e84879b9709143e1f593f0000001807f30644e72e131a029b85045b68181585d2833e84879b9709143e1f593f0000001612600860135612920860151098303010690507f30644e72e131a029b85045b68181585d2833e84879b9709143e1f593f0000001807f30644e72e131a029b85045b68181585d2833e84879b9709143e1f593f0000001612620860135612940860151098303010690507f30644e72e131a029b85045b68181585d2833e84879b9709143e1f593f0000001807f30644e72e131a029b85045b68181585d2833e84879b9709143e1f593f0000001612640860135612960860151098303010690507f30644e72e131a029b85045b68181585d2833e84879b9709143e1f593f0000001807f30644e72e131a029b85045b68181585d2833e84879b9709143e1f593f0000001612660860135612980860151098303010690507f30644e72e131a029b85045b68181585d2833e84879b9709143e1f593f0000001807f30644e72e131a029b85045b68181585d2833e84879b9709143e1f593f00000016126808601356129a0860151098303010690507f30644e72e131a029b85045b68181585d2833e84879b9709143e1f593f0000001807f30644e72e131a029b85045b68181585d2833e84879b9709143e1f593f00000016126a08601356129c0860151098303010690507f30644e72e131a029b85045b68181585d2833e84879b9709143e1f593f0000001807f30644e72e131a029b85045b68181585d2833e84879b9709143e1f593f00000016126c08601356129e0860151098303010690507f30644e72e131a029b85045b68181585d2833e84879b9709143e1f593f0000001807f30644e72e131a029b85045b68181585d2833e84879b9709143e1f593f00000016126e0860135612a00860151098303010690507f30644e72e131a029b85045b68181585d2833e84879b9709143e1f593f0000001807f30644e72e131a029b85045b68181585d2833e84879b9709143e1f593f0000001612700860135612a20860151098303010690507f30644e72e131a029b85045b68181585d2833e84879b9709143e1f593f0000001807f30644e72e131a029b85045b68181585d2833e84879b9709143e1f593f0000001612720860135612a40860151098303010690507f30644e72e131a029b85045b68181585d2833e84879b9709143e1f593f0000001807f30644e72e131a029b85045b68181585d2833e84879b9709143e1f593f0000001612740860135612a60860151098303010690507f30644e72e131a029b85045b68181585d2833e84879b9709143e1f593f0000001807f30644e72e131a029b85045b68181585d2833e84879b9709143e1f593f0000001612760860135612a80860151098303010690507f30644e72e131a029b85045b68181585d2833e84879b9709143e1f593f0000001807f30644e72e131a029b85045b68181585d2833e84879b9709143e1f593f0000001612780860135612aa0860151098303010690507f30644e72e131a029b85045b68181585d2833e84879b9709143e1f593f0000001807f30644e72e131a029b85045b68181585d2833e84879b9709143e1f593f00000016127a0860135612ac0860151098303010690507f30644e72e131a029b85045b68181585d2833e84879b9709143e1f593f0000001807f30644e72e131a029b85045b68181585d2833e84879b9709143e1f593f00000016127c0860135612ae0860151098303010690507f30644e72e131a029b85045b68181585d2833e84879b9709143e1f593f0000001807f30644e72e131a029b85045b68181585d2833e84879b9709143e1f593f00000016127e0860135612b00860151098303010690507f30644e72e131a029b85045b68181585d2833e84879b9709143e1f593f0000001807f30644e72e131a029b85045b68181585d2833e84879b9709143e1f593f0000001612800860135612b20860151098303010690507f30644e72e131a029b85045b68181585d2833e84879b9709143e1f593f0000001807f30644e72e131a029b85045b68181585d2833e84879b9709143e1f593f0000001612820860135612b40860151098303010690507f30644e72e131a029b85045b68181585d2833e84879b9709143e1f593f0000001807f30644e72e131a029b85045b68181585d2833e84879b9709143e1f593f0000001612840860135612b60860151098303010690507f30644e72e131a029b85045b68181585d2833e84879b9709143e1f593f0000001807f30644e72e131a029b85045b68181585d2833e84879b9709143e1f593f0000001612860860135612b80860151098303010690507f30644e72e131a029b85045b68181585d2833e84879b9709143e1f593f0000001807f30644e72e131a029b85045b68181585d2833e84879b9709143e1f593f0000001612880860135612ba0860151098303010690507f30644e72e131a029b85045b68181585d2833e84879b9709143e1f593f0000001807f30644e72e131a029b85045b68181585d2833e84879b9709143e1f593f00000016128a0860135612bc0860151098303010690507f30644e72e131a029b85045b68181585d2833e84879b9709143e1f593f0000001807f30644e72e131a029b85045b68181585d2833e84879b9709143e1f593f00000016128c0860135612be0860151098303010690507f30644e72e131a029b85045b68181585d2833e84879b9709143e1f593f0000001807f30644e72e131a029b85045b68181585d2833e84879b9709143e1f593f00000016128e0860135612c00860151098303010690507f30644e72e131a029b85045b68181585d2833e84879b9709143e1f593f0000001807f30644e72e131a029b85045b68181585d2833e84879b9709143e1f593f0000001612900860135612c20860151098303010690507f30644e72e131a029b85045b68181585d2833e84879b9709143e1f593f0000001807f30644e72e131a029b85045b68181585d2833e84879b9709143e1f593f0000001612920860135612c40860151098303010690507f30644e72e131a029b85045b68181585d2833e84879b9709143e1f593f0000001807f30644e72e131a029b85045b68181585d2833e84879b9709143e1f593f0000001612940860135612c60860151098303010690507f30644e72e131a029b85045b68181585d2833e84879b9709143e1f593f0000001807f30644e72e131a029b85045b68181585d2833e84879b9709143e1f593f0000001612960860135612c80860151098303010690507f30644e72e131a029b85045b68181585d2833e84879b9709143e1f593f0000001807f30644e72e131a029b85045b68181585d2833e84879b9709143e1f593f0000001612980860135612ca0860151098303010690507f30644e72e131a029b85045b68181585d2833e84879b9709143e1f593f0000001807f30644e72e131a029b85045b68181585d2833e84879b9709143e1f593f00000016129a0860135612cc0860151098303010690507f30644e72e131a029b85045b68181585d2833e84879b9709143e1f593f0000001807f30644e72e131a029b85045b68181585d2833e84879b9709143e1f593f00000016129c0860135612ce0860151098303010690507f30644e72e131a029b85045b68181585d2833e84879b9709143e1f593f0000001807f30644e72e131a029b85045b68181585d2833e84879b9709143e1f593f00000016129e0860135612d00860151098303010690507f30644e72e131a029b85045b68181585d2833e84879b9709143e1f593f0000001807f30644e72e131a029b85045b68181585d2833e84879b9709143e1f593f0000001612a00860135612d20860151098303010690507f30644e72e131a029b85045b68181585d2833e84879b9709143e1f593f0000001807f30644e72e131a029b85045b68181585d2833e84879b9709143e1f593f0000001612a20860135612d40860151098303010690507f30644e72e131a029b85045b68181585d2833e84879b9709143e1f593f0000001807f30644e72e131a029b85045b68181585d2833e84879b9709143e1f593f0000001612a40860135612d60860151098303010690507f30644e72e131a029b85045b68181585d2833e84879b9709143e1f593f0000001807f30644e72e131a029b85045b68181585d2833e84879b9709143e1f593f0000001612a60860135612d80860151098303010690507f30644e72e131a029b85045b68181585d2833e84879b9709143e1f593f0000001807f30644e72e131a029b85045b68181585d2833e84879b9709143e1f593f0000001612a80860135612da0860151098303010690507f30644e72e131a029b85045b68181585d2833e84879b9709143e1f593f0000001807f30644e72e131a029b85045b68181585d2833e84879b9709143e1f593f0000001612aa0860135612dc0860151098303010690507f30644e72e131a029b85045b68181585d2833e84879b9709143e1f593f0000001807f30644e72e131a029b85045b68181585d2833e84879b9709143e1f593f0000001612ac0860135612de0860151098303010690507f30644e72e131a029b85045b68181585d2833e84879b9709143e1f593f0000001807f30644e72e131a029b85045b68181585d2833e84879b9709143e1f593f0000001612ae0860135612e00860151098303010690507f30644e72e131a029b85045b68181585d2833e84879b9709143e1f593f0000001807f30644e72e131a029b85045b68181585d2833e84879b9709143e1f593f0000001612b00860135612e20860151098303010690507f30644e72e131a029b85045b68181585d2833e84879b9709143e1f593f0000001807f30644e72e131a029b85045b68181585d2833e84879b9709143e1f593f0000001612b20860135612e40860151098303010690507f30644e72e131a029b85045b68181585d2833e84879b9709143e1f593f0000001807f30644e72e131a029b85045b68181585d2833e84879b9709143e1f593f0000001612b40860135612e60860151098303010690507f30644e72e131a029b85045b68181585d2833e84879b9709143e1f593f0000001807f30644e72e131a029b85045b68181585d2833e84879b9709143e1f593f0000001612b60860135612e80860151098303010690507f30644e72e131a029b85045b68181585d2833e84879b9709143e1f593f0000001807f30644e72e131a029b85045b68181585d2833e84879b9709143e1f593f0000001612b80860135612ea0860151098303010690507f30644e72e131a029b85045b68181585d2833e84879b9709143e1f593f0000001807f30644e72e131a029b85045b68181585d2833e84879b9709143e1f593f0000001612ba0860135612ec0860151098303010690507f30644e72e131a029b85045b68181585d2833e84879b9709143e1f593f0000001807f30644e72e131a029b85045b68181585d2833e84879b9709143e1f593f0000001612bc0860135612ee0860151098303010690507f30644e72e131a029b85045b68181585d2833e84879b9709143e1f593f0000001807f30644e72e131a029b85045b68181585d2833e84879b9709143e1f593f0000001612be0860135612f00860151098303010690507f30644e72e131a029b85045b68181585d2833e84879b9709143e1f593f0000001807f30644e72e131a029b85045b68181585d2833e84879b9709143e1f593f0000001612c00860135612f20860151098303010690507f30644e72e131a029b85045b68181585d2833e84879b9709143e1f593f0000001807f30644e72e131a029b85045b68181585d2833e84879b9709143e1f593f0000001612c20860135612f40860151098303010690507f30644e72e131a029b85045b68181585d2833e84879b9709143e1f593f0000001807f30644e72e131a029b85045b68181585d2833e84879b9709143e1f593f0000001612c40860135612f60860151098303010690507f30644e72e131a029b85045b68181585d2833e84879b9709143e1f593f0000001807f30644e72e131a029b85045b68181585d2833e84879b9709143e1f593f0000001612c60860135612f80860151098303010690507f30644e72e131a029b85045b68181585d2833e84879b9709143e1f593f0000001807f30644e72e131a029b85045b68181585d2833e84879b9709143e1f593f0000001612c80860135612fa0860151098303010690507f30644e72e131a029b85045b68181585d2833e84879b9709143e1f593f0000001807f30644e72e131a029b85045b68181585d2833e84879b9709143e1f593f0000001612ca0860135612fc0860151098303010690507f30644e72e131a029b85045b68181585d2833e84879b9709143e1f593f0000001807f30644e72e131a029b85045b68181585d2833e84879b9709143e1f593f0000001612cc0860135612fe0860151098303010690507f30644e72e131a029b85045b68181585d2833e84879b9709143e1f593f0000001807f30644e72e131a029b85045b68181585d2833e84879b9709143e1f593f0000001612ce0860135613000860151098303010690507f30644e72e131a029b85045b68181585d2833e84879b9709143e1f593f0000001807f30644e72e131a029b85045b68181585d2833e84879b9709143e1f593f0000001612d00860135613020860151098303010690507f30644e72e131a029b85045b68181585d2833e84879b9709143e1f593f0000001807f30644e72e131a029b85045b68181585d2833e84879b9709143e1f593f0000001612d20860135613040860151098303010690507f30644e72e131a029b85045b68181585d2833e84879b9709143e1f593f0000001807f30644e72e131a029b85045b68181585d2833e84879b9709143e1f593f0000001612d40860135613060860151098303010690507f30644e72e131a029b85045b68181585d2833e84879b9709143e1f593f0000001807f30644e72e131a029b85045b68181585d2833e84879b9709143e1f593f0000001612d60860135613080860151098303010690507f30644e72e131a029b85045b68181585d2833e84879b9709143e1f593f0000001807f30644e72e131a029b85045b68181585d2833e84879b9709143e1f593f0000001612d808601356130a0860151098303010690507f30644e72e131a029b85045b68181585d2833e84879b9709143e1f593f0000001807f30644e72e131a029b85045b68181585d2833e84879b9709143e1f593f0000001612da08601356130c0860151098303010690507f30644e72e131a029b85045b68181585d2833e84879b9709143e1f593f0000001807f30644e72e131a029b85045b68181585d2833e84879b9709143e1f593f0000001612dc08601356130e0860151098303010690507f30644e72e131a029b85045b68181585d2833e84879b9709143e1f593f0000001807f30644e72e131a029b85045b68181585d2833e84879b9709143e1f593f0000001612de0860135613100860151098303010690507f30644e72e131a029b85045b68181585d2833e84879b9709143e1f593f0000001807f30644e72e131a029b85045b68181585d2833e84879b9709143e1f593f0000001612e00860135613120860151098303010690507f30644e72e131a029b85045b68181585d2833e84879b9709143e1f593f0000001807f30644e72e131a029b85045b68181585d2833e84879b9709143e1f593f0000001612e20860135613140860151098303010690507f30644e72e131a029b85045b68181585d2833e84879b9709143e1f593f0000001807f30644e72e131a029b85045b68181585d2833e84879b9709143e1f593f0000001612e40860135613160860151098303010690507f30644e72e131a029b85045b68181585d2833e84879b9709143e1f593f0000001807f30644e72e131a029b85045b68181585d2833e84879b9709143e1f593f0000001612e60860135613180860151098303010690507f30644e72e131a029b85045b68181585d2833e84879b9709143e1f593f0000001807f30644e72e131a029b85045b68181585d2833e84879b9709143e1f593f0000001612e808601356131a0860151098303010690507f30644e72e131a029b85045b68181585d2833e84879b9709143e1f593f0000001807f30644e72e131a029b85045b68181585d2833e84879b9709143e1f593f0000001612ea08601356131c0860151098303010690507f30644e72e131a029b85045b68181585d2833e84879b9709143e1f593f0000001807f30644e72e131a029b85045b68181585d2833e84879b9709143e1f593f0000001612ec08601356131e0860151098303010690507f30644e72e131a029b85045b68181585d2833e84879b9709143e1f593f0000001807f30644e72e131a029b85045b68181585d2833e84879b9709143e1f593f0000001612ee0860135613200860151098303010690507f30644e72e131a029b85045b68181585d2833e84879b9709143e1f593f0000001807f30644e72e131a029b85045b68181585d2833e84879b9709143e1f593f0000001612f00860135613220860151098303010690507f30644e72e131a029b85045b68181585d2833e84879b9709143e1f593f0000001807f30644e72e131a029b85045b68181585d2833e84879b9709143e1f593f0000001612f20860135613240860151098303010690507f30644e72e131a029b85045b68181585d2833e84879b9709143e1f593f0000001807f30644e72e131a029b85045b68181585d2833e84879b9709143e1f593f0000001612f40860135613260860151098303010690507f30644e72e131a029b85045b68181585d2833e84879b9709143e1f593f0000001807f30644e72e131a029b85045b68181585d2833e84879b9709143e1f593f0000001612f60860135613280860151098303010690507f30644e72e131a029b85045b68181585d2833e84879b9709143e1f593f0000001807f30644e72e131a029b85045b68181585d2833e84879b9709143e1f593f0000001612f808601356132a0860151098303010690507f30644e72e131a029b85045b68181585d2833e84879b9709143e1f593f0000001807f30644e72e131a029b85045b68181585d2833e84879b9709143e1f593f0000001612fa08601356132c0860151098303010690507f30644e72e131a029b85045b68181585d2833e84879b9709143e1f593f0000001807f30644e72e131a029b85045b68181585d2833e84879b9709143e1f593f0000001612fc08601356132e0860151098303010690507f30644e72e131a029b85045b68181585d2833e84879b9709143e1f593f0000001807f30644e72e131a029b85045b68181585d2833e84879b9709143e1f593f0000001612fe0860135613300860151098303010690507f30644e72e131a029b85045b68181585d2833e84879b9709143e1f593f0000001807f30644e72e131a029b85045b68181585d2833e84879b9709143e1f593f0000001613000860135613320860151098303010690507f30644e72e131a029b85045b68181585d2833e84879b9709143e1f593f0000001807f30644e72e131a029b85045b68181585d2833e84879b9709143e1f593f0000001613020860135613340860151098303010690507f30644e72e131a029b85045b68181585d2833e84879b9709143e1f593f0000001807f30644e72e131a029b85045b68181585d2833e84879b9709143e1f593f0000001613040860135613360860151098303010690507f30644e72e131a029b85045b68181585d2833e84879b9709143e1f593f0000001807f30644e72e131a029b85045b68181585d2833e84879b9709143e1f593f0000001613060860135613380860151098303010690507f30644e72e131a029b85045b68181585d2833e84879b9709143e1f593f0000001807f30644e72e131a029b85045b68181585d2833e84879b9709143e1f593f00000016130808601356133a0860151098303010690507f30644e72e131a029b85045b68181585d2833e84879b9709143e1f593f0000001807f30644e72e131a029b85045b68181585d2833e84879b9709143e1f593f00000016130a08601356133c0860151098303010690507f30644e72e131a029b85045b68181585d2833e84879b9709143e1f593f0000001807f30644e72e131a029b85045b68181585d2833e84879b9709143e1f593f00000016130c08601356133e0860151098303010690507f30644e72e131a029b85045b68181585d2833e84879b9709143e1f593f0000001807f30644e72e131a029b85045b68181585d2833e84879b9709143e1f593f00000016130e0860135613400860151098303010690507f30644e72e131a029b85045b68181585d2833e84879b9709143e1f593f0000001807f30644e72e131a029b85045b68181585d2833e84879b9709143e1f593f0000001613100860135613420860151098303010690507f30644e72e131a029b85045b68181585d2833e84879b9709143e1f593f0000001807f30644e72e131a029b85045b68181585d2833e84879b9709143e1f593f0000001613120860135613440860151098303010690507f30644e72e131a029b85045b68181585d2833e84879b9709143e1f593f0000001807f30644e72e131a029b85045b68181585d2833e84879b9709143e1f593f0000001613140860135613460860151098303010690507f30644e72e131a029b85045b68181585d2833e84879b9709143e1f593f0000001807f30644e72e131a029b85045b68181585d2833e84879b9709143e1f593f0000001613160860135613480860151098303010690507f30644e72e131a029b85045b68181585d2833e84879b9709143e1f593f0000001807f30644e72e131a029b85045b68181585d2833e84879b9709143e1f593f00000016131808601356134a0860151098303010690507f30644e72e131a029b85045b68181585d2833e84879b9709143e1f593f0000001807f30644e72e131a029b85045b68181585d2833e84879b9709143e1f593f00000016131a08601356134c0860151098303010690507f30644e72e131a029b85045b68181585d2833e84879b9709143e1f593f0000001807f30644e72e131a029b85045b68181585d2833e84879b9709143e1f593f00000016131c08601356134e0860151098303010690507f30644e72e131a029b85045b68181585d2833e84879b9709143e1f593f0000001807f30644e72e131a029b85045b68181585d2833e84879b9709143e1f593f00000016131e0860135613500860151098303010690507f30644e72e131a029b85045b68181585d2833e84879b9709143e1f593f0000001807f30644e72e131a029b85045b68181585d2833e84879b9709143e1f593f0000001613200860135613520860151098303010690507f30644e72e131a029b85045b68181585d2833e84879b9709143e1f593f0000001807f30644e72e131a029b85045b68181585d2833e84879b9709143e1f593f0000001613220860135613540860151098303010690507f30644e72e131a029b85045b68181585d2833e84879b9709143e1f593f0000001807f30644e72e131a029b85045b68181585d2833e84879b9709143e1f593f0000001613240860135613560860151098303010690507f30644e72e131a029b85045b68181585d2833e84879b9709143e1f593f0000001807f30644e72e131a029b85045b68181585d2833e84879b9709143e1f593f0000001613260860135613580860151098303010690507f30644e72e131a029b85045b68181585d2833e84879b9709143e1f593f0000001807f30644e72e131a029b85045b68181585d2833e84879b9709143e1f593f00000016132808601356135a0860151098303010690507f30644e72e131a029b85045b68181585d2833e84879b9709143e1f593f0000001807f30644e72e131a029b85045b68181585d2833e84879b9709143e1f593f00000016132a08601356135c0860151098303010690507f30644e72e131a029b85045b68181585d2833e84879b9709143e1f593f0000001807f30644e72e131a029b85045b68181585d2833e84879b9709143e1f593f00000016132c08601356135e0860151098303010690507f30644e72e131a029b85045b68181585d2833e84879b9709143e1f593f0000001807f30644e72e131a029b85045b68181585d2833e84879b9709143e1f593f00000016132e0860135613600860151098303010690507f30644e72e131a029b85045b68181585d2833e84879b9709143e1f593f0000001807f30644e72e131a029b85045b68181585d2833e84879b9709143e1f593f0000001613300860135613620860151098303010690507f30644e72e131a029b85045b68181585d2833e84879b9709143e1f593f0000001807f30644e72e131a029b85045b68181585d2833e84879b9709143e1f593f0000001613320860135613640860151098303010690507f30644e72e131a029b85045b68181585d2833e84879b9709143e1f593f0000001807f30644e72e131a029b85045b68181585d2833e84879b9709143e1f593f0000001613340860135613660860151098303010690507f30644e72e131a029b85045b68181585d2833e84879b9709143e1f593f0000001807f30644e72e131a029b85045b68181585d2833e84879b9709143e1f593f0000001613360860135613680860151098303010690507f30644e72e131a029b85045b68181585d2833e84879b9709143e1f593f0000001807f30644e72e131a029b85045b68181585d2833e84879b9709143e1f593f00000016133808601356136a0860151098303010690507f30644e72e131a029b85045b68181585d2833e84879b9709143e1f593f0000001807f30644e72e131a029b85045b68181585d2833e84879b9709143e1f593f00000016133a08601356136c0860151098303010690507f30644e72e131a029b85045b68181585d2833e84879b9709143e1f593f0000001807f30644e72e131a029b85045b68181585d2833e84879b9709143e1f593f00000016133c08601356136e0860151098303010690507f30644e72e131a029b85045b68181585d2833e84879b9709143e1f593f0000001807f30644e72e131a029b85045b68181585d2833e84879b9709143e1f593f00000016133e0860135613700860151098303010690507f30644e72e131a029b85045b68181585d2833e84879b9709143e1f593f0000001807f30644e72e131a029b85045b68181585d2833e84879b9709143e1f593f0000001613400860135613720860151098303010690507f30644e72e131a029b85045b68181585d2833e84879b9709143e1f593f0000001807f30644e72e131a029b85045b68181585d2833e84879b9709143e1f593f0000001613420860135613740860151098303010690507f30644e72e131a029b85045b68181585d2833e84879b9709143e1f593f0000001807f30644e72e131a029b85045b68181585d2833e84879b9709143e1f593f0000001613440860135613760860151098303010690507f30644e72e131a029b85045b68181585d2833e84879b9709143e1f593f0000001807f30644e72e131a029b85045b68181585d2833e84879b9709143e1f593f0000001613460860135613780860151098303010690507f30644e72e131a029b85045b68181585d2833e84879b9709143e1f593f0000001807f30644e72e131a029b85045b68181585d2833e84879b9709143e1f593f00000016134808601356137a0860151098303010690507f30644e72e131a029b85045b68181585d2833e84879b9709143e1f593f0000001807f30644e72e131a029b85045b68181585d2833e84879b9709143e1f593f00000016134a08601356137c0860151098303010690507f30644e72e131a029b85045b68181585d2833e84879b9709143e1f593f0000001807f30644e72e131a029b85045b68181585d2833e84879b9709143e1f593f00000016134c08601356137e0860151098303010690507f30644e72e131a029b85045b68181585d2833e84879b9709143e1f593f0000001807f30644e72e131a029b85045b68181585d2833e84879b9709143e1f593f00000016134e0860135613800860151098303010690507f30644e72e131a029b85045b68181585d2833e84879b9709143e1f593f0000001807f30644e72e131a029b85045b68181585d2833e84879b9709143e1f593f0000001613500860135613820860151098303010690507f30644e72e131a029b85045b68181585d2833e84879b9709143e1f593f0000001807f30644e72e131a029b85045b68181585d2833e84879b9709143e1f593f0000001613520860135613840860151098303010690507f30644e72e131a029b85045b68181585d2833e84879b9709143e1f593f0000001807f30644e72e131a029b85045b68181585d2833e84879b9709143e1f593f0000001613540860135613860860151098303010690507f30644e72e131a029b85045b68181585d2833e84879b9709143e1f593f0000001807f30644e72e131a029b85045b68181585d2833e84879b9709143e1f593f0000001613560860135613880860151098303010690507f30644e72e131a029b85045b68181585d2833e84879b9709143e1f593f0000001807f30644e72e131a029b85045b68181585d2833e84879b9709143e1f593f00000016135808601356138a0860151098303010690507f30644e72e131a029b85045b68181585d2833e84879b9709143e1f593f0000001807f30644e72e131a029b85045b68181585d2833e84879b9709143e1f593f00000016135a08601356138c0860151098303010690507f30644e72e131a029b85045b68181585d2833e84879b9709143e1f593f0000001807f30644e72e131a029b85045b68181585d2833e84879b9709143e1f593f00000016135c08601356138e0860151098303010690507f30644e72e131a029b85045b68181585d2833e84879b9709143e1f593f0000001807f30644e72e131a029b85045b68181585d2833e84879b9709143e1f593f00000016135e0860135613900860151098303010690507f30644e72e131a029b85045b68181585d2833e84879b9709143e1f593f0000001807f30644e72e131a029b85045b68181585d2833e84879b9709143e1f593f0000001613600860135613920860151098303010690507f30644e72e131a029b85045b68181585d2833e84879b9709143e1f593f0000001807f30644e72e131a029b85045b68181585d2833e84879b9709143e1f593f0000001613620860135613940860151098303010690507f30644e72e131a029b85045b68181585d2833e84879b9709143e1f593f0000001807f30644e72e131a029b85045b68181585d2833e84879b9709143e1f593f0000001613640860135613960860151098303010690507f30644e72e131a029b85045b68181585d2833e84879b9709143e1f593f0000001807f30644e72e131a029b85045b68181585d2833e84879b9709143e1f593f0000001613660860135613980860151098303010690507f30644e72e131a029b85045b68181585d2833e84879b9709143e1f593f0000001807f30644e72e131a029b85045b68181585d2833e84879b9709143e1f593f00000016136808601356139a0860151098303010690507f30644e72e131a029b85045b68181585d2833e84879b9709143e1f593f0000001807f30644e72e131a029b85045b68181585d2833e84879b9709143e1f593f00000016136a08601356139c0860151098303010690507f30644e72e131a029b85045b68181585d2833e84879b9709143e1f593f0000001807f30644e72e131a029b85045b68181585d2833e84879b9709143e1f593f00000016136c08601356139e0860151098303010690507f30644e72e131a029b85045b68181585d2833e84879b9709143e1f593f0000001807f30644e72e131a029b85045b68181585d2833e84879b9709143e1f593f00000016136e0860135613a00860151098303010690507f30644e72e131a029b85045b68181585d2833e84879b9709143e1f593f0000001807f30644e72e131a029b85045b68181585d2833e84879b9709143e1f593f0000001613700860135613a20860151098303010690507f30644e72e131a029b85045b68181585d2833e84879b9709143e1f593f0000001807f30644e72e131a029b85045b68181585d2833e84879b9709143e1f593f0000001613720860135613a40860151098303010690507f30644e72e131a029b85045b68181585d2833e84879b9709143e1f593f0000001807f30644e72e131a029b85045b68181585d2833e84879b9709143e1f593f0000001613740860135613a60860151098303010690507f30644e72e131a029b85045b68181585d2833e84879b9709143e1f593f0000001807f30644e72e131a029b85045b68181585d2833e84879b9709143e1f593f0000001613760860135613a80860151098303010690507f30644e72e131a029b85045b68181585d2833e84879b9709143e1f593f0000001807f30644e72e131a029b85045b68181585d2833e84879b9709143e1f593f0000001613780860135613aa0860151098303010690507f30644e72e131a029b85045b68181585d2833e84879b9709143e1f593f0000001807f30644e72e131a029b85045b68181585d2833e84879b9709143e1f593f00000016137a0860135613ac0860151098303010690507f30644e72e131a029b85045b68181585d2833e84879b9709143e1f593f0000001807f30644e72e131a029b85045b68181585d2833e84879b9709143e1f593f00000016137c0860135613ae0860151098303010690507f30644e72e131a029b85045b68181585d2833e84879b9709143e1f593f0000001807f30644e72e131a029b85045b68181585d2833e84879b9709143e1f593f00000016137e0860135613b00860151098303010690507f30644e72e131a029b85045b68181585d2833e84879b9709143e1f593f0000001807f30644e72e131a029b85045b68181585d2833e84879b9709143e1f593f0000001613800860135613b20860151098303010690507f30644e72e131a029b85045b68181585d2833e84879b9709143e1f593f0000001807f30644e72e131a029b85045b68181585d2833e84879b9709143e1f593f0000001613820860135613b40860151098303010690507f30644e72e131a029b85045b68181585d2833e84879b9709143e1f593f0000001807f30644e72e131a029b85045b68181585d2833e84879b9709143e1f593f0000001613840860135613b60860151098303010690507f30644e72e131a029b85045b68181585d2833e84879b9709143e1f593f0000001807f30644e72e131a029b85045b68181585d2833e84879b9709143e1f593f0000001613860860135613b80860151098303010690507f30644e72e131a029b85045b68181585d2833e84879b9709143e1f593f0000001807f30644e72e131a029b85045b68181585d2833e84879b9709143e1f593f0000001613880860135613ba0860151098303010690507f30644e72e131a029b85045b68181585d2833e84879b9709143e1f593f0000001807f30644e72e131a029b85045b68181585d2833e84879b9709143e1f593f00000016138a0860135613bc0860151098303010690507f30644e72e131a029b85045b68181585d2833e84879b9709143e1f593f0000001807f30644e72e131a029b85045b68181585d2833e84879b9709143e1f593f00000016138c0860135613be0860151098303010690507f30644e72e131a029b85045b68181585d2833e84879b9709143e1f593f0000001807f30644e72e131a029b85045b68181585d2833e84879b9709143e1f593f00000016138e0860135613c00860151098303010690507f30644e72e131a029b85045b68181585d2833e84879b9709143e1f593f0000001807f30644e72e131a029b85045b68181585d2833e84879b9709143e1f593f0000001613900860135613c20860151098303010690507f30644e72e131a029b85045b68181585d2833e84879b9709143e1f593f0000001807f30644e72e131a029b85045b68181585d2833e84879b9709143e1f593f0000001613920860135613c40860151098303010690507f30644e72e131a029b85045b68181585d2833e84879b9709143e1f593f0000001807f30644e72e131a029b85045b68181585d2833e84879b9709143e1f593f0000001613940860135613c60860151098303010690507f30644e72e131a029b85045b68181585d2833e84879b9709143e1f593f0000001807f30644e72e131a029b85045b68181585d2833e84879b9709143e1f593f0000001613960860135613c80860151098303010690507f30644e72e131a029b85045b68181585d2833e84879b9709143e1f593f0000001807f30644e72e131a029b85045b68181585d2833e84879b9709143e1f593f0000001613980860135613ca0860151098303010690507f30644e72e131a029b85045b68181585d2833e84879b9709143e1f593f0000001807f30644e72e131a029b85045b68181585d2833e84879b9709143e1f593f00000016139a0860135613cc0860151098303010690507f30644e72e131a029b85045b68181585d2833e84879b9709143e1f593f0000001807f30644e72e131a029b85045b68181585d2833e84879b9709143e1f593f00000016139c0860135613ce0860151098303010690507f30644e72e131a029b85045b68181585d2833e84879b9709143e1f593f0000001807f30644e72e131a029b85045b68181585d2833e84879b9709143e1f593f00000016139e0860135613d00860151098303010690507f30644e72e131a029b85045b68181585d2833e84879b9709143e1f593f0000001807f30644e72e131a029b85045b68181585d2833e84879b9709143e1f593f0000001613a00860135613d20860151098303010690507f30644e72e131a029b85045b68181585d2833e84879b9709143e1f593f0000001807f30644e72e131a029b85045b68181585d2833e84879b9709143e1f593f0000001613a20860135613d40860151098303010690507f30644e72e131a029b85045b68181585d2833e84879b9709143e1f593f0000001807f30644e72e131a029b85045b68181585d2833e84879b9709143e1f593f0000001613a40860135613d60860151098303010690507f30644e72e131a029b85045b68181585d2833e84879b9709143e1f593f0000001807f30644e72e131a029b85045b68181585d2833e84879b9709143e1f593f0000001613a60860135613d80860151098303010690507f30644e72e131a029b85045b68181585d2833e84879b9709143e1f593f0000001807f30644e72e131a029b85045b68181585d2833e84879b9709143e1f593f0000001613a80860135613da0860151098303010690507f30644e72e131a029b85045b68181585d2833e84879b9709143e1f593f0000001807f30644e72e131a029b85045b68181585d2833e84879b9709143e1f593f0000001613aa0860135613dc0860151098303010690507f30644e72e131a029b85045b68181585d2833e84879b9709143e1f593f0000001807f30644e72e131a029b85045b68181585d2833e84879b9709143e1f593f0000001613ac0860135613de0860151098303010690507f30644e72e131a029b85045b68181585d2833e84879b9709143e1f593f0000001807f30644e72e131a029b85045b68181585d2833e84879b9709143e1f593f0000001613ae0860135613e00860151098303010690507f30644e72e131a029b85045b68181585d2833e84879b9709143e1f593f0000001807f30644e72e131a029b85045b68181585d2833e84879b9709143e1f593f0000001613b00860135613e20860151098303010690507f30644e72e131a029b85045b68181585d2833e84879b9709143e1f593f0000001807f30644e72e131a029b85045b68181585d2833e84879b9709143e1f593f0000001613b20860135613e40860151098303010690507f30644e72e131a029b85045b68181585d2833e84879b9709143e1f593f0000001807f30644e72e131a029b85045b68181585d2833e84879b9709143e1f593f0000001613b40860135613e60860151098303010690507f30644e72e131a029b85045b68181585d2833e84879b9709143e1f593f0000001807f30644e72e131a029b85045b68181585d2833e84879b9709143e1f593f0000001613b60860135613e80860151098303010690507f30644e72e131a029b85045b68181585d2833e84879b9709143e1f593f0000001807f30644e72e131a029b85045b68181585d2833e84879b9709143e1f593f0000001613b80860135613ea0860151098303010690507f30644e72e131a029b85045b68181585d2833e84879b9709143e1f593f0000001807f30644e72e131a029b85045b68181585d2833e84879b9709143e1f593f0000001613ba0860135613ec0860151098303010690507f30644e72e131a029b85045b68181585d2833e84879b9709143e1f593f0000001807f30644e72e131a029b85045b68181585d2833e84879b9709143e1f593f0000001613bc0860135613ee0860151098303010690507f30644e72e131a029b85045b68181585d2833e84879b9709143e1f593f0000001807f30644e72e131a029b85045b68181585d2833e84879b9709143e1f593f0000001613be0860135613f00860151098303010690507f30644e72e131a029b85045b68181585d2833e84879b9709143e1f593f0000001807f30644e72e131a029b85045b68181585d2833e84879b9709143e1f593f0000001613c00860135613f20860151098303010690507f30644e72e131a029b85045b68181585d2833e84879b9709143e1f593f0000001807f30644e72e131a029b85045b68181585d2833e84879b9709143e1f593f0000001613c20860135613f40860151098303010690507f30644e72e131a029b85045b68181585d2833e84879b9709143e1f593f0000001807f30644e72e131a029b85045b68181585d2833e84879b9709143e1f593f0000001613c40860135613f60860151098303010690507f30644e72e131a029b85045b68181585d2833e84879b9709143e1f593f0000001807f30644e72e131a029b85045b68181585d2833e84879b9709143e1f593f0000001613c60860135613f80860151098303010690507f30644e72e131a029b85045b68181585d2833e84879b9709143e1f593f0000001807f30644e72e131a029b85045b68181585d2833e84879b9709143e1f593f0000001613c80860135613fa0860151098303010690507f30644e72e131a029b85045b68181585d2833e84879b9709143e1f593f0000001807f30644e72e131a029b85045b68181585d2833e84879b9709143e1f593f0000001613ca0860135613fc0860151098303010690507f30644e72e131a029b85045b68181585d2833e84879b9709143e1f593f0000001807f30644e72e131a029b85045b68181585d2833e84879b9709143e1f593f0000001613cc0860135613fe0860151098303010690507f30644e72e131a029b85045b68181585d2833e84879b9709143e1f593f0000001807f30644e72e131a029b85045b68181585d2833e84879b9709143e1f593f0000001613ce0860135614000860151098303010690507f30644e72e131a029b85045b68181585d2833e84879b9709143e1f593f0000001807f30644e72e131a029b85045b68181585d2833e84879b9709143e1f593f0000001613d00860135614020860151098303010690507f30644e72e131a029b85045b68181585d2833e84879b9709143e1f593f0000001807f30644e72e131a029b85045b68181585d2833e84879b9709143e1f593f0000001613d20860135614040860151098303010690507f30644e72e131a029b85045b68181585d2833e84879b9709143e1f593f0000001807f30644e72e131a029b85045b68181585d2833e84879b9709143e1f593f0000001613d40860135614060860151098303010690507f30644e72e131a029b85045b68181585d2833e84879b9709143e1f593f0000001807f30644e72e131a029b85045b68181585d2833e84879b9709143e1f593f0000001613d60860135614080860151098303010690507f30644e72e131a029b85045b68181585d2833e84879b9709143e1f593f0000001807f30644e72e131a029b85045b68181585d2833e84879b9709143e1f593f0000001613d808601356140a0860151098303010690507f30644e72e131a029b85045b68181585d2833e84879b9709143e1f593f0000001807f30644e72e131a029b85045b68181585d2833e84879b9709143e1f593f0000001613da08601356140c0860151098303010690507f30644e72e131a029b85045b68181585d2833e84879b9709143e1f593f0000001807f30644e72e131a029b85045b68181585d2833e84879b9709143e1f593f0000001613dc08601356140e0860151098303010690507f30644e72e131a029b85045b68181585d2833e84879b9709143e1f593f0000001807f30644e72e131a029b85045b68181585d2833e84879b9709143e1f593f0000001613de0860135614100860151098303010690507f30644e72e131a029b85045b68181585d2833e84879b9709143e1f593f0000001807f30644e72e131a029b85045b68181585d2833e84879b9709143e1f593f0000001613e00860135614120860151098303010690507f30644e72e131a029b85045b68181585d2833e84879b9709143e1f593f0000001807f30644e72e131a029b85045b68181585d2833e84879b9709143e1f593f0000001613e20860135614140860151098303010690507f30644e72e131a029b85045b68181585d2833e84879b9709143e1f593f0000001807f30644e72e131a029b85045b68181585d2833e84879b9709143e1f593f0000001613e40860135614160860151098303010690507f30644e72e131a029b85045b68181585d2833e84879b9709143e1f593f0000001807f30644e72e131a029b85045b68181585d2833e84879b9709143e1f593f0000001613e60860135614180860151098303010690507f30644e72e131a029b85045b68181585d2833e84879b9709143e1f593f0000001807f30644e72e131a029b85045b68181585d2833e84879b9709143e1f593f0000001613e808601356141a0860151098303010690507f30644e72e131a029b85045b68181585d2833e84879b9709143e1f593f0000001807f30644e72e131a029b85045b68181585d2833e84879b9709143e1f593f0000001613ea08601356141c0860151098303010690507f30644e72e131a029b85045b68181585d2833e84879b9709143e1f593f0000001807f30644e72e131a029b85045b68181585d2833e84879b9709143e1f593f0000001613ec08601356141e0860151098303010690507f30644e72e131a029b85045b68181585d2833e84879b9709143e1f593f0000001807f30644e72e131a029b85045b68181585d2833e84879b9709143e1f593f0000001613ee0860135614200860151098303010690507f30644e72e131a029b85045b68181585d2833e84879b9709143e1f593f0000001807f30644e72e131a029b85045b68181585d2833e84879b9709143e1f593f0000001613f00860135614220860151098303010690507f30644e72e131a029b85045b68181585d2833e84879b9709143e1f593f0000001807f30644e72e131a029b85045b68181585d2833e84879b9709143e1f593f0000001613f20860135614240860151098303010690507f30644e72e131a029b85045b68181585d2833e84879b9709143e1f593f0000001807f30644e72e131a029b85045b68181585d2833e84879b9709143e1f593f0000001613f40860135614260860151098303010690507f30644e72e131a029b85045b68181585d2833e84879b9709143e1f593f0000001807f30644e72e131a029b85045b68181585d2833e84879b9709143e1f593f0000001613f60860135614280860151098303010690507f30644e72e131a029b85045b68181585d2833e84879b9709143e1f593f0000001807f30644e72e131a029b85045b68181585d2833e84879b9709143e1f593f0000001613f808601356142a0860151098303010690507f30644e72e131a029b85045b68181585d2833e84879b9709143e1f593f0000001807f30644e72e131a029b85045b68181585d2833e84879b9709143e1f593f0000001613fa08601356142c0860151098303010690507f30644e72e131a029b85045b68181585d2833e84879b9709143e1f593f0000001807f30644e72e131a029b85045b68181585d2833e84879b9709143e1f593f0000001613fc08601356142e0860151098303010690507f30644e72e131a029b85045b68181585d2833e84879b9709143e1f593f0000001807f30644e72e131a029b85045b68181585d2833e84879b9709143e1f593f0000001613fe0860135614300860151098303010690507f30644e72e131a029b85045b68181585d2833e84879b9709143e1f593f0000001807f30644e72e131a029b85045b68181585d2833e84879b9709143e1f593f00000016140008601356143208601510983030106905080610180830152505050565b6101808101517f30644e72e131a029b85045b68181585d2833e84879b9709143e1f593f00000016102c0830151610320840151097f30644e72e131a029b85045b68181585d2833e84879b9709143e1f593f0000001806102a43560208601510961024435087f30644e72e131a029b85045b68181585d2833e84879b9709143e1f593f00000016040850151820890507f30644e72e131a029b85045b68181585d2833e84879b9709143e1f593f0000001806102c43560208701510961026435087f30644e72e131a029b85045b68181585d2833e84879b9709143e1f593f00000016040860151820890507f30644e72e131a029b85045b68181585d2833e84879b9709143e1f593f0000001604086015161028435087f30644e72e131a029b85045b68181585d2833e84879b9709143e1f593f0000001817f30644e72e131a029b85045b68181585d2833e84879b9709143e1f593f0000001848609097f30644e72e131a029b85045b68181585d2833e84879b9709143e1f593f00000016102e435820990507f30644e72e131a029b85045b68181585d2833e84879b9709143e1f593f00000016000880151820990507f30644e72e131a029b85045b68181585d2833e84879b9709143e1f593f000000180867f30644e72e131a029b85045b68181585d2833e84879b9709143e1f593f0000001030687087f30644e72e131a029b85045b68181585d2833e84879b9709143e1f593f000000180837f30644e72e131a029b85045b68181585d2833e84879b9709143e1f593f0000001030682089050806101a08901525050505050505050565b81518152602082015160208201525050565b818152826020820152505050565b81358152602082013560208201525050565b6040518151815260208201516020820152825160408201526020830151606082015260408260808360066107d05a03fa806202f86a576000805260206000f35b50505050565b600060405183815284602082015285604082015260408160608360076107d05a03fa9150816202f8a4576000805260206000f35b825160408201526020830151606082015260408360808360066107d05a03fa9150816202f8d5576000805260206000f35b505050505050565b600060405183815284602082015285604082015260408360608360076107d05a03fa9150816202f911576000805260206000f35b505050505050565b6202f92c8360208401518451846202f8dd565b505050565b6101c08101604082015160405161010081016040526202f9937f032259192b4fbb910bd04de1bb17fc8480f4d6ed00c5cecb354b29a6d4fc6f147f2a1d1906fe7f8d14f42691c990262a37ccd36cef2cbd8f2c588afb2a22125b98856202f80a565b6202fa0a7f30644e72e131a029b85045b68181585d2833e84879b9709143e1f593f00000016102643561024435097f25c05c2b62b70ffa61a888433e6aeb02b5f87aafeff9388616764dba698460257f2b86093ad5a02aad119874a99bbf07c4827bd156761c1b2aa6e72ddc021b9349866202f870565b6202fa5b610244357f2371d36f7826147a960370bc89fb663a25c126bb12bdfa90df71f45b88c3e8987f2ef6a44ae4b2ed7f65f2985d5c55d273268875dbb3da94ac63a1d1efad90fe8a866202f870565b6202faac610264357f2a3271d046baa1f81cb87d781574eb5ab9f589fa2437299ef7e75c7cfd946b3e7f1083b90b3449dca2eca6d8edeac759f68eea2f90485908eb872fec5574b5db31866202f870565b6202fafd610284357f0907d4cd3961728b7a57ed958a1473413e52dfd6643fd158dbbdfde3de25a35f7f26cc8f5e198b33d9a31dba72b0f51e71d6ed2cc313e460f38d5336e857c1a1ef866202f870565b60a08401517f30644e72e131a029b85045b68181585d2833e84879b9709143e1f593f0000001837f30644e72e131a029b85045b68181585d2833e84879b9709143e1f593f0000001836102443508087f30644e72e131a029b85045b68181585d2833e84879b9709143e1f593f0000001847f30644e72e131a029b85045b68181585d2833e84879b9709143e1f593f000000180600286096102643508087f30644e72e131a029b85045b68181585d2833e84879b9709143e1f593f0000001857f30644e72e131a029b85045b68181585d2833e84879b9709143e1f593f000000180600387096102843508087f30644e72e131a029b85045b68181585d2833e84879b9709143e1f593f000000160008901517f30644e72e131a029b85045b68181585d2833e84879b9709143e1f593f0000001837f30644e72e131a029b85045b68181585d2833e84879b9709143e1f593f000000186880909097f30644e72e131a029b85045b68181585d2833e84879b9709143e1f593f00000016102c08a01516103208b0151096202fc9460c460c089016202f818565b6202fcef7f30644e72e131a029b85045b68181585d2833e84879b9709143e1f593f00000016101608c01517f30644e72e131a029b85045b68181585d2833e84879b9709143e1f593f00000018486080860c08901896202f919565b7f30644e72e131a029b85045b68181585d2833e84879b9709143e1f593f0000001887f30644e72e131a029b85045b68181585d2833e84879b9709143e1f593f0000001806102a43560208f01510961024435080894507f30644e72e131a029b85045b68181585d2833e84879b9709143e1f593f0000001887f30644e72e131a029b85045b68181585d2833e84879b9709143e1f593f0000001806102c43560208f01510961026435080893507f30644e72e131a029b85045b68181585d2833e84879b9709143e1f593f00000016102e4357f30644e72e131a029b85045b68181585d2833e84879b9709143e1f593f000000160208d015160008e0151090992506202fe867f30644e72e131a029b85045b68181585d2833e84879b9709143e1f593f0000001847f30644e72e131a029b85045b68181585d2833e84879b9709143e1f593f0000001878909097f280c2353dcc96e016e4532857c6fbcd9083dd108ba3b82608889afebacafb9377f013ad80e40608bbda64d4ed1d4e64f2ad3a299c5eb09711d90d384ed74e1f75760408b016202f8dd565b6202fe97610104608089016202f818565b6202feb560808b0151602061014401356101443560808b016202f870565b7f30644e72e131a029b85045b68181585d2833e84879b9709143e1f593f000000160808b015160808c0151096202fefb81602061018401356101843560808c016202f870565b6202ff196102e08c015160a08a015160808b015160808c016202f8dd565b7f30644e72e131a029b85045b68181585d97816a916871ca8d3c208c16d87cfd47602060408a0101517f30644e72e131a029b85045b68181585d97816a916871ca8d3c208c16d87cfd470306602060408a0101527f30644e72e131a029b85045b68181585d97816a916871ca8d3c208c16d87cfd4760a08901517f30644e72e131a029b85045b68181585d97816a916871ca8d3c208c16d87cfd47030660a08901526202ffc7888b6202f82a565b6202ffd6604089018b6202f82a565b6202ffe5608089018b6202f82a565b5050505050505050505050565b6102008101620300076101c08301826202f7f8565b6203002060c0830151602060040135600435846202f870565b6203003960e0830151602060440135604435846202f870565b62030053610100830151602060840135608435846202f870565b620300a66101208301517f26dc6205c9e602ff6d98b4d022518875ac8b1b02f9591b12ae9884c7738548257f2e2d9379352a5b3b7d72800f5bedc70e32ffc3d6129898a434d082a92edd8b65846202f870565b620300f96101408301517f24288959f7620548c5c852e4286b96db9472744b506ada48ca626021143ff2bc7f1e4028fab567c3f99585867d5b57a16057814f68db279663d073f4d401792413846202f870565b5050565b7f30644e72e131a029b85045b68181585d2833e84879b9709143e1f593f00000016101a08201517f30644e72e131a029b85045b68181585d2833e84879b9709143e1f593f000000103067f30644e72e131a029b85045b68181585d2833e84879b9709143e1f593f00000018060c08401516102443509820890507f30644e72e131a029b85045b68181585d2833e84879b9709143e1f593f00000018060e08401516102643509820890507f30644e72e131a029b85045b68181585d2833e84879b9709143e1f593f0000001806101008401516102843509820890507f30644e72e131a029b85045b68181585d2833e84879b9709143e1f593f0000001806101208401516102a43509820890507f30644e72e131a029b85045b68181585d2833e84879b9709143e1f593f0000001806101408401516102c43509820890507f30644e72e131a029b85045b68181585d2833e84879b9709143e1f593f0000001806101608401516102e43509820890506203027f816002600161024086016202f8dd565b5050565b6000604051610240810160405261018081016101c082016102008301620302ad6101c4846202f818565b620302bb610204836202f818565b620302cd61016087015183866202f919565b620302d983856202f82a565b7f30644e72e131a029b85045b68181585d97816a916871ca8d3c208c16d87cfd4760208501517f30644e72e131a029b85045b68181585d97816a916871ca8d3c208c16d87cfd47030660208501527f17313f35605dfa82814e0ab5ad40e7b1c110f13dc3bf4685abf300114d3f33a560408501527f1cab35d26f1d7f4adc7a072c3adf21dea559984e6e4cc874d550af19e5352acc60608501527f0c7229b33e9b3412edf8c1f73aac7fe8ee102f9ecb5d7cb0ae84c6f2f0299f2a60808501527f2f348cadbcbf759b7e8e0acf16425f755b7b3339553617b38a335d4c12df871460a0850152620303d360608701518460c087016202f919565b7f30644e72e131a029b85045b68181585d2833e84879b9709143e1f593f00000016060870151610160880151097f30644e72e131a029b85045b68181585d2833e84879b9709143e1f593f00000017eeeb2cb5981ed45649abebde081dcff16c8601de4347e7dd1628ba2daac43b782099050620304528184846202f919565b620304618260c087016202f82a565b62030474610200880160c087016202f82a565b7f30644e72e131a029b85045b68181585d97816a916871ca8d3c208c16d87cfd476020610240018801517f30644e72e131a029b85045b68181585d97816a916871ca8d3c208c16d87cfd470306602061024001880152620304dd610240880160c087016202f82a565b7f198e9393920d483a7260bfb731fb5d25f1aa493335a9e71297e485b7aef312c26101008601527f1800deef121f1e76426a00665e5c4479674322d4f75edadd46debd5cd992f6ed6101208601527f090689d0585ff075ec9e99ad690c3395bc4b313370b38ef355acdadcd122975b6101408601527f12c85ea5db8c6deb4aab71808dcb408fe3d1e7690c43d37b4ce6cc0166fa7daa6101608601526020856101808760086107d05a03fa855181169650505050505050919050565b6040516143408101604052620305ae6200021b565b620305ba838262000271565b620305c581620022a1565b620305d183826202494a565b620305dc816202f5a6565b620305e7816202f931565b620305f2816202fff2565b620305fd81620300fd565b620306088162030283565b61434082036040528060005260206000f35b600080fd5b600080fd5b6000819050826020601802820111156203064357620306426203061f565b5b92915050565b600081905082602061020102820111156203066957620306686203061f565b5b92915050565b60008061432083850312156203068a57620306896203061a565b5b60006203069a8582860162030624565b925050610300620306ae8582860162030649565b9150509250929050565b60008115159050919050565b620306cf81620306b8565b82525050565b6000602082019050620306ec6000830184620306c4565b9291505056fea264697066735822122031e9cca73910dbe6362f443e7ac7a38792078db56cc119be09d615fabf6ec84c64736f6c63430008180033",
  "linkReferences": {},
  "deployedLinkReferences": {}
}